:020000040800F2
:100000000004002047010008E5010008E70100089E
:10001000EB010008EF010008F301000800000000F8
:10002000000000000000000000000000F7010008D0
:10003000F901000800000000FB010008FD010008B4
:1000400067010008670100086701000867010008F0
:1000500067010008670100086701000867010008E0
:1000600067010008670100086701000867010008D0
:1000700067010008670100086701000867010008C0
:1000800067010008670100086701000867010008B0
:1000900067010008670100086701000867010008A0
:1000A0006701000867010008670100086701000890
:1000B0006701000867010008670100086701000880
:1000C0006701000867010008670100086701000870
:1000D0006701000867010008670100086701000860
:1000E0006701000867010008670100086701000850
:1000F0006701000867010008670100086701000840
:10010000670100086701000867010008670100082F
:10011000670100086701000867010008670100081F
:10012000670100086701000867010008670100080F
:10013000DFF80CD000F064FC004800477F010008A5
:1001400018020020704708488047084981F3088852
:1001500007480047FEE7FEE7FEE7FEE7FEE7FEE7AB
:10016000FEE7FEE7FEE7FEE7450100081802002073
:100170003101000800E0401E0028FCD1704710B596
:1001800000F013FC00F03CF826E000BF0821134803
:1001900000F062F91248FFF7EDFF00BF08210F4899
:1001A00000F058F900BF10210C4800F055F90C4838
:1001B000FFF7E0FF00BF1021084800F04BF900BF37
:1001C0002021064800F048F90548FFF7D3FF00BF9B
:1001D0002021024800F03EF9D7E70000001001405E
:1001E000EFFF6F00704700BFFEE700BFFEE700BFF4
:1001F000FEE700BFFEE7704770477047704700009A
:1002000008B50121102000F007FB3820ADF80000F0
:1002100010208DF8030003208DF802006946044881
:1002200000F070F83821024800F014F908BD000011
:100230000010014010B50446C149601A8C422FD00D
:1002400009DCC048201810D0B0F5806F16D0B0F58A
:10025000006F4AD11BE0B0F5806F2AD0B0F5006F77
:1002600030D0B0F5406F40D135E00121042000F0DE
:10027000EDFA0021042000F0E9FA37E0012108201E
:1002800000F0E4FA0021082000F0E0FA2EE001215D
:10029000102000F0DBFA0021102000F0D7FA25E052
:1002A0000121202000F0D2FA0021202000F0CEFA17
:1002B0001CE00121402000F0C9FA0021402000F09C
:1002C000C5FA13E00121802000F0C0FA002180204F
:1002D00000F0BCFA0AE00121080200F0B7FA0021A0
:1002E0004FF4807000F0B2FA00E000BF00BF10BD14
:1002F00010B50121084600F0A9FA0021012000F004
:10030000A5FA10BDF0B50022002300240025002628
:10031000002791F803C00CF00F0291F803C01CF005
:10032000100F03D091F802C04CEA0202B1F800C0ED
:100330001CF0FF0F31D0066800242BE04FF0010CB9
:100340000CFA04F5B1F800C00CEA0503AB4220D169
:10035000A5004FF00F0C0CFA05F7BE4302FA05FC9E
:100360004CEA060691F803C0BCF1280F06D14FF005
:10037000010C0CFA04FCC0F814C00AE091F803C0A8
:10038000BCF1480F05D14FF0010C0CFA04FCC0F889
:1003900010C0641C082CD1D30660B1F800C0BCF1B9
:1003A000FF0F34DD466800242EE004F1080C4FF006
:1003B000010E0EFA0CF5B1F800C00CEA0503AB42D1
:1003C00021D1A5004FF00F0C0CFA05F7BE4302FA3D
:1003D00005FC4CEA060691F803C0BCF1280F05D1D4
:1003E00004F1080C0EFA0CFEC0F814E091F803C0FA
:1003F000BCF1480F07D104F1080C4FF0010E0EFAC2
:100400000CFEC0F810E0641C082CCED34660F0BD92
:100410004FF6FF710180022181700421C170704785
:100420000246002093680B4201D0012000E000202A
:1004300070470146886880B2704702460020D36842
:100440000B4201D0012000E0002070470146C8683F
:1004500080B2704701617047416170470AB1016124
:1004600000E041617047C16070474FF480320A4339
:100470008261816182618269826970470022324BA8
:100480001A684FF680731A4042EA00120A432E4B54
:100490001A6070472D49C8617047F0B500220023EB
:1004A00000250024284E7568C0F3034482B200F48E
:1004B0004016B6F5401F08D125F07065224E7668CB
:1004C00026F07066204F7E6012E000F48016B6F5CC
:1004D000801F06D1032606FA04F39D4345F070659C
:1004E00006E0460D360102FA06F6B54345F07065A2
:1004F00021B1460D360102FA06F63543124E7560FB
:10050000F0BD30B500228B071C0F0F2303FA04F255
:100510000D4B08338C1053F8244094438D1043F84E
:1005200025408C1053F824308C07240F00FA04F473
:100530002343054C08348D1044F8253030BD0000AD
:100540000014014000F8FEBF0000014000002042FE
:10055000DA48006840F00100D84908600846406861
:10056000D7490840D549486008460068D549084041
:10057000D24908600846006820F4802008600846D8
:10058000406820F4FE004860002088607047CB4936
:10059000096821F48031C94A11601146096821F4C3
:1005A00080211160B0F5803F03D0B0F5802F0ED1CF
:1005B00006E0C249096841F48031C04A116007E091
:1005C000BE49096841F4A021BC4A116000E000BFA7
:1005D00000BF704710B501460022002300204A11D9
:1005E000012A02D1B54C236806E0022A02D1B34C9D
:1005F000236A01E0B14C636A01F01F0201249440B8
:100600001C4201D0012000E0002010BD70B5002484
:100610000025002600BF3120FFF7DCFF0646641CE2
:1006200016B9B4F5A06FF6D13120FFF7D3FF08B1AA
:10063000012500E00025284670BD00219F4A116871
:1006400021F0F80141EAC001116070479E4908603D
:1006500070470022994B5A6822F47C1240EA010349
:100660001A43964B5A6070479749086670470021B5
:10067000924A516821F003010143516070478F484D
:10068000406800F00C00704700218C4A516821F04E
:10069000F0010143516070470021884A516821F4FC
:1006A000E0610143516070470021844A516821F4A0
:1006B000605141EAC0015160704729B17F4A527AC6
:1006C00002437E4B5A7206E07C4A527AC343DBB245
:1006D0001A407A4B5A7270477B49D831086070478C
:1006E0000021764A516821F440410143516070472E
:1006F0000021724A20321170704A82F820100128BD
:1007000002D004280AD104E001216C4A2032117081
:1007100005E00521694A2032117000E000BF00BFEA
:1007200070476A49086070476449096A0143634A2F
:1007300011627047654944390860704730B500213F
:100740000022002300245D4D6D6805F00C0121B1ED
:10075000042905D0082923D105E05D4D056022E07C
:100760005B4D05601FE0554D6D6805F47012022564
:1007700005EB9242514D6D6805F480331BB9554D20
:10078000554305600BE04D4D6D6815F4003F03D0F7
:10079000504D5543056002E04D4D5543056002E064
:1007A0004B4D056000BF00BF444D6D6805F0F00182
:1007B0000909494D6C5C0568E54045603F4D6D6831
:1007C00005F4E061090A444D6C5C4568E5408560CC
:1007D0003A4D6D6805F46051C90A3F4D6C5C45683F
:1007E000E540C560354D6D6805F44041890B3A4DD3
:1007F00010356C5CC568B5FBF4F5056130BD29B1F9
:100800002E4A526902432D4B5A6104E02B4A526929
:1008100082432A4B5A61704729B1284A92690243A0
:10082000264B9A6104E0254A92698243234B9A61E0
:10083000704729B1214AD2690243204BDA6104E0B2
:100840001E4AD26982431D4BDA61704729B11B4AA7
:10085000D2680243194BDA6004E0184AD268824336
:10086000164BDA60704729B1144A12690243134BE0
:100870001A6104E0114A12698243104B1A617047F1
:1008800012494039086070470F49C86470470B49E6
:10089000C87170470948406A40F080700749486253
:1008A000704701460020054A92680A4201D00120A3
:1008B00000E0002070470149887270470010024034
:1008C0000000FFF8FFFFF6FE0000424280044242B3
:1008D00000127A0000093D000000002000200021E5
:1008E000434A126842F48032414B1A6000BF404ACA
:1008F000126802F40031401C11B9B0F5A06FF6D1B6
:100900003B4A126812F4003F01D0012100E00021AF
:10091000012943D1374A126842F01002354B1A6060
:100920001A46126822F003021A601A46126842F050
:1009300002021A602E4A52682D4B5A601A465268BB
:100940005A601A46526842F480625A601A465268E7
:1009500022F47C125A601A46526842F4E8125A6035
:100960001A46126842F080721A6000BF204A12686C
:1009700012F0007FFAD01E4A526822F003021C4B8C
:100980005A601A46526842F002025A6000BF184A82
:10099000526802F00C02082AF9D101E000BFFEE71C
:1009A000704710B5FFF79AFF10BD10B510480068EA
:1009B00040F001000E490860084640680E490840B2
:1009C0000B494860084600680C490840084908601F
:1009D0000846006820F4802008600846406820F43B
:1009E000FE00486000208860FFF7DBFF10BD0000BC
:1009F00000100240002002400000FFF8FFFFF6FE5A
:100A0000064C074D06E0E06840F0010394E807005B
:100A100098471034AC42F6D3FFF78EFB440A000827
:100A2000640A000802E008C8121F08C1002AFAD1AF
:100A300070477047002001E001C1121F002AFBD15E
:100A400070470000640A0008000000201400000045
:100A5000240A0008780A000814000020040200009C
:100A6000340A00080000000001020304010203042C
:080A700006070809020406084C
:0400000508000147A7
:00000001FF
