:020000040800F2
:10000000280F002039020008C1020008C3020008BE
:10001000270300088B030008EF030008000000001E
:100020000000000000000000000000005304000871
:100030005504000800000000570400085904000897
:10004000530200085302000853020008530200083C
:1000500053020008530200089D02000853020008E2
:100060005B04000853020008530200085302000812
:10007000530200085302000853020008530200080C
:1000800053020008530200085302000853020008FC
:1000900079020008530200085302000853020008C6
:1000A00053020008530200085302000853020008DC
:1000B00053020008530200085302000853020008CC
:1000C00053020008530200085302000853020008BC
:1000D00053020008E32400085302000853020008FA
:1000E000530200085302000891020008530200085E
:1000F000530200085302000853020008530200088C
:10010000530200085302000853020008530200087B
:10011000530200085302000853020008530200086B
:10012000530200085302000853020008530200085B
:1001300000F002F800F05FF80AA090E8000C82449A
:100140008344AAF10107DA4501D100F054F8AFF277
:10015000090EBAE80F0013F0010F18BFFB1A43F0A5
:100160000103184780760000A07600000A444FF093
:10017000000C10F8013B13F0070408BF10F8014B06
:100180001D1108BF10F8015B641E05D010F8016B4B
:10019000641E01F8016BF9D113F0080F1EBF10F8AF
:1001A000014BAD1C0C1B09D16D1E58BF01F801CBD2
:1001B000FAD505E014F8016B01F8016B6D1EF9D555
:1001C0009142D6D37047000000230024002500266A
:1001D000103A28BF78C1FBD8520728BF30C148BFAA
:1001E0000B607047782906F04380002070471FB5E8
:1001F0001FBD10B510BD06F09BF91146FFF7F7FFC4
:1002000002F0A2FA06F0B9F903B4FFF7F2FF03BC5B
:1002100002F004F9EFF30980704780F30988704712
:10022000EFF30880704780F30888704740BA704742
:10023000C0BA704730BF00000948804709480047EE
:10024000FEE7FEE7FEE7FEE7FEE7FEE7FEE7FEE786
:10025000FEE7FEE704480549054A064B70470000E3
:10026000B90600083101000828090020280F0020E5
:10027000280B0020280B002010B540218A4800F0F0
:1002800016FC8021884800F010FC05F01DFA10BD16
:1002900010B54FF4802000F032FF10BD10B50120E2
:1002A00000F01CFF58B181480068407A10F0200F20
:1002B00002D0012005F0F1FE012000F020FF10BD6A
:1002C00070471CB54FF6FF7002F0F0FE78A005F005
:1002D00085FF27E04FF6FF704FF4784110237BA293
:1002E000CDE9001040F22F11002003F036FC7D48CC
:1002F00001F0DFFE4FF6FF704FF4784110237AA231
:10030000CDE9001040F22F11002003F026FC7548C3
:1003100001F0CFFE7A48006808B9012000E0002013
:1003200077490860D6E71CB54FF6FF7002F0BEFEB5
:1003300074A005F053FF27E04FF6FF704FF47841AB
:10034000102377A2CDE9001040F22F11002003F016
:1003500004FC644801F0ADFE4FF6FF704FF47841A5
:10036000102361A2CDE9001040F22F11002003F00C
:10037000F4FB5C4801F09DFE6148006808B901206B
:1003800000E000205E490860D6E71CB54FF6FF701C
:1003900002F08CFE68A005F021FF27E04FF6FF7009
:1003A0004FF4784110236BA2CDE9001040F22F11D9
:1003B000002003F0D2FB4B4801F07BFE4FF6FF70AC
:1003C0004FF47841102369A2CDE9001040F22F11BB
:1003D000002003F0C2FB434801F06BFE4848006870
:1003E00008B9012000E0002045490860D6E71CB5A7
:1003F0004FF6FF7002F05AFE62A005F0EFFE27E014
:100400004FF6FF704FF47841102366A2CDE900103B
:1004100040F22F11002003F0A0FB324801F049FE0A
:100420004FF6FF704FF47841102365A2CDE900101C
:1004300040F22F11002003F090FB2A4801F039FE12
:100440002F48006808B9012000E000202C4908600E
:10045000D6E7704770477047704710B5042000F02A
:100460003DFEE0B1042000F04AFE04210E4800F0F9
:1004700002FB50B94FF480710B4800F018FB4FF4A9
:100480000071094800F011FB09E04FF48071064843
:1004900000F00BFB4FF40071034800F008FB042050
:1004A00000F02DFE10BD0000000C014054000020A3
:1004B0000D0A486172644661756C745F48616E64D0
:1004C0006C6572204552524F520D0A0048617264A9
:1004D0004661756C745F48616E646C65722045524C
:1004E000524F5200400D03002020202020202020C9
:1004F000202020202020202020202020202020001C
:10050000980123420D0A4D656D4D616E6167655F0F
:1005100048616E646C6572204552524F520D0A005C
:100520004D656D4D616E6167655F48616E646C65B8
:1005300072204552524F52000D0A42757346617542
:100540006C745F48616E646C6572204552524F5204
:100550000D0A00004275734661756C745F48616EE8
:10056000646C6572204552524F52000020202020BA
:10057000202020202020202020202020202020207B
:10058000202000000D0A55736167654661756C7423
:100590005F48616E646C6572204552524F520D0A7D
:1005A0000000000055736167654661756C745F48B3
:1005B000616E646C6572204552524F52000000001B
:1005C000202020202020202020202020202020202B
:1005D0002020202020202020000000000CB500203A
:1005E000019000906B48006840F4803069490860D1
:1005F00000BF6848006800F4003000900198401C7B
:100600000190009818B90198B0F5A06FF1D1614838
:10061000006810F4003F02D00120009001E00020AB
:1006200000900098012842D15B48006840F010001B
:10063000594908600846006820F003000860084631
:10064000006840F002000860524840685149486024
:100650000846406848600846406840F4806048604A
:100660000846406820F4781048600846406840F426
:10067000E81048600846006840F08070086000BFDD
:100680004448006810F0007FFAD04248406820F0EB
:100690000300404948600846406840F00200486056
:1006A00000BF3C48406800F00C000828F9D10CBDA0
:1006B00010B5FFF793FF10BD10B53648006840F045
:1006C000010034490860084640683449084031490F
:1006D000486008460068324908402E4908600846CC
:1006E000006820F4802008600846406820F4FE007E
:1006F00048604FF41F008860FFF7DAFF4FF000609A
:100700002849086010BD10B5002100200022214BAF
:100710005B6803F00C0121B1042906D0082927D118
:1007200007E0214B214C236026E01F4B1F4C236028
:1007300022E0184B5B6803F47010164B5B680022D4
:10074000022303EB904022B9194B4343174C23601B
:100750000DE0104B5B6813F4003F04D0144B43438F
:10076000124C236003E0104B4343104C236003E022
:100770000D4B0E4C236000BF00BF064B5B68C3F3FC
:1007800003130C4CE15C094B1B68CB40074C236006
:1007900010BD000000100240002002400000FFF8E1
:1007A000FFFFF6FE08ED00E000127A0000000020D6
:1007B00000093D000400002031490143314A116025
:1007C000704770B5002100230F22C4780CB32D4C64
:1007D000246804F4E064C4F5E064210AC1F1040370
:1007E000CA40447804FA03F1847814402143090193
:1007F000254C0678A155047804F01F050124AC406F
:1008000005786D114FF0E02606EB8505C5F800412F
:1008100009E0047804F01F050124AC401B4D067864
:10082000761145F8264070BD194A0A400243154B1F
:100830001B1F1A60704739B1124A121D1268024319
:10084000104B1B1D1A6006E00E4A121D12688243EF
:100850000C4B1B1D1A607047042808D14FF0E02193
:10086000096941F004014FF0E022116107E04FF007
:10087000E021096921F004014FF0E0221161704785
:100880000000FA050CED00E000E400E080E100E08B
:1008900080FFFF1F10B50446CA48844208D10121D9
:1008A000042001F097F80021042001F093F846E0BD
:1008B000C548844208D10121082001F08BF80021AD
:1008C000082001F087F83AE0C048844208D10121AD
:1008D000102001F07FF80021102001F07BF82EE0BD
:1008E000BB48844208D10121202001F073F8002187
:1008F000202001F06FF822E0B648844208D101219F
:10090000402001F067F80021402001F063F816E074
:10091000B148844208D10121802001F05BF8002118
:10092000802001F057F80AE0AC48844207D1012149
:10093000801501F04FF80021A01501F04BF810BD13
:1009400010B50121084601F045F80021012001F011
:1009500041F810BD2DE9F041024600250026002097
:1009600000230024002791F803C00CF00F0591F834
:1009700003C01CF0100F03D091F802C04CEA05052B
:1009800091F800C0BCF1000F31D0146800202BE0BA
:100990004FF0010C0CFA00F3B1F800C00CEA0306AA
:1009A0009E4220D183004FF00F0C0CFA03F7BC439A
:1009B00005FA03FC4CEA040491F803C0BCF1280FCB
:1009C00006D14FF0010C0CFA00FCC2F814C00AE08A
:1009D00091F803C0BCF1480F05D14FF0010C0CFA9F
:1009E00000FCC2F810C0401C0828D1D31460B1F834
:1009F00000C0BCF1FF0F34DD546800202EE000F190
:100A0000080C4FF0010808FA0CF3B1F800C00CEA2A
:100A100003069E4221D183004FF00F0C0CFA03F71E
:100A2000BC4305FA03FC4CEA040491F803C0BCF192
:100A3000280F05D100F1080C08FA0CF8C2F8148050
:100A400091F803C0BCF1480F07D100F1080C4FF03A
:100A5000010808FA0CF8C2F81080401C0828CED310
:100A60005460BDE8F0814FF6FF7101800221817072
:100A70000421C17070470246002093680B4201D0E8
:100A8000012000E0002070470146886880B270476E
:100A900002460020D3680B4201D0012000E0002074
:100AA00070470146C86880B2704701617047416174
:100AB00070470AB1016100E041617047C160704751
:100AC0004FF480320A438261816182618269826966
:100AD000704702460020424B18684FF6807318405A
:100AE00040EA021008433E4B186070473D49C86118
:100AF0007047F0B50A46002300240021002500F0CD
:100B00000046B6F1004F02D1354EF16901E0344E96
:100B10007168C0F3034583B200F44016B6F5401F78
:100B200008D121F070612E4E766826F070662C4F49
:100B30007E6012E000F48016B6F5801F06D1032611
:100B400006FA05F4A14341F0706106E0460D360156
:100B500003FA06F6B14341F0706122B1460D360149
:100B600003FA06F6314300F00046B6F1004F02D119
:100B70001B4EF16101E01A4E7160F0BD30B50022EC
:100B80008B071C0F0F2303FA04F2154B08338C104C
:100B900053F824309343124C08348D1044F8253018
:100BA00023468C1053F824308C07240F00FA04F4E9
:100BB00023430B4C08348D1044F8253030BD0A49CE
:100BC0000860704700080140000C0140001001401F
:100BD0000014014000180140001C014000200140A9
:100BE0000000014000002042DC00204210B5044615
:100BF000FB48844209D10121880300F0EBFE00216B
:100C00004FF4804000F0E6FE32E0F648844209D11D
:100C10000121480400F0EBFE00214FF4003000F009
:100C2000E6FE25E0F048844209D10121880400F065
:100C3000DEFE00214FF4802000F0D9FE18E0EB48E2
:100C4000844209D10121C80400F0D1FE00214FF4F3
:100C5000002000F0CCFE0BE0E548844208D10121E1
:100C6000080500F0C4FE00214FF4801000F0BFFE24
:100C700010BD2DE9F04786B005460E460024A24679
:100C800000BFA1460027B08900B100BF2F462C8AC3
:100C90004CF6FF700440F08804432C82AC894EF679
:100CA000F3100440B0883189084371890843044334
:100CB000AC81AC8A4FF6FF400440B0890443AC825B
:100CC00001A800F000FEC648874202D1DDF810A05E
:100CD00001E0DDF80CA0A88910F4004F08D00AEB61
:100CE000CA0000EB0A1031684900B0FBF1F807E0D8
:100CF0000AEBCA0000EB0A1031688900B0FBF1F87A
:100D00006420B8FBF0F004012009642101FB108984
:100D1000A88910F4004F08D0322000EBC900B0FBC6
:100D2000F1F000F00700044308E0322000EB091066
:100D30006421B0FBF1F000F00F0004432C8106B0F9
:100D4000BDE8F0874FF41651016000218180C18019
:100D500001810C21418100218181704710B502463B
:100D60000020108A4FF2FF0318400B884C88234361
:100D70008C882343CC8823431843108210BD002164
:100D8000018041808180C180704721B1828942F415
:100D90000052828104E082894DF6FF731A408281FD
:100DA0007047F0B503460024002600250020A1F579
:100DB00010676A3F00D100BF1846C1F3421401F02A
:100DC0001F06012707FA06F5012C01D10C3004E0BB
:100DD000022C01D1103000E014301AB107682F4303
:100DE000076002E00768AF430760F0BD1AB1838A6D
:100DF0000B43838202E0838A8B4383827047028A9B
:100E00004FF6F0731A400282028A0A430282704748
:100E100082894FF2FF731A40828182890A4382815C
:100E2000704721B1828942F00202828104E0828906
:100E30004FF6FD731A4082817047028A4FF6DF73C6
:100E40001A400282028A0A430282704721B1028A52
:100E500042F48042028204E0028A4BF6FF731A4099
:100E600002827047C1F30802828070470146888879
:100E7000C0F308007047818941F00101818170470A
:100E8000028BD2B20283028B42EA012202837047B4
:100E9000028B02F47F420283028B0A430283704773
:100EA00021B1828A42F02002828204E0828A4FF6D7
:100EB000DF731A408282704721B1828A42F01002A9
:100EC000828204E0828A4FF6EF731A408282704772
:100ED00021B1828A42F00802828204E0828A4FF6BF
:100EE000F7731A408282704721B1828942F400422E
:100EF000828103E08289C2F30E028281704721B1B0
:100F0000828A42F40062828204E0828A4FF2FF7396
:100F10001A4082827047828A4FF6FB731A4082829F
:100F2000828A0A438282704721B1828A42F0020299
:100F3000828204E0828A4FF6FD731A4082827047F3
:100F400002460020B1F5007F00D100BF13880B429C
:100F500001D0012000E00020704701F40072B2F5DA
:100F6000007F00D100BFCA430280704770B50246BF
:100F70000024002300250020A1F510666A3E00D160
:100F800000BFC1F3421501F01F03012606FA03F367
:100F9000012D02D19689334006E0022D02D1168A36
:100FA000334001E0968A33400C12012606FA04F41D
:100FB0001688344013B10CB1012000E0002070BD50
:100FC00010B500220023A1F510646A3C00D100BFD7
:100FD0000A1201249440A3B2DC43048010BD000037
:100FE000003801400044004000480040004C0040F0
:100FF00000500040002044490860091D0860091D98
:101000000860091D086041483F4914310860704775
:1010100000213D498279002A3AD00A4612680368C5
:101020009A430B461A600A1D126803689A430B1D07
:101030001A60027911440A6803681A430A60324A46
:101040000832126803689A432F4B08331A601A1D3E
:10105000126803689A432C4B0C331A604279102AA9
:101060000ED11A1F126803681A43274B08331A60FF
:101070001A1D126803681A43234B0C331A600DE0E3
:101080002149427911440A6803681A430A6005E05D
:10109000027911440A6803689A430A607047002184
:1010A000016001710C214171002181717047164965
:1010B000103109680143144A10321160704701462B
:1010C0000020114A143212680A4201D0012000E0C7
:1010D000002070470C491431086070470146002019
:1010E0000022094B1B6803EA0102074B14331B68FB
:1010F0000B4202D00AB1012000E0002070470249F3
:10110000143108607047000000040140FFFF0F0029
:1011100001460020FE4A106800F0380008431060C5
:101120007047FB49096821F00801F94A116011462E
:101130000968014311607047F549096821F0100101
:10114000F34A116011460968014311607047F14884
:10115000EF494860F04848607047EE48EC49486005
:10116000ED4848607047EA48006940F08000E8496F
:1011700008617047E648006940F08000E449086172
:1011800070470420E249C96811F0010F01D0012025
:101190000EE0DF49C96811F0040F01D0022007E01A
:1011A000DB49C96811F0100F01D0032000E00420D2
:1011B000704700B502460423FFF7E3FF034603E050
:1011C000FFF7DFFF0346521E012B01D1002AF7D1A2
:1011D00002B90523184600BD30B5044604254FF476
:1011E0003020FFF7E6FF0546042D17D1C8480069F7
:1011F00040F00200C649086108464461006940F0B9
:10120000400008614FF43020FFF7D3FF0546C04887
:10121000006941F6FD710840BD490861284630BDAE
:1012200010B504244FF43020FFF7C3FF0446042C0C
:1012300016D1B748006940F00400B5490861084676
:10124000006940F0400008614FF43020FFF7B1FF23
:101250000446AF48006941F6FB710840AC4908619B
:10126000204610BD00B502460423FFF78AFF03465F
:1012700003E0FFF786FF0346521E012B01D1002A2F
:10128000F7D102B90523184600BD10B504244FF468
:101290003020FFF7E7FF0446042C16D19C48006974
:1012A00040F004009A4908610846006940F0400097
:1012B00008614FF43020FFF7D5FF044694480069D9
:1012C00041F6FB71084092490861204610BD00209C
:1012D0008F49C96911F0020F01D0012000E0002000
:1012E000704730B5A5250424FFF7F1FF00B10025B4
:1012F0004FF43020FFF75DFF0446042C3AD18548B7
:1013000083498860844888600846006940F020006E
:1013100008610846006940F0400008614FF4302041
:10132000FFF747FF0446042C1BD17948006941F6BA
:10133000DF710840764908610846006940F01000F6
:10134000086176480580E002FFF733FF0446052C6C
:1013500010D06F48006941F6EF7108406C49086190
:1013600008E0052C06D06A48006941F6EF71084094
:1013700067490861204630BD78B506460C4604250D
:1013800000200090E802FFF714FF0546042D24D149
:101390005F48006940F001005D4908613480E8025F
:1013A000FFF707FF0546042D10D1B01C0090200C5C
:1013B00000990880E802FFF7FCFE054654480069E2
:1013C00041F6FE7108405249086106E05048006944
:1013D00041F6FE7108404E490861284678BD70B557
:1013E00004460D460426F002FFF7E3FE0646042EEF
:1013F00011D14748006940F0010045490861258046
:10140000F002FFF7D6FE06464148006941F6FE713C
:1014100008403F490861304670BD70B505460E462C
:101420000424E002FFF7C5FE0446042C17D1394816
:1014300037498860384888600846006940F01000E5
:1014400008612E80E002FFF7B4FE0446052C06D0AA
:101450002F48006941F6EF7108402D490861204688
:1014600070BD2DE9F04304464FF6FF763746B0468F
:10147000B1460425E443E6B2C4F30727C4F30748A2
:101480004FEA1469E802FFF794FE0546042D49D19E
:1014900020481F498860204888600846006940F05D
:1014A00010000861FF2E06D01C4808300680E802B4
:1014B000FFF77FFE0546042D08D1FF2F06D0174801
:1014C0000A300780E802FFF774FE0546042D0AD1B2
:1014D000B8F1FF0F07D011480C30A0F80080E802E7
:1014E000FFF767FE0546042D0AD1B9F1FF0F07D0BB
:1014F0000A480E30A0F80090E802FFF75AFE0546B1
:10150000052D0FD00248006941F6EF71084007E051
:101510000020024023016745AB89EFCD00F8FF1F93
:10152000664908612846BDE8F08330B505460424C5
:101530004FF43020FFF73DFE0446042C41D16048B3
:101540005E4988605F4888600846006940F0200076
:1015500008610846006940F0400008614FF43020FF
:10156000FFF727FE0446042C22D15448006941F6B7
:10157000DF710840514908610846006940F01000D9
:1015800008611DB100205049088002E0A5204E49A5
:1015900008804FF43020FFF70CFE0446052C10D0D5
:1015A0004648006941F6EF7108404449086108E087
:1015B000052C06D04148006941F6DF7108403F49DB
:1015C0000861204630BDF0B505460E461746042496
:1015D0003B483A4988603B488860E002FFF7E9FDF4
:1015E0000446042C19D13548006940F010003349F5
:1015F000086147F0F800304328433349891C0880CC
:10160000E002FFF7D6FD0446052C06D02B48006902
:1016100041F6EF710840294908612046F0BD27488E
:10162000C069800870472548006A70470020234938
:10163000096811F0200F01D0012000E00020704760
:1016400029B11E4A126902431C4B1A6104E01B4A6D
:1016500012698243194B1A61704701460020012923
:1016600008D1164AD26912F0010F01D0012008E01A
:10167000002006E0114AD2680A4201D0012000E0B1
:10168000002070470D49C860704704200B49C968A5
:1016900011F0010F01D001200EE00849C96811F0D6
:1016A000040F01D0022007E00449C96811F0100FAF
:1016B00001D0032000E00420704700000020024019
:1016C00023016745AB89EFCD00F8FF1FDD480068B7
:1016D00040F00100DB49086008464068DA490840EC
:1016E000D849486008460068D8490840D54908608C
:1016F0000846006820F4802008600846406820F40E
:10170000FE0048604FF41F0088607047CD490968AB
:1017100021F48031CB4A11601146096821F48021FF
:101720001160B0F5803F03D0B0F5802F0ED106E0F8
:10173000C449096841F48031C24A116007E0C149D7
:10174000096841F4A021BF4A116000E000BF00BF5A
:10175000704710B501460022002300204A11012ADB
:1017600002D1B84C236806E0022A02D1B54C236AA4
:1017700001E0B44C636A01F01F02012494401C4252
:1017800001D0012000E0002010BD38B500200090FD
:101790000024002500BF3120FFF7DBFF054600983D
:1017A000401C00900098B0F5A06F01D0002DF2D041
:1017B0003120FFF7CEFF08B1012400E000242046CD
:1017C00038BD014600209F4A106820F0F80040EA2A
:1017D000C100106070479E490860704702460020B3
:1017E000984B586820F47C1042EA01031843954B4B
:1017F0005860704796490866704701460020914A34
:10180000506820F003000843506070478D484068DE
:1018100000F00C007047014600208A4A506820F012
:10182000F00008435060704701460020854A506828
:1018300020F4E06008435060704701460020814A70
:10184000506820F4605040EAC1005060704729B1F0
:101850007C4A527A02437B4B5A7204E0794A527AAC
:101860008243784B5A7270477A4908607047014644
:101870000020744A506820F440400843506070478C
:101880000021754A11706F4A82F82010012802D099
:10189000042808D103E001216F4A117004E00521FA
:1018A0006D4A117000E000BF00BF70476B490860CF
:1018B00070476449096A0143624A11627047674987
:1018C00044390860704730B500210022002400230D
:1018D0005C4D6D6805F00C0121B1042905D0082983
:1018E00023D105E05E4D056022E05D4D05601FE0FF
:1018F000544D6D6805F47012524D6D6805F48034D6
:10190000022505EB92421CB9564D554305600BE08C
:101910004C4D6D6815F4003F03D0524D55430560A2
:1019200002E04F4D5543056002E04D4D056000BF9C
:1019300000BF444D6D6805F0F00109094A4D6B5C2C
:101940000568DD4045603F4D6D6805F4E061090ABA
:10195000454D6B5C4568DD4085603A4D6D6805F42A
:101960006051C90A404D6B5C4568DD40C560354D2E
:101970006D6805F44041890B3C4D6B5CC568B5FB57
:10198000F3F5056130BD29B12E4A526902432D4B52
:101990005A6104E02B4A526982432A4B5A617047CC
:1019A00029B1284A92690243264B9A6104E0254AEC
:1019B00092698243234B9A61704729B1214AD269C7
:1019C0000243204BDA6104E01E4AD26982431D4B78
:1019D000DA61704729B11B4AD2680243194BDA60B9
:1019E00004E0184AD2688243164BDA60704729B186
:1019F000144A12690243134B1A6104E0114A126936
:101A00008243104B1A61704714494039086070478F
:101A10000F49C86470470B49C87170470948406A4C
:101A200040F0807007494862704701460020054A2F
:101A300092680A4201D0012000E00020704701496D
:101A400088727047001002400000FFF8FFFFF6FEAA
:101A500000004242D800424220100240800442422C
:101A600000127A0000093D0014000020240000202C
:101A700030B943F2DB014FF0204242F8201005E07C
:101A800043F2D2014FF0204242F820106FF0704232
:101A9000411C4FF0204343F8212011461A4602EB27
:101AA0008002C2F80411704710280AD118214FF0A3
:101AB00020421166402151664FF0FC319166D1669B
:101AC00010E01821F84A11604FF040014FF0204219
:101AD000C2F884104FF0FC31F44A11604FF02042FC
:101AE000C2F88C1070471820F14908604FF00000D0
:101AF0004FF02041C1F8A4004FF0FC30ED490860E0
:101B000001F10401086001F1040108607047D0E9A7
:101B100001121143C2681143026911434269114322
:101B200082691143C2691143026A1143426A114337
:101B3000826A1143C26A1143026B11434FF0204382
:101B4000026843F822108168082908D11A46016802
:101B500052F8211041F04001026843F82210416B15
:101B60000968426B526841EA0211426B926841EA8D
:101B70000221426B928941EA0241426B128A41EA98
:101B80000251426B127D41EA0261426B926911433C
:101B90000268521C4FF0204343F82210C16AB1F58D
:101BA000804F1AD1816B0968826B526841EA021139
:101BB000826B926841EA0221826B128A41EA0251E9
:101BC000826B127D41EA0261826B92691143026865
:101BD00003EB8202C2F8041108E06FF070414FF08D
:101BE0002043026803EB8202C2F80411704730B54B
:101BF000002100220023446844F0080485682C4337
:101C0000C5682C4305692C43456944EA4524856928
:101C100044EA4531C4692468C5696D6844EA05240D
:101C2000C5692D8944EA0544C5692D7B44EA0562EE
:101C3000046A2468056A6D6844EA0524056A2D89EA
:101C400044EA0544056A2D7B44EA05630468102CC8
:101C500005D14FF020442166A266E36607E0924C6E
:101C600021604FF02044C4F88820934C236030BD9D
:101C7000016841F01001426841EA4221826841EA6C
:101C800042318B4A1160C1680968C268526841EAF2
:101C90000221C268128941EA0241C268127B41EA0C
:101CA0000261844A1160016909680269526841EA67
:101CB00002210269128941EA02410269127B41EA6A
:101CC00002617E4A1160416909684269526841EACD
:101CD00002214269128941EA02414269127B41EACA
:101CE00002614FF02042C2F8B0107047002101603D
:101CF0000221416000218160C16001614161816117
:101D0000C16101624FF4805141624900816200214A
:101D1000C16201630F21426B1160426B5160FF2170
:101D2000426B91600F21426BD160426B1161426B3B
:101D300051610021426B91610F21826B1160826BB6
:101D40005160FF21826B91600F21826BD160826BA9
:101D50001161826B51610021826B9161704710218A
:101D60000160002141608160C16001614161816168
:101D7000FC21C2691160C2695160C2699160C26987
:101D8000D160026A1160026A5160026A9160026A5F
:101D9000D16070470021016041608160FC21C26810
:101DA0001160C2685160C2689160C268D160026906
:101DB000116002695160026991600269D1604269F3
:101DC000116042695160426991604269D160704717
:101DD00051B14FF0204252F8202042F001024FF062
:101DE000204343F8202009E04FF0204252F8202001
:101DF000334B1A404FF0204343F82020704799B1ED
:101E0000102808D14FF02042126E42F004024FF029
:101E100020431A661DE0244A126842F004024FF083
:101E20002043C3F8802014E0102809D14FF020424D
:101E3000126E234BDB1E1A404FF020431A6608E057
:101E4000194A12681F4B02EA03024FF02043C3F8FD
:101E50008020704740B11649096841F004014FF0F5
:101E60002042C2F8A01008E011490968154A01EAA9
:101E700002014FF02042C2F8A010704799B110281B
:101E800008D14FF02042126E42F040024FF0204342
:101E90001A662DE0044A126842F040024FF02043D7
:101EA000C3F8802024E00FE0800000A0880000A09C
:101EB000A00000A0A80000A08C0000A0AC0000A022
:101EC000FEFF0F00FBFF0F00102808D14FF020424B
:101ED000126E684B1A404FF020431A6608E0664ABB
:101EE0001268644B02EA03024FF02043C3F88020DB
:101EF000704701460020102903D14FF02042506F57
:101F000001E05E4A1068704710B5F2B1102807D1A1
:101F10004FF020435B6E0B434FF02044636632E08A
:101F2000B0F5807F08D1564B1B6843EA01034FF0A0
:101F30002044C4F8843026E0524B1B6843EA010376
:101F40004FF02044C4F8A4301DE0102807D14FF012
:101F500020435B6E8B434FF02044636613E0B0F583
:101F6000807F08D1464B1B6823EA01034FF02044D1
:101F7000C4F8843007E0434B1B6823EA01034FF0A9
:101F80002044C4F8A43010BD10B502460020002340
:101F9000102A03D14FF02044636E07E0B2F5807F32
:101FA00002D1374C236801E0364C23680B4201D044
:101FB000012000E0002010BD102807D14FF0204282
:101FC000526E8A434FF020435A6613E0B0F5807F8B
:101FD00008D12B4A126822EA01024FF02043C3F8CD
:101FE000842007E0274A126822EA01024FF02043CA
:101FF000C3F8A420704770B50246002000230024D7
:102000000025102A03D14FF02046736E07E0B2F589
:10201000807F02D11A4E336801E01A4E336803EA1A
:10202000010403EAD10514B10DB1012000E0002044
:1020300070BD102808D14FF02042526E22EAD10222
:102040004FF020435A6613E0B0F5807F08D10C4A68
:10205000126822EAD1024FF02043C3F8842007E03F
:10206000084A126822EAD1024FF02043C3F8A420A4
:1020700070470000BFFF0F00800000A0940000A088
:10208000840000A0A40000A04FF47A7141434FF4F3
:102090007A7251430C4A11600C49096841F0807111
:1020A0000A4A11600A49096841F00101084A1160B1
:1020B0007047002105E0002200E0521C012AFCDBF1
:1020C000491C8142F7D3704728000020FCED00E056
:1020D000001000E02DE9F84307460C4615461E4661
:1020E000DDF8208001213846FFF75AFCADF800509A
:1020F0008DF802608DF8038069462046FEF72AFCC1
:10210000BDE8F883B84A11880A131303C1F3032208
:1021100003EB0223C1F3031203EB021201F00F03DE
:102120001A4491B24D2202704322427055228270AD
:102130004322C27061220271702242713A2282717E
:102140004FF47A7291FBF2F232B14FF47A7291FB52
:10215000F2F23032C27101E02022C2714FF47A7281
:1021600091FBF2F302FB1312642392FBF3F2303281
:102170000272642291FBF2F302FB13120A2392FB18
:10218000F3F2303242720A2291FBF2F302FB131295
:10219000303282724B22C27262220273704770B573
:1021A0000446924805682A4691A1204604F022F888
:1021B00070BD924A0A4002438C4B08331A60704744
:1021C00010B504462046FEF7F7FA10BDF8B50446F0
:1021D0000D4617461E463046FFF7F2FF8DF8007099
:1021E0008DF801408DF8025001208DF803006846FB
:1021F000FEF7E7FAF8BD00B5002081490861C86024
:102200001420486100208861C8610846006840F0D9
:1022100001000860084640687A49084078494860EB
:102220000846006878490840754908600846006813
:1022300020F4802008600846406820F4FE004860D2
:102240000020886000214FF00060FFF7B2FF00BD62
:1022500010B566481030006840F004006349103142
:1022600008606748C06940F080506549C8616748A8
:10227000406840F48070654948600846006840F056
:10228000040008600846006840F002000860FDF79E
:10229000D1FF10BD5E4855490C3108607047584960
:1022A000896941F00101564A91615A49496821F012
:1022B000E061584A51601146496841EA0061516045
:1022C000704730B504460025FFF795FF4C4800687D
:1022D00040F480304A49086000BF49480068400C1B
:1022E000FBD04FF4806046494860A01EC4B2084647
:1022F000406840EA844048600846406840F48030C6
:1023000048604548006840F03200434908603C4856
:10231000006840F080703A49086000BF38480068A3
:10232000400EFBD03648406840F002003449486017
:1023300005E033484068C0F3870505F00305022D2A
:10234000F7D130BD01460A2091FBF0F200FB1210DC
:102350000A2291FBF2F240EA0210C0B27047014635
:1023600001F00F000A1102EB820200EB4200C0B242
:10237000704701464FF47A7091FBF0F000034FF480
:102380007A7291FBF2F302FB1312642392FBF3F2D5
:1023900040EA02201A4691FBF2F302FB13120A23D1
:1023A00092FBF3F240EA02101A4691FBF2F302FBB1
:1023B0001312104380B27047014608134FF47A722B
:1023C0005043C1F3032202EBC20303EB021200EB02
:1023D0008200C1F3031202EB820200EB420001F023
:1023E0000F02104480B27047E0F7FF1F00ED00E0DD
:1023F0004350552049443A253038580080FFFF1F8C
:10240000001002400000FFF8FFFFF6FE00700040E1
:102410000400FA050000014000200240014600BF10
:10242000704700BF5B4A128812F0400FFAD0C2B268
:10243000584B1B1D1A80704710B586B0044655488E
:102440000C30008840F4807052490C3108800846F6
:10245000008840F0200008804FF4A063252203216B
:102460000846FFF7B3FE012144F20400FFF798FA93
:102470004848FEF7BBFB4FF40070ADF81400032092
:102480008DF8160018208DF8170005A94248FEF7B0
:1024900061FA4FF48060ADF8140004208DF8170045
:1024A00005A93D48FEF756FA01940020ADF8080052
:1024B000ADF80A00ADF80C00ADF810000C20ADF836
:1024C0000E0001A93348FEF7D4FB012240F225514A
:1024D0003048FEF766FC01212E48FEF756FC06B098
:1024E00010BD10B540F225512A48FEF73FFD0028E7
:1024F0004FD02848FEF7BAFCC4B22848008810F430
:10250000004F46D12548008810F4804F27D00A2C70
:102510001ED00D2021490988C1F30D01204A5054D5
:102520001E480088401C1D49088008460088C0F3EA
:102530000D0011460C5419480088401C17490880AA
:10254000084600884BF6FF7108401449088020E0D7
:102550001248008840F400401049088019E00D2C12
:1025600006D10E48008840F480400C49088010E0F5
:102570000A480088C0F30D0009490C540748008838
:10258000401C06490880084600883E2801DD0020DE
:10259000088010BD00380140000801402C000020D8
:1025A0001C04002008B504226946002001F014FC38
:1025B0009DF8000008BD38B50446042221460020DD
:1025C00001F017FC04226946002001F005FC207888
:1025D0009DF80010884201D1012038BD0020FCE7A1
:1025E00008B501210820FFF7DBF90420ADF8000051
:1025F0008DF8030002208DF8020069468448FEF73A
:10260000A9F908BD10B5FFF761F80120FFF7E3F85D
:1026100000BF2120FFF79DF80028FAD00020FFF727
:10262000FAF84FF48060FFF7FFF80020FFF705F994
:102630004FF420110020FFF7D1F80120FFF7DAF85E
:1026400000BF3920FFF785F80028FAD00220FFF7F5
:10265000D4F800BFFFF7DAF80828FBD110BD08B5A1
:1026600001217C20FFF79CF94FF6FF70ADF80000C8
:1026700000208DF8030069466648FEF76BF969464D
:102680006348FEF767F969466348FEF763F96946F0
:102690006248FEF75FF969466148FEF75BF9002181
:1026A0007C20FFF77DF908BD38B56FF07E4400212E
:1026B0004FF40000FFF781F901210420FFF770F9C2
:1026C0004FF4C050ADF8000010208DF80300022038
:1026D0008DF8020069464F48FEF73CF94FF4C051AF
:1026E0004C48FEF7E4F900BF2000A4F10104FBD13F
:1026F00038BD38B54B4C00214FF40000FFF75DF9B1
:1027000001210420FFF74CF94FF4C050ADF8000050
:1027100010208DF8030002208DF8020069463D4824
:10272000FEF718F94FF4C0513A48FEF7BEF93948A0
:10273000FEF7B0F83C48FFF7BCFC38BD10B503F01D
:102740001AFCFFF7B1FF10BD08B5384800680090CB
:1027500000243048FEF79EF82D48FEF79BF82C48E1
:10276000FEF798F8FEF7ECF800F072F800F034F994
:10277000FFF718FFD8B9012080F3108800BFFFF7DA
:10278000DDFF2B4800682B490840B0F1005F0ED1F7
:1027900027484068284908600846006827490860BB
:1027A00023490868FDF73FFD2448006880470A2058
:1027B0002349087023490870214800780871FFF701
:1027C00073FFFFF796FF02F0ACFE02F0C2FE02F0CC
:1027D000C3F86FF07E4400BF2000A4F10104FBD1D8
:1027E0008DF800006846FFF7E6FE0FE0641C42F239
:1027F0001070FFF75EFC142C08D1134800686FEAD4
:1028000000001249C1F894014FF00004EEE7000007
:10281000000C01400008014000100140001401407C
:1028200000180140FFFF0100A0860100006D0008B4
:10283000000001080000FE2F400000203C000020A6
:102840003400002035000020948121420080214284
:1028500008B501210820FFF7A3F84FF47C70ADF80C
:10286000000010208DF8030002208DF80200694658
:102870001F48FEF76FF801210820FFF791F80320A9
:10288000ADF8000004208DF8030002208DF802004E
:1028900069461748FEF75EF88020ADF80000032077
:1028A0008DF8020010208DF8030069461148FEF7EC
:1028B00051F880210F48FEF7FAF840210C48FEF746
:1028C000F4F810210A48FEF7F0F84FF48071084838
:1028D000FEF7EBF880210648FEF7E7F820210448D0
:1028E000FEF7E3F84FF400710148FEF7DEF808BD8B
:1028F000000C01400008014008B501211420FFF739
:102900004FF83C20ADF8000002208DF8020048206E
:102910008DF8030069468448FEF71CF80120ADF8E5
:10292000000028208DF8030069468048FEF712F861
:1029300008BD10B5044614B101207D4908707C48DB
:102940000078002830D07B48006860B17A48006881
:1029500048B17A48006830B17948006818B17948C0
:102960000068012820D142F21070FFF7A2FB00207E
:102970006F4908706F48006808B9012010BD6E48A3
:10298000006808B90220F9E76C48006808B903201C
:10299000F4E76B48006808B90420EFE7694800686D
:1029A000012817D10520E9E762480068012811D104
:1029B0006148006801280DD160480068012809D1EC
:1029C0005F480068012805D15E48006810B9012001
:1029D000574908700020D1E71FB501211D20FEF7DF
:1029E000DFFF4FF40040ADF80C0048208DF80F00D9
:1029F00002208DF80E0003A94C48FDF7ABFF4EF204
:102A00000400ADF80C0048208DF80F0002208DF86E
:102A10000E0003A94C48FDF79DFF4FF4C040ADF8F0
:102A20000C0048208DF80F0002208DF80E0003A93D
:102A30003D48FDF78FFF01210920FEF7B1FF01217D
:102A40004248FEF756F80820ADF80C0048208DF8F3
:102A50000F0002208DF80E0003A93B48FDF77AFF16
:102A60004FF4E060FDF7A8FE08208DF8000000207C
:102A70008DF801008DF8020001208DF803006846F2
:102A8000FDF79FFE09208DF8000000208DF8010061
:102A90008DF8020001208DF803006846FDF791FED5
:102AA00028208DF8000000208DF801008DF802002C
:102AB00001208DF803006846FDF783FE0420FEF731
:102AC0001EFB0820FEF71BFB4FF40050FEF717FB20
:102AD0004FF48040FEF713FB4FF40040FEF70FFB6E
:102AE0000F210020FEF74AF802210120FEF746F8E8
:102AF00003210120FEF742F80D210220FEF73EF8E7
:102B00000E210220FEF73AF84EF20C000190002050
:102B10008DF8080010208DF8090001208DF80A00BA
:102B200001A8FEF775FA1FBD001001400008014022
:102B300044000020080122420C01224210012242DE
:102B40001401224200012142000C01400002300029
:102B5000F0B503460024102A13D15D78A13D1E78FC
:102B6000B03EC6EB061707EB461605EB46056C01B3
:102B7000002004E0034D2D5C0D54451CE8B2A0423A
:102B8000F8D3F0BD046D000800B59FB00121080224
:102B9000FEF7F9FE01210846FEF702FF01214FF47E
:102BA000B470FEF7FDFE4CF23370ADF878000320F0
:102BB0008DF87A0018208DF87B001EA93F48FDF79C
:102BC000C9FE4FF68070ADF8780003208DF87A00CA
:102BD00018208DF87B001EA93948FDF7BBFE41F295
:102BE0000100ADF8780003208DF87A0018208DF8E8
:102BF0007B001EA93348FDF7ADFE012008900020A0
:102C00000990FF200A9000200B900C900D900E90E0
:102C100001900290032003900020049005900690FC
:102C2000079006200F900020109011901020129015
:102C30000020139014901590169017904FF4805028
:102C40001890002019904FF480401A9000201B909B
:102C500008A81C9001A81D900FA8FEF758FF01219D
:102C60000620FFF7B5F81FB000BD08B510200223FD
:102C70000122154900900820FFF72CFA08BD4FF0FB
:102C8000D841088070471149088070470F48008874
:102C9000704700B503460A461846FFF7F0FF104696
:102CA000FFF7F1FF00BD10B504462046FFF7E7FF30
:102CB0000520FFF7FEF9FFF7E9FF10BD0014014002
:102CC0000018014000200140000C01400008006C89
:102CD00000BF0100A0F10102D0B2FAD1704730B5B7
:102CE000014601F01F04C1F34513CA0AE50205EBD2
:102CF00043151544A8B230BD10B5F7488088A0F53B
:102D00001341413903D12920FFF7B9FF04E040F214
:102D100073110720FFF7BDFF10BD10B5EE48808886
:102D2000A0F51341413903D12820FFF7A8FF03E0A4
:102D300000210720FFF7ADFF10BD10B5E6488088E1
:102D4000A0F51341413902D11020FFF798FF10BDC3
:102D500010B5E1488088A0F51341413902D1112016
:102D6000FFF78DFF10BD10B5DB49C879FFF787FF6E
:102D700010BD70B504460D46D7480088A04203DB5D
:102D8000D5484088A84200DA70BDD3488088A0F5B5
:102D90001341413914D1D049087AFFF770FF20124E
:102DA000FFF771FFE0B2FFF76EFFCB49487AFFF7FC
:102DB00066FF2812FFF767FFE8B2FFF764FF12E033
:102DC000C5488079012804D1C3480088401E001BF3
:102DD00084B2C149087A2146FFF75BFFBE49487AB1
:102DE0002946FFF756FF00BFCEE72DE9F041054623
:102DF000002700240026B8488079012818D1082D22
:102E000015D2DFE805F00406080A0C0E101206259C
:102E10000DE007250BE0042509E0052507E0012565
:102E200005E0002503E0032501E0022500BF00BF07
:102E3000A9488088A0F51341413974D1082D1CD2CE
:102E4000DFE805F00406090C0F12151800BF14E0A6
:102E500044F0800411E044F040040EE044F0C0046B
:102E60000BE044F0200408E044F0600405E044F086
:102E7000A00402E044F0E00400BF00BF362744F0A5
:102E8000080421463846FFF704FF14F0200F0DD048
:102E90009148008890494988884214DA8E4806880B
:102EA00040888D490880084646800CE08A480088A2
:102EB00089494988884206DD8748068840888649CE
:102EC0000880084646808449087AFFF7D8FE00202B
:102ED000FFF7D9FE0020FFF7D6FE7F490988491E7B
:102EE000C1F30F20FFF7CFFE7B490978491EC8B216
:102EF000FFF7C9FE7849487AFFF7C1FE0020FFF7C7
:102F0000C2FE0020FFF7BFFE73494988491EC1F386
:102F10000F20FFF7B8FE70498978491EC8B2FFF745
:102F2000B2FE20E0FFE7082D15D2DFE805F0040629
:102F3000080A0C0E101230240DE010240BE020249F
:102F400009E0002407E0382405E0282403E01824E1
:102F500001E0082400BF00BF032744F48054214649
:102F60003846FFF796FEBDE8F08110B50446ECB98F
:102F7000002059498871F02008804FF4A0704880E3
:102F800008468088A0F51341413907D12C205249C9
:102F9000C8712A2008722B20487224E022204E4952
:102FA000C87120200872212048721CE001204A4983
:102FB00088714FF4A0700880F0204880084680880F
:102FC000A0F51341413907D12C204349C8712A206B
:102FD00008722B20487206E022203F49C871202049
:102FE0000872212048720020FFF7FFFE10BD2DE976
:102FF000F04105460E4600240027A04636480088CA
:10300000A84203DB34484088B04202DA0020BDE821
:10301000F08131462846FFF7ACFE2F488088A0F5A6
:103020001341413903D12E20FFF729FE02E022206F
:10303000FFF725FEFFF72AFE0220FFF749FEFFF704
:1030400025FE044624488088A0F51341413907D164
:103050000220FFF73DFEFFF719FE80462006070C11
:103060001D488088A0F51341413907D1E012C00204
:10307000B91240EA411040EAE820C8E716488088C3
:10308000A0F5134120390BD013488088A0F51341D7
:10309000253905D010488088A0F51341283901D181
:1030A0002046B4E72046FFF71AFEB0E770B50446A5
:1030B000094800880849498800FB01F600210846B4
:1030C000FFF757FEFFF74FFE002502E0034804809C
:1030D0006D1CB542FAD370BD7C0400200008006C62
:1030E00010B5FFF7C2FDFFF74FFD4CF25030FEF771
:1030F000E0FF01210020FFF7CCFD4CF25030FEF73D
:10310000D8FF0020FFF7CFFDFE4988800846808861
:10311000FF280ADB08468088A0F57F41FF3904D0EC
:10312000F8488088B0F5134F19D1D320FFF7A7FDD9
:10313000FFF7ACFDFFF7AAFDFFF7A8FDF149888076
:10314000084680884FF6FF7101EA0020ED4988802B
:10315000FFF79CFDEB4989880843EA498880E948E4
:103160008188E9A003F03AF8E6488088A0F5134189
:1031700041397CD1CF20FFF782FD0020FFF783FD8E
:10318000C120FFF780FD3020FFF77DFDED20FFF728
:1031900076FD6420FFF777FD0320FFF774FD122012
:1031A000FFF771FD8120FFF76EFDE820FFF767FD57
:1031B0008520FFF768FD1020FFF765FD7A20FFF7F7
:1031C00062FDCB20FFF75BFD3920FFF75CFD2C2073
:1031D000FFF759FD0020FFF756FD3420FFF753FDA0
:1031E0000220FFF750FDF720FFF749FD2020FFF7F1
:1031F0004AFDEA20FFF743FD0020FFF744FD0020D1
:10320000FFF741FDC020FFF73AFD1B20FFF73BFD14
:10321000C120FFF734FD0120FFF735FDC520FFF782
:103220002EFD3020FFF72FFD3020FFF72CFDC720AB
:10323000FFF725FDB720FFF726FD2A20FFF71FFD2A
:103240000020FFF720FD0020FFF71DFD0020FFF705
:103250001AFD2B20FFF713FD0020FFF714FD0020BF
:10326000FFF711FD0120FFF70EFD362000E090E092
:10327000FFF705FD4820FFF706FD3A20FFF7FFFCAA
:103280005520FFF700FDB120FFF7F9FC0020FFF704
:10329000FAFC1A20FFF7F7FCB620FFF7F0FC0A2033
:1032A000FFF7F1FCA220FFF7EEFCF220FFF7E7FCAE
:1032B0000020FFF7E8FC2620FFF7E1FC0120FFF7E4
:1032C000E2FCE020FFF7DBFC0F20FFF7DCFC2A200C
:1032D000FFF7D9FC2820FFF7D6FC0820FFF7D3FC26
:1032E0000E20FFF7D0FC0820FFF7CDFC5420FFF79D
:1032F000CAFCA920FFF7C7FC4320FFF7C4FC0A2043
:10330000FFF7C1FC0F20FFF7BEFC0020FFF7BBFC5E
:103310000020FFF7B8FC0020FFF7B5FC0020FFF706
:10332000B2FCE120FFF7ABFC0020FFF7ACFC15205E
:10333000FFF7A9FC1720FFF7A6FC0720FFF7A3FC67
:103340001120FFF7A0FC0620FFF79DFC2B20FFF7C4
:103350009AFC5620FFF797FC3C20FFF794FC0520D1
:10336000FFF791FC1020FFF78EFC0F20FFF78BFC7E
:103370003F20FFF788FC3F20FFF785FC0F20FFF779
:1033800082FCFFF7E5FC6648FEF793FEFFF7B4FC0E
:10339000FEE05C488088A0F5134120390BD05948E5
:1033A0008088A0F51341253905D056488088A0F5BE
:1033B00013412839ECD14FF480710120FFF769FCEB
:1033C0004FF4E0610220FFF764FC41F2300103207A
:1033D000FFF75FFC00210420FFF75BFC40F20721B0
:1033E0000820FFF756FC00210920FFF752FC0021BE
:1033F0000A20FFF74EFC00210C20FFF74AFC0021B9
:103400000D20FFF746FC00210F20FFF742FC0021B2
:103410001020FFF73EFC07211120FFF73AFC0021A6
:103420001220FFF736FC00211320FFF732FC41F297
:1034300090211020FFF72DFC40F227211120FFF7EB
:1034400028FC1D211220FFF724FC4FF4A851132063
:10345000FFF71FFC18212920FFF71BFC0D212B2053
:10346000FFF717FC04213020FFF713FC40F207316F
:103470003120FFF70EFC02213220FFF70AFC40F258
:1034800006213520FFF705FC4FF481613620FFF758
:1034900000FC40F207513720FFF7FBFB4FF40171AE
:1034A0003820FFF7F6FB40F207713920FFF7F1FBF8
:1034B00040F205413C20FFF7ECFB40F602713D2055
:1034C000FFF7E7FB00215020FFF7E3FBEF2151203E
:1034D000FFF7DFFB00215220FFF7DBFB40F23F113B
:1034E0005320FFF7D6FB4FF427416020FFF7D1FBB5
:1034F00001216120FFF7CDFB00216A20FFF7C9FB06
:1035000000210FE07C0400200D0A4C43442044724B
:103510006976652049442069733A2025780D0A00B0
:10352000C0D401008020FFF7B4FB00218120FFF709
:10353000B0FB00218220FFF7ACFB00218320FFF7C6
:10354000A8FB00218420FFF7A4FB00218520FFF7C2
:10355000A0FB10219020FFF79CFB4FF4C06192204C
:10356000FFF797FB03219320FFF793FB4FF488713C
:103570009520FFF78EFB00219720FFF78AFB0021A3
:103580009820FFF786FB40F233110720FFF781FBFD
:103590000020FFF7EAFC0120FB490860FB48008897
:1035A000FFF784FD10BD70B504460D462946204640
:1035B000FFF7DFFBFFF7D7FBF5480088F5490880E8
:1035C00070BD70B505460E46144631462846FFF7D5
:1035D000D0FBFFF7C8FBEF48048070BD2DE9FF4F1B
:1035E00083B08146CDF80490049800900598A0EB34
:1035F0000905069904980E1A002D01DD012705E042
:103600000DB9002702E04FF0FF376D42002E02DDBA
:103610004FF0010806E016B94FF0000802E04FF045
:10362000FF387642B54201DD2C4600E034464FF0CB
:10363000000A1DE0009A91B2019A90B2FFF7B3FF21
:10364000029828440290B3440298A04205DD0298F3
:10365000001B0290019838440190A34504DDABEBB8
:10366000040B0098404400900AF101001FFA80FA10
:10367000601C8245DEDB07B0BDE8F08F2DE9F0412C
:1036800004460D4616461F462B463246294620461E
:10369000FFF7A4FF3B46324629463046FFF79EFF20
:1036A0003B46224639463046FFF798FF2B462246D6
:1036B00039462046FFF792FFBDE8F0812DE9F05F23
:1036C00005460E4617469846DDF828A0781B401C94
:1036D0001FFA80FB344613E021462846FFF749FBDA
:1036E000FFF741FB4FF0000906E05046FFF7CBFA29
:1036F00009F101001FFA80F9D945F6DB601C84B29C
:103700004445E9DBBDE8F09F2DE9F04F89B006465E
:103710008946924600240AF0FF05504603F031F82E
:10372000074600229C4B03F03DF9CDE9060102F06B
:1037300037FF834680E009EB050291B2321990B25F
:10374000FFF731FFA9EB050291B2321990B2FFF7F2
:103750002AFF09EB050291B2321B90B2FFF723FF5B
:10376000A9EB050291B2321B90B2FFF71CFF09EBE7
:10377000040291B2721990B2FFF715FFA9EB04028F
:1037800091B2721990B2FFF70EFF09EB040291B2E9
:10379000721B90B2FFF707FFA9EB040291B2721BF4
:1037A00090B2FFF700FF0021584603F029FA1FD21C
:1037B000204602F0E6FF00224FF08043CDE90001F1
:1037C00002F0F2FF07460022744B02F01BFFCDE926
:1037D0000401584603F0DCF9CDE90201DDE90423D8
:1037E00002F010FFCDE9060102F0DAFE834621E087
:1037F000601B02F0AFFF00224FF08043CDE90001D3
:1038000002F0D2FF0022664BCDE9020102F0FAFE7F
:1038100007468846584603F0BBF93A464346CDE989
:10382000040102F0EFFECDE9060102F0B9FE834685
:10383000681EC5B2601CC4B2AC427FF77CAF09B051
:10384000BDE8F08F2DE9F84F05460E4690461F461D
:1038500000964F48B0F8009052480088A84203DB19
:1038600050484088B04201DABDE8F88FA8F1200046
:1038700000F0FF080A9800284DD1002448E0102FDE
:1038800005D1494800EB081010F804A006E008EB49
:103890004800464901EB800010F804A04FF0000BEF
:1038A00030E01AF0800F03D03948A0F8009003E010
:1038B000364800883649088031462846FFF773FEAF
:1038C0004FEA4A604FEA106A701C86B23548008899
:1038D000A84203DC2E48A0F80090C5E70098301AF3
:1038E000B8420BD1009E681C85B22E480088A842C1
:1038F00003DC2748A0F80090B6E706E00BF10100D2
:1039000000F0FF0BBBF1080FCBDB00BF601CC4B2A3
:10391000BC42B4DB59E0002455E0102F05D1224809
:1039200000EB081010F804A006E008EB48001F495F
:1039300001EB800010F804A04FF0000B3DE01AF0FE
:10394000800F03D031462846FFF72DFE4FEA4A602C
:103950004FEA106A701C86B212480088A84203DC45
:103960000B48A0F800907FE70098301AB84220D1A9
:10397000009E681C85B20B480088A84218DC0448E9
:10398000A0F8009070E700008081214248000020EC
:10399000460000200008006C0000F43F00000840D2
:1039A000000014407C040020B8710008446D000839
:1039B00006E00BF1010000F0FF0BBBF1080FBEDBCE
:1039C00000BF601CC4B2BC42A7DBFE48A0F8009058
:1039D00000BF49E72DE9F05F04460D4617469846BB
:1039E0004FF0000AAB46F8480088A04203DBF648D7
:1039F0004088A84201DABDE8F09FA7F12000C7B2D5
:103A0000002642E0B8F1100F05D1F04800EB071096
:103A100010F806A006E007EB4700ED4901EB800037
:103A200010F806A04FF0000929E01AF0800F05D029
:103A3000294620460A9AFFF7C4FD04E0294620469D
:103A40000B9AFFF7BEFD4FEA4A604FEA106A681C06
:103A500085B2DD480088A04200DCCCE7A5EB0B0076
:103A6000404508D15D46601C84B2D7480088A0421A
:103A700000DCC0E706E009F1010000F0FF09B9F140
:103A8000080FD2DB00BF701CC6B24645BADB00BFD0
:103A9000B1E72DE9F05F06460F4691469A464FF092
:103AA000000BD846C8480088B04203DBC6484088AF
:103AB000B84201DABDE8F09F5246C6494846FFF7D2
:103AC00047F8002545E0C34810F808B0002417E087
:103AD000C4F107004BFA00F010F0010F07D07A197B
:103AE00091B2321990B20A9AFFF76BFD06E07A198B
:103AF00091B2321990B20B9AFFF763FD601CC4B209
:103B0000082CE5DB08F10108B24810F808B00024E1
:103B100019E0C4F107004BFA00F010F0010F08D0D3
:103B20007A1991B23219083290B20A9AFFF749FD18
:103B300007E07A1991B23219083290B20B9AFFF766
:103B400040FD601CC4B2082CE3DB08F10108681CCE
:103B5000C5B2102DB7DB00BFACE72DE9FC47054629
:103B6000884614469946DDE90A671CE0207810F083
:103B7000800F0BD1CDE9006722784B46414628469D
:103B8000FFF728FF05F1080085B20BE04B462246FF
:103B900041462846CDE90067FFF77BFF05F110009D
:103BA00085B2641C641C20780028DFD1BDE8FC8746
:103BB00010B50246012000E050430B00A1F10104C2
:103BC000E1B2F9D110BD2DE9FF4F81B005460F4696
:103BD0009246DDE90E894FF0000B002451E0A8EB7E
:103BE0000400401EC1B20A20FFF7E2FFBAFBF0F06A
:103BF0000A21B0FBF1F201FB1206BBF1000F12D15A
:103C0000A8F10100A0420EDD5EB9082101FB0451BC
:103C100088B2CDF8009020223946049BFFF712FEAF
:103C20002DE04FF0010B082000FB04506649098885
:103C3000884216DD6448418807F11000814200DAAD
:103C400021E006F13003DAB207F1100399B208233C
:103C500003FB045398B2CDF80090049BFFF7F2FDEC
:103C60000CE006F13001CAB2082101FB045188B210
:103C7000CDF800903946049BFFF7E4FD00BF601CBF
:103C8000C4B24445ABDB00BF05B0BDE8F08F2DE901
:103C9000FF4F81B005460F469246DDE90E894FF091
:103CA000000B002453E0A8EB0400401EC1B20A2020
:103CB000FFF77EFFBAFBF0F00A21B0FBF1F201FB47
:103CC0001206BBF1000F14D1A8F10100A04210DDD3
:103CD0006EB906F13001CAB2082101FB045188B265
:103CE000CDF800903946049BFFF7ACFD2DE04FF076
:103CF000010B082000FB045033490988884216DD77
:103D00003148418807F11000814200DA21E006F1D4
:103D10003003DAB207F1100399B2082303FB04530E
:103D200098B2CDF80090049BFFF78CFD0CE006F1F3
:103D30003001CAB2082101FB045188B2CDF80090CD
:103D40003946049BFFF77EFD00BF601CC4B24445AA
:103D5000A9DB00BF05B0BDE8F08F2DE9FF4F83B0B0
:103D600007468B461446DDE9129ADDE91085A84521
:103D700011D10DE0CDE9009A227859463846069BCC
:103D8000FFF728FE07F1080087B2641C681E85B2A1
:103D9000002DEFDC12E0A8EB050086B20CE0CDE9C7
:103DA000009AA25D59463846069BFFF713FE07F1BD
:103DB000080087B2701C86B24645F0DB07B0BDE84C
:103DC000F08F0000460000207C040020B87100083D
:103DD000446D00085C04002010B50B4600211E4C09
:103DE000204403E010F8014B5C54491C9142F9DB7C
:103DF00010BD2DE9F04107460C4615462846E91747
:103E000005EB9171C1F38705FDF7A1F93520FDF7A9
:103E100039FC1148FDF7E0F91049087013E014F877
:103E2000016B14F8011B46EA012614F8011B46EA4F
:103E3000014614F8011B46EA016607497818314625
:103E4000FDF79AFA3F1D2800A5F10101CDB2E6D198
:103E5000FDF789F9BDE8F08100FC01084A00002067
:103E600010B504462CB90120FE49096808820020DB
:103E700010BDFD49096808688047FA4800680A30A3
:103E8000F6E710B5F7480068C078F84949788842E5
:103E900013DCF4480068807878B9F24800688088BC
:103EA00058B9F0480068C078EE4909688872EE4950
:103EB000096848688047002010BD0220FCE710B563
:103EC00004462CB90120E74909680882002010BD8A
:103ED000E549096888688047E24800680C30F6E7E1
:103EE00010B5E04B1B68D978DE4B1B685879E04B66
:103EF0001B689A6990470446DA480068807AE8B1FE
:103F00003CB9D8480068007918B9D648006880786C
:103F100008B1022010BD8CB9D3490968C868804730
:103F2000D04800684079CF490968C872CD48006818
:103F3000C078CC49096808730020EBE70220E9E764
:103F400010B504462CB90220C64909680882002031
:103F500010BD0020C7490880C2480068007810F0F2
:103F60007F0F23D1BF490968487A10F0200F06D08F
:103F7000C049097841F00201BE4A117005E0BD490F
:103F8000097801F0FD01BB4A117010F0400F06D016
:103F9000B849097841F00101B64A117005E0B54908
:103FA000097801F0FE01B34A117036E0AD480068AF
:103FB000007800F07F00012801D1AE48C8E7A94889
:103FC0000068007800F07F00022824D1A54A12681A
:103FD000517901F00F0011F0800F0DD0A64A52F870
:103FE000202002F03002102A14D1A24A127842F0A6
:103FF0000102A04B1A700DE09F4A52F8202002F4F3
:104000004052B2F5805F05D19A4A127842F001021F
:10401000984B1A7001E000209AE7934909680869F3
:104020008047944894E72DE9F0478E48006800786F
:1040300000F07F08B8F1000F0AD18A480068407A82
:1040400000F0DF008749096848720020BDE8F0876A
:10405000B8F1020F7ED183480068408818B98148C2
:104060000068007908B10220F0E7DFF800927D488F
:104070000068477927F080052C467A480068407927
:1040800010F0800F05D07C4850F8240000F0300676
:1040900004E0794850F8240000F4405699F80000F4
:1040A000A84204D91EB16F480068807A08B902207E
:1040B000CCE717F0800F0ED06F4850F8240000F0C6
:1040C000300010283FD1E0B200F0B3FFE0B2302161
:1040D00000F05BFE37E0684850F8240000F44050E0
:1040E000B0F5805F2FD1C4B9644A92F82C10E0B2C9
:1040F00001F026F8604951F824104BF68F7201EA5E
:10410000020080F4805080F4005040F4004141F0FF
:104110008001594A42F8241015E0E0B200F073FF24
:10412000554951F824104BF68F7201EA020080F4D1
:10413000805080F4005040F4004141F080014E4A2C
:1041400042F8241000BF48490968486980470020A8
:104150007CE7FFE700BF022078E72DE9F041414806
:104160000068467926F080073C463E480068407962
:1041700010F0800F05D0404850F8240000F03005C2
:1041800004E03D4850F8240000F4405537480078DA
:10419000A04208D933480068408820B91DB1314891
:1041A0000068807A10B90220BDE8F08116F0800F17
:1041B00010D0314951F8241048F6BF7201EA0200CC
:1041C00080F0100040F4004141F080012A4A42F89A
:1041D000241010E0284951F824104BF68F7201EAA0
:1041E000020080F4805040F4004141F08001224AF6
:1041F00042F8241000BF1C490968886980470020E4
:10420000D2E710B517480068407A40F02000154901
:104210000968487214490968C8698047002010BDC0
:1042200010B502460F480068438A32B98888C01A20
:104230000C4C24682082002010BD08681844FBE75D
:104240002DE9F0410748006800F110042688A068B5
:1042500038B336B3A588B54200D93546A8B2A168AF
:1042600088470DE054000020600000206C0300200F
:10427000580000204E000020005C00407003002029
:1042800007462088401B20806088284460800020EA
:1042900000F028FF8046AAB24146384600F016FDDD
:1042A00000BF208850B14FF44050FA4908800021E7
:1042B000084600F023FF3020F74908802088A188B5
:1042C000884204DB0320F5490968087218E0208859
:1042D000002804DD0520F1490968087210E02088F3
:1042E00070B90620ED49096808720021EC480068A1
:1042F00080B2801CEB4A42F810103020E64908805A
:10430000BDE8F0812DE9F047E448006800F11005B0
:104310002E88E2480068077AD6B9042F18D1E248FF
:10432000007801280FD10021DD48006880B2801C90
:10433000DC4A42F810103020D749088000BF002026
:10434000D949087003E007271020D349088027E0E7
:10435000AC88A64201D8042000E002200746B442FF
:1043600000D93446A0B2A96888478046002000F0F2
:10437000A9FE8146A2B24946404600F08DFCA1B29A
:10438000002000F0BBFE2888001B2880688820449D
:1043900068803020C04908800002BE49088000BF04
:1043A000BE4909680F72BDE8F08770B50226BB48A8
:1043B00000684478B9480068007810F07F0F44D155
:1043C000092C03D1FFF75DFD06465FE0052C14D1F3
:1043D000B2480068C0787F280BDCB048006880785D
:1043E00038B9AE480068808818B9AC480068807A4F
:1043F00008B1082565E0002648E0032C0ED1A74847
:104400000068C078012807D1A4480068808818B9DE
:10441000FFF7F7FE064639E0022637E0012C35D1DA
:104420009E480068C07801280DD19C4800688088AB
:1044300048B99A480068407A10F0200F03D0FFF77F
:10444000F2FD064622E0022620E09448006800784B
:1044500000F07F00012805D10B2C17D1FFF740FD9C
:10446000064613E08D480068007800F07F000228BF
:104470000BD1012C03D1FFF7D6FD064606E0032C35
:1044800004D1FFF76AFE064600E002264EB1E0B214
:10449000864A1268516988470646032E01D10925CC
:1044A0000FE00EB108250CE0062500217C480068CD
:1044B00080B2801C7B4A42F8101030207649088078
:1044C00000BF764909680D7270BD2DE9F84F734839
:1044D000006845780027BA46062D1AD16F48006853
:1044E000007810F07F0F13D16C4909688878012893
:1044F00003D16E490968CF690AE0022803D16B49EC
:1045000009680F6A04E0032802D1684909684F6A04
:1045100097E0002D65D1614800684088002860D18F
:104520005E480068C08802285BD15C48006800795A
:10453000002856D159480068007810F07F0F06D146
:1045400056480068808810B9AFF20B6779E053488D
:104550000068007800F07F00012811D14F490968F8
:104560004879524909688A6900219047002868D132
:104570004A480068807A002863D0AFF23B6760E069
:1045800046480068007800F07F00022859D143486F
:104590000068407900F00F0640480068407900F05C
:1045A00070093E480068407910F0800F06D03C4802
:1045B000503850F8260000F0300805E038485038F0
:1045C00050F8260000F4405839480078B04238D9F5
:1045D000B9F1000F35D1B8F1000F32D0AFF29F67BB
:1045E0002FE0082D08D12D480068007810F07F0FCB
:1045F00027D1AFF2937724E00A2D22D12748006813
:10460000007800F07F0001281BD124480068807AE0
:10461000B8B122480068408898B9204800680079FD
:1046200078B91E480068C08801280AD11B4909686A
:1046300048791E4909688A690021904708B9AFF294
:10464000817757B115480068A0F812A01348006898
:1046500087610020B84700240FE0104A12685078A4
:10466000124A1268116988470446032C05D10920B3
:104670000A4909680872BDE8F88F08480068008A8E
:10468000A0F57F41FF3915D1092004490968087256
:10469000F1E70000640000206600002054000020C4
:1046A000505C0040006000404C000020580000209A
:1046B0006C030020022C03D09D480068008A20B9BA
:1046C00008209B4909680872D5E799480068007876
:1046D00010F0800F3CD096480068C0880090944845
:1046E0000068008A0099884204D9914900980968B5
:1046F000088223E08E480068008A8D490968C988CD
:1047000088421BDA8A480068008A8A49096891F859
:104710002C10884203DA0020874908700EE0844894
:104720000068008A8349096891F82C1090FBF1F227
:1047300001FB120010B901207F4908707D48006814
:1047400090F82C107A4800688182FFF7DBFD06E0C4
:10475000032077490968087200037849088000BF80
:1047600089E710B5764890F82C10002000F0E8FC9E
:104770006F480068007A082805D140026F49088018
:104780001020704908806A480068007A092801D121
:10479000012010BD0020FCE738B501246A480068FC
:1047A00080B2001D694931F8100080B201EB400071
:1047B00000905F480068007A092832D0009800789D
:1047C0005B49096808700098401C009000980078C8
:1047D0005749096848700098401C0090009800EB09
:1047E00044000090009931F8020B009100F046FE61
:1047F0004F4909684880009800EB440000900099F8
:1048000031F8020B009100F039FE494909688880AF
:10481000009800EB44000090009800884449096823
:10482000C880012042490968087241480068C08870
:1048300010B9FFF7BAFD01E0FFF747FEFFF791FF60
:1048400038BD30B50146424B1A78002012E0C3B2A1
:104850003D4C503C54F8233048F68F74234048F2C6
:1048600080042343C4B22343C4B2374D503D45F8BE
:104870002430401C9042EAD341F08003324C241F84
:10488000236030BD10B52A480068047A022C01D09C
:10489000042C05D1FFF736FD25480068047A1CE09A
:1048A000062C19D122480068407805280ED12048EE
:1048B0000068007810F07F0F08D11D490968C8789A
:1048C000FFF7BFFF23490968086A8047194909684B
:1048D00088688047082400E00824154909680C729C
:1048E000FFF73FFF10BD10B511480068047A022C95
:1048F00001D0042C01D1082412E0032C01D0052C96
:1049000005D1FFF79DFC0A480068047A08E0072CEF
:1049100005D108490968C8688047082400E00824D0
:10492000034909680C72FFF71CFF10BD70470000B7
:1049300054000020580000204C000020640000209B
:104940007003002066000020505C004000600040C2
:104950006C0300206000002010B50848084908607A
:104960000220096808720748074908600748084993
:104970000860054909680868804710BD8804002060
:10498000540000207003002058000020A0030020E5
:104990006000002008B50020009015E1B7480088AD
:1049A00000F00F00B64908700846007800287DD155
:1049B000B4480068B44908800846008800F0300018
:1049C000B2490880B048008800F44050AE490880E1
:1049D000AC4909684BF6BF7201EA020080F400504E
:1049E00080F0200040F4004141F08001A54A1160B0
:1049F000A248008810F0100F32D11046006848F627
:104A00000F71084011460860FFF73CFF9D49096897
:104A10004BF6BF7201EA02009B49098811F4805FDE
:104A200001D080F480509849098811F4005F01D0CA
:104A300080F400509549098811F0100F01D080F0E2
:104A400010009249098811F0200F01D080F0200059
:104A500081B241F4004141F080018A4A116008BDF1
:104A60008848006880B20090BDF8000010F4006F24
:104A700036D084480068C0F30E0048F68F710840B5
:104A800080490860FFF788FE7E4909684BF6BF72CF
:104A900001EA02007C49098811F4805F01D080F4AA
:104AA00080507949098811F4005F00E052E001D09C
:104AB00080F400507549098811F0100F01D080F082
:104AC00010007249098811F0200F01D080F02000F9
:104AD00081B241F4004141F080016A4A1160BEE7B1
:104AE000BDF8000010F4004F6ED066480068C0F3B7
:104AF0000E0048F68F71084062490860FFF7F3FE28
:104B0000604909684BF6BF7201EA02005E490988F4
:104B100011F4805F01D080F480505B49098811F462
:104B2000005F01D080F400505849098811F0100F3F
:104B300001D080F010005549098811F0200F01D0F4
:104B400080F0200081B241F4004141F080014D4AE3
:104B5000116084E74A4800784A4951F8200080B241
:104B60000090BDF8000010F4004F14D044480078C5
:104B700051F82000C0F30E0048F68F7108404049FC
:104B80000978404A42F821003D490978491E404AC7
:104B900052F821008047BDF8000010F0800F13D0BC
:104BA00037480078374951F8200048F60F7108401F
:104BB00033490978334A42F8210031490978491EBE
:104BC000344A52F8210080472E484430006880B2B1
:104BD0002A49088010F4004F7FF4E0AE00BF3EE7A2
:104BE00010B5002440E047F6FF70264944310860C4
:104BF0002248008800F00F0021490870084600781C
:104C0000204951F8200084B214F4004F15D01C48FC
:104C1000007851F82000C0F30E0048F68F7108406C
:104C200017490978174A42F8210015490978491EA1
:104C3000174A52F82100804716E014F0800F13D075
:104C40000F4800780F4951F8200048F60F710840CE
:104C50000B4909780B4A42F8210009490978491E95
:104C60000C4A52F82100804706484430006880B260
:104C70000249088010F4004FB5D110BD5803002040
:104C800050000020005C004064000020660000200E
:104C90003C03002020030020F0B5144604F1010C71
:104CA0004FEA6C07DFF848C00CEB41033D460AE0D1
:104CB0000678401C90F800C046EA0C2223F8022B2C
:104CC0009B1C401C6D1E002DF2D1F0BDF0B5561C92
:104CD0007510074E06EB41042B4605E034F8047BC3
:104CE00020F8017B401C5B1E002BF7D1F0BD0000BB
:104CF00000600040F94908607047F848006880B2D9
:104D00007047F649091D08607047F448001D0068A7
:104D100080B27047F1480830006880B27047EF49B0
:104D20000C3108607047ED480C30006880B2704765
:104D30004FF6F8710140E94A103211607047E748B8
:104D40001030006880B27047E44A403A42F82010C0
:104D500070470146E148403850F8210080B2704762
:104D6000DE4A403A52F8202048F68F131A400A4390
:104D7000DA4B403B43F8202070470146D748403883
:104D800050F8210000F4C060704710B5D34B403B91
:104D900053F8203048F6BF7403EA040211F0100FF4
:104DA00001D082F0100211F0200F01D082F0200219
:104DB00042F4004343F08003C84C403C44F82030A8
:104DC00010BD10B5C54B403B53F820304BF68F74E7
:104DD00003EA040211F4805F01D082F4805211F4DE
:104DE000005F01D082F4005242F4004343F080039C
:104DF000BA4C403C44F8203010BD10B502460B467A
:104E00001046FFF7A6FF0446012B06D124F480507C
:104E1000B249403941F8220007E0022B05D124F0C5
:104E20001000AE49403941F8220010BD0146AB48A0
:104E3000403850F8210000F0300070470146A74884
:104E4000403850F8210000F440507047A34A403ADF
:104E500052F8202048F6BF7302EA030181F01001E6
:104E600081F0200141F4004242F080029B4B403B24
:104E700043F820207047994A403A52F820204BF6D8
:104E80008F7302EA030181F4805181F4005141F4EF
:104E9000004242F08002914B403B43F82020704793
:104EA0008E49403951F8201041F4807148F68F72D4
:104EB000114048F280021143884A403A42F82010DB
:104EC00070478649403951F8201048F68F621140EA
:104ED00048F280021143814A403A42F8201070475C
:104EE0007E49403951F8201048F68F62114048F24F
:104EF00080021143794A403A42F8201070477749BE
:104F0000403951F8201041F4807148F68F721140F9
:104F100048F280021143714A403A42F8201070472B
:104F20006E49403951F8201041F4807148F68F7273
:104F3000114048F280021143684A403A42F820107A
:104F400070476649403951F8201048F68F62114089
:104F500048F280021143614A403A42F820107047FB
:104F600001465E48403850F8210000F0300010281B
:104F700001D1012070470020FCE701465748403826
:104F800050F8210000F44050B0F5805F01D10120BD
:104F900070470020FCE75149403951F82010C1F317
:104FA0000E0148F68F7211404C4A403A42F82010E8
:104FB00070474A49403951F8201048F60F721140A5
:104FC000464A403A42F8201070474449403951F867
:104FD000201048F68F7211404CF2800211433F4A74
:104FE000403A42F8201070473C49403951F82010AF
:104FF00048F68F72114048F2C0021143374A403AD6
:1050000042F8201070473549403951F8201011F40A
:10501000804F0DD03149403951F8201048F68F7239
:1050200011404CF2800211432C4A403A42F82010C1
:1050300070472A49403951F8201011F0400F0DD027
:105040002649403951F8201048F68F72114048F235
:10505000C0021143214A403A42F8201070471F4ACB
:10506000403A52F8202048F68F731A4048F28003E5
:105070001A430A43194B403B43F82020704701462E
:105080001648403850F8210000F00F00704710B566
:105090004A105300114A1032126892B202EBC00259
:1050A0000F4C44F8123010BD10B54A1053000B4A93
:1050B0001032126892B202EBC002121D084C44F882
:1050C000123010BD014605481030006880B200EB78
:1050D000C100034A32F8100080B27047405C0040C3
:1050E000006000400146E848006880B200EBC10063
:1050F000001DE64A32F8100080B27047E24A12689A
:1051000092B202EBC002921CE04B43F812107047BF
:1051100002463E290BDD481111F01F0F01D1431E3D
:1051200098B24FF4004343EA8023136007E048102D
:1051300011F0010F01D0431C98B283021360704735
:1051400010B50246D048006880B200EBC200801D56
:10515000CE4C04EB40033E290BDD481111F01F0F2C
:1051600001D1441EA0B24FF4004444EA80241C60E4
:1051700007E0481011F0010F01D0441CA0B28402D6
:105180001C6010BD0146C048006880B200EBC10041
:10519000801CBE4A32F81000C0F309007047014677
:1051A000B948006880B200EBC100801DB74A32F8F0
:1051B0001000C0F30900704730B54B105C00B24BD3
:1051C0001B689BB203EBC003B04D45F8134053106E
:1051D0005C00AD4B1B689BB203EBC0031B1D45F885
:1051E000134030BD10B54A105300A74A126892B25E
:1051F00002EBC002A54C44F8123010BD10B54A10A5
:105200005300A14A126892B202EBC002121D9F4CD9
:1052100044F8123010BD01469B48006880B200EB94
:10522000C1009A4A32F8100080B270470146964891
:10523000006880B200EBC100001D944A32F81000F3
:1052400080B2704730B50B46012B1FD18E490968DB
:1052500089B201EBC001891C8C4D05EB41043E2A4B
:105260000BDD511112F01F0F01D14D1EA9B24FF4E9
:10527000004545EA8125256007E0511012F0010F35
:1052800001D04D1CA9B28D0225600AE0022B08D185
:105290007D49096889B201EBC001891C7B4C44F847
:1052A0001120012B1FD17849096889B201EBC00197
:1052B000891D764D05EB41043E2A0BDD511112F09C
:1052C0001F0F01D14D1EA9B24FF4004545EA8125BB
:1052D000256007E0511012F0010F01D04D1CA9B25A
:1052E0008D0225600AE0022B08D16749096889B25E
:1052F00001EBC001891D654C44F8112030BD30B56B
:10530000034601291FD16048006880B200EBC3004A
:10531000801C5E4D05EB40043E2A0BDD501112F05F
:105320001F0F01D1451EA8B24FF4004545EA802564
:10533000256007E0501012F0010F01D0451CA8B203
:10534000850225600AE0022908D14F48006880B232
:1053500000EBC300801C4D4C44F8102030BD30B52C
:10536000034601291FD14848006880B200EBC30002
:10537000801D464D05EB40043E2A0BDD501112F016
:105380001F0F01D1451EA8B24FF4004545EA802504
:10539000256007E0501012F0010F01D0451CA8B2A3
:1053A000850225600AE0022908D13748006880B2EA
:1053B00000EBC300801D354C44F8102030BD014681
:1053C0003148006880B200EBC100801C2F4A32F8DF
:1053D0001000C0F30900704701462B48006880B2F6
:1053E00000EBC100801D294A32F81000C0F309000B
:1053F000704701462448006880B200EBC100801D60
:10540000224A32F8100010F47C4F01D0012070477E
:105410001D48006880B200EBC100801C1B4A32F8B6
:1054200010008005800D01D00220F0E70020EEE79B
:1054300001290ED1144A503A52F8202048F68F73B1
:105440001A4048F2C0031A430F4B503B43F8202048
:105450000FE002290DD10C4A503A52F8202048F6AC
:105460008F731A404CF280031A43074B503B43F8AA
:1054700020207047024641EA022070470146CAB226
:105480000B1243EA02207047505C0040006000406D
:1054900000201D4908604FF43F401C490880084621
:1054A00000881949091F0860002070472DE9F04164
:1054B00004460E46154604F07F00FFF703FE07463C
:1054C000AAB239463046FFF7E7FBA9B204F07F00E5
:1054D000FFF714FE0020BDE8F0812DE9F0410446FD
:1054E0000E46002504F07F00FFF759FE054604F044
:1054F0007F00FFF7F7FD07462A4639463046FFF79B
:10550000E5FB2846BDE8F081445C00405E000020D9
:1055100018B10021614A116002E001215F4A116067
:10552000704710B5FBF713FE00F026FE0120FFF7D1
:10553000EFFF4FF48020FBF7E2FD4FF48020584945
:10554000086008204871012088710846FBF760FD5B
:1055500010BD10B50020FCF787F90121C805FCF744
:105560002CFA10BD03204F490860704710B54E4C0F
:10557000A07A18B105204B49086002E00120494992
:105580000860FBF799F810BD08B528200323012215
:10559000464900900420FCF79DFD01204049086029
:1055A0000020087108204871012088710846FBF727
:1055B0002FFD06203E4908700F204870887001209A
:1055C000C8700846FBF7FDF808BD10B5042139483E
:1055D000FBF751FA10BD10B54FF4A060FBF7ECF8E3
:1055E0001420334908700220487000208870012080
:1055F000C8700846FBF7E5F82A202D4908700020FE
:1056000048700120C8700846FBF7DBF810BD002089
:10561000FFF77EFF00BF2848006800F4E0602749DC
:105620000843001D24490860BFF3408F00BF00BF3E
:10563000FEE730B50B46002100BF16E00A24B4EBAC
:10564000107F05D9302404EB107403F8114005E0F5
:10565000412404EB10740A3C03F8114000010025BA
:105660004C00641C1D554C1CE1B29142E6DB30BD80
:1056700070B513480468001D0568001D06683444B1
:1056800054B108220F492046FFF7D3FF04220D49E9
:1056900010312846FFF7CDFF70BD0000980123426E
:1056A0006C0000200C040020880400200008014049
:1056B00074000020000C01400CED00E00000FA0531
:1056C000E8F7FF1FF700002010B588B000246548F8
:1056D0000068654908800846008800F40040634976
:1056E0000988084201D0FFF755F95F48008800F4A7
:1056F00080605E490988084206D04FF6FF3059495C
:1057000008605B49486880475748008800F40050AB
:1057100056490988084203D04DF6FF705149086088
:105720005148008800F4805050490988084206D04A
:105730004EF6FF704B490860002000F0AEFC4A486E
:10574000008800F400604949098808420CD04948A3
:10575000007810B100F01DFC02E0022000F09DFC7A
:105760004FF2FF703F4908603F48008800F4007026
:105770003E490988084208D04FF6FF503949086071
:105780003D480078401C3C4908703748008800F4C8
:10579000807036490988084261D04FF6FF60314970
:1057A0000860081D006810F4004F52D033480068AC
:1057B000401C324908600846006803284CD9294833
:1057C000001F006810F0080F46D12648001F00682F
:1057D00080B22B490860002407E02248443850F882
:1057E000240080B24DF82400641C082CF5D3244812
:1057F000006840F00100224908600846006880B255
:105800001849091F08601E48006820F001001C4963
:1058100008600846006880B21249091F086000BF8E
:105820001048006810F4806FFAD04FF6FF300D4931
:105830000860002407E05DF8240080B2094944397B
:1058400041F82400641C082CF5D300200B490860A3
:1058500002E0002009490860072000F01EFC08B0A3
:1058600010BD0000445C0040580300205E00002092
:1058700070030020100400201403002018030020EF
:105880001C03002010B5FD4CFFF7F2FE0020A072B3
:1058900000F056FBFFF7FCFDFFF79DFE0020F849E6
:1058A000086010BD10B50020F4498872F548C07931
:1058B000F549096848720020F4490860F3485038F7
:1058C000006848F68F11084040F40070EF495039E5
:1058D0000860096848F6BF7201EA020080F0200003
:1058E00040F4004141F08001E84A503A1160102133
:1058F000E648006880B2001DE54A42F81010E5480D
:1059000090F82C100020FFF71BFC5021DF480068A6
:1059100080B2DF4A42F81010DE4890F82C100020C8
:10592000FFF7ECFB0020FFF7DBFA0020FFF7A3FAFC
:105930000020FEF786FF0120D149086010BDCF4846
:10594000817A11B10521CE4A116070470420CC49FB
:1059500008607047704710B50020CF490860CF48F5
:105960000068007D10F0040F0BD00620CC490870B1
:1059700008460078CB490871002048708870C870CC
:1059800010BD0820C649087008460078C54908714E
:10599000002048708870C870FFF739FE00BFEFE73D
:1059A00070B5B64D6878032877D1BD4800780428D3
:1059B00075D1BD48006800284ED1BC48007818B9A0
:1059C000BB480068012857D0B848007821281DD16D
:1059D000B7480068052819D1B4484078B54908602F
:1059E000B2488078096801EB0020B2490860AF48EE
:1059F000C078096801EB0040AE490860AB48007907
:105A0000096801EB0060AB49086035E0A748007801
:105A1000412831D1A648006805282DD1A3484078F7
:105A2000A4490860A1488078096801EB0020A149D9
:105A300008609E48C078096801EB00409D490860F5
:105A40009A480079096801EB00609A4908600846A5
:105A5000006800F093FB0FE09348006801280BD921
:105A600091480068801E9349096801EB80249048A2
:105A70000168204600F089FB00208D4908608A49B2
:105A80000860032086490870084600788549087137
:105A9000002048708870C87070BD07E0FFE780483C
:105AA0000078072802D1FFF756FFF5E700BFF3E7BC
:105AB00010B504467A480078032802D0062851D150
:105AC0002AE07B480068D8B1042075490870084670
:105AD0000078744908717448006850B973480078B8
