:020000040801F1
:10000000000400200F0201083D1E0108791B0108B1
:10001000391E01082F060108635101080000000085
:10002000000000000000000000000000193D010871
:10003000C5130108000000009302010851450108A2
:1000400029020108290201082902010829020108E0
:1000500029020108290201082902010829020108D0
:1000600085150108B11501082902010829020108B6
:100070002902010829020108050D0108350D0108B2
:1000800029020108290201082902010829020108A0
:100090000951010829020108290201082902010861
:1000A0002902010829020108290201082902010880
:1000B0002902010829020108290201082902010870
:1000C0002902010829020108290201082902010860
:1000D00029020108454C01082902010829020108EA
:1000E0005915010829020108F54E010829020108E5
:1000F0002902010829020108290201082902010830
:10010000290201082902010829020108290201081F
:10011000290201082902010829020108290201080F
:1001200029020108290201082902010829020108FF
:1001300000F002F800F05AF80AA090E8000C82449F
:100140008344AAF10107DA4501D100F04FF8AFF27C
:10015000090EBAE80F0013F0010F18BFFB1A43F0A5
:10016000010318478C5F0000AC5F00000A444FF0A9
:10017000000C10F8013B13F0070408BF10F8014B06
:100180001D1108BF10F8015B641E05D010F8016B4B
:10019000641E01F8016BF9D113F0080F1EBF10F8AF
:1001A000014BAD1C0C1B09D16D1E58BF01F801CBD2
:1001B000FAD505E014F8016B01F8016B6D1EF9D555
:1001C0009142D6D37047000000230024002500266A
:1001D000103A28BF78C1FBD8520728BF30C148BFAA
:1001E0000B6070471FB51FBD10B510BD00F0FEF8C5
:1001F0001146FFF7F7FF05F01DFB00F01CF903B4F3
:10020000FFF7F2FF03BC05F05FF9000070470A48F2
:1002100080470A480047FEE7FEE7FEE7FEE7FEE705
:10022000FEE7FEE7FEE7FEE7FEE7000004480549BB
:10023000054A064B70470000794501083101010865
:1002400000320020003C0020003400200034002058
:10025000EFF3108072B6704780F3108870471D4826
:100260004FF0FF010170002080F309881A48012136
:1002700001701A484FF08051016062B6FEE71748DE
:100280004FF080510160704714484FF08051016079
:10029000704772B6EFF3098028B1203880E8F00F7C
:1002A0000F490968086000B50E4880475DF804EB07
:1002B0000D480E490A78027009480D490A68026023
:1002C000106890E8F00F203080F309884EF0040E9B
:1002D00062B6704722ED00E09501002004ED00E0D9
:1002E0009C0100203F2901088A0100208B01002089
:1002F000A40100207047032A40F2308010F0030C64
:1003000000F0158011F8013BBCF1020F624498BF68
:1003100011F801CB00F8013B38BF11F8013BA2F105
:10032000040298BF00F801CB38BF00F8013B11F080
:10033000030300F02580083AC0F0088051F8043B20
:10034000083A51F804CBA0E80810F5E7121D5CBF8D
:1003500051F8043B40F8043BAFF30080D20724BFC0
:1003600011F8013B11F801CB48BF11F8012B24BF54
:1003700000F8013B00F801CB48BF00F8012B7047A3
:1003800010B5203AC0F00B80B1E81850203AA0E830
:100390001850B1E81850A0E81850BFF4F5AF5FEA64
:1003A000027C24BFB1E81850A0E8185044BF18C917
:1003B00018C0BDE810405FEA827C24BF51F8043BBE
:1003C00040F8043B08BF7047D20728BF31F8023B12
:1003D00048BF11F8012B28BF20F8023B48BF00F8A6
:1003E000012B70477047704770477047754600F0A3
:1003F00029F8AE4605006946534620F007008546B9
:1004000018B020B5FFF712FFBDE820404FF00006FE
:100410004FF000074FF000084FF0000B21F00701EC
:10042000AC46ACE8C009ACE8C009ACE8C009ACE82F
:10043000C0098D4670470446AFF300802046FFF7A1
:10044000DEFE0000004870479C31002021B1826828
:1004500042F00102826003E0826822F001028260C1
:10046000704721B1826842F48072826003E0826842
:1004700022F480728260704710B5044612488442AC
:1004800008D10121401503F065FA0021601503F041
:1004900061FA17E00D48844208D10121001503F0EC
:1004A00059FA0021201503F055FA0BE00848844260
:1004B00008D10121C80303F04DFA00214FF4004098
:1004C00003F048FA10BD000000240140002801405C
:1004D000003C0140014600208A6812F0040F01D060
:1004E000012000E000207047014600208A6812F0D9
:1004F000080F01D0012000E00020704730B502460F
:100500000020002350680F4C20400D790C6844EA0D
:1005100005242043506090680B4C2040D1E90254E0
:100520002C434D7944EA450420439060D06A20F47E
:1005300070000C7C641EE4B2234340EA0350D06296
:1005400030BD0000FFFEF0FFFDF7F1FFF0B50446FF
:100550000D4600200021092D11DDE068A5F10A06F5
:1005600006EB4607072606FA07F18843A5F10A06B7
:1005700006EB460603FA06F10843E0600CE020694A
:1005800005EB4507072606FA07F1884305EB450604
:1005900003FA06F108432061072A0FDA606B561E42
:1005A00006EB86071F2606FA07F18843561E06EB60
:1005B000860605FA06F10843606322E00D2A0FDA89
:1005C000206BD61F06EB86071F2606FA07F1884325
:1005D000D61F06EB860605FA06F10843206310E0F5
:1005E000E06AA2F10D0606EB86071F2606FA07F160
:1005F0008843A2F10D0606EB860605FA06F10843CC
:10060000E062F0BD816841F008018160704721B16E
:10061000826842F4A002826003E0826822F4A002B1
:1006200082607047816841F004018160704700BFBB
:10063000FEE70146CAB20B1243EA022070470000EF
:1006400008B50020009015E19048008800F00F00E8
:100650008F4908700846007800287DD18D480068D1
:100660008D4908800846008800F030008B490880DA
:100670008948008800F44050874908808549096806
:100680004BF6BF7201EA020080F4005080F02000B7
:1006900040F4004141F080017E4A11607B480088AF
:1006A00010F0100F32D11046006848F60F71084064
:1006B0001146086001F062FA764909684BF6BF728C
:1006C00001EA02007449098811F4805F01D080F4C6
:1006D00080507149098811F4005F01D080F4005006
:1006E0006E49098811F0100F01D080F010006B499D
:1006F000098811F0200F01D080F0200081B241F470
:10070000004141F08001634A116008BD6148006802
:1007100080B20090BDF8000010F4006F36D05D4844
:100720000068C0F30E0048F68F7108405949086010
:1007300003F052FC574909684BF6BF7201EA020008
:100740005549098811F4805F01D080F480505249E6
:10075000098811F4005F00E052E001D080F40050FD
:100760004E49098811F0100F01D080F010004B495C
:10077000098811F0200F01D080F0200081B241F4EF
:10078000004141F08001434A1160BEE7BDF800001E
:1007900010F4004F6ED03F480068C0F30E0048F6DA
:1007A0008F7108403B49086003F008F8394909682F
:1007B0004BF6BF7201EA02003749098811F4805FE5
:1007C00001D080F480503449098811F4005F01D0D1
:1007D00080F400503149098811F0100F01D080F0E9
:1007E00010002E49098811F0200F01D080F0200060
:1007F00081B241F4004141F08001264A116084E752
:1008000023480078234951F8200080B20090BDF8B9
:10081000000010F4004F14D01D48007851F820005B
:10082000C0F30E0048F68F71084019490978194A3B
:1008300042F8210016490978491E194A52F8210048
:100840008047BDF8000010F0800F13D010480078EA
:10085000104951F8200048F60F7108400C490978FA
:100860000C4A42F821000A490978491E0D4A52F8FB
:100870002100804707484430006880B2034908805F
:1008800010F4004F7FF4E0AE00BF3EE7B40000205C
:10089000CC010020005C0040E0010020E2010020CB
:1008A000980000207C000020094951F8201011F424
:1008B000804F0BD0064951F8201048F68F72114036
:1008C0004CF280021143024A42F8201070470000A7
:1008D000005C0040094951F8201011F0400F0BD086
:1008E000064951F8201048F68F72114048F2C002B4
:1008F0001143024A42F8201070470000005C00409B
:10090000064951F8201048F68F62114048F28002E3
:100910001143024A42F8201070470000005C00407A
:1009200070B504460D463448344908600421334804
:100930008160334831494860011530488181491050
:10094000C18104610121C18225B1022D06D0042D8F
:100950000ED108E00021294881820DE04FF480612A
:100960002648818208E04FF4C0612448818203E078
:1009700000212248818200BF00BF1F48001D1F497F
:1009800088614FF480411D48C161252101840F20F9
:100990001A4981F824000E21184880F825101949B9
:1009A000816218491439C16280210163416316498B
:1009B00081631649C1630020104981F8400000217D
:1009C0000E4880F8411080F8421011480B494864E5
:1009D00010490A4881640021A0F84C10A0F84E107C
:1009E000A0F850104021A0F8521004F0FFFB03487B
:1009F00003F076FD012070BD003801408C1C002002
:100A00000008014058000240CE1400204E1500207E
:100A1000CE1500206001002010B5044694F8400077
:100A200008B9002010BD00BF2068008810F0800FBA
:100A3000FAD000BF4021206804F094F90028F9D0D2
:100A40000120EFE770B504460E4615460E492068B2
:100A500088420CD00D492068884208D00C49206893
:100A6000884204D00B492068884200D070BD05B987
:100A7000FCE7002084F840002A463146204603F077
:100A80003DFD00BFF2E70000003801400044004097
:100A900000480040004C004070B504460025062C7C
:100AA00018D118480068007800F07F00012811D1A3
:100AB00014480068407968B9124800688078222894
:100AC00001D1114D10E00F480068807821280BD12A
:100AD0000E4D09E00B480068007800F07F002128E7
:100AE00002D1032C00D10A4D0DB9022070BD05487A
:100AF0000068856100210348006841820020A84702
:100B00000020F3E7D00100206D0B01083D0B010828
:100B1000510B010810B504460249204603F072FB50
:100B200010BD00001801002010B5044602492046FF
:100B300003F068FB10BD00001001002010B5044652
:100B40000249204603F05EFB10BD00002801002092
:100B5000014629B90120034A12681082002070471B
:100B60000148FCE7D00100205001002010B50446E8
:100B70000249204603F046FB10BD00002001002082
:100B800070B5054606480068C478042C01DD0020D5
:100B900070BD044800EBC401284603F033FBF7E7BF
:100BA000D0010020300100200246002901DD022092
:100BB0007047002A01DD0220FAE70020F8E7000074
:100BC00000B5024606480068007800F07F00212842
:100BD00004D10B2A02D100F073F800BD0220FCE71B
:100BE000D001002010B500202849096888722749E3
:100BF0000968C8722648C0792449096848720020EB
:100C000003F08CF84FF40071002003F057F9102125
:100C1000002003F037F91821002003F0ABF8582129
:100C2000002003F011F90020FFF76AFE194890F840
:100C30002C10002003F0B0F8002003F0EFF84FF480
:100C4000C061012003F03AF94FF48071012003F0F4
:100C5000FBF84FF48271012003F08CF84021012051
:100C600003F002F94021012003F096F84FF44051BF
:100C7000012003F0B7F82021012003F003F9002040
:100C800003F054F801200449086010BDD001002091
:100C9000545F0108BC000020580100200348006890
:100CA000807A10B10520024908607047D001002009
:100CB00058010020042001490860704758010020B5
:100CC00003480068C17803480160002070470000B5
:100CD000D0010020500100207047704710B500F08F
:100CE00031FF002005490968887202F0C7FD04F051
:100CF0000FFA00200249086010BD0000D00100205A
:100D00005801002010B54FF4005000F017F958B109
:100D10000021064800F05CF84FF4005000F04AF85B
:100D20000120034981F8400010BD0000440002404A
:100D30008C1C00201CB54FF4003000F0FFF840B1CF
:100D400000211A4800F044F84FF4003000F032F867
:100D50000CE04FF4002000F0F1F838B10021134806
:100D600000F036F84FF4002000F024F81048008816
:100D7000019016E00E480C30008800900C481030AE
:100D8000008800900A481430008800900848001D30
:100D90000088009006480088019000980090019813
:100DA0000190019810F0080FE4D11CBD58000240DA
:100DB0000038014010F0805F02D00349086001E074
:100DC00002494860704700000404024000000240ED
:100DD00021B1026842F00102026004E002684FF6AD
:100DE000FE731A400260704701684FF6FE721140B0
:100DF00001600021016041608160C1604B4988420F
:100E000008D14A490839496841F00F01474A083A70
:100E100051608AE045491431884208D14349083974
:100E2000496841F0F001414A083A51607DE03F498C
:100E30002831884208D13D490839496841F4706138
:100E40003A4A083A516070E038493C31884208D14A
:100E500036490839496841F47041344A083A5160CA
:100E600063E032495031884208D130490839496835
:100E700041F470212D4A083A516056E02B49643103
:100E8000884208D129490839496841F47001274A44
:100E9000083A516049E025497831884208D1234910
:100EA0000839496841F07061204A083A51603CE0D5
:100EB0001F49884206D1011F096841F00F01021F36
:100EC000116032E01A491431884208D11849091FCB
:100ED000096841F0F001164A121F116025E014491B
:100EE0002831884208D11249091F096841F470610C
:100EF0000F4A121F116018E00D493C31884208D199
:100F00000B49091F096841F47041094A121F116019
:100F10000BE007495031884207D10549091F09688C
:100F200041F47021024A121F11607047080002400C
:100F3000080402400146486880B27047014600201C
:100F4000002211F0805F02D0054B1A6801E0054BCA
:100F50001A680A4201D0012000E00020704700001A
:100F600000040240000002401AB103680B43036012
:100F700002E003688B430360704710B500220268EB
:100F800047F6F0739A430C6A8B6823430C6923433A
:100F90004C6923438C692343CC6923434C6A234324
:100FA0008C6A23431A430260CB6843600B688360FA
:100FB0004B68C36010BD4160704700002DE9F047E9
:100FC0002848006800F110052E8826480068077A36
:100FD000D6B9042F18D12448007801280FD1002158
:100FE0002248006880B2801C214A42F8101030204C
:100FF0002049088000BF00201B49087003E0072734
:1010000010201C49088027E0AC88A64201D80420A3
:1010100000E002200746B44200D93446A0B2A968D5
:1010200088478046002000F07DFD8146A2B24946F7
:10103000404604F0D1F9A1B2002002F015FF288843
:10104000001B288068882044688030200949088077
:1010500000020949088000BF024909680F72BDE813
:10106000F0870000D0010020C6010020505C004045
:1010700000600040E2010020E00100202DE9F04185
:101080002848006800F110042688A068C0B1BEB1ED
:10109000A588B54200D93546A8B2A1688847074659
:1010A0002088401B2080608828446080002000F059
:1010B00017FD8046AAB24146384602F0A7FB00BFA2
:1010C000208850B14FF4405017490880002108464D
:1010D00002F0CAFE3020154908802088A188884285
:1010E00004DB03200F490968087218E020880028F3
:1010F00004DD05200B490968087210E0208870B9EA
:10110000062008490968087200210948006880B271
:10111000801C084A42F81010302004490880BDE8BD
:10112000F0810000D0010020E0010020E201002059
:10113000505C0040006000402DE9F84F984800687E
:1011400045780027BA46062D1AD1954800680078E0
:1011500010F07F0F13D1924909688878012803D1D4
:1011600090490968CF690AE0022803D18D490968CE
:101170000F6A04E0032802D18A4909684F6A90E0A7
:10118000002D60D186480068408800285BD18448E3
:101190000068C088022856D181480068007900287C
:1011A00051D17F480068007810F07F0F05D17C484E
:1011B0000068808808B97C4F73E07948006800783F
:1011C00000F07F00012810D17549096848797549F8
:1011D00009688A6900219047002862D17048006838
:1011E000807A00285DD0704F5BE06D480068007821
:1011F00000F07F00022854D169480068407900F06F
:101200000F0667480068407900F07009644800687C
:10121000407910F0800F05D0644850F8260000F0A7
:10122000300804E0614850F8260000F44058604857
:101230000078B04235D9B9F1000F32D1B8F1000FC2
:101240002FD0594F2DE0082D07D155480068007860
:1012500010F07F0F25D1574F23E00A2D21D15048A0
:101260000068007800F07F0001281AD14C4800681F
:10127000807AB0B14A480068408890B94848006810
:10128000007970B946480068C088012809D14449EE
:1012900009684879434909688A690021904700B97B
:1012A000454F57B13E480068A0F812A03C4800687E
:1012B00087610020B84700240FE0394A126850784F
:1012C000384A1268116988470446032C05D1092061
:1012D000334909680872BDE8F88F31480068008A10
:1012E000A0F57F41FF3904D109202D490968087212
:1012F000F1E7022C03D02A480068008A20B90820B0
:10130000274909680872E6E725480068007810F068
:10131000800F3CD022480068C088009020480068B8
:10132000008A0099884204D91D49009809680882FA
:1013300023E01B480068008A19490968C988884267
:101340001BDA17480068008A1649096891F82C10C2
:10135000884203DA0020194908700EE0104800683E
:10136000008A1049096891F82C1090FBF1F201FBFA
:10137000120010B90120114908700A48006890F85D
:101380002C10074800688182FFF718FE06E0032052
:1013900003490968087200030949088000BF9AE7F9
:1013A000D0010020D401002055420108005C00401B
:1013B000B8000020D941010829420108C6010020D7
:1013C000E00100207047000070B504460D460A4851
:1013D000007840B94FF40071084800F078FB012014
:1013E0000549087007E04FF40071044800F071FBF4
:1013F00000200149087070BD27000020000C01404A
:101400001FB504F0D5F900214FF4615004F088FABB
:1014100003A800210091414B0222CDE901101421C3
:10142000012001F07BFB044603A9204601F06AFC81
:1014300072E03B480078012808D101220421394894
:1014400003F0D6F800203649087004E00022042199
:10145000344803F0CDF83448007840B14021334897
:1014600000F035FB8021314800F033FB07E080219C
:101470002E4800F02CFB40212C4800F02AFB2C4881
:10148000007840B11021294800F021FB2021274895
:1014900000F01FFB07E02021244800F018FB10217A
:1014A000224800F016FB0121204800F007FBA8B9F4
:1014B00002211E4800F002FB80B14FF400711B486E
:1014C00000F005FB4FF48071184800F002FB03ABFD
:1014D00000221146204601F08FFC17E015480078E5
:1014E00001280FD10102114800F0F1FA4FF4007108
:1014F0000E4800F0EEFA03AB00221146204601F040
:101500007BFC03E003A9204601F0FCFB3223002210
:101510001146104601F050FA8BE70000C91301088C
:10152000590000200004004056000020000C01403B
:10153000570000205800002010B50549012003F095
:10154000F9FD04490870012002F068FC10BD00009C
:101550007E1400207400002070B5002400BFFEF748
:1015600077FE054606480078401C05490870284665
:10157000FEF772FE00F0DCFB00F0C2FD70BD000063
:101580008801002070B5002400BFFEF761FE05460B
:1015900006480078401C054908702846FEF75CFEA6
:1015A00000F0C6FB00F0ACFD70BD0000880100201B
:1015B00070B5002400BFFEF74BFE054606480078D4
:1015C000401C054908702846FEF746FE00F0B0FBB7
:1015D00000F096FD70BD0000880100200149086000
:1015E0007047000014040140014600200022074B10
:1015F0001B6803EA0102054B14331B680B4202D03F
:101600000AB1012000E00020704700000004014002
:10161000002123498279002A3AD00A4612680368D9
:101620009A430B461A600A1D126803689A430B1D01
:101630001A60027911440A6803681A430A60184A5A
:101640000832126803689A43154B08331A601A1D52
:10165000126803689A43124B0C331A604279102ABD
:101660000ED11A1F126803681A430D4B08331A6013
:101670001A1D126803681A43094B0C331A600DE0F7
:101680000749427911440A6803681A430A6005E071
:10169000027911440A6803689A430A60704700009F
:1016A00000040140032001490860704758010020F0
:1016B0000149C860704700000020024030B5044670
:1016C00004254FF4302000F085F80546042D17D18D
:1016D0000C48006940F002000A490861084644616C
:1016E000006940F0400008614FF4302000F072F8CB
:1016F00005460448006941F6FD710840014908614A
:10170000284630BD0020024004200B49C96811F072
:10171000010F01D001200EE00749C96811F0040F44
:1017200001D0022007E00449C96811F0100F01D070
:10173000032000E0042070470020024003480069B5
:1017400040F080000149086170470000002002401D
:1017500078B506460C46042500200090E80200F00B
:1017600039F80546042D24D11348006940F00100E2
:10177000114908613480E80200F02CF80546042D78
:1017800010D1B01C0090200C00990880E80200F0F5
:1017900021F805460848006941F6FE7108400649EF
:1017A000086106E00448006941F6FE7108400249FC
:1017B0000861284678BD0000002002400248034925
:1017C0004860034848607047230167450020024095
:1017D000AB89EFCD00B502460423FFF795FF034622
:1017E00003E0FFF791FF0346521E012B01D1002AAF
:1017F000F7D102B90523184600BD10B501210846EE
:1018000002F0A8F80021012002F0A4F810BD0000A9
:1018100010B504462948844208D10121042002F071
:1018200099F80021042002F095F846E0244884420B
:1018300008D10121082002F08DF80021082002F0D3
:1018400089F83AE01F48844208D10121102002F0B3
:1018500081F80021102002F07DF82EE01A48844221
:1018600008D10121202002F075F80021202002F08B
:1018700071F822E01548844208D10121402002F08D
:1018800069F80021402002F065F816E01048844213
:1018900008D10121802002F05DF80021802002F0B3
:1018A00059F80AE00B48844207D10121801502F063
:1018B00051F80021A01502F04DF810BD00080140BC
:1018C000000C0140001001400014014000180140CC
:1018D000001C01400020014030B500228B071C0F86
:1018E0000F2303FA04F20B4B8C1053F8243093436C
:1018F000084C8D1044F8253023468C1053F82430C2
:101900008C07240F00FA04F42343024C8D1044F892
:10191000253030BD080001402DE9F0410246002588
:101920000026002000230024002791F803C00CF0BB
:101930000F0591F803C01CF0100F03D091F802C0FE
:101940004CEA050591F800C0BCF1000F31D01468D5
:1019500000202BE04FF0010C0CFA00F3B1F800C0AE
:101960000CEA03069E4220D183004FF00F0C0CFAC4
:1019700003F7BC4305FA03FC4CEA040491F803C0E6
:10198000BCF1280F06D14FF0010C0CFA00FCC2F894
:1019900014C00AE091F803C0BCF1480F05D14FF024
:1019A000010C0CFA00FCC2F810C0401C0828D1D36E
:1019B0001460B1F800C0BCF1FF0F34DD54680020A2
:1019C0002EE000F1080C4FF0010808FA0CF3B1F812
:1019D00000C00CEA03069E4221D183004FF00F0C99
:1019E0000CFA03F7BC4305FA03FC4CEA040491F833
:1019F00003C0BCF1280F05D100F1080C08FA0CF85F
:101A0000C2F8148091F803C0BCF1480F07D100F16F
:101A1000080C4FF0010808FA0CF8C2F81080401CBE
:101A20000828CED35460BDE8F0810000F0B50A4626
:101A3000002300240021002500F00046B6F1004FED
:101A400002D11D4EF16901E01B4E7168C0F30345E0
:101A500083B200F44016B6F5401F08D121F0706142
:101A6000154E766826F07066134F7E6012E000F423
:101A70008016B6F5801F06D1032606FA05F4A143A9
:101A800041F0706106E0460D360103FA06F6B143F7
:101A900041F0706122B1460D360103FA06F631437A
:101AA00000F00046B6F1004F02D1034EF16101E0B3
:101AB000014E7160F0BD00000000014002460020B0
:101AC00093680B4201D0012000E000207047416183
:101AD0007047016170470AB1016100E041617047E0
:101AE00001460548006880B200EBC100001D034AB2
:101AF00032F8100080B27047505C00400060004037
:101B000001460648006880B200EBC100801D044A0F
:101B100032F81000C0F3090070470000505C00402C
:101B20000060004001460548006880B200EBC1003B
:101B3000034A32F8100080B270470000505C004049
:101B40000060004070B50A480468001D0568001D6B
:101B50000668344454B108220649204600F046F88D
:101B6000042204491031284600F040F870BD0000FE
:101B7000E8F7FF1F5C00002000BFFEE710B5184823
:101B80000068047A022C01D0042C05D1FFF716FA64
:101B900013480068047A1CE0062C19D1104800682C
:101BA000407805280ED10E480068007810F07F0FAD
:101BB00008D10B490968C87802F0B8F809490968E2
:101BC000086A80470849096888688047082400E057
:101BD0000824034909680C7201F02CFE10BD0000B6
:101BE000D0010020DC010020D401002030B50B46DC
:101BF000002100BF16E00A24B4EB107F05D9302481
:101C000004EB107403F8114005E0412404EB107458
:101C10000A3C03F81140000100254C00641C1D55CE
:101C20004C1CE1B29142E6DB30BD00002DE9F141F0
:101C300083B0BDF80C0006281AD2DFE800F0190BBB
:101C4000140F03072E4C2F4D042612E02E4C2D4D61
:101C500008260EE02D4C2E4D6E140AE02D4C2C4D16
:101C60004FF4804605E02C4C2C4D4FF4004600E02C
:101C700000BF00BF2A49206801F08CF88046B8F107
:101C8000000F16D131462846FFF718FF88B92448BF
:101C9000002103AA234BCDE90021029001224FF439
:101CA0007A7000F03BFF20601D49206801F02AF89F
:101CB00024E0B8F1030F21D11949206800F0BEFFDC
:101CC0000746B7F5617F04D901201749BDF80C20FC
:101CD0008854B7F5487F08D203201349BDF80C207B
:101CE000885401201149087004E002200E49BDF813
:101CF0000C2088540A49206800F05AFFBDE8FF8193
:101D000018000020000C01401C0000200C000020E6
:101D100000100140140000201000002000080140C5
:101D200026000020C11D01080400002059000020E9
:101D300010B50420FFF758FC012805D104201E49E6
:101D40000880FFF74BFC31E00820FFF74DFC01282D
:101D500006D10520184908800820FFF73FFC25E040
:101D60004FF40050FFF740FC012805D112490880CC
:101D70004003FFF733FC19E04FF48040FFF734FCD9
:101D8000012807D103200C4908804FF48040FFF759
:101D900025FC0BE04FF40040FFF726FC012805D19D
:101DA0000220054908808003FFF718FC0249034818
:101DB000006800F0A1FA10BD2400002020000020DF
:101DC00070B505460C46268801200349885503490D
:101DD000284600F0EDFE70BD040000202600002023
:101DE00008B503F01FFC002000F0D2F90849086094
:101DF0000DE06A4600210648006800F0F3F9044649
:101E00009DF8000018B914B12088FFF70FFFF0E724
:101E10002000002010B5064CA07A18B10520054915
:101E2000086002E001200349086002F0A5FB10BD34
:101E3000803100205801002000BFFEE700BFFEE710
:101E4000704700F01F020121914042094FF0E0234A
:101E500003EB8202C2F800117047000070B5002148
:101E600000230F22C4780CB3164C246804F4E064F9
:101E7000C4F5E064210AC1F10403CA40447804FABD
:101E800003F184781440214309010F4C0678A155D1
:101E9000047804F01F050124AC4005786D114FF063
:101EA000E02606EB8505C5F8004109E0047804F05A
:101EB0001F050124AC40054D0678761145F82640F3
:101EC00070BD00000CED00E000E400E080E100E007
:101ED00002490143024A1160704700000000FA0500
:101EE0000CED00E010B5002807DA0A07140E054AC9
:101EF00000F00F031B1FD45403E00A07130E024A1D
:101F0000135410BD18ED00E000E400E0024A0A405E
:101F10000243024B1A60704780FFFF1F08ED00E08C
:101F200070B502264948006844784848006800783F
:101F300010F07F0F4AD1092C03D102F007FA0646B0
:101F400065E0052C14D141480068C0787F280BDC7F
:101F50003E480068807838B93C480068808818B9E5
:101F60003A480068807A08B108256BE000264EE008
:101F7000032C14D135480068C07801280DD13348AE
:101F80000068808848B931480068407A10F0200F16
:101F900003D002F0FFF9064639E0022637E0012CB3
:101FA00035D12A480068C07801280DD1274800683B
:101FB000808848B925480068407A10F0200F03D087
:101FC00002F066F8064622E0022620E01F4800687C
:101FD000007800F07F00012805D10B2C17D102F00A
:101FE00049FA064613E019480068007800F07F00BF
:101FF00002280BD1012C03D102F04AF8064606E074
:10200000032C04D102F0DAF9064600E002264EB1B4
:10201000E0B20F4A1268516988470646032E01D183
:1020200009250FE00EB108250CE00625002109481E
:10203000006880B2801C084A42F81010302007491E
:10204000088000BF014909680D7270BDD0010020F1
:10205000D4010020505C004000600040E2010020FC
:102060002DE9F04105460E46144600271DB904200F
:102070002070BDE8F08116B90C202070F9E71148F6
:10208000007810B112202070F3E72878012808D0DA
:10209000022807D0032802D0042804D100E000BFA2
:1020A00000BF00BF02E001202070E2E700BFFEF7A2
:1020B000CFF807466E613846FEF7CEF80020207054
:1020C00000BFD6E78801002010B500F011F801F03C
:1020D000AFF901F0CBF901F0EBF901F079F901F07A
:1020E00039F901F025FA00F02FFF00F007F810BDD4
:1020F0000020014908807047C4010020704700009B
:1021000010B500241A480078012830D1FEF7A0F855
:1021100004461848007820B116480078401E15493A
:10212000087014480078F8B913480078E0B901F055
:102130006BFA12481249097850F8210011490860D9
:102140000F4800781049097888420DD00D48006882
:10215000C06B401C0B490968C8630C480068401CF0
:102160000A490860FEF790F82046FEF775F810BDA2
:10217000950100208801002089010020882400208A
:102180008B010020A40100208A0100207C01002096
:1021900070B5054600261048007808B1002070BDD3
:1021A000FEF756F806460D480468006820B10B4853
:1021B00000684068094908603046FEF74DF84CB1A8
:1021C0000120207000202081656005A0606120460C
:1021D00001F0B2F82046E2E78801002080010020EB
:1021E0003F0000002DE9F04105460F4614464FF030
:1021F000000825B9042020700020BDE8F08128786F
:10220000012803D0012020700020F6E7374800782D
:1022100018B1022020700020EFE73548007818B18F
:102220000D2020700020E8E7FEF712F880466E6867
:1022300046B1002068604046FEF70EF8002020708E
:102240003046DAE72B48006890F8340040F002008E
:102250002849096881F8340000202649096881F876
:102260003500244800680763284601F027F84046F7
:10227000FDF7F2FF01F08EF9FDF7EAFF80461D48F9
:10228000006890F8350020B101280DD002280AD14D
:1022900005E018480068466A002020700DE000261E
:1022A0000E20207009E000BF29461248006800F0A7
:1022B000D1FF00260A20207000BF00BF00200D497A
:1022C000096881F834000B49096881F8350009492B
:1022D0000968C861074909680862064909684862CF
:1022E0004046FDF7B9FF304687E70000880100202F
:1022F000890100209C01002070B504460D4600268F
:102300000CB9042070BD0DB90320FBE7207801282B
:1023100001D00120F6E7FDF79BFF0646A07A60B1E9
:10232000002302222946204600F04AFF3046FDF7EE
:1023300093FF01F02FF90020E4E7606820B13046F8
:10234000FDF78AFF1420DDE765603046FDF784FF66
:102350000020D7E710B500240B480078012811D1E0
:10236000FDF776FF04460948007840B90848007830
:10237000FF2804D206480078401C05490870204612
:10238000FDF76AFF10BD00009501002088010020C4
:102390008901002010B5002413480078012821D1BC
:1023A000FDF756FF044611480078C0B10F48007889
:1023B000401E0E4908700846007860B90C48007845
:1023C00028B92046FDF748FF01F0E4F80AE020466E
:1023D000FDF742FF06E02046FDF73EFF02E0204603
:1023E000FDF73AFF10BD0000950100208901002093
:1023F0008801002070B5054600261048007808B115
:10240000002070BDFDF724FF06460D4804680068F3
:1024100020B10B4800684068094908603046FDF764
:102420001BFF4CB10320207025810020606005A0B7
:102430006061204600F080FF2046E2E7880100202E
:10244000800100203F0000002DE9F04105460E46C6
:10245000144600271DB904202070BDE8F0812878BB
:10246000032802D001202070F7E73248007810B12D
:1024700002202070F1E73048007810B10D20207064
:10248000EBE7FDF7E5FE0746288940B12889401EA5
:1024900028813846FDF7E0FE00202070DDE7274860
:1024A000006890F8340040F001002449096881F880
:1024B000340000202149096881F835001F48006870
:1024C0000663284600F0FAFE3846FDF7C5FE01F027
:1024D00061F8FDF7BDFE07461848006890F8350022
:1024E00020B1012809D0022806D102E00020207086
:1024F0000BE00E20207008E000BF29460F4800685E
:1025000000F0A8FE0A20207000BF00BF00200B4989
:10251000096881F834000949096881F835000749DC
:102520000968C8610549096808623846FDF794FEE4
:1025300000BF92E788010020890100209C01002053
:1025400070B5044600250CB9042070BD207803281E
:1025500001D00120F9E7FDF77BFE0546A07A60B1C6
:10256000002301221946204600F02AFE2846FDF7E6
:1025700073FE01F00FF80020E7E720894FF6FF71A6
:10258000884207D22089401C20812846FDF764FE3E
:102590000020DAE72846FDF75FFE3320D5E700008C
:1025A00010B50B48007890B901F02EF80948007872
:1025B0000949087009480749097850F82100084975
:1025C00008600846006807490860FDF748FE10BD2E
:1025D000950100208B0100208A0100208824002022
:1025E000A40100209C010020704700002DE9F04F5D
:1025F00085B081468A4693461C46DDE90F78129DD8
:10260000002003903F2C03D92A2005B0BDE8F08FAD
:10261000FDF71EFE03902248007820B10398FDF7D5
:102620001BFE3C20F1E71F4850F8240088BB012026
:102630001C4941F824000398FDF70EFE2A46414646
:10264000384601F0ADF82B465A465146484600F050
:1026500029F904901198CDE9008002953A46204668
:102660000E9B049900F0E6FF064636B90E48007846
:1026700001280CD100F08EFF09E0FDF7E9FD039081
:102680000020084941F824000398FDF7E5FD304695
:10269000BBE7FFE70398FDF7DFFD2820B5E7000063
:1026A0008801002088240020950100207047000048
:1026B0002DE9F041054600274D48007810B1402033
:1026C000BDE8F0813F2D01D13E20F9E73F2D03D336
:1026D000FF2D01D02A20F3E7FDF7BAFD0746FF2DB5
:1026E00003D14448006890F83650434850F82540DC
:1026F00024B93846FDF7B0FD4320E1E7012C04D1B1
:102700003846FDF7A9FD3D20DAE714F8380F3B49BC
:10271000085C617888432178384A505414F83809A5
:102720001146085C30B994F83A103548007888436F
:1027300033490870E06918B12046E16900F08AFD6C
:10274000206A18B12046216A00F099FDA66A16B1E8
:10275000304600F02BFE0020206384F8340084F81B
:10276000350028480078FF2804D226480078401C0D
:10277000244908703846FDF76FFD00F01FFDFDF796
:1027800067FD07461F48007820B11E480078401EAC
:102790001C490870204600F041F81B480078401E94
:1027A000194908700020144941F82500A06930B982
:1027B00000206169886115496069086005E0D4E915
:1027C00005014861D4E9051088611148006860611D
:1027D0000F4804600FA020653846FDF73DFD0E4808
:1027E0000078012801D100F0D5FE002068E7000044
:1027F000880100209C010020882400208D010020F9
:102800008C0100208901002096010020A8010020F1
:10281000A00100203F000000950100207047704794
:102820002DE9F04105460F4614464FF000083F2DB4
:1028300005D9FF2D03D02A202070BDE8F08117B9FB
:102840000C202070F9E71448007810B11220207095
:10285000F3E7FDF7FDFC8046FF2D03D10F4800682C
:1028600090F836500E4850F825602EB94046FDF7D6
:10287000F3FC43202070E0E7012E05D14046FDF730
:10288000EBFC43202070D8E737654046FDF7E4FCB9
:102890000020207000BFD0E7880100209C010020AC
:1028A0008824002070B5044610464FF080750560FE
:1028B000051F28462C606FF00106051F28462E6074
:1028C0004FF01236051F28462E604FF00336051FC5
:1028D00028462E604FF00236051F28462E607610DF
:1028E000051F28462E60051F284629604FF0113627
:1028F000051F28462E604FF01036051F28462E6013
:102900004FF00936051F28462E604FF00836051F88
:1029100028462E604FF00736051F28462E604FF0E0
:102920000636051F28462E604FF00536051F28463F
:102930002E604FF00436051F28462E6070BD70478C
:1029400070B5054600261748007800B170BD1648DE
:10295000007800B1FAE71DB3FDF77AFC064613488C
:10296000006890F838401248005D1049096891F8F5
:10297000391088430E4908550846005D40B90B4898
:10298000006890F83A100B480078884309490870AD
:102990000648006805633046FDF75EFC00F0FAFD6E
:1029A00000BFD3E788010020890100209C0100209E
:1029B0008D0100208C0100202DE9F04107460D46D5
:1029C00016461C461B48007810B15520BDE8F08122
:1029D0001948007808B13220F8E727B91DB916B9AF
:1029E0000CB95420F2E73B2D01D95120EEE73B2EE4
:1029F00001D95220EAE7B4F57A7F01D35320E5E705
:102A00004FF47A7060434FF47A71B0FBF1F14FF4F8
:102A100061607843C5EB051200EB8200304400EBA7
:102A20004002C2EBC01001EBC0084046FFF788FF30
:102A30000020CBE7880100208901002070B5002527
:102A400000F05AF8FDF704FC054626480068401CD3
:102A5000244908602846FDF7FFFB23480078012839
:102A60003ED12248046837E0FDF7F2FB0546206BB3
:102A700070B3206B401E2063206B48BB94F8340079
:102A800010F0370F09D014F8340F00F0C800207090
:102A900001206070A4F1340402E0002084F83500C5
:102AA00094F8340010F0080F12D104F13804A07823
:102AB0000F49097840EA01000D49087020780D4956
:102AC000085C617840EA010014F83819094A50544A
:102AD00064692846FDF7C0FB94F836003F28C3D14F
:102AE00070BD0000AC01002095010020A80100206D
:102AF0008C0100208D01002010B507480088401C83
:102B00000549088008460088052803D3002008806E
:102B100000F0EEF810BD0000C40100202DE9F05FC8
:102B200006460F4690469946DDE90AAB0C9DB8F182
:102B3000010F09D0B8F1020F0CD127B983202870FA
:102B40000020BDE8F09F09E01EB982202870002017
:102B5000F7E703E0842028700020F2E700BF134865
:102B6000007818B18B2028700020EAE7FFF7F2FB0D
:102B700000F0A4F904462CB9FFF70CFC862028705D
:102B80000020DEE7012084F82500A661E76184F8D3
:102B90002480C4F80490C4F808A0C4F820B0FFF75B
:102BA000F9FB002028702046CBE7000088010020B8
:102BB00070B505460C461DB98A202070002070BDF6
:102BC0002878642803D0892020700020F7E71A486D
:102BD000007818B18B2020700020F0E7FFF7BAFBD7
:102BE00095F82500D8B101280FD002280ED003286F
:102BF0001BD1284600F0C0FA284600F07FF9FFF705
:102C0000C9FB002020700120D9E700BF284600F052
:102C100075F9FFF7BFFB002020700120CFE7FFF719
:102C2000B9FB872020700020C9E7FFF7B3FB8D2098
:102C300020700020C3E700008801002070B5044622
:102C40000D461CB98A202870002070BD20786428A9
:102C500003D0892028700020F7E72348007818B1B6
:102C60008B2028700020F0E7FFF774FB94F8250014
:102C700070B301280DD0022825D003282ED11B497E
:102C800060690968461AFFF785FB00202870304606
:102C9000DBE794F8240001280CD0022809D1A069B0
:102CA00008B9E66900E0A669FFF774FB0020287008
:102CB00006E000BFA669FFF76DFB0020287000BF8B
:102CC00000BF3046C1E7FFF765FB00202870BCE776
:102CD000FFF760FB872028700020B6E7FFF75AFB5C
:102CE0008D2028700020B0E788010020B40100206A
:102CF00010B503480068FFF723FC0446204610BDCA
:102D0000BC01002070B505460C461DB98A20207014
:102D1000002070BD2878642803D08920207000200E
:102D2000F7E71B48007818B18B2020700020F0E7EF
:102D3000FFF710FB95F82500E8B1012810D0022814
:102D40000FD003281DD1284600F016FA002128468E
:102D500000F09CF9FFF71EFB002020700120D8E74F
:102D600000BF0021284600F091F9FFF713FB002077
:102D700020700120CDE7FFF70DFB87202070002099
:102D8000C7E7FFF707FB8D2020700020C1E7000098
:102D90008801002070B505460C461DB98A202070B8
:102DA000002070BD2878642803D08920207000207E
:102DB000F7E71048007818B18B2020700020F0E76A
:102DC000FFF7C8FA95F8256036B1012E05D0022E1E
:102DD00004D0032E06D102E000BF00BF00BF0020D8
:102DE000207002E08D20207000BF00BFFFF7D2FAF4
:102DF0003046D6E7880100202DE9F04105460F4610
:102E000090461C4625B98A2020700020BDE8F0813C
:102E10002878642803D0892020700020F6E726480F
:102E2000007818B18B2020700020EFE7FFF792FAAE
:102E300095F8250090B301282AD0022827D003282E
:102E400033D1284600F098F900202070B7B1032F45
:102E500002D0042F13D108E06E681EB12846A9687D
:102E6000B04701E08F2020700CE06E681EB1414633
:102E70002846B04701E08F20207003E002E0842064
:102E8000207000BF00BFFFF785FA0120BEE700BF3A
:102E9000FFF780FA8E2020700120B7E7FFE7FFF7E9
:102EA00079FA872020700020B0E7FFF773FA8D20B1
:102EB00020700020AAE70000880100200C4800686C
:102EC00008B9002070470A480168094AC8681060BC
:102ED0000020C860086107480088401C054A10802F
:102EE00005480088401E044A10800846EAE70000B2
:102EF000C0010020B2010020B0010020002180F8B4
:102F0000251080F82410C1614161416081600AA1EF
:102F100001620021016109490968C160074908602F
:102F200007490988491E064A118006490988491C33
:102F3000044A1180704700003F000000C0010020DB
:102F4000B2010020B0010020F8B54FF420712848EC
:102F500000F016FB4021274800F012FB002514E08A
:102F6000681C86B205EB8500214901EBC00406EB25
:102F7000860001EBC00764202070002084F8250043
:102F8000E7601DA02062681C85B20F2DE8D305EB19
:102F90008500174901EBC00464202070002084F8EC
:102FA0002500E06014A02062002014490860144944
:102FB00008801020134908800D481349086001203B
:102FC000FFF718FA114908600020FFF713FA1049BB
:102FD00008606A460FA10D480068FFF741F86A468D
:102FE00011A10B480068FFF73BF800F027F8F8BD87
:102FF000C02C0020403100203F000000B401002020
:10300000B2010020B0010020C0010020B801002062
:10301000BC01002075432F4F532D494920546D7238
:103020004C6F636B0000000075432F4F532D4949CF
:1030300020546D725369676E616C000000B587B0F3
:103040000320002180220A4BCDE90132CDE9031093
:103050004FF6FD700123074A00900748FFF7C6FAB4
:1030600006AA06A10120FFF7DBFB07B000BD0000A8
:10307000402F00203C310020F930010875432F4FCC
:10308000532D494920546D720000000070B50B4665
:10309000032580F82550012B05D1154EC5693668EA
:1030A000354445610CE085692DB9114EC569366816
:1030B0003544456104E00E4E856936683544456106
:1030C000057D05F007040B4D05EBC4010D682DB916
:1030D00008600025C56001258D8006E00A6808604B
:1030E000C26010618D886D1C8D800025056170BDEA
:1030F000B40100204031002008B500BF00BF6A467F
:1031000000211A480068FFF79FF9FFF723F91848D4
:103110000068401C164908600846007800F007085F
:10312000144800EBC8073C681AE0E668104960697B
:103130000968884213D1204600F01EF894F8240054
:10314000022804D101212046FFF7A0FF02E002205F
:1031500084F82500656815B12046A168A847344663
:10316000002CE2D1FFF716F9C9E70000BC010020EE
:10317000B40100204031002030B5057D05F0070482
:103180000D4D05EBC4031D68854205D1C16819606A
:1031900039B100250D6104E00169C268CA6002B15D
:1031A0001161012580F825500025C56005619D88C5
:1031B0006D1E9D8030BD0000403100207047000032
:1031C0002DE9F04F05460F4690469946A87A1D49CD
:1031D0000E5C05F10B00805D11F800B00BEBC60032
:1031E00000F0FF0A184850F82A40002004F1240497
:1031F000E0602760207C20EA0800207484F81190A9
:10320000207CA4F1240410F0080F0DD194F83A00AA
:103210000E49097808430D4908700D48805D94F8FF
:10322000391008430A4988552946204600F012F80B
:10323000206A20B12046216A00F021F8E56150465D
:10324000BDE8F08FEF5F0108882400208C0100208A
:103250008D01002010B590F8382001F10B039B5C24
:1032600090F83940A34301F10B04A35423469B5C1F
:1032700023B98B7A90F83A40A3438B7210BDF0B516
:10328000024612F8384F95785678A2F138020B466C
:1032900018680FE000F10B073F5DB74300F10B0C1E
:1032A0000CF8047067463F5D17B9877AAF438772A1
:1032B0001B1D18680028EDD1F0BD000010B51B4A99
:1032C0001268D061194A126892F8383000F10B0286
:1032D000D25C164B1B6893F839301A43134B1B68AA
:1032E00093F8384000F10B031A55827A0F4B1B6894
:1032F00093F83A301A4382720C4A126892F83810E6
:103300000B4A525C094B1B6893F839309A43084BBF
:103310005A541A46525C42B9044A126892F83A303A
:10332000044A12789A43034B1A7010BD9C01002086
:103330008D0100208C010020014600228A720020AD
:1033400005E0002301F10B021354421CD0B20828FF
:10335000F7D370472DE9F0414FF40071104800F0A9
:103360000FF900250DE0681C86B20D4800EB05142E
:1033700000EB06170020207067600AA0E060681C60
:1033800085B21F2DEFD3064800EB051400202070F6
:10339000606004A0E060024803490860BDE8F08175
:1033A000882000203F0000008401002030B5014645
:1033B0004A6808682AB9CC68606028B10025456071
:1033C00002E0106000B142608B6800259D6230BD54
:1033D00070B54FF44071134800F0D2F8002411E0AA
:1033E000601C85B204EB44000E4901EBC00305EB01
:1033F000450001EBC006002018705E600AA058610D
:10340000601C84B21F2CEBD304EB4400054901EB94
:10341000C00300201870586003A058610846034993
:10342000086070BD881D00203F0000008001002062
:1034300000200749086007490870074908700749D4
:103440000870074908700749086007490860704715
:10345000AC01002088010020890100209601002095
:10346000950100207C0100209801002000210A4ADB
:103470001170002004E00021084A1154411CC8B218
:103480000828F8D30021064A1170064A1170064A2E
:103490001160064A116070478C0100208D010020E8
:1034A0008A0100208B010020A40100209C01002043
:1034B00070B54FF4E761194800F062F84FF480717D
:1034C000174800F05DF8002413E0601CC5B204EB5F
:1034D000440000EBC400114901EBC00305EB4500BB
:1034E00000EBC50001EBC0065E610EA01865601C14
:1034F000C4B2142CE9D304EB440000EBC400074928
:1035000001EBC0030020586106A0186500200649A1
:10351000086002480549086070BD00008825002049
:10352000882400203F000000A8010020A001002006
:1035300000B587B00320002180220A4BCDE901327B
:10354000CDE903104FF6FF703F23074A009007486C
:10355000FFF74CF806AA06A13F20FFF761F907B074
:1035600000BD000088220020842400207937010853
:1035700075432F4F532D49492049646C6500000065
:1035800004E0002200F8012B4A1E91B20029F8D174
:103590007047000010B50024FCF75AFE044613489B
:1035A0000078F8B912480078E0B900F02DF8114819
:1035B0001149097850F82100104908600E48007838
:1035C0000F49097888420DD00C480068C06B401C38
:1035D0000A490968C8630B480068401C094908602B
:1035E000FCF74DFE2046FCF737FE10BD8801002099
:1035F00089010020882400208B010020A4010020E4
:103600008A0100207C0100200649074A1278885C64
:103610000649095C034A515C01EBC001044A117080
:1036200070470000EF5F01088C0100208D01002031
:103630008B0100202DE9F84F05460F46904699462C
:10364000DDE90AAB00200090FCF702FE0090434841
:103650000468002C7CD004F11C0454F8080C3F4989
:1036600008600098FCF7F8FD44F81C7CA576002063
:1036700020766076606144F818BC44F810AC44F8D9
:10368000148C0C9824F80C0C24F80A9C0020E07789
:10369000E810207705F00700E076217F01208840C0
:1036A000A077E17E01208840607700202060606084
:1036B000E060A0602062A0626062E062206328A0F7
:1036C0006063A4F11C044FF0000606E0002104F141
:1036D000540040F82610701CC6B2002EF6D02046CA
:1036E000FEF782FF2046FEF7E1FFFCF7B1FD0090F8
:1036F0001C4840F825401C48006860610020A0611B
:103700001948006810B118480068846116480460C0
:1037100004F13804A0781549097840EA01001349FA
:10372000087020781249085C617840EA010014F8BA
:1037300038190F4A50540F48007800F101000D4924
:1037400008700098FCF788FD0020BDE8F88FFFE7BF
:103750000098FCF781FD4220F7E70000A00100205F
:103760003F00000088240020A80100208C010020D8
:103770008D01002096010020002400BF00BFFCF74F
:1037800067FD044605480068401C0449086020465F
:10379000FCF762FDFFF743F8F1E700009801002015
:1037A00012F0010F08D012F0020F05D002E0491EFE
:1037B000002308C00029FAD17047000010B5114855
:1037C0000068047A022C01D0042C01D1082412E0F4
:1037D000032C01D0052C05D1FDF750FC09480068E9
:1037E000047A08E0072C05D107490968C8688047B2
:1037F000082400E00824034909680C7200F01AF854
:1038000010BD0000D0010020D4010020F0B5561CEE
:103810007510074E06EB41042B4605E034F8047B97
:1038200020F8017B401C5B1E002BF7D1F0BD00008F
:103830000060004010B50D4890F82C10002000F0FA
:10384000ABFA0B480068007A082805D14002094904
:10385000088010200849088005480068007A092877
:1038600001D1012010BD0020FCE70000BC000020B9
:10387000D0010020E0010020E201002010B501206D
:1038800001F03EFB01240B48046000200A49088037
:1038900008460088074908600020091D08604FF4A9
:1038A000E050054908800846008802490860002069
:1038B00010BD0000405C0040DA01002001460020FD
:1038C000034A506820F440400843506070470000AD
:1038D0000010024029B1064A52690243044B5A6162
:1038E00004E0034A52698243014B5A617047000069
:1038F0000010024029B1064AD2690243044BDA6142
:1039000004E0034AD2698243014BDA617047000048
:103910000010024029B1064A12690243044B1A61A1
:1039200004E0034A12698243014B1A6170470000A8
:103930000010024029B1064A92690243044B9A6181
:1039400004E0034A92698243014B9A617047000088
:103950000010024029B1064AD2680243044BDA60E3
:1039600004E0034AD2688243014BDA6070470000EA
:103970000010024030B500210022002400232D4D0C
:103980006D6805F00C0121B1042905D0082923D167
:1039900005E0294D056022E0274D05601FE0254D1B
:1039A0006D6805F47012234D6D6805F480340225AE
:1039B00005EB92421CB9214D554305600BE01D4DAE
:1039C0006D6815F4003F03D01C4D5543056002E0BF
:1039D000194D5543056002E0174D056000BF00BF5B
:1039E000144D6D6805F0F0010909154D6B5C056813
:1039F000DD4045600F4D6D6805F4E061090A104D2A
:103A00006B5C4568DD4085600A4D6D6805F460516A
:103A1000C90A0B4D6B5C4568DD40C560054D6D689E
:103A200005F44041890B074D6B5CC568B5FBF3F5A8
:103A3000056130BD0010024000127A0000093D000F
:103A400062010020720100200149086070470000F7
:103A5000D800424270B504460D462A462146054824
:103A6000FCF7F0FF00BF0348FCF7D6FF0028FAD0B0
:103A700070BD00008C1C002001F092FE2F4801F068
:103A8000B5FD10B101202D49887455E02C482D4911
:103A90000A6842604A6882608968C1602948008873
:103AA00029490880274840882849088026480088F6
:103AB00010B90846008810B10020214988742448B4
:103AC00001781F48007C61F301001D4908742048FB
:103AD00041781B48007C61F38300194908741C4835
:103AE00081781748007C61F305101549087418485F
:103AF000C1781348007C61F3871011490874144899
:103B000001790F48407C61F301000D494874104869
:103B100041790B48407C61F38300094948741221C4
:103B2000074801F051FD0649887413210448FFF746
:103B300091FF0520FEF704FFA8E700003C000020ED
:103B40002800002002130020520000205400002012
:103B50000400002030B587B0054618222E4901A880
:103B6000FCF70EFC41F2707400202C49887400BFF1
:103B700014F03F0F09D12A480068012121EAD01230
:103B8000802127480C38FDF7A6FF00201CE02549BE
:103B900031F8101001AA32F81020914205DD2149B8
:103BA00031F8101001AA22F810101E4931F8102027
:103BB00003A931F810108A4205DA1A4931F81020A9
:103BC00003A921F81020401C0428E0DB0523002273
:103BD00011461046FEF7F0FE2000A4F10104C7D103
:103BE000122101A801F0F0FC8DF81400112201A9A6
:103BF0000A48FCF780FB01200849887416220A480D
:103C000001F006FC802106480C38FDF762FFFF201A
:103C1000FEF74EFD07B030BD2C5F01083C000020D0
:103C20000C0C01400213002000FC010810B50B46EB
:103C3000002100BF03E010F8014B5C54491C914285
:103C4000F9DB10BD70B50546072D01D0274805707A
:103C500026480078082841D2DFE800F0040A101650
:103C6000212E414200F046F80620204908703BE032
:103C700000F040F804201D49087035E002201B497F
:103C80004870032008702FE018484078401E1749FC
:103C900048700846407808B90420087024E01448A9
:103CA000006884B244F010041148046005200F49F4
:103CB00008700A20487017E00C484078401E0B49F5
:103CC00048700846407840B90948006884B224F03A
:103CD0001004074804600620087005E000BF00BF1C
:103CE00006200249087000BF00BF70BD5D010020C2
:103CF000405C004010B50748006884B224F004041A
:103D000004480460FEF786F84FF43F40014908601C
:103D100010BD0000405C0040704700004FF6F87195
:103D20000140014A11607047505C004030B50146C7
:103D30000E4B1A78002010E0C3B20D4C54F823301B
:103D400048F68F74234048F280042343C4B22343CF
:103D5000C4B2074D45F82430401C9042ECD341F0EA
:103D60008003034C4C34236030BD0000B8000020B9
:103D7000005C004010B54A105300054A126892B228
:103D800002EBC002121D034C44F8123010BD0000BB
:103D9000505C00400060004010B502460F480068CB
:103DA00080B200EBC200801D0D4C04EB40033E29A5
:103DB0000BDD481111F01F0F01D1441EA0B24FF4CA
:103DC000004444EA80241C6007E0481011F0010F11
:103DD00001D0441CA0B284021C6010BD505C0040A5
:103DE0000060004010B50C4B53F820304BF68F7438
:103DF00003EA040211F4805F01D082F4805211F4CE
:103E0000005F01D082F4005242F4004343F080038B
:103E1000014C44F8203010BD005C0040094A52F8C3
:103E200020204BF68F7302EA030181F4805181F464
:103E3000005141F4004242F08002024B43F820203E
:103E400070470000005C004010B54A105300044A5F
:103E5000126892B202EBC002024C44F8123010BD5C
:103E6000505C004000600040044A126892B202EBCD
:103E7000C002921C024B43F812107047505C004085
:103E80000060004010B50C4B53F8203048F6BF746A
:103E900003EA040211F0100F01D082F0100211F0B9
:103EA000200F01D082F0200242F4004343F080034F
:103EB000014C44F8203010BD005C0040054A52F827
:103EC000202048F68F131A400A43024B43F8202063
:103ED00070470000005C004010B500F001F810BD14
:103EE0000CB50020019000903448006840F4803008
:103EF0003249086000BF3148006800F4003000908B
:103F00000198401C0190009820B90198A0F57F41CC
:103F1000FE39F0D12948006810F4003F02D001209A
:103F2000009001E0002000900098012843D124482F
:103F3000006840F01000224908600846006820F040
:103F4000030008600846006840F0020008601B4853
:103F500040681A494860084640684860084640681A
:103F600040F4806048600846406820F47C10486057
:103F70000846406840F4E81048600846006840F091
:103F80008070086000BF0D48006810F0007FFAD014
:103F90000A48406820F00300084948600846406825
:103FA00040F00200486000BF0448406800F00C0088
:103FB0000828F9D101E000BFFEE70CBD0010024067
:103FC00000200240704710B50020FFF73DFD0121A1
:103FD000C805FFF78FFC10BD38B5012429480068DB
:103FE00080B2001D284931F8100080B201EB40007A
:103FF000009026480068007A092832D0009800789E
:104000002249096808700098401C009000980078C8
:104010001E49096848700098401C0090009800EB09
:1040200044000090009931F8020B0091FCF701FB6D
:10403000164909684880009800EB440000900099F8
:1040400031F8020B0091FCF7F4FA104909688880F6
:10405000009800EB44000090009800880B49096824
:10406000C880012009490968087208480068C088AA
:1040700010B9FDF755FF01E0FDF75EF8FFF7DAFB39
:1040800038BD0000505C004000600040D0010020BE
:104090002DE9F0474B480068007800F07F08B8F140
:1040A000000F0AD147480068407A00F0DF00454918
:1040B000096848720020BDE8F087B8F1020F7ED190
:1040C00040480068408818B93E480068007908B147
:1040D0000220F0E7DFF8F0903A480068477927F0CF
:1040E00080052C4637480068407910F0800F05D0D5
:1040F000364850F8240000F0300604E0334850F809
:10410000240000F4405699F80000A84204D91EB1DA
:104110002C480068807A08B90220CCE717F0800F9D
:104120000ED02A4850F8240000F0300010283FD16B
:10413000E0B2FCF7CFFBE0B23021FFF7A3FE37E09F
:10414000224850F8240000F44050B0F5805F2FD191
:10415000C4B91F4A92F82C10E0B2FFF71DFE1B49AC
:1041600051F824104BF68F7201EA020080F480505F
:1041700080F4005040F4004141F08001134A42F8BD
:10418000241015E0E0B2FCF78FFB104951F8241021
:104190004BF68F7201EA020080F4805080F40050E8
:1041A00040F4004141F08001084A42F8241000BF69
:1041B000084909684869804700207CE7FFE700BF9D
:1041C000022078E7D0010020B8000020005C004009
:1041D000BC000020DC01002010B504462CB90120F1
:1041E000064909680882002010BD05490968086869
:1041F0008047024800680A30F6E70000D00100203E
:10420000DC01002010B5024606480068438A32B936
:104210008888C01A034C24682082002010BD0868DA
:104220001844FBE7D001002010B504462CB901204A
:10423000064909680882002010BD05490968886898
:104240008047024800680C30F6E70000D0010020EB
:10425000DC01002010B504462CB90220374909685A
:104260000882002010BD00203549088033480068CE
:10427000007810F07F0F23D130490968487A10F098
:10428000200F06D02E49097841F002012C4A117006
:1042900005E02B49097801F0FD01294A117010F061
:1042A000400F06D02649097841F00101244A1170D7
:1042B00005E02349097801F0FE01214A117036E03A
:1042C0001E480068007800F07F00012801D11C48DA
:1042D000C8E71A480068007800F07F00022824D15F
:1042E000164A1268517901F00F0011F0800F0DD0BD
:1042F000144A52F8202002F03002102A14D1104A39
:10430000127842F001020E4B1A700DE00D4A52F87D
:10431000202002F44052B2F5805F05D1084A12789D
:1043200042F00102064B1A7001E000209AE70649AC
:10433000096808698047024894E70000D00100201E
:10434000C8010020005C0040DC01002010B50E48D0
:104350000068C0780D494978884213DC0A48006833
:10436000807878B908480068808858B9064800689D
:10437000C078054909688872054909684868804716
:10438000002010BD0220FCE7D0010020B800002072
:10439000DC01002010B507480068407A40F020009A
:1043A00004490968487204490968C86980470020BF
:1043B00010BD0000D0010020DC0100202DE9F041FB
:1043C00028480068467926F080073C462548006862
:1043D000407910F0800F05D0234850F8240000F0F9
:1043E000300504E0204850F8240000F440551F48F0
:1043F0000078A04208D91B480068408820B91DB148
:1044000018480068807A10B90220BDE8F08116F0E3
:10441000800F10D0144951F8241048F6BF7201EAF9
:10442000020080F0100040F4004141F080010E4A8B
:1044300042F8241010E00C4951F824104BF68F720A
:1044400001EA020080F4805040F4004141F0800114
:10445000054A42F8241000BF054909688869804769
:104460000020D2E7D0010020005C0040B80000200E
:10447000DC01002010B5174B1B68D978154B1B6861
:104480005879154B1B689A69904704461148006893
:10449000807AE8B13CB90F480068007918B90D4836
:1044A0000068807808B1022010BD8CB90B490968FA
:1044B000C868804707480068407906490968C8729B
:1044C00004480068C0780349096808730020EBE7D6
:1044D0000220E9E7D0010020D4010020DC01002007
:1044E00010B504460021A06AFCF772FC216BA06A9B
:1044F00041600121A06AFCF76BFC10BD70B5044659
:104500000E461546002D0EDD0021E06AFCF760FC2A
:104510002A463146E06BFBF7EEFEE06A456001217A
:10452000E06AFCF755FC70BD10B50848006884B21D
:1045300044F0080405480460006884B244F00404B0
:1045400002480460FDF7AEF810BD0000405C00407A
:1045500010B5FBF77DFE044606480078401C05496F
:1045600008702046FBF778FEFEF768FAFDF7C8FDF5
:1045700010BD00008801002010B51248006840F00E
:10458000010010490860084640680F4908400D497D
:104590004860084600680D4908400A490860084616
:1045A000006820F4802008600846406820F4FE007F
:1045B000486000208860FFF78FFC054805490860C7
:1045C00010BD0000001002400000FFF8FFFFF6FEE3
:1045D0000000010808ED00E021B1028842F08002ED
:1045E000028004E002884FF67F731A400280704711
:1045F00030B5002301248C40A3B2048C9C43048476
:10460000048C02FA01F5ADB22C43048430BD21B113
:10461000028842F00102028004E002884FF6FE7335
:104620001A4002807047000010B504466848844272
:1046300008D10121C014FFF78DF90021E014FFF724
:1046400089F9C4E0B4F1804F08D101210846FFF791
:1046500061F900210120FFF75DF9B8E05D4884426F
:1046600008D101210220FFF755F900210220FFF7B0
:1046700051F9ACE05848844208D101210420FFF7E9
:1046800049F900210420FFF745F9A0E0534884428E
:1046900008D101210820FFF73DF900210820FFF78C
:1046A00039F994E04E48844208D101211020FFF7E7
:1046B00031F900211020FFF72DF988E049488442A4
:1046C00008D101212020FFF725F900212020FFF744
:1046D00021F97CE04448844208D101214014FFF7CD
:1046E00039F900216014FFF735F970E03F48844242
:1046F00009D10121C804FFF72DF900214FF4002052
:10470000FFF728F963E03A48844209D101210805FE
:10471000FFF720F900214FF48010FFF71BF956E056
:104720003448844209D101214805FFF713F90021DB
:104730004FF40010FFF70EF949E02F48844208D1EA
:1047400001214020FFF7E6F800214020FFF7E2F8C2
:104750003DE02A48844208D101218020FFF7DAF8A1
:1047600000218020FFF7D6F831E02548844208D1A7
:1047700001218015FFF7CEF80021A015FFF7CAF838
:1047800025E02048844209D101210804FFF7E2F81E
:1047900000214FF48030FFF7DDF818E01A4884421A
:1047A00009D101214804FFF7D5F800214FF400306A
:1047B000FFF7D0F80BE01548844208D101218804A6
:1047C000FFF7C8F800214FF48020FFF7C3F810BDB1
:1047D000002C01400004004000080040000C004094
:1047E000001000400014004000340140004C014023
:1047F000005001400054014000180040001C0040DF
:1048000000200040004001400044014000480140B9
:1048100070B5002400220023058C4FF6EF7635405A
:104820000584028C8388048B48F6FF752C404FF674
:10483000FF452C400D884FF6FF7606EA05252C43F0
:104840004FF6DF752A400D8906EA05152A434D8883
:1048500006EA05152A43154DA84202D0144DA84278
:104860001DD14FF67F752A404D894FF6FF7606EA37
:1048700005152A434FF6BF752A408D8806EA0515AF
:104880002A434FF6FF352B404FF2FF752B408D89A1
:1048900006EA85052B43CD8906EA85052B438380EF
:1048A0000483CD880587028470BD0000002C014080
:1048B000003401400A460021018B4FF2FF7319407A
:1048C0004FF6FF7303EA0223194301837047018700
:1048D00070470000002202881D4B98420ED01D4BED
:1048E00098420BD0B0F1804F08D01B4B984205D0B6
:1048F0001A4B984202D01A4B984204D14FF68F734C
:104900001A404B881A43174B984207D0164B9842CF
:1049100004D04FF6FF431A40CB881A4302808B889D
:1049200083850B8803850A4B98420BD0094B98422C
:1049300008D00E4B984205D00D4B984202D00D4B3B
:10494000984201D10B7A03860123838270470000CD
:10495000002C0140003401400004004000080040E9
:10496000000C0040001000400014004000400140D6
:104970000044014000480140ACB001F02BF876E063
:10498000002413E000200EE0C0EBC001384A02EB27
:10499000410131F8141004EB840209AB03EB8202ED
:1049A00022F81010401C0A28EEDB641C072CE9DBFF
:1049B00000240AE004EB840109AA02EB810000F064
:1049C000D5FD05A921F81400641C072CF2DB002496
:1049D00007E005A830F81400401005A921F81400DC
:1049E000641C062CF5DB2348807C01280BD122496E
:1049F00005A800F06BFDBDF81C001F490881BDF83B
:104A00001E00488106E01C48059901600699416036
:104A100007998160BDF82000184908800846008881
:104A2000B0F50C6F03DA00201549087002E0012090
:104A3000134908700523002211461046FDF7BCFFFC
:104A400010484079032812D101200E4948710320F3
:104A5000002140220C4BCDE90132CDE903103E206C
:104A60000346094AFC3200900848FDF7BFFD87E77E
:104A70001E1300203C000020021300200000002034
:104A80005800002004000020F4010020553B0108DC
:104A900010B586B0044601F049F8032000214022F9
:104AA000284BCDE90132CDE903103A200346254ACF
:104AB000FC3200902448FDF799FD0320002180225C
:104AC000224BCDE90132CDE903103D200346204AB7
:104AD00000902048FDF78AFD0320002140221E4B54
:104AE000CDE90132CDE903103C2003461A4AFC32DD
:104AF00000901A48FDF77AFD032000214FF48072E0
:104B0000174BCDE90132CDE9031039200346154A90
:104B100000901548FDF76AFD032000214FF4007254
:104B2000124BCDE90132CDE903103B200346104A78
:104B300000901048FDF75AFDFF20FDF7B9FD06B0C3
:104B400010BD0000F402002001140108F40300204D
:104B5000F005002079490108F4050020E11D010855
:104B6000F4060020F00A0020793A0108F40A002037
:104B7000F0120020794B010886B00020059054E027
:104B80002A480078012810D1032000214022284B18
:104B9000CDE90132CDE903103E200346244AFC3220
:104BA00000902448FDF722FD39E0204800780228D3
:104BB00009D11E4840782049C87416224FF48060FD
:104BC00000F0D0FF2BE019480078032816D104220A
:104BD0001649491C002000F0C5FF00B3012080F3F6
:104BE000138800BF00BF1548006800F4E060144956
:104BF0000843001D1149086000BF10E00B48007811
:104C000004280CD009480078052808D107484078C6
:104C10000949487416224FF4806000F0A3FF002079
:104C2000024908706420FDF78BFEA9E77E1400207E
:104C3000F4010020553B01083C0000200CED00E091
:104C40000000FA0570B5002400BFFBF701FB054624
:104C50000F480078401C0E4908702846FBF7FCFA04
:104C600040F224410B4800F08AF870B109480C303A
:104C70000088C4B207480088C4B20648001D0088F6
:104C8000C4B20124044800F06EFAFDF739FA70BD91
:104C900088010020003801408C1C002021B182894D
:104CA00042F40052828104E082894DF6FF731A407B
:104CB000828170471AB1838A0B43838202E0838A20
:104CC0008B4383827047000010B50446204884421D
:104CD00009D101218803FEF73DFE00214FF48040F9
:104CE000FEF738FE32E01B48844209D10121480416
:104CF000FEF710FE00214FF40030FEF70BFE25E01A
:104D00001548844209D101218804FEF703FE0021E1
:104D10004FF48020FEF7FEFD18E01048844209D1D0
:104D20000121C804FEF7F6FD00214FF40020FEF734
:104D3000F1FD0BE00A48844208D101210805FEF785
:104D4000E9FD00214FF48010FEF7E4FD10BD0000E6
:104D5000003801400044004000480040004C004042
:104D60000050004002460020B1F5007F00D100BF96
:104D700013880B4201D0012000E00020704770B57D
:104D800002460024002300250020A1F510666A3E9B
:104D900000D100BFC1F3421501F01F03012606FA3E
:104DA00003F3012D02D19689334006E0022D02D192
:104DB000168A334001E0968A33400C12012606FA27
:104DC00004F41688344013B10CB1012000E0002037
:104DD00070BDF0B503460024002600250020A1F593
:104DE00010676A3F00D100BF1846C1F3421401F0BA
:104DF0001F06012707FA06F5012C01D10C3004E04B
:104E0000022C01D1103000E014301AB107682F4392
:104E1000076002E00768AF430760F0BD2DE9F04787
:104E200086B005460E460024A24600BFA1460027D4
:104E3000B08900B100BF2F462C8A4CF6FF700440A9
:104E4000F08804432C82AC894EF6F3100440B088FD
:104E500031890843718908430443AC81AC8A4FF619
:104E6000FF400440B0890443AC8201A8FEF782FDF4
:104E70001F48874202D1DDF810A001E0DDF80CA048
:104E8000A88910F4004F08D00AEBCA0000EB0A1002
:104E900031684900B0FBF1F807E00AEBCA0000EB0B
:104EA0000A1031688900B0FBF1F86420B8FBF0F01B
:104EB00004012009642101FB1089A88910F4004F26
:104EC00008D0322000EBC900B0FBF1F000F0070081
:104ED000044308E0322000EB09106421B0FBF1F03C
:104EE00000F00F0004432C8106B0BDE8F0870000FD
:104EF0000038014010B54FF48020FCF76FFB10BD67
:104F00007047000008B500214FF40000FEF7F2FCE6
:104F100001210420FEF70EFD4FF48050ADF8000093
:104F200014208DF8030002208DF80200694606481F
:104F3000FCF7F2FC4FF480510348FCF7C8FD6420F5
:104F400000F0FAFD08BD00000008014008B501218D
:104F50000420FEF7EFFC4FF48050ADF80000142061
:104F60008DF8030002208DF8020069460748FCF71F
:104F7000D3FC4FF480510548FCF7ABFD642000F0F2
:104F8000DBFD0248FCF744FC08BD000000080140BE
:104F900010B50848084908600220096808720748E7
:104FA0000749086007480849086005490968086812
:104FB000804710BD80310020D0010020BC000020BF
:104FC000D4010020EC000020DC01002008B54FF4E3
:104FD000A060FCF77DFF14208DF8000001208DF803
:104FE000010000208DF8020001208DF803006846C2
:104FF000FCF734FF2A208DF8000000208DF8010016
:1050000001208DF803006846FCF728FF08BD00006A
:1050100010B537480068374908800846008800F412
:10502000004035490988084201D0FBF709FB3148A7
:10503000008800F4806030490988084206D04FF6A5
:10504000FF302B4908602D4948688047294800886F
:1050500000F4005028490988084203D04DF6FF703B
:10506000234908602348008800F4805022490988B9
:10507000084206D04EF6FF701D4908600020FEF77A
:10508000E1FD1C48008800F400601B4909880842C3
:105090000CD01B48007810B1FFF746FA02E002205E
:1050A000FEF7D0FD4FF2FF701149086011480088EB
:1050B00000F4007010490988084208D04FF6FF50EC
:1050C0000B4908600F480078401C0E4908700948D9
:1050D000008800F4807008490988084206D04FF61D
:1050E000FF60034908600720FEF7ACFD10BD00001B
:1050F000445C0040B4000020DA010020BC00002025
:105100005C0100207800002010B5FFF781FF10BD82
:105110000020064908604FF43F40054908800846D2
:1051200000880249091F086000207047445C004065
:10513000DA0100202DE9F04104460E46002504F076
:105140007F00FCF7DDFC054604F07F00FCF7C8FC9F
:1051500007462A4639463046FEF758FB2846BDE842
:10516000F08100BFFEE72DE9F04705464FF000084B
:10517000C146A86AFBF7DEFE8046286B404505D194
:105180002846FFF7ADF90020BDE8F087288EA0EB98
:1051900008001FFA80F9AF6B05F14404002618E0FF
:1051A000A089401C80B2A081E18988420EDA17F8FC
:1051B000010B2289216888542089401C80B22081FB
:1051C000E189884203DB0020208100E003E0701CBD
:1051D00086B24E45E4DB00BF2A8E91B2A86AFBF787
:1051E000EAFE2846FFF77CF94846CDE710B592B0B5
:1051F00004462068FFF768FDA06AFBF7F5FDE06A4A
:10520000FBF7F2FD70492068884204D10121022099
:10521000FEF760FB03E001210846FEF75BFBA16897
:1052200041F001000121FEF785FB684920688842B2
:1052300004D10121E069FEF77DFB03E00121E06973
:10524000FEF758FB18208DF80B00E089ADF8080038
:1052500002208DF80A0002A96068FCF75DFB0420BB
:105260008DF80B00A089ADF8080002A96068FCF772
:1052700053FB4FF4A0610020554A10684FF2FF0223
:105280001040544A024342EA0120514A106000BFD4
:1052900094F925000121FCF725FE94F92500FCF77F
:1052A000D0FD94F924000221FCF71CFE94F924009F
:1052B000FCF7C7FD2020005D8DF8040001208DF86B
:1052C00005008DF806008DF8070001A8FCF7C6FD63
:1052D000E06AFBF789FDA0690390E06B0490606BC6
:1052E0000690102005900020079080200890002054
:1052F00009900A900B904FF440500C9000200D90B4
:1053000003A9E06AFBF739FE01220221E06AFBF7FC
:105310002BFEA06AFBF768FDA0690390A06B0490C8
:1053200000200590206B06900020079080200890B8
:10533000002009900A900B904FF440500C900020F0
:105340000D9003A9A06AFBF718FE01220221A06AB2
:10535000FBF70AFE20690E90A08A20B14FF480501E
:10536000ADF83C0002E00020ADF83C00E08AADF86A
:105370003E00A08AADF840000020ADF844000C20AB
:10538000ADF842000EA92068FFF748FD01228021F8
:105390002068FFF78FFC012240212068FFF78AFC7C
:1053A0000021E06AFBF714FD0021A06AFBF710FD65
:1053B00001212068FFF772FC012240F2244120689D
:1053C000FFF707FD12B010BD004C0040003801404F
:1053D0000CED00E00000FA05F0B5144604F1010CF4
:1053E0004FEA6C07DFF824C00CEB41033D460AE0AE
:1053F0000678401C90F800C046EA0C2223F8022BE5
:105400009B1C401C6D1E002DF2D1F0BD00600040C1
:105410002DE9F04707460D4614464FF00008C246F6
:10542000C146E11704EB91718910B4EB810107D0FB
:105430002046E11704EB91718910491CCCB205E0BC
:105440002046E11704EB9171C1F387042046E11770
:1054500004EB9151891201F10109FCF7AFF93520F4
:10546000FCF726F94FF0000809E04FF4806101FBDA
:105470000870FCF723F91349087008F10108C845C2
:1054800003D2104800780428EFD012E015F8016B21
:1054900015F8011B46EA012615F8011B46EA0146EC
:1054A00015F8011B46EA016631463846FCF750F90B
:1054B0003F1D2000A4F10101CCB2E7D1FCF73EF979
:1054C000BDE8F0875F01002000BFFEE72DE9F0474F
:1054D00007460E46002440E037F81450214830F8C3
:1054E0001400A84202DA1F4830F814501D48083052
:1054F00030F81400A84203DD1A48083030F8145080
:105500001849083131F81410681A00F02BFC804655
:10551000144931F81420083131F81410501A00F0F1
:1055200021FC82465146404600F03AFB81460E4936
:1055300000F030FC8046404600F0F4FB85B209489C
:10554000407C204110F0010F04D0C5F5FA6026F828
:10555000140001E026F81450641C042CBCDBBDE8E8
:10556000F08700003C0000200000FA4470B50246BD
:10557000002132F8113032F811400DE032F81150AC
:105580009D4201DA32F8113032F81150A54201DDA6
:1055900032F811404D1CE9B20A29EFDB002100204E
:1055A00005E032F811500544A8B24D1CE9B20A29B1
:1055B000F7DB1D19451BA8B20546C61700EB56764A
:1055C000F01020F4704070BD024600200AE013780D
:1055D0000344D8B21378834201DD431CD8B2521C75
:1055E0004B1ED9B20029F2DC7047000010B586B01E
:1055F0000446162269460A48FEF718FB122168463F
:10560000FFF7E2FF9DF81010884202D0002006B09C
:1056100010BD162269462046FAF76DFE0120F6E716
:1056200000FC01081FB501211D20FEF783F94FF48E
:105630000040ADF80C0048208DF80F0002208DF8D6
:105640000E0003A95148FCF767F94EF20400ADF8CB
:105650000C0048208DF80F0002208DF80E0003A9E1
:105660004B48FCF759F94FF4C040ADF80C00482006
:105670008DF80F0002208DF80E0003A94548FCF7B5
:105680004BF901210920FEF755F901214248FCF7A9
:10569000CDF90820ADF80C0048208DF80F0002204D
:1056A0008DF80E0003A93A48FCF736F94FF4A060D4
:1056B000FCF70EFC08208DF8000001208DF8010099
:1056C00002208DF8020001208DF803006846FCF7E7
:1056D000C5FB09208DF8000001208DF80100022093
:1056E0008DF8020001208DF803006846FCF7B6FB38
:1056F00028208DF8000001208DF8010002208DF88F
:10570000020001208DF803006846FCF7A7FB042087
:10571000FBF764FF0820FBF761FF4FF40050FBF735
:105720005DFF4FF48040FBF759FF4FF40040FBF75B
:1057300055FF0F210020FCF7CFF802210120FCF7D4
:10574000CBF803210120FCF7C7F80D210220FCF75C
:10575000C3F80E210220FCF7BFF84EF20C000190B6
:1057600000208DF8080010208DF8090001208DF828
:105770000A0001A8FBF74CFF002003E00121074AC3
:105780001154401C0628F9D31FBD00000008014039
:10579000000C014000100140000230000400002015
:1057A00010B502214FF4E130FBF7BAF810BD00004C
:1057B00008B501210820FEF7BDF84FF47C70ADF864
:1057C000000010208DF8030002208DF802006946C9
:1057D0001748FCF7A1F801210820FEF7ABF80320D9
:1057E000ADF8000004208DF8030002208DF80200BF
:1057F00069460F48FCF790F840210D48FCF769F91D
:1058000010210B48FCF765F94FF480710848FCF74C
:1058100060F980210648FCF75CF920210448FCF778
:1058200058F94FF400710248FCF753F908BD000025
:10583000000C014030B585B04FF48031C802FCF750
:1058400065FB2F48FBF7E4FF2E48FBF7E1FF2E48EE
:10585000FBF7DEFFFBF7D1FF002080F3108800BFCD
:10586000FFF750FBC82000F067F9FFF76FFB0A2035
:1058700000F062F900F06CF94FF4FA7000F05CF996
:10588000FCF722FC032000214022204BCDE901320D
:10589000CDE903103E2003461C4AFC3200901C4810
:1058A000FCF7A4FE1B4800684FF47A72B0FBF2F1DB
:1058B000B1F1807F00D31DE021F07F40401E4FF00A
:1058C000E022506150170F22002807DA13071D0E3F
:1058D000114B00F00F04241F1D5503E013071C0E8D
:1058E0000E4B1C5400BF00204FF0E02290610720B7
:1058F000106100BFFCF754FE012005B030BD000070
:1059000000080140000C014000100140F40100209B
:10591000914A01087801002018ED00E000E400E061
:1059200030B589B005460C4601210220FDF7E2FFA3
:1059300001210520FDF7FEFF8020ADF82000182092
:105940008DF8230003208DF8220008A91F48FBF7DB
:10595000E3FF1F48FEF768FEADF81850ADF814409D
:105960000020ADF81A00ADF816008DF81C0005A94E
:105970001748FEF7AFFF6020ADF804000120ADF836
:1059800006000220ADF80C008020ADF80A004000AF
:10599000ADF8100001A90E48FEF73AFF08210C48A7
:1059A000FEF788FF01210A48FEF716FE012108488C
:1059B000FEF72DFE01210648FEF789FF0022042193
:1059C0000348FEF715FE09B030BD00000008014095
:1059D0000004004000B591B001210520FDF7AAFFA9
:1059E0007F20ADF8400003208DF8420000208DF8A4
:1059F000430010A94948FBF78FFF0020FDF75EFF29
:105A000001214802FDF796FF4548FAF735FD0020D1
:105A10000B9001208DF830008DF831004FF460209C
:105A20000D9000200E9007208DF83C000BA93C48FB
:105A3000FAF764FD0723012205213948FAF786FDAC
:105A40000723022206213648FAF780FD07230322A6
:105A500001213348FAF77AFD072304220221304856
:105A6000FAF774FD0723052204212D48FAF76EFD8D
:105A70000723062200212A48FAF768FD07231A4661
:105A800003212748FAF762FD01212548FAF7E9FCCE
:105A900001212348FAF7DAFC2148FAF7B3FD00BFE9
:105AA0001F48FAF721FD0028FAD11D48FAF7BAFD80
:105AB00000BF1B48FAF70EFD0028FAD10121084665
:105AC000FDF708FF1748FBF78FF915484C30009099
:105AD0001548019000200290462003900020049079
