:020000040801F1
:10000000000400202F020108B11A0108D5190108C7
:10001000AD1A01085B060108B341010800000000A9
:10002000000000000000000000000000E5290108B9
:100030004D15010800000000B30201081D3201083F
:100040004902010849020108490201084902010860
:100050004902010849020108490201084902010850
:10006000691501084902010849020108490201080D
:10007000310D01085D0D0108DD0D01080D0E0108AF
:100080008D0E01080D0F01084902010849020108FF
:1000900059410108490201084902010849020108C1
:1000A0004902010849020108490201084902010800
:1000B00049020108490201084902010849020108F0
:1000C00049020108490201084902010849020108E0
:1000D00049020108953C0108ED3C0108453D010835
:1000E00049020108490201084902010849020108C0
:1000F00049020108490201084902010849020108B0
:10010000490201084902010849020108490201089F
:10011000490201084902010849020108490201088F
:10012000490201084902010849020108490201087F
:1001300000F002F800F05AF80AA090E8000C82449F
:100140008344AAF10107DA4501D100F04FF8AFF27C
:10015000090EBAE80F0013F0010F18BFFB1A43F0A5
:10016000010318470C4A00002C4A00000A444FF0D3
:10017000000C10F8013B13F0070408BF10F8014B06
:100180001D1108BF10F8015B641E05D010F8016B4B
:10019000641E01F8016BF9D113F0080F1EBF10F8AF
:1001A000014BAD1C0C1B09D16D1E58BF01F801CBD2
:1001B000FAD505E014F8016B01F8016B6D1EF9D555
:1001C0009142D6D37047000000230024002500266A
:1001D000103A28BF78C1FBD8520728BF30C148BFAA
:1001E0000B6070471FB51FBD10B510BD00F00CF9B6
:1001F0001146FFF7F7FF04F03FFA00F02AF903B4C5
:10020000FFF7F2FF03BC00F02FF90000EFF30980C5
:10021000704780F309887047EFF30880704780F3D8
:100220000888704740BA7047C0BA704770470A489C
:1002300080470A480047FEE7FEE7FEE7FEE7FEE7E5
:10024000FEE7FEE7FEE7FEE7FEE70000044805499B
:10025000054A064B7047000045320108310101088C
:10026000E02A0020E0300020E02C0020E02C0020DC
:10027000EFF3108072B6704780F3108870471D4806
:100280004FF0FF010170002080F309881A48012116
:1002900001701A484FF08051016062B6FEE71748BE
:1002A0004FF080510160704714484FF08051016059
:1002B000704772B6EFF3098028B1203880E8F00F5C
:1002C0000F490968086000B50E4880475DF804EBE7
:1002D0000D480E490A78027009480D490A68026003
:1002E000106890E8F00F203080F309884EF0040E7B
:1002F00062B6704722ED00E09101002004ED00E0BD
:1003000098010020B31F010886010020870100200A
:10031000A0010020032A40F2308010F0030C00F00E
:10032000158011F8013BBCF1020F624498BF11F82F
:1003300001CB00F8013B38BF11F8013BA2F10402E8
:1003400098BF00F801CB38BF00F8013B11F0030360
:1003500000F02880083AC0F0088051F8043B083AC1
:1003600051F804CBA0E80810F5E7121D5CBF51F866
:10037000043B40F8043BAFF30080D20724BF11F8E0
:10038000013B11F801CB48BF11F8012B24BF00F845
:10039000013B00F801CB48BF00F8012B70477047C4
:1003A0007047704710B5203AC0F00B80B1E8185084
:1003B000203AA0E81850B1E81850A0E81850BFF44F
:1003C000F5AF5FEA027C24BFB1E81850A0E81850EE
:1003D00044BF18C918C0BDE810405FEA827C24BF42
:1003E00051F8043B40F8043B08BF7047D20728BFD0
:1003F00031F8023B48BF11F8012B28BF20F8023B1F
:1004000048BF00F8012B7047754600F029F8AE464A
:1004100005006946534620F00700854618B020B510
:10042000FFF714FFBDE820404FF000064FF0000733
:100430004FF000084FF0000B21F00701AC46ACE88C
:10044000C009ACE8C009ACE8C009ACE8C0098D46F9
:1004500070470446AFF300802046FFF7D0FE00004F
:10046000004870477C2A002001491820ABBEFEE7F7
:1004700026000200704721B1826842F001028260CA
:1004800003E0826822F001028260704721B1826835
:1004900042F48072826003E0826822F4807282609B
:1004A0007047000010B504461248844208D101216B
:1004B000401502F015F90021601502F011F917E05E
:1004C0000D48844208D10121001502F009F90021EC
:1004D000201502F005F90BE00848844208D10121FB
:1004E000C80302F0FDF800214FF4004002F0F8F8D4
:1004F00010BD00000024014000280140003C0140E4
:10050000014600208A6812F0040F01D0012000E0AB
:1005100000207047014600208A6812F0080F01D0C1
:10052000012000E00020704730B502460020002383
:1005300050680F4C20400D790C6844EA0524204394
:10054000506090680B4C2040D1E902542C434D7907
:1005500044EA450420439060D06A20F470000C7C8B
:10056000641EE4B2234340EA0350D06230BD000071
:10057000FFFEF0FFFDF7F1FFF0B504460D46002049
:100580000021092D11DDE068A5F10A0606EB4607FA
:10059000072606FA07F18843A5F10A0606EB460688
:1005A00003FA06F10843E0600CE0206905EB45071B
:1005B000072606FA07F1884305EB450603FA06F11C
:1005C00008432061072A0FDA606B561E06EB860788
:1005D0001F2606FA07F18843561E06EB860605FA23
:1005E00006F10843606322E00D2A0FDA206BD61F64
:1005F00006EB86071F2606FA07F18843D61F06EB8F
:10060000860605FA06F10843206310E0E06AA2F1CD
:100610000D0606EB86071F2606FA07F18843A2F1AE
:100620000D0606EB860605FA06F10843E062F0BD0A
:10063000816841F008018160704721B1826842F40D
:10064000A002826003E0826822F4A0028260704708
:10065000816841F004018160704700BFFEE70146F8
:10066000CAB20B1243EA02207047000008B500200E
:10067000009015E19048008800F00F008F49087045
:100680000846007800287DD18D4800688D49088093
:100690000846008800F030008B49088089480088AF
:1006A00000F4405087490880854909684BF6BF72BD
:1006B00001EA020080F4005080F0200040F4004184
:1006C00041F080017E4A11607B48008810F0100FD5
:1006D00032D11046006848F60F7108401146086094
:1006E00001F07AF9764909684BF6BF7201EA020017
:1006F0007449098811F4805F01D080F480507149F9
:10070000098811F4005F01D080F400506E49098817
:1007100011F0100F01D080F010006B49098811F022
:10072000200F01D080F0200081B241F4004141F05F
:100730008001634A116008BD6148006880B2009082
:10074000BDF8000010F4006F36D05D480068C0F3BB
:100750000E0048F68F7108405949086002F0A2FA6D
:10076000574909684BF6BF7201EA020055490988EA
:1007700011F4805F01D080F480505249098811F44F
:10078000005F00E052E001D080F400504E4909883B
:1007900011F0100F01D080F010004B49098811F0C2
:1007A000200F01D080F0200081B241F4004141F0DF
:1007B0008001434A1160BEE7BDF8000010F4004F0D
:1007C0006ED03F480068C0F30E0048F68F710840B5
:1007D0003B49086001F0A8FE394909684BF6BF7231
:1007E00001EA02003749098811F4805F01D080F4E2
:1007F00080503449098811F4005F01D080F4005022
:100800003149098811F0100F01D080F010002E49F5
:10081000098811F0200F01D080F0200081B241F44E
:10082000004141F08001264A116084E723480078A6
:10083000234951F8200080B20090BDF8000010F468
:10084000004F14D01D48007851F82000C0F30E006E
:1008500048F68F71084019490978194A42F8210071
:1008600016490978491E194A52F821008047BDF8F7
:10087000000010F0800F13D010480078104951F894
:10088000200048F60F7108400C4909780C4A42F8DC
:1008900021000A490978491E0D4A52F82100804773
:1008A00007484430006880B20349088010F4004FC4
:1008B0007FF4E0AE00BF3EE7B4000020B0010020AE
:1008C000005C0040C4010020C60100209800002008
:1008D0007C000020094951F8201011F4804F0BD002
:1008E000064951F8201048F68F7211404CF28002F0
:1008F0001143024A42F8201070470000005C00409B
:10090000094951F8201011F0400F0BD0064951F859
:10091000201048F68F72114048F2C0021143024A7B
:1009200042F8201070470000005C0040064951F872
:10093000201048F68F62114048F280021143024AAB
:1009400042F8201070470000005C004070B504467B
:100950000D463448344908600421334881603348E7
:10096000314948600115304881814910C1810461D5
:100970000121C18225B1022D06D0042D0ED108E03F
:100980000021294881820DE04FF480612648818250
:1009900008E04FF4C0612448818203E0002122482E
:1009A000818200BF00BF1F48001D1F4988614FF4AE
:1009B00080411D48C161252101840F201A4981F819
:1009C00024000E21184880F8251019498162184921
:1009D0001439C1628021016341631649816316495C
:1009E000C1630020104981F8400000210E4880F8C2
:1009F000411080F8421011480B49486410490A48D8
:100A000081640021A0F84C10A0F84E10A0F85010FE
:100A10004021A0F8521003F011FC034802F0C6FB7D
:100A2000012070BD003801407C1800200008014002
:100A300058000240BE1000203E110020BE110020D0
:100A40002200002010B5044694F8400008B90020A8
:100A500010BD00BF2068008810F0800FFAD000BFE2
:100A60004021206803F0FEF90028F9D00120EFE7CB
:100A700070B504460E4615460E49206888420CD0D3
:100A80000D492068884208D00C492068884204D06B
:100A90000B492068884200D070BD05B9FCE70020F2
:100AA00084F840002A463146204602F08DFB00BF04
:100AB000F2E70000003801400044004000480040D8
:100AC000004C004070B504460025062C18D118488B
:100AD0000068007800F07F00012811D114480068F8
:100AE000407968B9124800688078222801D1114DF8
:100AF00010E00F480068807821280BD10E4D09E0E6
:100B00000B480068007800F07F00212802D1032CF8
:100B100000D10A4D0DB9022070BD054800688561FD
:100B200000210348006841820020A8470020F3E725
:100B3000B4010020990B0108690B01087D0B010825
:100B400010B504460249204602F0C2F910BD00006B
:100B50001801002010B504460249204602F0B8F9F9
:100B600010BD00001001002010B5044602492046C7
:100B700002F0AEF910BD000028010020014629B99D
:100B80000120034A12681082002070470148FCE7E8
:100B9000B40100205001002010B50446024920464F
:100BA00002F096F910BD00002001002070B5054646
:100BB00006480068C478042C01DD002070BD04489C
:100BC00000EBC401284602F083F9F7E7B4010020E6
:100BD000300100200246002901DD02207047002A72
:100BE00001DD0220FAE70020F8E7000000B5024628
:100BF00006480068007800F07F00212804D10B2A05
:100C000002D100F073F800BD0220FCE7B40100201F
:100C100010B5002028490968887227490968C872F8
:100C20002648C079244909684872002001F0DCFE9A
:100C30004FF40071002001F0A7FF1021002001F007
:100C400087FF1821002001F0FBFE5821002001F051
:100C500061FF0020FFF76AFE194890F82C10002071
:100C600001F000FF002001F03FFF4FF4C0610120C0
:100C700001F08AFF4FF48071012001F04BFF4FF427
:100C80008271012001F0DCFE4021012001F052FFC1
:100C90004021012001F0E6FE4FF44051012001F017
:100CA00007FF2021012001F053FF002001F0A4FEE6
:100CB00001200449086010BDB4010020D249010898
:100CC000BC0000205801002003480068807A10B161
:100CD0000520024908607047B40100205801002037
:100CE000042001490860704758010020034800684B
:100CF000C17803480160002070470000B401002063
:100D0000500100207047704710B500F049FE0020E8
:100D100005490968887201F077FC03F021FA002088
:100D20000249086010BD0000B401002058010020F5
:100D300010B5202000F0C6F950B10021054800F0A0
:100D40000BF9202000F0FAF80120034981F8400057
:100D500010BD00001C000240241900201CB54FF4F7
:100D6000007000F0AFF940B100211A4800F0F4F82B
:100D70004FF4007000F0E2F80CE04FF4006000F077
:100D8000A1F938B10021134800F0E6F84FF40060F3
:100D900000F0D4F810480088019016E00E480C309E
:100DA000008800900C481030008800900A481430E9
:100DB000008800900848001D0088009006480088C0
:100DC00001900098009001980190019810F0080F90
:100DD000E4D11CBD300002400048004010B54FF483
:100DE000005000F06FF958B10021064800F0B4F847
:100DF0004FF4005000F0A2F80120034981F84000B0
:100E000010BD0000440002407C1800201CB54FF4C7
:100E1000003000F057F940B100211A4800F09CF86A
:100E20004FF4003000F08AF80CE04FF4002000F09E
:100E300049F938B10021134800F08EF84FF4002032
:100E400000F07CF810480088019016E00E480C3045
:100E5000008800900C481030008800900A48143038
:100E6000008800900848001D00880090064800880F
:100E700001900098009001980190019810F0080FDF
:100E8000E4D11CBD58000240003801401CB54FF4AD
:100E9000001000F017F940B100211A4800F05CF88A
:100EA0004FF4001000F04AF80CE04FF4000000F09E
:100EB00009F938B10021134800F04EF84FF4000052
:100EC00000F03CF810480088019016E00E480C3005
:100ED000008800900C481030008800900A481430B8
:100EE000008800900848001D00880090064800888F
:100EF00001900098009001980190019810F0080F5F
:100F0000E4D11CBD6C0002400044004010B54FF01D
:100F1000007000F0D7F858B10021064800F01CF826
:100F20004FF0007000F00AF80120034981F84000FA
:100F300010BD000080000240D018002010F0805F3B
:100F400002D00349086001E0024948607047000090
:100F5000040402400000024021B1026842F0010294
:100F6000026004E002684FF6FE731A4002607047A8
:100F700001684FF6FE72114001600021016041607E
:100F80008160C1604B49884208D14A4908394968A3
:100F900041F00F01474A083A51608AE0454914314F
:100FA000884208D143490839496841F0F001414A73
:100FB000083A51607DE03F492831884208D13D49D7
:100FC0000839496841F470613A4A083A516070E062
:100FD00038493C31884208D136490839496841F4DA
:100FE0007041344A083A516063E0324950318842D6
:100FF00008D130490839496841F470212D4A083A2E
:10100000516056E02B496431884208D1294908399A
:10101000496841F47001274A083A516049E025497E
:101020007831884208D123490839496841F0706114
:10103000204A083A51603CE01F49884206D1011F0E
:10104000096841F00F01021F116032E01A491431A2
:10105000884208D11849091F096841F0F001164A71
:10106000121F116025E014492831884208D1124925
:10107000091F096841F470610F4A121F116018E0DE
:101080000D493C31884208D10B49091F096841F4D8
:101090007041094A121F11600BE007495031884224
:1010A00007D10549091F096841F47021024A121F3E
:1010B0001160704708000240080402400146486879
:1010C00080B2704701460020002211F0805F02D0FC
:1010D000054B1A6801E0054B1A680A4201D001204D
:1010E00000E00020704700000004024000000240C1
:1010F0001AB103680B43036002E003688B4303608B
:10110000704710B50022026847F6F0739A430C6AE4
:101110008B6823430C6923434C6923438C69234325
:10112000CC6923434C6A23438C6A23431A430260ED
:10113000CB6843600B6883604B68C36010BD41603F
:10114000704700002DE9F0472848006800F11005BD
:101150002E8826480068077AD6B9042F18D124486B
:10116000007801280FD100212248006880B2801C3D
:10117000214A42F8101030202049088000BF00208A
:101180001B49087003E0072710201C49088027E04E
:10119000AC88A64201D8042000E002200746B442F1
:1011A00000D93446A0B2A96888478046002000F0E4
:1011B000E7FB8146A2B24946404603F035F9A1B2A9
:1011C000002001F0B7FC2888001B28806888204494
:1011D000688030200949088000020949088000BF62
:1011E000024909680F72BDE8F0870000B4010020D1
:1011F000AC010020505C004000600040C6010020AF
:10120000C40100202DE9F0412848006800F11004D5
:101210002688A068C0B1BEB1A588B54200D93546C0
:10122000A8B2A168884707462088401B20806088B4
:1012300028446080002000F081FB8046AAB241462D
:10124000384601F099F900BF208850B14FF4405062
:10125000174908800021084601F06CFC3020154930
:1012600008802088A188884204DB03200F49096890
:10127000087218E02088002804DD05200B49096861
:10128000087210E0208870B90620084909680872C1
:1012900000210948006880B2801C084A42F81010FA
:1012A000302004490880BDE8F0810000B40100202E
:1012B000C4010020C6010020505C004000600040D6
:1012C0002DE9F84F9848006845780027BA46062D62
:1012D0001AD195480068007810F07F0F13D1924919
:1012E00009688878012803D190490968CF690AE024
:1012F000022803D18D4909680F6A04E0032802D14E
:101300008A4909684F6A90E0002D60D186480068DC
:10131000408800285BD184480068C088022856D1E4
:10132000814800680079002851D17F480068007822
:1013300010F07F0F05D17C480068808808B97C4F89
:1013400073E079480068007800F07F00012810D130
:10135000754909684879754909688A690021904783
:10136000002862D170480068807A00285DD0704FF4
:101370005BE06D480068007800F07F00022854D1DF
:1013800069480068407900F00F06674800684079B6
:1013900000F0700964480068407910F0800F05D0B3
:1013A000644850F8260000F0300804E0614850F826
:1013B000260000F4405860480078B04235D9B9F1B1
:1013C000000F32D1B8F1000F2FD0594F2DE0082D6A
:1013D00007D155480068007810F07F0F25D1574F8E
:1013E00023E00A2D21D150480068007800F07F00EA
:1013F00001281AD14C480068807AB0B14A48006888
:10140000408890B948480068007970B9464800683B
:10141000C088012809D144490968487943490968C5
:101420008A690021904700B9454F57B13E4800688E
:10143000A0F812A03C48006887610020B84700244B
:101440000FE0394A12685078384A126811698847A3
:101450000446032C05D10920334909680872BDE808
:10146000F88F31480068008AA0F57F41FF3904D128
:1014700009202D4909680872F1E7022C03D02A4897
:101480000068008A20B90820274909680872E6E741
:1014900025480068007810F0800F3CD02248006892
:1014A000C088009020480068008A0099884204D9CA
:1014B0001D4900980968088223E01B480068008ADB
:1014C00019490968C98888421BDA17480068008AE8
:1014D0001649096891F82C10884203DA002019494E
:1014E00008700EE010480068008A1049096891F8F9
:1014F0002C1090FBF1F201FB120010B901201149F0
:1015000008700A48006890F82C100748006881822B
:10151000FFF718FE06E0032003490968087200037C
:101520000949088000BF9AE7B4010020B8010020F3
:10153000212F0108005C0040B8000020A52E010802
:10154000F52E0108AC010020C40100207047000006
:1015500010B50349012002F015FE0249087010BDC4
:10156000E61A00207600002010B5042000F016F8DE
:1015700038B1042000F00CF806220449012001F0E3
:101580002FF9042000F004F810BD00001C0000201A
:101590000149086070470000140401400146002022
:1015A0000022074B1B6803EA0102054B14331B683A
:1015B0000B4202D00AB1012000E000207047000079
:1015C00000040140032001490860704758010020D1
:1015D0000149C860704700000020024030B5044651
:1015E00004254FF4302000F085F80546042D17D16E
:1015F0000C48006940F002000A490861084644614D
:10160000006940F0400008614FF4302000F072F8AB
:1016100005460448006941F6FD710840014908612A
:10162000284630BD0020024004200B49C96811F053
:10163000010F01D001200EE00749C96811F0040F25
:1016400001D0022007E00449C96811F0100F01D051
:10165000032000E004207047002002400348006996
:1016600040F08000014908617047000000200240FE
:1016700078B506460C46042500200090E80200F0EC
:1016800039F80546042D24D11348006940F00100C3
:10169000114908613480E80200F02CF80546042D59
:1016A00010D1B01C0090200C00990880E80200F0D6
:1016B00021F805460848006941F6FE7108400649D0
:1016C000086106E00448006941F6FE7108400249DD
:1016D0000861284678BD0000002002400248034906
:1016E0004860034848607047230167450020024076
:1016F000AB89EFCD00B502460423FFF795FF034603
:1017000003E0FFF791FF0346521E012B01D1002A8F
:10171000F7D102B90523184600BD000008B5012124
:101720007C2000F0CDFF4FF6FF70ADF800000020E8
:101730008DF8030069460C4800F020F869460B4814
:1017400000F01CF869460A4800F018F86946094894
:1017500000F014F86946084800F010F800217C20D9
:1017600000F0AEFF08BD000000080140000C014081
:101770000010014000140140001801402DE9F04123
:10178000024600250026002000230024002791F8AF
:1017900003C00CF00F0591F803C01CF0100F03D02C
:1017A00091F802C04CEA050591F800C0BCF1000FA9
:1017B00031D0146800202BE04FF0010C0CFA00F33C
:1017C000B1F800C00CEA03069E4220D183004FF01E
:1017D0000F0C0CFA03F7BC4305FA03FC4CEA0404B3
:1017E00091F803C0BCF1280F06D14FF0010C0CFAA0
:1017F00000FCC2F814C00AE091F803C0BCF1480F25
:1018000005D14FF0010C0CFA00FCC2F810C0401CCE
:101810000828D1D31460B1F800C0BCF1FF0F34DD4B
:10182000546800202EE000F1080C4FF0010808FA7F
:101830000CF3B1F800C00CEA03069E4221D18300EC
:101840004FF00F0C0CFA03F7BC4305FA03FC4CEA0B
:10185000040491F803C0BCF1280F05D100F1080C75
:1018600008FA0CF8C2F8148091F803C0BCF1480FD4
:1018700007D100F1080C4FF0010808FA0CF8C2F883
:101880001080401C0828CED35460BDE8F0810000D1
:10189000F0B50A46002300240021002500F0004690
:1018A000B6F1004F02D11D4EF16901E01B4E716887
:1018B000C0F3034583B200F44016B6F5401F08D1CB
:1018C00021F07061154E766826F07066134F7E60C9
:1018D00012E000F48016B6F5801F06D1032606FA42
:1018E00005F4A14341F0706106E0460D360103FAAC
:1018F00006F6B14341F0706122B1460D360103FA9C
:1019000006F6314300F00046B6F1004F02D1034E17
:10191000F16101E0014E7160F0BD00000000014086
:101920000246002093680B4201D0012000E0002015
:1019300070474161704701617047000001460548EA
:10194000006880B200EBC100001D034A32F81000AD
:1019500080B27047505C004000600040014606487D
:10196000006880B200EBC100801D044A32F810000C
:10197000C0F3090070470000505C00400060004068
:1019800001460548006880B200EBC100034A32F806
:10199000100080B270470000505C004000600040C2
:1019A00070B50A480468001D0568001D06683444C7
:1019B00054B108220649204600F046F804220449A2
:1019C0001031284600F040F870BD0000E8F7FF1F16
:1019D0005E00002000BFFEE710B518480068047ADA
:1019E000022C01D0042C05D1FFF7ACFB1348006892
:1019F000047A1CE0062C19D11048006840780528AC
:101A00000ED10E480068007810F07F0F08D10B4906
:101A10000968C87800F0F0FF09490968086A80473A
:101A20000849096888688047082400E008240349B9
:101A300009680C7200F0B4FD10BD0000B401002074
:101A4000C0010020B801002030B50B46002100BFC6
:101A500016E00A24B4EB107F05D9302404EB10748F
:101A600003F8114005E0412404EB10740A3C03F82C
:101A70001140000100254C00641C1D554C1CE1B2B6
:101A80009142E6DB30BD000010B5064CA07A18B1DB
:101A900005200549086002E001200349086001F0C3
:101AA000D1FB10BD602A00205801002000BFFEE7D6
:101AB00000BFFEE7704710B54FF4E06000F048F853
:101AC00010BD00F01F020121914042094FF0E023B8
:101AD00003EB8202C2F800117047000070B50021CC
:101AE00000230F22C4780CB3164C246804F4E0647D
:101AF000C4F5E064210AC1F10403CA40447804FA41
:101B000003F184781440214309010F4C0678A15554
:101B1000047804F01F050124AC4005786D114FF0E6
:101B2000E02606EB8505C5F8004109E0047804F0DD
:101B30001F050124AC40054D0678761145F8264076
:101B400070BD00000CED00E000E400E080E100E08A
:101B500002490143024A1160704700000000FA0583
:101B60000CED00E010B5002807DA0A07140E054A4C
:101B700000F00F031B1FD45403E00A07130E024AA0
:101B8000135410BD18ED00E000E400E070B502262B
:101B900049480068447848480068007810F07F0F92
:101BA0004AD1092C03D101F037FA064665E0052C2D
:101BB00014D141480068C0787F280BDC3E4800689B
:101BC000807838B93C480068808818B93A4800687D
:101BD000807A08B108256BE000264EE0032C14D172
:101BE00035480068C07801280DD1334800688088E6
:101BF00048B931480068407A10F0200F03D001F056
:101C00002FFA064639E0022637E0012C35D12A4862
:101C10000068C07801280DD127480068808848B93D
:101C200025480068407A10F0200F03D001F096F8A4
:101C3000064622E0022620E01F480068007800F0F7
:101C40007F00012805D10B2C17D101F079FA064647
:101C500013E019480068007800F07F0002280BD1DB
:101C6000012C03D101F07AF8064606E0032C04D1DA
:101C700001F00AFA064600E002264EB1E0B20F4A31
:101C80001268516988470646032E01D109250FE0E5
:101C90000EB108250CE0062500210948006880B235
:101CA000801C084A42F8101030200749088000BF05
:101CB000014909680D7270BDB4010020B80100200F
:101CC000505C004000600040C601002010B500F0EC
:101CD0000FF800F063FA00F07FFA00F09FFA00F0CE
:101CE0002DFA00F0FFF900F0D9FA00F002F810BD6B
:101CF0007047704710B500241A480078012830D189
:101D0000FEF7B6FA04461848007820B11648007865
:101D1000401E1549087014480078F8B91348007837
:101D2000E0B900F027FB12481249097850F8210069
:101D3000114908600F4800781049097888420DD091
:101D40000D480068C06B401C0B490968C8630C480B
:101D50000068401C0A490860FEF7A6FA2046FEF714
:101D60008BFA10BD91010020840100208501002024
:101D70002822002087010020A001002086010020E9
:101D80007801002010B50B48007890B900F0F2FA05
:101D9000094800780949087009480749097850F846
:101DA0002100084908600846006807490860FEF7F6
:101DB00066FA10BD910100208701002086010020F5
:101DC00028220020A0010020980100207047000078
:101DD0002DE9F04F85B081468A4693461C46DDE9E1
:101DE0000F78129D002003903F2C03D92A2005B0C4
:101DF000BDE8F08FFEF73CFA03902248007820B14E
:101E00000398FEF739FA3C20F1E71F4850F8240008
:101E100088BB01201C4941F824000398FEF72CFAE6
:101E20002A464146384600F071FB2B465A46514639
:101E3000484600F071F804901198CDE900800295B1
:101E40003A4620460E9B049900F0AAFA064636B997
:101E50000E48007801280CD100F052FA09E0FEF794
:101E600007FA03900020084941F824000398FEF780
:101E700003FA3046BBE7FFE70398FEF7FDF9282099
:101E8000B5E70000840100202822002091010020F5
:101E9000704770472DE9F04105460F4614464FF054
:101EA00000083F2D05D9FF2D03D02A202070BDE862
:101EB000F08117B90C202070F9E71448007810B1B0
:101EC00012202070F3E7FEF7D3F98046FF2D03D1EF
:101ED0000F48006890F836500E4850F825602EB92B
:101EE0004046FEF7C9F943202070E0E7012E05D1F6
:101EF0004046FEF7C1F943202070D8E737654046D9
:101F0000FEF7BAF90020207000BFD0E7840100205E
:101F1000980100202822002070B5044610464FF09A
:101F200080750560051F28462C606FF00106051FAF
:101F300028462E604FF01236051F28462E604FF0BF
:101F40000336051F28462E604FF00236051F28462F
:101F50002E607610051F28462E60051F2846296032
:101F60004FF01136051F28462E604FF01036051F22
:101F700028462E604FF00936051F28462E604FF088
:101F80000836051F28462E604FF00736051F2846E5
:101F90002E604FF00636051F28462E604FF005369E
:101FA000051F28462E604FF00436051F28462E6078
:101FB00070BD704770B5054600261748007800B11F
:101FC00070BD1648007800B1FAE71DB3FEF750F96E
:101FD00006461348006890F838401248005D1049E2
:101FE000096891F8391088430E4908550846005D84
:101FF00040B90B48006890F83A100B4800788843C5
:10200000094908700648006805633046FEF734F950
:1020100000F076F900BFD3E784010020850100209D
:1020200098010020890100208801002070B500255A
:10203000FEF71EF9054626480068401C2449086042
:102040002846FEF719F92348007801283ED1224896
:10205000046837E0FEF70CF90546206B70B3206B7F
:10206000401E2063206B48BB94F8340010F0370FFB
:1020700009D014F8340F00F0C800207001206070FF
:10208000A4F1340402E0002084F8350094F8340010
:1020900010F0080F12D104F13804A0780F49097824
:1020A00040EA01000D49087020780D49085C61780C
:1020B00040EA010014F83819094A50546469284666
:1020C000FEF7DAF894F836003F28C3D170BD00005F
:1020D000A801002091010020A40100208801002017
:1020E000890100202DE9F0414FF40071104800F003
:1020F000FDF800250DE0681C86B20D4800EB0514C4
:1021000000EB06170020207067600AA0E060681CE2
:1021100085B21F2DEFD3064800EB05140020207078
:10212000606004A0E060024803490860BDE8F081F7
:10213000281E00203F0000008001002070B54FF4F1
:102140004071134800F0D2F8002411E0601C85B201
:1021500004EB44000E4901EBC00305EB450001EB25
:10216000C006002018705E600AA05861601C84B22E
:102170001F2CEBD304EB4400054901EBC003002006
:102180001870586003A0586108460349086070BD84
:10219000281B00203F0000007C0100200020074990
:1021A000086007490870074908700749087007491F
:1021B000087007490860074908607047A8010020B7
:1021C000840100208501002092010020910100205F
:1021D000780100209401002000210A4A117000209B
:1021E00004E00021084A1154411CC8B20828F8D361
:1021F0000021064A1170064A1170064A1160064A0B
:1022000011607047880100208901002086010020AC
:1022100087010020A00100209801002070B54FF434
:10222000E761194800F062F84FF48071174800F038
:102230005DF8002413E0601CC5B204EB440000EB21
:10224000C400114901EBC00305EB450000EBC500DC
:1022500001EBC0065E610EA01865601CC4B2142CB0
:10226000E9D304EB440000EBC400074901EBC003D1
:102270000020586106A01865002006490860024841
:102280000549086070BD0000282300202822002096
:102290003F000000A40100209C01002000B587B091
:1022A0000320002180220A4BCDE90132CDE9031041
:1022B0004FF6FF703F23074A00900748FFF788FD5D
:1022C00006AA06A13F20FFF7E5FD07B000BD00000C
:1022D0002820002024220020E524010875432F4FE8
:1022E000532D49492049646C6500000004E0002238
:1022F00000F8012B4A1E91B20029F8D17047000066
:1023000010B50024FDF7B4FF044613480078F8B96F
:1023100012480078E0B900F02DF811481149097809
:1023200050F82100104908600E4800780F490978DC
:1023300088420DD00C480068C06B401C0A490968EF
:10234000C8630B480068401C09490860FDF7A7FFF7
:102350002046FDF791FF10BD84010020850100207B
:102360002822002087010020A001002086010020F3
:10237000780100200649074A1278885C0649095C02
:10238000034A515C01EBC001044A11707047000020
:102390006D4A010888010020890100208701002082
:1023A0002DE9F84F05460F4690469946DDE90AAB00
:1023B00000200090FDF75CFF009043480468002C6B
:1023C0007CD004F11C0454F8080C3F4908600098C4
:1023D000FDF752FF44F81C7CA5760020207660763D
:1023E000606144F818BC44F810AC44F8148C0C98A4
:1023F00024F80C0C24F80A9C0020E077E8102077E1
:1024000005F00700E076217F01208840A077E17E7B
:10241000012088406077002020606060E060A0605C
:102420002062A0626062E062206328A06063A4F181
:102430001C044FF0000606E0002104F1540040F8AF
:102440002610701CC6B2002EF6D02046FFF7BEFC48
:102450002046FFF71DFDFDF70BFF00901C4840F8DC
:1024600025401C48006860610020A0611948006890
:1024700010B11848006884611648046004F13804FB
:10248000A0781549097840EA0100134908702078BE
:102490001249085C617840EA010014F838190F4AC3
:1024A00050540F48007800F101000D490870009861
:1024B000FDF7E2FE0020BDE8F88FFFE70098FDF78A
:1024C000DBFE4220F7E700009C0100203F000000F7
:1024D00028220020A401002088010020890100207A
:1024E00092010020002400BF00BFFDF7C1FE04469A
:1024F00005480068401C044908602046FDF7BCFE02
:10250000FFF7C7FCF1E700009401002012F0010F73
:1025100008D012F0020F05D002E0491E002308C0C7
:102520000029FAD17047000010B511480068047AFC
:10253000022C01D0042C01D1082412E0032C01D07C
:10254000052C05D1FEF75EFE09480068047A08E014
:10255000072C05D107490968C8688047082400E0AE
:102560000824034909680C7200F01AF810BD000035
:10257000B4010020B8010020F0B5561C7510074EBC
:1025800006EB41042B4605E034F8047B20F8017B80
:10259000401C5B1E002BF7D1F0BD00000060004026
:1025A00010B50D4890F82C10002000F05BFA0B4895
:1025B0000068007A082805D14002094908801020E7
:1025C0000849088005480068007A092801D10120DF
:1025D00010BD0020FCE70000BC000020B40100207A
:1025E000C4010020C601002010B501200549086083
:1025F0000020091D086001F0FDFC0320014908606E
:10260000002010BD405C004010B5012001F0F2FC3C
:1026100001240B48046000200A490880084600880D
:10262000074908600020091D08604FF4E050054983
:1026300008800846008802490860002010BD00009C
:10264000405C0040BE01002001460020034A506863
:1026500020F44040084350607047000000100240E2
:1026600029B1064A52690243044B5A6104E0034A05
:1026700052698243014B5A617047000000100240CA
:1026800029B1064AD2690243044BDA6104E0034AE5
:10269000D2698243014BDA617047000000100240AA
:1026A00029B1064A12690243044B1A6104E0034A45
:1026B00012698243014B1A6170470000001002400A
:1026C00029B1064A92690243044B9A6104E0034A25
:1026D00092698243014B9A617047000000100240EA
:1026E00029B1064AD2680243044BDA6004E0034A87
:1026F000D2688243014BDA6070470000001002404C
:1027000030B500210022002400232D4D6D6805F016
:102710000C0121B1042905D0082923D105E0294D58
:10272000056022E0274D05601FE0254D6D6805F42A
:102730007012234D6D6805F48034022505EB92423A
:102740001CB9214D554305600BE01D4D6D6815F416
:10275000003F03D01C4D5543056002E0194D554321
:10276000056002E0174D056000BF00BF144D6D68A5
:1027700005F0F0010909154D6B5C0568DD40456009
:102780000F4D6D6805F4E061090A104D6B5C4568FA
:10279000DD4085600A4D6D6805F46051C90A0B4D36
:1027A0006B5C4568DD40C560054D6D6805F44041D2
:1027B000890B074D6B5CC568B5FBF3F5056130BD52
:1027C0000010024000127A0000093D006001002064
:1027D000700100200149086070470000D8004242A3
:1027E00070B504460D461646012C14D10102154859
:1027F000FFF7A1F8324629461348FEF739F900BF22
:102800001148FEF71FF90028FAD04FF480710D48E7
:10281000FFF78FF814E0022C12D110210948FFF7BE
:102820008AF8324629460948FEF722F900BF0748D0
:10283000FEF708F90028FAD010210248FFF779F8CE
:1028400070BD0000000801407C180020D018002056
:1028500010B50B460021054C204403E010F8014B55
:102860005C54491C9142F9DB10BD000000FC0108DA
:102870002DE9F04106460F46144639463046FFF72B
:102880004FF805464FF00008207830B1012808D0F5
:1028900002280FD0032834D120E00DB90120207088
:1028A0002FE025B9022020700020606001E00020A8
:1028B000207026E025B1002020704FF002080CE0C7
:1028C0006068401C60600A2807DB0320207000203D
:1028D0006060804601200D49087012E025B100209B
:1028E00020704FF003080BE06068401C60600A280D
:1028F00004DD4FF000080020606001E04FF00008A8
:1029000000BF00BF4046BDE8F08100002700002066
:1029100070B50546072D01D0274805702648007878
:10292000082841D2DFE800F0040A1016212E4142A7
:1029300000F046F80620204908703BE000F040F81F
:1029400004201D49087035E002201B49487003200F
:1029500008702FE018484078401E17494870084614
:10296000407808B90420087024E01448006884B254
:1029700044F010041148046005200F4908700A2033
:10298000487017E00C484078401E0B4948700846D4
:10299000407840B90948006884B224F01004074820
:1029A00004600620087005E000BF00BF0620024951
:1029B000087000BF00BF70BD5D010020405C00409A
:1029C00010B50748006884B224F004040448046089
:1029D000FFF75AF84FF43F400149086010BD00006E
:1029E000405C0040704700004FF6F8710140014A1A
:1029F00011607047505C004030B501460E4B1A78AC
:102A0000002010E0C3B20D4C54F8233048F68F7408
:102A1000234048F280042343C4B22343C4B2074D89
:102A200045F82430401C9042ECD341F08003034C25
:102A30004C34236030BD0000B8000020005C004032
:102A400010B54A105300054A126892B202EBC00258
:102A5000121D034C44F8123010BD0000505C0040C1
:102A60000060004010B502460F48006880B200EBDD
:102A7000C200801D0D4C04EB40033E290BDD4811C4
:102A800011F01F0F01D1441EA0B24FF4004444EADC
:102A900080241C6007E0481011F0010F01D0441C95
:102AA000A0B284021C6010BD505C00400060004079
:102AB00010B50C4B53F820304BF68F7403EA040228
:102AC00011F4805F01D082F4805211F4005F01D0D4
:102AD00082F4005242F4004343F08003014C44F876
:102AE000203010BD005C0040094A52F820204BF60F
:102AF0008F7302EA030181F4805181F4005141F4A3
:102B0000004242F08002024B43F820207047000050
:102B1000005C004010B54A105300044A126892B29B
:102B200002EBC002024C44F8123010BD505C004071
:102B300000600040044A126892B202EBC002921C8C
:102B4000024B43F812107047505C00400060004098
:102B500010B50C4B53F8203048F6BF7403EA04025A
:102B600011F0100F01D082F0100211F0200F01D0EF
:102B700082F0200242F4004343F08003014C44F809
:102B8000203010BD005C0040054A52F8202048F675
:102B90008F131A400A43024B43F82020704700006D
:102BA000005C004010B500F001F810BD0CB500202D
:102BB000019000903448006840F480303249086049
:102BC00000BF3148006800F4003000900198401CBC
:102BD0000190009820B90198A0F57F41FE39F0D10D
:102BE0002948006810F4003F02D00120009001E065
:102BF000002000900098012843D12448006840F04C
:102C00001000224908600846006820F003000860B0
:102C10000846006840F0020008601B4840681A49F6
:102C200048600846406848600846406840F4806054
:102C300048600846406820F47C10486008464068B8
:102C400040F4E81048600846006840F08070086072
:102C500000BF0D48006810F0007FFAD00A484068B5
:102C600020F00300084948600846406840F0020030
:102C7000486000BF0448406800F00C000828F9D103
:102C800001E000BFFEE70CBD001002400020024042
:102C9000704710B50020FFF79DFD0121C805FFF723
:102CA000EFFC10BD38B501242948006880B2001D32
:102CB000284931F8100080B201EB4000009026480E
:102CC0000068007A092832D0009800782249096803
:102CD00008700098401C0090009800781E49096810
:102CE00048700098401C0090009800EB4400009051
:102CF000009931F8020B0091FDF7B1FC1649096803
:102D00004880009800EB44000090009931F8020BD5
:102D10000091FDF7A4FC104909688880009800EB39
:102D200044000090009800880B490968C880012081
:102D300009490968087208480068C08810B9FEF798
:102D400025FF01E0FEF7BCFAFFF72AFC38BD0000C2
:102D5000505C004000600040B40100202DE9F047C5
:102D60004B480068007800F07F08B8F1000F0AD1E6
:102D700047480068407A00F0DF004549096848721A
:102D80000020BDE8F087B8F1020F7ED1404800680E
:102D9000408818B93E480068007908B10220F0E781
:102DA000DFF8F0903A480068477927F080052C4614
:102DB00037480068407910F0800F05D0364850F849
:102DC000240000F0300604E0334850F8240000F4FA
:102DD000405699F80000A84204D91EB12C4800685A
:102DE000807A08B90220CCE717F0800F0ED02A486D
:102DF00050F8240000F0300010283FD1E0B2FDF779
:102E00007FFDE0B23021FFF7A3FE37E0224850F803
:102E1000240000F44050B0F5805F2FD1C4B91F4AA0
:102E200092F82C10E0B2FFF71DFE1B4951F8241058
:102E30004BF68F7201EA020080F4805080F400505B
:102E400040F4004141F08001134A42F8241015E09B
:102E5000E0B2FDF73FFD104951F824104BF68F7298
:102E600001EA020080F4805080F4005040F40041F8
:102E700041F08001084A42F8241000BF084909685F
:102E80004869804700207CE7FFE700BF022078E721
:102E9000B4010020B8000020005C0040BC0000200D
:102EA000C001002010B504462CB90120064909686C
:102EB0000882002010BD054909680868804702485B
:102EC00000680A30F6E70000B4010020C0010020CD
:102ED00010B5024606480068438A32B98888C01A8D
:102EE000034C24682082002010BD08681844FBE7CA
:102EF000B401002010B504462CB901200649096828
:102F00000882002010BD054909688868804702488A
:102F100000680C30F6E70000B4010020C00100207A
:102F200010B504462CB902203749096808820020F0
:102F300010BD00203549088033480068007810F043
:102F40007F0F23D130490968487A10F0200F06D04E
:102F50002E49097841F002012C4A117005E02B49F5
:102F6000097801F0FD01294A117010F0400F06D0D8
:102F70002649097841F00101244A117005E02349EE
:102F8000097801F0FE01214A117036E01E48006800
:102F9000007800F07F00012801D11C48C8E71A48DA
:102FA0000068007800F07F00022824D1164A1268D9
:102FB000517901F00F0011F0800F0DD0144A52F832
:102FC000202002F03002102A14D1104A127842F068
:102FD00001020E4B1A700DE00D4A52F8202002F447
:102FE0004052B2F5805F05D1084A127842F00102E2
:102FF000064B1A7001E000209AE706490968086943
:103000008047024894E70000B4010020AE01002090
:10301000005C0040C001002010B50E480068C07878
:103020000D494978884213DC0A480068807878B9ED
:1030300008480068808858B906480068C078054983
:10304000096888720549096848688047002010BDF2
:103050000220FCE7B4010020B8000020C0010020DD
:1030600010B507480068407A40F02000044909681C
:10307000487204490968C8698047002010BD0000F3
:10308000B4010020C00100202DE9F041284800686B
:10309000467926F080073C4625480068407910F0C4
:1030A000800F05D0234850F8240000F0300504E0DC
:1030B000204850F8240000F440551F480078A042F2
:1030C00008D91B480068408820B91DB1184800681D
:1030D000807A10B90220BDE8F08116F0800F10D080
:1030E000144951F8241048F6BF7201EA020080F03A
:1030F000100040F4004141F080010E4A42F82410D3
:1031000010E00C4951F824104BF68F7201EA0200CE
:1031100080F4805040F4004141F08001054A42F8BB
:10312000241000BF05490968886980470020D2E75C
:10313000B4010020005C0040B8000020C001002065
:1031400010B5174B1B68D978154B1B685879154B70
:103150001B689A699047044611480068807AE8B174
:103160003CB90F480068007918B90D4800688078AC
:1031700008B1022010BD8CB90B490968C8688047A6
:1031800007480068407906490968C8720448006821
:10319000C0780349096808730020EBE70220E9E7DB
:1031A000B4010020B8010020C001002010B5044681
:1031B0000021A06AFDF7D0FE216BA06A41600121C9
:1031C000A06AFDF7C9FE10BD70B504460E4615464F
:1031D000002D0EDD0021E06AFDF7BEFE2A463146D5
:1031E000E06BFDF797F8E06A45600121E06AFDF7C2
:1031F000B3FE70BD10B50848006884B244F00804FE
:1032000005480460006884B244F004040248046085
:10321000FEF7D8F910BD0000405C004010B5FDF786
:1032200027F8044606480078401C054908702046E7
:10323000FDF722F8FEF7FAFEFEF75CFD10BD000078
:103240008401002010B51248006840F001001049C8
:103250000860084640680F4908400D494860084624
:1032600000680D4908400A4908600846006820F4D3
:10327000802008600846406820F4FE004860002076
:103280008860FFF78FFC05480549086010BD000005
:10329000001002400000FFF8FFFFF6FE00000108EA
:1032A00008ED00E021B1028842F08002028004E0D3
:1032B00002884FF67F731A400280704730B50023B2
:1032C00001248C40A3B2048C9C430484048C02FA35
:1032D00001F5ADB22C43048430BD21B1028842F027
:1032E0000102028004E002884FF6FE731A40028059
:1032F0007047000010B504466848844208D1012197
:10330000C014FFF7EDF90021E014FFF7E9F9C4E07C
:10331000B4F1804F08D101210846FFF7C1F900211F
:103320000120FFF7BDF9B8E05D48844208D10121D2
:103330000220FFF7B5F900210220FFF7B1F9ACE058
:103340005848844208D101210420FFF7A9F900213F
:103350000420FFF7A5F9A0E05348844208D10121D9
:103360000820FFF79DF900210820FFF799F994E064
:103370004E48844208D101211020FFF791F9002125
:103380001020FFF78DF988E04948844208D10121D7
:103390002020FFF785F900212020FFF781F97CE04C
:1033A0004448844208D101214014FFF799F90021D3
:1033B0006014FFF795F970E03F48844209D101217C
:1033C000C804FFF78DF900214FF40020FFF788F9BA
:1033D00063E03A48844209D101210805FFF780F9EA
:1033E00000214FF48010FFF77BF956E03448844207
:1033F00009D101214805FFF773F900214FF40010AE
:10340000FFF76EF949E02F48844208D1012140209E
:10341000FFF746F900214020FFF742F93DE02A4836
:10342000844208D101218020FFF73AF90021802051
:10343000FFF736F931E02548844208D10121801593
:10344000FFF72EF90021A015FFF72AF925E0204803
:10345000844209D101210804FFF742F900214FF409
:103460008030FFF73DF918E01A48844209D1012164
:103470004804FFF735F900214FF40030FFF730F929
:103480000BE01548844208D101218804FFF728F990
:1034900000214FF48020FFF723F910BD002C0140DC
:1034A0000004004000080040000C004000100040F4
:1034B0000014004000340140004C01400050014025
:1034C0000054014000180040001C00400020004053
:1034D00000400140004401400048014070B5002414
:1034E00000220023058C4FF6EF7635400584028CD0
:1034F0008388048B48F6FF752C404FF6FF452C401F
:103500000D884FF6FF7606EA05252C434FF6DF754A
:103510002A400D8906EA05152A434D8806EA051555
:103520002A43154DA84202D0144DA8421DD14FF692
:103530007F752A404D894FF6FF7606EA05152A4326
:103540004FF6BF752A408D8806EA05152A434FF6C7
:10355000FF352B404FF2FF752B408D8906EA85051C
:103560002B43CD8906EA85052B4383800483CD88D0
:103570000587028470BD0000002C0140003401402A
:103580000A460021018B4FF2FF7319404FF6FF737B
:1035900003EA022319430183704701877047000043
:1035A000002202881D4B98420ED01D4B98420BD032
:1035B000B0F1804F08D01B4B984205D01A4B98426F
:1035C00002D01A4B984204D14FF68F731A404B88A1
:1035D0001A43174B984207D0164B984204D04FF627
:1035E000FF431A40CB881A4302808B8883850B885F
:1035F00003850A4B98420BD0094B984208D00E4BDA
:10360000984205D00D4B984202D00D4B984201D103
:103610000B7A03860123838270470000002C01404F
:10362000003401400004004000080040000C00404D
:1036300000100040001400400040014000440140E0
:1036400000480140A8B059E0002415E000250FE033
:10365000C5EBC5002A4901EB400030F8140004EB2B
:10366000840101AA02EB810121F81500681C85B2D2
:103670000A2DEDDB601C84B2072CE7DB00240BE095
:1036800004EB840101AA02EB810000F021FF24A9D0
:1036900021F81400601C84B2072CF1DB002408E040
:1036A00024A830F81400401024A921F81400601C4C
:1036B00084B2062CF4DB0120124988700C20C870FB
:1036C000084624A90EC9001D0EC01021103800F0B4
:1036D0002DFF0C490874BDF89C000B490880084672
:1036E0000088B0F50C6F03DA00200849087002E08A
:1036F0000120064908700A20FEF75CFCA4E70000E0
:103700008619002000000020120000202600002062
:1037100032E19A4A04219A48FFF7AAF80446032C9A
:103720000FD10720974988700320C870042195485D
:1037300000F0FCFE9349087105220120FFF750F8C4
:1037400010E0022C0ED107208E4988700220C8702C
:1037500004218C4800F0EAFE8A4908710522012004
:10376000FFF73EF8884A08218548FFF781F80446AC
:10377000022C0FD10820834988700220C8700421D0
:10378000804800F0D3FE7F49087105220120FFF731
:1037900027F810E0032C0ED108207A498870032006
:1037A000C8700421774800F0C1FE764908710522EF
:1037B0000120FFF715F8754A4FF400417448FFF7F0
:1037C00057F80446022C0FD104206E49887002205D
:1037D000C87004216B4800F0A9FE6A4908710522EF
:1037E0000120FEF7FDFF10E0032C0ED104206549F7
:1037F00088700320C8700421624800F097FE614978
:10380000087105220120FEF7EBFF624A4FF40051D8
:103810006148FFF72DF80446022C0FD103205949C7
:1038200088700220C8700421564800F07FFE554978
:10383000087105220120FEF7D3FF0FE0032C0DD104
:10384000032050498870C87004214E4800F06EFE75
:103850004C49087105220120FEF7C2FF4F4A4FF480
:1038600080414D48FFF704F80446022C0FD1052093
:10387000444988700220C8700421424800F056FE76
:103880004049087105220120FEF7AAFF10E0032C31
:103890000ED105203B4988700320C87004213948A7
:1038A00000F044FE3749087105220120FEF798FF19
:1038B0003B4A4FF400413848FEF7DAFF0446022C39
:1038C0000FD106202F4988700220C87004212D488E
:1038D00000F02CFE2B49087105220120FEF780FF25
:1038E00010E0032C0ED10620264988700320C870F2
:1038F0000421244800F01AFE224908710522012003
:10390000FEF76EFF4FF400511D48FEF709F818B995
:1039100001202449087012E04FF480411848FDF757
:10392000FFFF18B902201F49087008E04FF400415A
:103930001348FDF7F5FF10B903201A49087019481C
:10394000007819490978884213D002200D498870FF
:1039500014480078C87004210A4800F0E7FD0949BE
:10396000087105220120FEF73BFF0E4800780E4942
:1039700008700520FEF71EFBCBE600002C0000209F
:10398000000C014000000020340000203C0000201A
:103990000008014044000020001001404C000020BD
:1039A00054000020290000202800002071E0394840
:1039B0000078012808D1012204213748FFF77EFC56
:1039C00000203449087004E0002204213248FFF747
:1039D00075FC3248007840B140213148FDF7A9FF1D
:1039E00080212F48FDF7A7FF07E080212C48FDF735
:1039F000A0FF40212A48FDF79EFF2A48007840B1E9
:103A000010212748FDF795FF20212548FDF793FF5A
:103A100007E020212248FDF78CFF10212048FDF708
:103A20008AFF01211E48FDF77BFF78B902211C485F
:103A3000FDF776FF50B14FF400711948FDF779FF9B
:103A40004FF480711648FDF776FF1FE016480078A6
:103A5000012809D101021248FDF76BFF4FF40071F4
:103A60000F48FDF768FF11E04FF400710C48FDF7B7
:103A700060FF4FF480710A48FDF75DFF3220FEF7CA
:103A800099FA4FF400710648FDF755FF3220FEF712
:103A900091FA8CE727000020000400402400002059
:103AA000000C0140250000202600002086B00320E5
:103AB00000213222274BCDE90132CDE903100C2041
:103AC0000346244AC43200902348FEF781F90320BC
:103AD00000216422214BCDE90132CDE903100220FF
:103AE00003461F4A00901F48FEF772F90320002189
:103AF00064221D4BCDE90132CDE9031001200346BC
:103B00001A4A00901A48FEF763F903200021642244
:103B1000184BCDE90132CDE9031004200346164AC3
:103B200000901648FEF754F9032000214FF4FA7272
:103B3000134BCDE90310CDE9013200900346114A41
:103B40001148FEF745F903E04FF47A70FEF732FAB8
:103B5000FAE7000068030020AD39010830040020B6
:103B6000BC05002045360108C00500204C07002098
:103B70001137010850070020DC080020513C0108E3
:103B8000E0080020AC1000208D3B01081FB52BA1E0
:103B900003C9CDE90201002001904DE029480078D9
:103BA00001280ED1274840788DF80400042201A98D
:103BB000104600F055FC042269461046FEF748FE08
:103BC00034E020480078022830D01E4800780328CE
:103BD0002BD11C4840788DF80400042201A9002054
:103BE00000F03EFC042269460020FEF731FE9DF8FD
:103BF00000009DF80410884218D1012080F310883D
:103C000000BF00F0B3FE4FF0006040680E4908604E
:103C1000084600680D4908604FF000610868FCF72D
:103C2000FEFA0A480068804700E000BF002005490E
:103C300008700A20FEF7BEF9B0E700000102030495
:103C400005060708E61A00201800002014000020CE
:103C50001AE00E48406C0078112807D101200C4969
:103C6000087000200949496C08700AE00748406C58
:103C70000078102805D10020054908700349496CD7
:103C800008703220FEF796F9E3E700007C18002068
:103C90002400002070B5002400BFFCF7E9FA0546B7
:103CA0000F480078401C0E4908702846FCF7E4FADB
:103CB00040F224410B4800F0E2F870B109480C30A2
:103CC0000088C4B207480088C4B20648001D0088B6
:103CD000C4B20124044800F06EFAFEF70BF870BD80
:103CE00084010020003801407C18002070B50024B9
:103CF00000BFFCF7BDFA05460F480078401C0E498E
:103D000008702846FCF7B8FA40F224410B4800F04E
:103D1000B6F870B109480C300088C4B20748008872
:103D2000C4B20648001D0088C4B20124044800F053
:103D300042FAFDF7DFFF70BD84010020004400401F
:103D4000D018002070B5002400BFFCF791FA05469A
:103D50000F480078401C0E4908702846FCF78CFA82
:103D600040F224410B4800F08AF870B109480C3049
:103D70000088C4B207480088C4B20648001D008805
:103D8000C4B20124044800F016FAFDF7B3FF70BD79
:103D900084010020004800402419002021B18289BC
:103DA00042F40052828104E082894DF6FF731A408A
:103DB000828170471AB1838A0B43838202E0838A2F
:103DC0008B4383827047000010B50446204884422C
:103DD00009D101218803FEF783FC00214FF48040C4
:103DE000FEF77EFC32E01B48844209D101214804E1
:103DF000FEF756FC00214FF40030FEF751FC25E0A1
:103E00001548844209D101218804FEF749FC0021AC
:103E10004FF48020FEF744FC18E01048844209D19A
:103E20000121C804FEF73CFC00214FF40020FEF7FE
:103E300037FC0BE00A48844208D101210805FEF74F
:103E40002FFC00214FF48010FEF72AFC10BD00006B
:103E5000003801400044004000480040004C004051
:103E60000050004002460020B1F5007F00D100BFA5
:103E700013880B4201D0012000E00020704770B58C
:103E800002460024002300250020A1F510666A3EAA
:103E900000D100BFC1F3421501F01F03012606FA4D
:103EA00003F3012D02D19689334006E0022D02D1A1
:103EB000168A334001E0968A33400C12012606FA36
:103EC00004F41688344013B10CB1012000E0002046
:103ED00070BDF0B503460024002600250020A1F5A2
:103EE00010676A3F00D100BF1846C1F3421401F0C9
:103EF0001F06012707FA06F5012C01D10C3004E05A
:103F0000022C01D1103000E014301AB107682F43A1
:103F1000076002E00768AF430760F0BD2DE9F04796
:103F200086B005460E460024A24600BFA1460027E3
:103F3000B08900B100BF2F462C8A4CF6FF700440B8
:103F4000F08804432C82AC894EF6F3100440B0880C
:103F500031890843718908430443AC81AC8A4FF628
:103F6000FF400440B0890443AC8201A8FEF7C8FBBF
:103F70001F48874202D1DDF810A001E0DDF80CA057
:103F8000A88910F4004F08D00AEBCA0000EB0A1011
:103F900031684900B0FBF1F807E00AEBCA0000EB1A
:103FA0000A1031688900B0FBF1F86420B8FBF0F02A
:103FB00004012009642101FB1089A88910F4004F35
:103FC00008D0322000EBC900B0FBF1F000F0070090
:103FD000044308E0322000EB09106421B0FBF1F04B
:103FE00000F00F0004432C8106B0BDE8F08700000C
:103FF000003801407047000010B5084808490860C3
:1040000002200968087207480749086007480849FC
:104010000860054909680868804710BD602A0020CB
:10402000B4010020BC000020B8010020EC000020FA
:10403000C001002008B54FF4A060FDF789FD1420F1
:104040008DF8000001208DF8010000208DF802009D
:1040500001208DF803006846FDF740FD08BD000013
:1040600010B537480068374908800846008800F4D2
:10407000004035490988084201D0FCF7F7FA314879
:10408000008800F4806030490988084206D04FF665
:10409000FF302B4908602D4948688047294800882F
:1040A00000F4005028490988084203D04DF6FF70FB
:1040B000234908602348008800F480502249098879
:1040C000084206D04EF6FF701D4908600020FEF73A
:1040D0001FFC1C48008800F400601B490988084246
:1040E0000CD01B48007810B1FFF784F802E00220E2
:1040F000FEF70EFC4FF2FF7011490860114800886E
:1041000000F4007010490988084208D04FF6FF50AB
:104110000B4908600F480078401C0E490870094898
:10412000008800F4807008490988084206D04FF6DC
:10413000FF60034908600720FEF7EAFB10BD00009E
:10414000445C0040B4000020BE010020BC00002000
:104150005C0100207800002010B5FFF781FF10BD42
:104160000020064908604FF43F4005490880084692
:1041700000880249091F086000207047445C004025
:10418000BE0100202DE9F04104460E46002504F052
:104190007F00FDF7E3FB054604F07F00FDF7CEFB53
:1041A00007462A4639463046FEF7E6F92846BDE876
:1041B000F08100BFFEE72DE9F04705464FF000080B
:1041C000C146A86AFCF77AFF8046286B404505D1B6
:1041D0002846FEF7EBFF0020BDE8F087288EA0EB15
:1041E00008001FFA80F9AF6B05F14404002618E0BF
:1041F000A089401C80B2A081E18988420EDA17F8BC
:10420000010B2289216888542089401C80B22081BA
:10421000E189884203DB0020208100E003E0701C7C
:1042200086B24E45E4DB00BF2A8E91B2A86AFCF745
:1042300086FF2846FEF7BAFF4846CDE710B592B094
:1042400004462068FFF7C0FDA06AFCF791FEE06A13
:10425000FCF78EFE70492068884204D101210220BB
:10426000FEF7FEF903E001210846FEF7F9F9A1681F
:1042700041F001000121FEF723FA684920688842D5
:1042800004D10121E069FEF71BFA03E00121E06996
:10429000FEF7F6F918208DF80B00E089ADF808005C
:1042A00002208DF80A0002A96068FDF767FA042071
:1042B0008DF80B00A089ADF8080002A96068FDF731
:1042C0005DFA4FF4A0610020554A10684FF2FF02DA
:1042D0001040544A024342EA0120514A106000BF94
:1042E00094F925000121FDF73DFC94F92500FDF727
:1042F000E8FB94F924000221FDF734FC94F9240032
:10430000FDF7DFFB2020005D8DF8040001208DF813
:1043100005008DF806008DF8070001A8FDF7DEFB0B
:10432000E06AFCF725FEA0690390E06B0490606BE7
:104330000690102005900020079080200890002013
:1043400009900A900B904FF440500C9000200D9073
:1043500003A9E06AFCF7D5FE01220221E06AFCF71E
:10436000C7FEA06AFCF704FEA0690390A06B04904E
:1043700000200590206B0690002007908020089078
:10438000002009900A900B904FF440500C900020B0
:104390000D9003A9A06AFCF7B4FE01220221A06AD5
:1043A000FCF7A6FE20690E90A08A20B14FF4805041
:1043B000ADF83C0002E00020ADF83C00E08AADF82A
:1043C0003E00A08AADF840000020ADF844000C206B
:1043D000ADF842000EA92068FFF7A0FD0122802160
:1043E0002068FFF7E7FC012240212068FFF7E2FC8C
:1043F0000021E06AFCF7B0FD0021A06AFCF7ACFDEB
:1044000001212068FFF7CAFC012240F22441206804
:10441000FFF75FFD12B010BD004C004000380140B6
:104420000CED00E00000FA05F0B5144604F1010CB3
:104430004FEA6C07DFF824C00CEB41033D460AE06D
:104440000678401C90F800C046EA0C2223F8022BA4
:104450009B1C401C6D1E002DF2D1F0BD0060004081
:104460002DE9F04107460C4615462846E91705EBAD
:104470009171C1F38705FDF731F93520FDF7A8F8F3
:104480001148FDF7ABF81149087013E014F8016BFF
:1044900014F8011B46EA012614F8011B46EA0146FE
:1044A00014F8011B46EA0166074978183146FDF702
:1044B000DFF83F1D2800A5F10101CDB2E6D1FDF7DF
:1044C000CDF8BDE8F081000000FC01085F0100208C
:1044D00070B50246002132F8113032F811400DE07B
:1044E00032F811509D4201DA32F8113032F8115091
:1044F000A54201DD32F811404D1CE9B20A29EFDB7B
:104500000021002005E032F811500544A8B24D1CEE
:10451000E9B20A29F7DB1D19451BA8B20546C617E3
:1045200000EB5676F01020F4704070BD024600207B
:104530000AE013780344D8B21378834201DD431CA8
:10454000D8B2521C4B1ED9B20029F2DC70470000D1
:1045500008B501211C20FEF7B3F84FF40040ADF878
:10456000000048208DF8030003208DF80200694602
:104570002348FDF703F94EF20400ADF8000048208F
:104580008DF8030003208DF8020069461D48FDF7F1
:10459000F5F84FF46040ADF8000048208DF80300B6
:1045A00003208DF8020069461748FDF7E7F801215E
:1045B0000920FEF785F801211448FDF769F9082064
:1045C000ADF8000048208DF8030003208DF80200AC
:1045D00069460C48FDF7D2F800200D490870486084
:1045E0000C49087048600C49087048600B49087015
:1045F00048600B49087048600A490870486008BD67
:1046000000080140000C0140001001400002300091
:104610002C000020340000203C000020440000203A
:104620004C0000205400002008B501210820FEF7AE
:1046300047F84FF47C70ADF8000010208DF80300AF
:1046400002208DF8020069460A48FDF797F801211B
:104650000820FEF735F80320ADF8000004208DF89F
:10466000030002208DF8020069460248FDF786F833
:1046700008BD0000000C014030B585B0FDF71BFA05
:10468000FDF74CF8FDF722FBFFF7CEFF00214FF4BA
:10469000615000F053F8FFF75BFF02214FF4E13067
:1046A00000F0A6F800F0B4F800F080F90320002133
:1046B00064221C4BCDE90132CDE903100F200346E3
:1046C000194A00901948FDF783FB194800684FF418
:1046D0007A72B0FBF2F1B1F1807F00D31DE021F0DE
:1046E0007F40401E4FF0E022506150170F220028FB
:1046F00007DA13071D0E0F4B00F00F04241F1D5582
:1047000003E013071C0E0C4B1C5400BF00204FF09D
:10471000E02290610720106100BFFDF733FB01200C
:1047200005B030BDD801002064030020AD3A010877
:104730007401002018ED00E000E400E030B589B01D
:1047400005460C4601210220FDF79AFF01210520B4
:10475000FDF7B6FF8020ADF8200018208DF823006B
:1047600003208DF8220008A91F48FDF707F81F480D
:10477000FEF7C0FDADF81850ADF814400020ADF8BC
:104780001A00ADF816008DF81C0005A91748FEF7B1
:1047900007FF6020ADF804000120ADF806000220FC
:1047A000ADF80C008020ADF80A004000ADF8100014
:1047B00001A90E48FEF792FE08210C48FEF7E0FE24
:1047C00001210A48FEF76EFD01210848FEF785FD2C
:1047D00001210648FEF7E1FE002204210348FEF70E
:1047E0006DFD09B030BD000000080140000400402C
:1047F00070B504460D4629462046FCF7A7F84FF44D
:1048000080710248FDF795F870BD00000008014076
:1048100000B591B001210520FDF752FF7F20ADF8D2
:10482000400003208DF8420000208DF8430010A9BD
:104830004A48FCF7A3FF4FF44040FDF705FF012174
:104840004802FDF73DFF4648FBF72CFE00200B9089
:1048500001208DF830008DF831004FF460200D906C
:1048600000200E9007208DF83C000BA93C48FBF778
:104870005BFE0723012205213948FBF77DFE072354
:10488000022206213648FBF777FE07230322012187
:104890003348FBF771FE0723042202213048FBF75F
:1048A0006BFE0723052204212D48FBF765FE072335
:1048B000062200212A48FBF75FFE07231A46032140
:1048C0002748FBF759FE01212548FBF7DFFD0121B1
:1048D0002348FBF7D0FD2248FBF7AAFE00BF204883
:1048E000FBF718FE0028FAD11D48FBF7B1FE00BF08
:1048F0001B48FBF705FE0028FAD101210846FDF709
:10490000AFFE1848FCF734FB15484C3000901648B1
:104910000190002002904620039000200490802007
:10492000059040000690800007902020089000022B
:10493000099000200A9069460A48FCF7E2FB012131
:104940000748FBF7A3FD01210648FCF705FB012101
:104950000348FBF772FE11B000BD000000080140E3
:1049600000240140080002408619002038B56FF08D
:104970007D44FDF739FE4FF4C050ADF80000102023
:104980008DF8030002208DF8020069460648FCF706
:10499000F5FE4FF4C0510448FCF7CBFF00BF2000E8
:1049A000A4F10104FBD138BD0008014010B5FEF7A9
:1049B0006FF9FFF73FFBFEF76CF9FFF71DFB10BD2A
:1049C000120100020000004083045057000201025F
:1049D000030109022900010100C03209040000029C
:1049E00003000000092110010001222800070581B1
:1049F0000340000A0705010340000A06FF00090101
:104A0000A1010501190029FF150025FF7508954032
:104A100081020502190029FF150025FF9508754040
:104A20009102C0040309042603530054004D006999
:104A300000630072006F0065006C00650063007425
:104A40000072006F006E0069006300730020035362
:104A50000054004D00330032002000430075007305
:104A60000074006D0020004800490044000000016F
:104A70000002000100030001000200010004000127
:104A80000002000100030001000200010005000116
:104A90000002000100030001000200010004000107
:104AA00000020001000300010002000100060001F5
:104AB00000020001000300010002000100040001E7
:104AC00000020001000300010002000100050001D6
:104AD00000020001000300010002000100040001C7
:104AE00000020001000300010002000100070001B4
:104AF00000020001000300010002000100040001A7
:104B00000002000100030001000200010005000195
:104B10000002000100030001000200010004000186
:104B20000002000100030001000200010006000174
:104B30000002000100030001000200010004000166
:104B40000002000100030001000200010005000155
:104B50000002000100030001000200010004000146
:104B6000000200010003000100020001000000003B
:104B7000904B010800000020C80100006C010108F2
:104B8000304C0108C8010020182F0000C80101089E
:104B9000031A5AA5091A1C0124141A035312541299
:104BA0004D1233123212310211300D16B51A0108AE
:104BB000040B1851151C41230201180A090D0108A4
:104BC000110C010805081A0704180AC50A0108EDA6
:104BD0000B0108D5041A55041A41041AAD04415AB0
:104BE00040701AC9300916581AE11C36C04901082C
:104BF000121AD20832291AFB0832281AE40832099C
:104C000036234A0108041A270832261A4D08322092
:104C1000225CF3201A19A3292B112D01020304048D
:104C2000100906070809020406083BA24A18014CAD
:0400000508010131BC
:00000001FF
