:020000040800F2
:1000000000040020CF0100085D0700082707000852
:10001000590700082B030008F9130008000000002E
:10002000000000000000000000000000FD0F0008BC
:10003000A905000800000000570200080911000887
:10004000EF010008EF010008EF010008EF010008D0
:10005000EF010008EF010008EF010008EF010008C0
:10006000EF010008EF010008EF010008EF010008B0
:10007000310300085D030008DD0300080D040008DB
:100080008D0400080D050008EF010008EF010008CD
:10009000EF010008EF010008EF010008EF01000880
:1000A000EF010008EF010008EF010008EF01000870
:1000B000EF010008EF010008EF010008EF01000860
:1000C000EF010008EF010008EF010008EF01000850
:1000D000EF0100089D120008F51200084D130008FA
:1000E000EF010008EF010008EF010008EF01000830
:1000F000EF010008EF010008EF010008EF01000820
:10010000EF010008EF010008EF010008EF0100080F
:10011000EF010008EF010008EF010008EF010008FF
:10012000EF010008EF010008EF010008EF010008EF
:1001300000F002F800F03AF80AA090E8000C8244BF
:100140008344AAF10107DA4501D100F02FF8AFF29C
:10015000090EBAE80F0013F0010F18BFFB1A43F0A5
:1001600001031847CC140000EC140000103A24BF1F
:1001700078C878C1FAD8520724BF30C830C144BF0C
:1001800004680C607047000000230024002500264E
:10019000103A28BF78C1FBD8520728BF30C148BFEA
:1001A0000B6070471FB51FBD10B510BD00F087F87C
:1001B0001146FFF7F7FF01F065F900F0A5F803B469
:1001C000FFF7F2FF03BC00F0A9F8000070470B48EE
:1001D00080470B4981F308880A480047FEE7FEE79D
:1001E000FEE7FEE7FEE7FEE7FEE7FEE7FEE7FEE7E7
:1001F00005480649044A064B70470000CD01000837
:10020000A02F002031010008A02D0020A02F0020E9
:10021000A02D0020EFF3108072B6704780F3108895
:1002200070471D484FF0FF010170002080F30988DE
:100230001A48012101701A484FF08051016062B6DE
:10024000FEE717484FF080510160704714484FF0A7
:1002500080510160704772B6EFF3098028B12038F1
:1002600080E8F00F0F490968086000B50E48804724
:100270005DF804EB0D480E490A78027009480D49F3
:100280000A680260106890E8F00F203080F3098857
:100290004EF0040E62B6704722ED00E01D00002013
:1002A00004ED00E024000020670A0008120000208E
:1002B000130000202C0000207047704770477546DF
:1002C00000F028F8AE4605006946534620F00700C6
:1002D000854618B020B5FFF78BFFBDE820404FF0F2
:1002E00000064FF000074FF000084FF0000B21F020
:1002F0000701AC46ACE8C009ACE8C009ACE8C009ED
:10030000ACE8C0098D4670470446AFF30080204634
:10031000FFF755FF00487047402D00200149182085
:10032000ABBEFEE726000200704700BFFEE70000FC
:1003300010B5202000F020F950B10021054800F050
:100340000BF9202000F0FAF80120034981F8400061
:1003500010BD00001C000240B41D00201CB54FF46D
:10036000007000F009F940B100211A4800F0F4F8DB
:100370004FF4007000F0E2F80CE04FF4006000F081
:10038000FBF838B10021134800F0E6F84FF40060A4
:1003900000F0D4F810480088019016E00E480C30A8
:1003A000008800900C481030008800900A481430F3
:1003B000008800900848001D0088009006480088CA
:1003C00001900098009001980190019810F0080F9A
:1003D000E4D11CBD300002400048004010B54FF48D
:1003E000005000F0C9F858B10021064800F0B4F8F8
:1003F0004FF4005000F0A2F80120034981F84000BA
:1004000010BD0000440002400C1D00201CB54FF43C
:10041000003000F0B1F840B100211A4800F09CF81B
:100420004FF4003000F08AF80CE04FF4002000F0A8
:10043000A3F838B10021134800F08EF84FF40020E3
:1004400000F07CF810480088019016E00E480C304F
:10045000008800900C481030008800900A48143042
:10046000008800900848001D008800900648008819
:1004700001900098009001980190019810F0080FE9
:10048000E4D11CBD58000240003801401CB54FF4B7
:10049000001000F071F840B100211A4800F05CF83B
:1004A0004FF4001000F04AF80CE04FF4000000F0A8
:1004B00063F838B10021134800F04EF84FF4000003
:1004C00000F03CF810480088019016E00E480C300F
:1004D000008800900C481030008800900A481430C2
:1004E000008800900848001D008800900648008899
:1004F00001900098009001980190019810F0080F69
:10050000E4D11CBD6C0002400044004010B54FF027
:10051000007000F031F858B10021064800F01CF8D6
:100520004FF0007000F00AF80120034981F8400004
:1005300010BD000080000240601D002010F0805FB0
:1005400002D00349086001E002494860704700009A
:10055000040402400000024021B1026842F001029E
:10056000026004E002684FF6FE731A4002607047B2
:100570000146486880B2704701460020002211F011
:10058000805F02D0054B1A6801E0054B1A680A42E9
:1005900001D0012000E0002070470000000402406C
:1005A00000000240416070477047000008B501211B
:1005B0007C2000F013FD4FF6FF70ADF80000002026
:1005C0008DF8030069460C4800F020F869460B4896
:1005D00000F01CF869460A4800F018F86946094816
:1005E00000F014F86946084800F010F800217C205B
:1005F00000F0F4FC08BD000000080140000C0140C0
:100600000010014000140140001801402DE9F041A4
:10061000024600250026002000230024002791F830
:1006200003C00CF00F0591F803C01CF0100F03D0AD
:1006300091F802C04CEA050591F800C0BCF1000F2A
:1006400031D0146800202BE04FF0010C0CFA00F3BD
:10065000B1F800C00CEA03069E4220D183004FF09F
:100660000F0C0CFA03F7BC4305FA03FC4CEA040434
:1006700091F803C0BCF1280F06D14FF0010C0CFA21
:1006800000FCC2F814C00AE091F803C0BCF1480FA6
:1006900005D14FF0010C0CFA00FCC2F810C0401C50
:1006A0000828D1D31460B1F800C0BCF1FF0F34DDCD
:1006B000546800202EE000F1080C4FF0010808FA01
:1006C0000CF3B1F800C00CEA03069E4221D183006E
:1006D0004FF00F0C0CFA03F7BC4305FA03FC4CEA8D
:1006E000040491F803C0BCF1280F05D100F1080CF7
:1006F00008FA0CF8C2F8148091F803C0BCF1480F56
:1007000007D100F1080C4FF0010808FA0CF8C2F804
:100710001080401C0828CED35460BDE8F0814161B0
:1007200070470161704700BFFEE7000008B5012176
:10073000082000F053FC4FF4E050ADF8000010200A
:100740008DF8030002208DF8020069460148FFF78A
:100750005DFF08BD000C014000BFFEE700BFFEE7E3
:1007600010B54FF4E06000F001F810BD02490143FC
:10077000024A1160704700000000FA050CED00E02D
:1007800010B500F00FF800F063FA00F07FFA00F007
:100790009FFA00F02DFA00F0FFF900F0D9FA00F00E
:1007A00002F810BD7047704710B500241A48007851
:1007B000012830D1FFF72EFD04461848007820B1FB
:1007C00016480078401E1549087014480078F8B99A
:1007D00013480078E0B900F027FB12481249097865
:1007E00050F82100114908600F4800781049097835
:1007F00088420DD00D480068C06B401C0B49096849
:10080000C8630C480068401C0A490860FFF71EFDD9
:100810002046FFF703FD10BD1D0000201000002042
:100820001100002008250020130000202C000020CB
:10083000120000200400002010B50B48007890B989
:1008400000F0F2FA09480078094908700948074998
:10085000097850F8210008490860084600680749EF
:100860000860FFF7DEFC10BD1D0000201300002013
:1008700012000020082500202C0000202400002069
:10088000704700002DE9F04F85B081468A469346B7
:100890001C46DDE90F78129D002003903F2C03D900
:1008A0002A2005B0BDE8F08FFFF7B4FC0390224882
:1008B000007820B10398FFF7B1FC3C20F1E71F4816
:1008C00050F8240088BB01201C4941F824000398FB
:1008D000FFF7A4FC2A464146384600F071FB2B4640
:1008E0005A465146484600F071F804901198CDE9F7
:1008F000008002953A4620460E9B049900F0AAFA21
:10090000064636B90E48007801280CD100F052FA9C
:1009100009E0FFF77FFC03900020084941F824001C
:100920000398FFF77BFC3046BBE7FFE70398FFF730
:1009300075FC2820B5E700001000002008250020E5
:100940001D000020704770472DE9F04105460F4615
:1009500014464FF000083F2D05D9FF2D03D02A2063
:100960002070BDE8F08117B90C202070F9E7144819
:10097000007810B112202070F3E7FFF74BFC80469F
:10098000FF2D03D10F48006890F836500E4850F8FC
:1009900025602EB94046FFF741FC43202070E0E778
:1009A000012E05D14046FFF739FC43202070D8E7DF
:1009B00037654046FFF732FC0020207000BFD0E7CB
:1009C00010000020240000200825002070B50446F7
:1009D00010464FF080750560051F28462C606FF0AB
:1009E0000106051F28462E604FF01236051F2846C7
:1009F0002E604FF00336051F28462E604FF002365A
:100A0000051F28462E607610051F28462E60051FFC
:100A1000284629604FF01136051F28462E604FF0FA
:100A20001036051F28462E604FF00936051F284650
:100A30002E604FF00836051F28462E604FF007360F
:100A4000051F28462E604FF00636051F28462E60EB
:100A50004FF00536051F28462E604FF00436051F5F
:100A600028462E6070BD704770B5054600261748B1
:100A7000007800B170BD1648007800B1FAE71DB3E8
:100A8000FFF7C8FB06461348006890F83840124844
:100A9000005D1049096891F8391088430E490855DE
:100AA0000846005D40B90B48006890F83A100B48C2
:100AB0000078884309490870064800680563304695
:100AC000FFF7ACFB00F076F900BFD3E71000002081
:100AD0001100002024000020150000201400002038
:100AE00070B50025FFF796FB054626480068401CB8
:100AF000244908602846FFF791FB23480078012825
:100B00003ED12248046837E0FFF784FB0546206B9E
:100B100070B3206B401E2063206B48BB94F83400F8
:100B200010F0370F09D014F8340F00F0C80020700F
:100B300001206070A4F1340402E0002084F8350044
:100B400094F8340010F0080F12D104F13804A078A2
:100B50000F49097840EA01000D49087020780D49D5
:100B6000085C617840EA010014F83819094A5054C9
:100B700064692846FFF752FB94F836003F28C3D13A
:100B800070BD0000340000201D0000203000002057
:100B900014000020150000202DE9F0414FF40071F1
:100BA000104800F0FDF800250DE0681C86B20D48E5
:100BB00000EB051400EB06170020207067600AA008
:100BC000E060681C85B21F2DEFD3064800EB0514CA
:100BD00000202070606004A0E060024803490860C3
:100BE000BDE8F081082100203F0000000C0000203B
:100BF00070B54FF44071134800F0D2F8002411E0B2
:100C0000601C85B204EB44000E4901EBC00305EB08
:100C1000450001EBC006002018705E600AA0586114
:100C2000601C84B21F2CEBD304EB4400054901EB9C
:100C3000C00300201870586003A05861084603499B
:100C4000086070BD081E00203F0000000800002062
:100C500000200749086007490870074908700749DC
:100C6000087007490870074908600749086070471D
:100C70003400002010000020110000201E00002081
:100C80001D000020040000202000002000210A4A4E
:100C90001170002004E00021084A1154411CC8B220
:100CA0000828F8D30021064A1170064A1170064A36
:100CB0001160064A116070471400002015000020E2
:100CC00012000020130000202C000020240000202F
:100CD00070B54FF4E761194800F062F84FF4807185
:100CE000174800F05DF8002413E0601CC5B204EB67
:100CF000440000EBC400114901EBC00305EB4500C3
:100D000000EBC50001EBC0065E610EA01865601C1B
:100D1000C4B2142CE9D304EB440000EBC40007492F
:100D200001EBC0030020586106A0186500200649A9
:100D3000086002480549086070BD000008260020D0
:100D4000082500203F00000030000020280000207F
:100D500000B587B00320002180220A4BCDE9013283
:100D6000CDE903104FF6FF703F23074A0090074874
:100D7000FFF788FD06AA06A13F20FFF7E5FD07B0B3
:100D800000BD00000823002004250020990F000862
:100D900075432F4F532D49492049646C650000006D
:100DA00004E0002200F8012B4A1E91B20029F8D17C
:100DB0007047000010B50024FFF72CFA04461348D2
:100DC0000078F8B912480078E0B900F02DF8114821
:100DD0001149097850F82100104908600E48007840
:100DE0000F49097888420DD00C480068C06B401C40
:100DF0000A490968C8630B480068401C0949086033
:100E0000FFF71FFA2046FFF709FA10BD1000002077
:100E10001100002008250020130000202C000020D5
:100E200012000020040000200649074A1278885C5E
:100E30000649095C034A515C01EBC001044A117088
:100E40007047000030150008140000201500002035
:100E5000130000202DE9F84F05460F4690469946AD
:100E6000DDE90AAB00200090FFF7D4F90090434879
:100E70000468002C7CD004F11C0454F8080C3F4991
:100E800008600098FFF7CAF944F81C7CA57600209A
:100E900020766076606144F818BC44F810AC44F8E1
:100EA000148C0C9824F80C0C24F80A9C0020E07791
:100EB000E810207705F00700E076217F01208840C8
:100EC000A077E17E0120884060770020206060608C
:100ED000E060A0602062A0626062E062206328A0FF
:100EE0006063A4F11C044FF0000606E0002104F149
:100EF000540040F82610701CC6B2002EF6D02046D2
:100F0000FFF7BEFC2046FFF71DFDFFF783F90090B9
:100F10001C4840F825401C48006860610020A06122
:100F20001948006810B118480068846116480460C8
:100F300004F13804A0781549097840EA0100134902
:100F4000087020781249085C617840EA010014F8C2
:100F500038190F4A50540F48007800F101000D492C
:100F600008700098FFF75AF90020BDE8F88FFFE7F6
:100F70000098FFF753F94220F7E70000280000200F
:100F80003F00000008250020300000201400002051
:100F9000150000201E000020002400BF00BFFFF746
:100FA00039F9044605480068401C04490860204699
:100FB000FFF734F9FFF7C7FCF1E70000200000203D
:100FC00012F0010F08D012F0020F05D002E0491E06
:100FD000002308C00029FAD17047000029B1064A51
:100FE00092690243044B9A6104E0034A9269824386
:100FF000014B9A617047000000100240704710B525
:1010000000F002F810BD00000CB500200190009027
:101010003448006840F480303249086000BF3148ED
:10102000006800F4003000900198401C0190009886
:1010300020B90198A0F57F41FE39F0D12948006818
:1010400010F4003F02D00120009001E00020009049
:101050000098012843D12448006840F0100022493C
:1010600008600846006820F0030008600846006831
:1010700040F0020008601B4840681A494860084672
:10108000406848600846406840F480604860084610
:10109000406820F47C1048600846406840F4E8103E
:1010A00048600846006840F08070086000BF0D4846
:1010B000006810F0007FFAD00A48406820F0030072
:1010C000084948600846406840F00200486000BF98
:1010D0000448406800F00C000828F9D101E000BF86
:1010E000FEE70CBD001002400020024010B504468F
:1010F0000021A06AFFF730FA216BA06A416001214C
:10110000A06AFFF729FA10BD10B5FFF783F804466F
:1011100006480078401C054908702046FFF77EF815
:10112000FFF7DEFCFFF740FB10BD000010000020C1
:1011300010B51248006840F00100104908600846E8
:1011400040680F4908400D494860084600680D494D
:1011500008400A4908600846006820F480200860BA
:101160000846406820F4FE00486000208860FFF7D1
:1011700046FF05480549086010BD00000010024008
:101180000000FFF8FFFFF6FE3075000808ED00E0F4
:1011900002E00A20FFF768FCFBE7000016E04FF4CE
:1011A00080610B48FFF7BDFA4FF480610848FFF7F4
:1011B000B6FA4FF400510648FFF7B3FA4FF4005166
:1011C0000348FFF7ACFA6420FFF74EFCE7E70000A6
:1011D000000C014086B00320002132221F4BCDE9D4
:1011E0000132CDE903100C2003461C4AC4320090A2
:1011F0001B48FFF747FB032000216422194BCDE970
:101200000132CDE9031002200346174A0090174827
:10121000FFF738FB032000214FF47A72144BCDE91D
:101220000132CDE9031001200346124A0090124812
:10123000FFF728FB032000216422104BCDE90310A7
:10124000CDE90132009003460D4A0E48FFF71AFB24
:1012500002E02820FFF708FCFBE70000C80100209F
:101260009D110008900200201C040020911100082C
:1012700020040020BC13002093120008C01300209B
:101280004C1500208912000802E02820FFF7ECFB33
:10129000FBE702E01420FFF7E7FBFBE770B5002453
:1012A00000BFFEF7B7FF05460F480078401C0E4907
:1012B00008702846FEF7B2FF40F224410B4800F0C8
:1012C00071F870B109480C300088C4B20748008832
:1012D000C4B20648001D0088C4B20124044800F0CE
:1012E0008DF8FFF761FA70BD100000200038014052
:1012F0000C1D002070B5002400BFFEF78BFF0546D3
:101300000F480078401C0E4908702846FEF786FFFB
:1013100040F224410B4800F045F870B109480C3008
:101320000088C4B207480088C4B20648001D00887F
:10133000C4B20124044800F061F8FFF735FA70BD2B
:101340001000002000440040601D002070B5002403
:1013500000BFFEF75FFF05460F480078401C0E49AE
:1013600008702846FEF75AFF40F224410B4800F06F
:1013700019F870B109480C300088C4B207480088D9
:10138000C4B20648001D0088C4B20124044800F01D
:1013900035F8FFF709FA70BD100000200048004042
:1013A000B41D002070B50246002400230025002053
:1013B000A1F510666A3E00D100BFC1F3421501F0ED
:1013C0001F03012606FA03F3012D02D1968933404B
:1013D00006E0022D02D1168A334001E0968A33409E
:1013E0000C12012606FA04F41688344013B10CB12D
:1013F000012000E0002070BD00BFFEE72DE9F047AE
:1014000005464FF00008C146A86AFFF7B1F88046CC
:10141000286B404505D12846FFF768FE0020BDE84F
:10142000F087288EA0EB08001FFA80F9AF6B05F15A
:101430004404002618E0A089401C80B2A081E18904
:1014400088420EDA17F8010B228921688854208916
:10145000401C80B22081E189884203DB002020818A
:1014600000E003E0701C86B24E45E4DB00BF2A8E2C
:1014700091B2A86AFFF796F82846FFF737FE48466C
:10148000CDE7000030B585B0FFF752FEFFF768F9F1
:10149000FFF78CF8FFF774F9FFF748F903200021F4
:1014A00064221D4BCDE90132CDE903100F20034624
:1014B0001A4A00901A48FFF7E5F91A4800684FF4F5
:1014C0007A72B0FBF2F000EB8001B1F1807F00D3C3
:1014D0001DE021F07F40401E4FF0E0225061501788
:1014E0000F22002807DA13071D0E0F4B00F00F0420
:1014F000241F1D5503E013071C0E0C4B1C5400BF8A
:1015000000204FF0E02290610720106100BFFFF73C
:1015100093F9012005B030BD38000020C40100203F
:10152000D51100080000002018ED00E000E400E004
:1015300000000100020001000300010002000100A0
:10154000040001000200010003000100020001008C
:10155000050001000200010003000100020001007B
:10156000040001000200010003000100020001006C
:10157000060001000200010003000100020001005A
:10158000040001000200010003000100020001004C
:10159000050001000200010003000100020001003B
:1015A000040001000200010003000100020001002C
:1015B0000700010002000100030001000200010019
:1015C000040001000200010003000100020001000C
:1015D00005000100020001000300010002000100FB
:1015E00004000100020001000300010002000100EC
:1015F00006000100020001000300010002000100DA
:1016000004000100020001000300010002000100CB
:1016100005000100020001000300010002000100BA
:1016200004000100020001000300010002000100AB
:101630005016000800000020380000006C0100086F
:101640008816000838000020682F00008801000874
:1016500000A24A040000000000000000000000009A
:10166000000000000000000000000000000000007A
:10167000000000000000000000000000000000006A
:08168000000000000000000062
:0400000508000131BD
:00000001FF
