:020000040800F2
:1000000000040020CF010008650E00080B0E000858
:10001000610E0008FF0500085926000800000000D6
:10002000000000000000000000000000291A000885
:100030008F0B00080000000057020008751A000826
:10004000EF010008EF010008EF010008EF010008D0
:10005000EF010008EF010008EF010008EF010008C0
:10006000910B0008EF010008EF010008EF01000804
:100070007D070008A907000829080008590800089A
:10008000D908000859090008EF010008EF0100082D
:10009000EF010008EF010008EF010008EF01000880
:1000A000EF010008EF010008EF010008EF01000870
:1000B000EF010008EF010008EF010008EF01000860
:1000C000EF010008EF010008EF010008EF01000850
:1000D000EF010008F922000851230008A9230008B5
:1000E000EF010008EF010008EF010008EF01000830
:1000F000EF010008EF010008EF010008EF01000820
:10010000EF010008EF010008EF010008EF0100080F
:10011000EF010008EF010008EF010008EF010008FF
:10012000EF010008EF010008EF010008EF010008EF
:1001300000F002F800F03AF80AA090E8000C8244BF
:100140008344AAF10107DA4501D100F02FF8AFF29C
:10015000090EBAE80F0013F0010F18BFFB1A43F0A5
:1001600001031847D02C0000F02C0000103A24BFE7
:1001700078C878C1FAD8520724BF30C830C144BF0C
:1001800004680C607047000000230024002500264E
:10019000103A28BF78C1FBD8520728BF30C148BFEA
:1001A0000B6070471FB51FBD10B510BD00F0FEF805
:1001B0001146FFF7F7FF02F08DFC00F01CF903B4C5
:1001C000FFF7F2FF03BC00F021F9000070470B4875
:1001D00080470B4981F308880A480047FEE7FEE79D
:1001E000FEE7FEE7FEE7FEE7FEE7FEE7FEE7FEE7E7
:1001F00005480649044A064B70470000CD01000837
:10020000A031002031010008A02F0020A0310020E3
:10021000A02F0020EFF3108072B6704780F3108893
:1002200070471D484FF0FF010170002080F30988DE
:100230001A48012101701A484FF08051016062B6DE
:10024000FEE717484FF080510160704714484FF0A7
:1002500080510160704772B6EFF3098028B12038F1
:1002600080E8F00F0F490968086000B50E48804724
:100270005DF804EB0D480E490A78027009480D49F3
:100280000A680260106890E8F00F203080F3098857
:100290004EF0040E62B6704722ED00E089000020A7
:1002A00004ED00E090000020231200087E000020F2
:1002B0007F00002098000020032A40F2308010F0D8
:1002C000030C00F0158011F8013BBCF1020F6244F1
:1002D00098BF11F801CB00F8013B38BF11F8013B82
:1002E000A2F1040298BF00F801CB38BF00F8013B2F
:1002F00011F0030300F02880083AC0F0088051F89C
:10030000043B083A51F804CBA0E80810F5E7121DA9
:100310005CBF51F8043B40F8043BAFF30080D207C8
:1003200024BF11F8013B11F801CB48BF11F8012B94
:1003300024BF00F8013B00F801CB48BF00F8012BB7
:10034000704770477047704710B5203AC0F00B8077
:10035000B1E81850203AA0E81850B1E81850A0E8C9
:100360001850BFF4F5AF5FEA027C24BFB1E8185023
:10037000A0E8185044BF18C918C0BDE810405FEA93
:10038000827C24BF51F8043B40F8043B08BF70470F
:10039000D20728BF31F8023B48BF11F8012B28BF14
:1003A00020F8023B48BF00F8012B7047754600F06B
:1003B00029F8AE4605006946534620F007008546F9
:1003C00018B020B5FFF714FFBDE820404FF000063D
:1003D0004FF000074FF000084FF0000B21F007012D
:1003E000AC46ACE8C009ACE8C009ACE8C009ACE870
:1003F000C0098D4670470446AFF300802046FFF7E2
:10040000DEFE0000004870473C2F00200149182004
:10041000ABBEFEE726000200704721B1826842F0C1
:100420000102826003E0826822F00102826070476C
:1004300021B1826842F48072826003E0826822F413
:10044000807282607047000010B5044612488442F2
:1004500008D10121401501F0EBF90021601501F0F0
:10046000E7F917E00D48844208D10121001501F099
:10047000DFF90021201501F0DBF90BE00848844288
:1004800008D10121C80301F0D3F900214FF4004045
:1004900001F0CEF910BD0000002401400028014009
:1004A000003C0140014600208A6812F0040F01D090
:1004B000012000E000207047014600208A6812F009
:1004C000080F01D0012000E00020704730B502463F
:1004D0000020002350680F4C20400D790C6844EA3E
:1004E00005242043506090680B4C2040D1E9025411
:1004F0002C434D7944EA450420439060D06A20F4AF
:1005000070000C7C641EE4B2234340EA0350D062C6
:1005100030BD0000FFFEF0FFFDF7F1FFF0B504462F
:100520000D4600200021092D11DDE068A5F10A0625
:1005300006EB4607072606FA07F18843A5F10A06E7
:1005400006EB460603FA06F10843E0600CE020697A
:1005500005EB4507072606FA07F1884305EB450634
:1005600003FA06F108432061072A0FDA606B561E72
:1005700006EB86071F2606FA07F18843561E06EB90
:10058000860605FA06F10843606322E00D2A0FDAB9
:10059000206BD61F06EB86071F2606FA07F1884355
:1005A000D61F06EB860605FA06F10843206310E025
:1005B000E06AA2F10D0606EB86071F2606FA07F190
:1005C0008843A2F10D0606EB860605FA06F10843FC
:1005D000E062F0BD816841F008018160704721B19F
:1005E000826842F4A002826003E0826822F4A002E2
:1005F00082607047816841F004018160704700BFEC
:10060000FEE7000070B504460D46344834490860E2
:10061000042133488160334831494860011530482E
:1006200081814910C18104610121C18225B1022D5E
:1006300006D0042D0ED108E00021294881820DE06A
:100640004FF480612648818208E04FF4C06124485D
:10065000818203E000212248818200BF00BF1F4841
:10066000001D1F4988614FF480411D48C16125214B
:1006700001840F201A4981F824000E21184880F8BF
:1006800025101949816218491439C162802101631A
:100690004163164981631649C1630020104981F8FE
:1006A000400000210E4880F8411080F842101148A7
:1006B0000B49486410490A4881640021A0F84C1095
:1006C000A0F84E10A0F850104021A0F8521002F0EF
:1006D00009F8034801F0A9F9012070BD0038014074
:1006E000981D00200008014058000240DA15002043
:1006F0005A160020DA1600202400002010B5044607
:1007000094F8400008B9002010BD00BF20680088A0
:1007100010F0800FFAD000BF4021206801F0D4FE15
:100720000028F9D00120EFE770B504460E461546C3
:100730000E49206888420CD00D492068884208D0B4
:100740000C492068884204D00B492068884200D0B8
:1007500070BD05B9FCE7002084F840002A46314608
:10076000204601F070F900BFF2E7000000380140B8
:100770000044004000480040004C004010B52020DC
:1007800000F0C6F950B10021054800F00BF9202017
:1007900000F0FAF80120034981F8400010BD000084
:1007A0001C000240401E00201CB54FF4007000F0F9
:1007B000AFF940B100211A4800F0F4F84FF400708E
:1007C00000F0E2F80CE04FF4006000F0A1F938B15D
:1007D0000021134800F0E6F84FF4006000F0D4F870
:1007E00010480088019016E00E480C3000880090F8
:1007F0000C481030008800900A481430008800909F
:100800000848001D00880090064800880190009864
:10081000009001980190019810F0080FE4D11CBDE0
:10082000300002400048004010B54FF4005000F086
:100830006FF958B10021064800F0B4F84FF40050A9
:1008400000F0A2F80120034981F8400010BD00002B
:1008500044000240981D00201CB54FF4003000F009
:1008600057F940B100211A4800F09CF84FF40030CD
:1008700000F08AF80CE04FF4002000F049F938B19C
:100880000021134800F08EF84FF4002000F07CF8AF
:1008900010480088019016E00E480C300088009047
:1008A0000C481030008800900A48143000880090EE
:1008B0000848001D008800900648008801900098B4
:1008C000009001980190019810F0080FE4D11CBD30
:1008D00058000240003801401CB54FF4001000F0F1
:1008E00017F940B100211A4800F05CF84FF40010ED
:1008F00000F04AF80CE04FF4000000F009F938B1BC
:100900000021134800F04EF84FF4000000F03CF8CE
:1009100010480088019016E00E480C3000880090C6
:100920000C481030008800900A481430008800906D
:100930000848001D00880090064800880190009833
:10094000009001980190019810F0080FE4D11CBDAF
:100950006C0002400044004010B54FF0007000F001
:10096000D7F858B10021064800F01CF84FF000708D
:1009700000F00AF80120034981F8400010BD000092
:1009800080000240EC1D002010F0805F02D003497F
:10099000086001E00249486070470000040402401A
:1009A0000000024021B1026842F00102026004E04E
:1009B00002684FF6FE731A400260704701684FF6F6
:1009C000FE72114001600021016041608160C160E0
:1009D0004B49884208D14A490839496841F00F011A
:1009E000474A083A51608AE045491431884208D1A3
:1009F00043490839496841F0F001414A083A5160D9
:100A00007DE03F492831884208D13D49083949688D
:100A100041F470613A4A083A516070E038493C311B
:100A2000884208D136490839496841F47041344A4E
:100A3000083A516063E032495031884208D1304968
:100A40000839496841F470212D4A083A516056E04E
:100A50002B496431884208D129490839496841F451
:100A60007001274A083A516049E0254978318842A7
:100A700008D123490839496841F07061204A083A91
:100A800051603CE01F49884206D1011F096841F0CE
:100A90000F01021F116032E01A491431884208D157
:100AA0001849091F096841F0F001164A121F116028
:100AB00025E014492831884208D11249091F0968E4
:100AC00041F470610F4A121F116018E00D493C316A
:100AD000884208D10B49091F096841F47041094A4D
:100AE000121F11600BE007495031884207D10549B8
:100AF000091F096841F47021024A121F11607047F2
:100B000008000240080402400146486880B270476D
:100B100001460020002211F0805F02D0054B1A68C8
:100B200001E0054B1A680A4201D0012000E00020D4
:100B30007047000000040240000002401AB1036840
:100B40000B43036002E003688B430360704710B5FA
:100B50000022026847F6F0739A430C6A8B682343BD
:100B60000C6923434C6923438C692343CC69234399
:100B70004C6A23438C6A23431A430260CB68436068
:100B80000B6883604B68C36010BD4160704770475D
:100B900010B5042000F016F838B1042000F00CF86D
:100BA00006220449012000F0BDFE042000F004F8F4
:100BB00010BD00001E0000200149086070470000C1
:100BC00014040140014600200022074B1B6803EA81
:100BD0000102054B14331B680B4202D00AB10120FD
:100BE00000E00020704700000004014008B501212A
:100BF0007C2000F00DFE4FF6FF70ADF800000020E5
:100C00008DF8030069460C4800F020F869460B484F
:100C100000F01CF869460A4800F018F869460948CF
:100C200000F014F86946084800F010F800217C2014
:100C300000F0EEFD08BD000000080140000C01407E
:100C40000010014000140140001801402DE9F0415E
:100C5000024600250026002000230024002791F8EA
:100C600003C00CF00F0591F803C01CF0100F03D067
:100C700091F802C04CEA050591F800C0BCF1000FE4
:100C800031D0146800202BE04FF0010C0CFA00F377
:100C9000B1F800C00CEA03069E4220D183004FF059
:100CA0000F0C0CFA03F7BC4305FA03FC4CEA0404EE
:100CB00091F803C0BCF1280F06D14FF0010C0CFADB
:100CC00000FCC2F814C00AE091F803C0BCF1480F60
:100CD00005D14FF0010C0CFA00FCC2F810C0401C0A
:100CE0000828D1D31460B1F800C0BCF1FF0F34DD87
:100CF000546800202EE000F1080C4FF0010808FABB
:100D00000CF3B1F800C00CEA03069E4221D1830027
:100D10004FF00F0C0CFA03F7BC4305FA03FC4CEA46
:100D2000040491F803C0BCF1280F05D100F1080CB0
:100D300008FA0CF8C2F8148091F803C0BCF1480F0F
:100D400007D100F1080C4FF0010808FA0CF8C2F8BE
:100D50001080401C0828CED35460BDE8F08100000C
:100D6000F0B50A46002300240021002500F00046CB
:100D7000B6F1004F02D11D4EF16901E01B4E7168C2
:100D8000C0F3034583B200F44016B6F5401F08D106
:100D900021F07061154E766826F07066134F7E6004
:100DA00012E000F48016B6F5801F06D1032606FA7D
:100DB00005F4A14341F0706106E0460D360103FAE7
:100DC00006F6B14341F0706122B1460D360103FAD7
:100DD00006F6314300F00046B6F1004F02D1034E53
:100DE000F16101E0014E7160F0BD000000000140C2
:100DF0000246002093680B4201D0012000E0002051
:100E00007047416170470161704700BFFEE7000015
:100E100008B50121082000F0FBFC4FF47C70ADF810
:100E2000000010208DF8030002208DF802006946B2
:100E30000A48FFF70BFF0121082000F0E9FC03201E
:100E4000ADF8000004208DF8030002208DF80200A8
:100E500069460248FFF7FAFE08BD0000000C014099
:100E600000BFFEE700BFFEE710B54FF4E06000F002
:100E700047F810BD00F01F020121914042094FF0D8
:100E8000E02303EB8202C2F80011704770B5002125
:100E900000230F22C4780CB3164C246804F4E064D9
:100EA000C4F5E064210AC1F10403CA40447804FA9D
:100EB00003F184781440214309010F4C0678A155B1
:100EC000047804F01F050124AC4005786D114FF043
:100ED000E02606EB8505C5F8004109E0047804F03A
:100EE0001F050124AC40054D0678761145F82640D3
:100EF00070BD00000CED00E000E400E080E100E0E7
:100F000002490143024A1160704700000000FA05DF
:100F10000CED00E010B5002807DA0A07140E054AA8
:100F200000F00F031B1FD45403E00A07130E024AFC
:100F3000135410BD18ED00E000E400E010B500F01F
:100F40000FF800F063FA00F07FFA00F09FFA00F06B
:100F50002DFA00F0FFF900F0D9FA00F002F810BD08
:100F60007047704710B500241A480078012830D126
:100F7000FFF750F904461848007820B11648007869
:100F8000401E1549087014480078F8B913480078D5
:100F9000E0B900F027FB12481249097850F8210007
:100FA000114908600F4800781049097888420DD02F
:100FB0000D480068C06B401C0B490968C8630C48A9
:100FC0000068401C0A490860FFF740F92046FFF717
:100FD00025F910BD890000207C0000207D00002044
:100FE000042700207F000020980000207E000020C1
:100FF0007000002010B50B48007890B900F0F2FAAC
:10100000094800780949087009480749097850F8E3
:101010002100084908600846006807490860FFF792
:1010200000F910BD890000207F0000207E00002014
:101030000427002098000020900000207047000046
:101040002DE9F04F85B081468A4693461C46DDE97E
:101050000F78129D002003903F2C03D92A2005B061
:10106000BDE8F08FFFF7D6F803902248007820B152
:101070000398FFF7D3F83C20F1E71F4850F824000D
:1010800088BB01201C4941F824000398FFF7C6F8EB
:101090002A464146384600F071FB2B465A465146D7
:1010A000484600F071F804901198CDE9008002954F
:1010B0003A4620460E9B049900F0AAFA064636B935
:1010C0000E48007801280CD100F052FA09E0FFF731
:1010D000A1F803900020084941F824000398FFF785
:1010E0009DF83046BBE7FFE70398FFF797F8282005
:1010F000B5E700007C0000200427002089000020C4
:10110000704770472DE9F04105460F4614464FF0F1
:1011100000083F2D05D9FF2D03D02A202070BDE8FF
:10112000F08117B90C202070F9E71448007810B14D
:1011300012202070F3E7FFF76DF88046FF2D03D1F2
:101140000F48006890F836500E4850F825602EB9C8
:101150004046FFF763F843202070E0E7012E05D1F9
:101160004046FFF75BF843202070D8E737654046DC
:10117000FFF754F80020207000BFD0E77C0000206B
:10118000900000200427002070B5044610464FF060
:1011900080750560051F28462C606FF00106051F4D
:1011A00028462E604FF01236051F28462E604FF05D
:1011B0000336051F28462E604FF00236051F2846CD
:1011C0002E607610051F28462E60051F28462960D0
:1011D0004FF01136051F28462E604FF01036051FC0
:1011E00028462E604FF00936051F28462E604FF026
:1011F0000836051F28462E604FF00736051F284683
:101200002E604FF00636051F28462E604FF005363B
:10121000051F28462E604FF00436051F28462E6015
:1012200070BD704770B5054600261748007800B1BC
:1012300070BD1648007800B1FAE71DB3FEF7EAFF6B
:1012400006461348006890F838401248005D10497F
:10125000096891F8391088430E4908550846005D21
:1012600040B90B48006890F83A100B480078884362
:10127000094908700648006805633046FEF7CEFF4E
:1012800000F076F900BFD3E77C0000207D0000204D
:1012900090000020810000208000002070B5002513
:1012A000FEF7B8FF054626480068401C2449086040
:1012B0002846FEF7B3FF2348007801283ED1224894
:1012C000046837E0FEF7A6FF0546206B70B3206B7D
:1012D000401E2063206B48BB94F8340010F0370F99
:1012E00009D014F8340F00F0C8002070012060709D
:1012F000A4F1340402E0002084F8350094F83400AE
:1013000010F0080F12D104F13804A0780F490978C1
:1013100040EA01000D49087020780D49085C6178A9
:1013200040EA010014F83819094A50546469284603
:10133000FEF774FF94F836003F28C3D170BD00005B
:10134000A0000020890000209C00002080000020D8
:10135000810000202DE9F0414FF40071104800F0A9
:10136000FDF800250DE0681C86B20D4800EB051461
:1013700000EB06170020207067600AA0E060681C80
:1013800085B21F2DEFD3064800EB05140020207016
:10139000606004A0E060024803490860BDE8F08195
:1013A000042300203F0000007800002070B54FF4B7
:1013B0004071134800F0D2F8002411E0601C85B29F
:1013C00004EB44000E4901EBC00305EB450001EBC3
:1013D000C006002018705E600AA05861601C84B2CC
:1013E0001F2CEBD304EB4400054901EBC0030020A4
:1013F0001870586003A0586108460349086070BD22
:10140000042000203F000000740000200020074955
:1014100008600749087007490870074908700749BC
:10142000087007490860074908607047A00000205D
:101430007C0000207D0000208A0000208900002020
:10144000700000208C00002000210A4A117000204A
:1014500004E00021084A1154411CC8B20828F8D3FE
:101460000021064A1170064A1170064A1160064AA8
:101470001160704780000020810000207E00002065
:101480007F000020980000209000002070B54FF4ED
:10149000E761194800F062F84FF48071174800F0D6
:1014A0005DF8002413E0601CC5B204EB440000EBBF
:1014B000C400114901EBC00305EB450000EBC5007A
:1014C00001EBC0065E610EA01865601CC4B2142C4E
:1014D000E9D304EB440000EBC400074901EBC0036F
:1014E0000020586106A018650020064908600248DF
:1014F0000549086070BD0000042800200427002072
:101500003F0000009C0000209400002000B587B040
:101510000320002180220A4BCDE90132CDE90310DE
:101520004FF6FF703F23074A00900748FFF788FDFA
:1015300006AA06A13F20FFF7E5FD07B000BD0000A9
:1015400004250020002700205517000875432F4F61
:10155000532D49492049646C6500000004E00022D5
:1015600000F8012B4A1E91B20029F8D17047000003
:1015700010B50024FEF74EFE044613480078F8B973
:1015800012480078E0B900F02DF8114811490978A7
:1015900050F82100104908600E4800780F4909787A
:1015A00088420DD00C480068C06B401C0A4909688D
:1015B000C8630B480068401C09490860FEF741FEFB
:1015C0002046FEF72BFE10BD7C0000207D00002091
:1015D000042700207F000020980000207E000020CB
:1015E000700000200649074A1278885C0649095CA9
:1015F000034A515C01EBC001044A117070470000BE
:10160000342D000880000020810000207F00002091
:101610002DE9F84F05460F4690469946DDE90AAB9D
:1016200000200090FEF7F6FD009043480468002C6F
:101630007CD004F11C0454F8080C3F490860009861
:10164000FEF7ECFD44F81C7CA57600202076607641
:10165000606144F818BC44F810AC44F8148C0C9841
:1016600024F80C0C24F80A9C0020E077E81020777E
:1016700005F00700E076217F01208840A077E17E19
:10168000012088406077002020606060E060A060FA
:101690002062A0626062E062206328A06063A4F11F
:1016A0001C044FF0000606E0002104F1540040F84D
:1016B0002610701CC6B2002EF6D02046FFF7BEFCE6
:1016C0002046FFF71DFDFEF7A5FD00901C4840F8E1
:1016D00025401C48006860610020A061194800682E
:1016E00010B11848006884611648046004F1380499
:1016F000A0781549097840EA01001349087020785C
:101700001249085C617840EA010014F838190F4A60
:1017100050540F48007800F101000D4908700098FE
:10172000FEF77CFD0020BDE8F88FFFE70098FEF78C
:1017300075FD4220F7E70000940000203F00000004
:10174000042700209C000020800000208100002051
:101750008A000020002400BF00BFFEF75BFD0446A6
:1017600005480068401C044908602046FEF756FD05
:10177000FFF7C7FCF1E700008C00002012F0010F1A
:1017800008D012F0020F05D002E0491E002308C065
:101790000029FAD17047000001460020034A506832
:1017A00020F44040084350607047000000100240A1
:1017B00029B1064A52690243044B5A6104E0034AC4
:1017C00052698243014B5A61704700000010024089
:1017D00029B1064AD2690243044BDA6104E0034AA4
:1017E000D2698243014BDA61704700000010024069
:1017F00029B1064A12690243044B1A6104E0034A04
:1018000012698243014B1A617047000000100240C8
:1018100029B1064A92690243044B9A6104E0034AE3
:1018200092698243014B9A617047000000100240A8
:1018300029B1064AD2680243044BDA6004E0034A45
:10184000D2688243014BDA6070470000001002400A
:1018500030B500210022002400232D4D6D6805F0D5
:101860000C0121B1042905D0082923D105E0294D17
:10187000056022E0274D05601FE0254D6D6805F4E9
:101880007012234D6D6805F48034022505EB9242F9
:101890001CB9214D554305600BE01D4D6D6815F4D5
:1018A000003F03D01C4D5543056002E0194D5543E0
:1018B000056002E0174D056000BF00BF144D6D6864
:1018C00005F0F0010909154D6B5C0568DD404560C8
:1018D0000F4D6D6805F4E061090A104D6B5C4568B9
:1018E000DD4085600A4D6D6805F46051C90A0B4DF5
:1018F0006B5C4568DD40C560054D6D6805F4404191
:10190000890B074D6B5CC568B5FBF3F5056130BD10
:101910000010024000127A0000093D00580000202B
:101920006800002070B504460D461646012C14D1FF
:1019300001021548FFF767FA324629461348FEF7B9
:10194000F3FE00BF1148FEF7D9FE0028FAD04FF48D
:1019500080710D48FFF755FA14E0022C12D11021C6
:101960000948FFF750FA324629460948FEF7DCFEDF
:1019700000BF0748FEF7C2FE0028FAD01021024837
:10198000FFF73FFA70BD000000080140981D0020DD
:10199000EC1D00202DE9F04106460F46144639465D
:1019A0003046FFF725FA05464FF00008207830B1A1
:1019B000012808D002280FD0032831D11DE00DB92D
:1019C000012020702CE025B90220207000206060EA
:1019D00001E00020207023E025B1002020704FF0AE
:1019E000020809E06068401C60600A2804DB0320EC
:1019F000207000206060804612E025B10020207039
:101A00004FF003080BE06068401C60600A2804DDAA
:101A10004FF000080020606001E04FF0000800BFB8
:101A200000BF4046BDE8F081704710B50446002174
:101A3000A06AFEF7B7FF216BA06A41600121A06A8E
:101A4000FEF7B0FF10BD70B504460E461546002DDA
:101A50000EDD0021E06AFEF7A5FF2A463146E06B65
:101A6000FEF72AFCE06A45600121E06AFEF79AFF72
:101A700070BD000010B5FEF7CDFB044606480078A7
:101A8000401C054908702046FEF7C8FBFFF706FC1E
:101A9000FFF768FA10BD00007C00002021B1028829
:101AA00042F08002028004E002884FF67F731A4001
:101AB0000280704721B1028842F00102028004E0F6
:101AC00002884FF6FE731A400280704710B5044634
:101AD0006848844208D10121C014FFF7A9FE002103
:101AE000E014FFF7A5FEC4E0B4F1804F08D1012156
:101AF0000846FFF77DFE00210120FFF779FEB8E0E0
:101B00005D48844208D101210220FFF771FE0021C7
:101B10000220FFF76DFEACE05848844208D1012155
:101B20000420FFF765FE00210420FFF761FEA0E01E
:101B30005348844208D101210820FFF759FE0021B3
:101B40000820FFF755FE94E04E48844208D1012159
:101B50001020FFF74DFE00211020FFF749FE88E01E
:101B60004948844208D101212020FFF741FE00218D
:101B70002020FFF73DFE7CE04448844208D101214B
:101B80004014FFF755FE00216014FFF751FE70E08E
:101B90003F48844209D10121C804FFF749FE0021D2
:101BA0004FF40020FFF744FE63E03A48844209D135
:101BB00001210805FFF73CFE00214FF48010FFF7DC
:101BC00037FE56E03448844209D101214805FFF729
:101BD0002FFE00214FF40010FFF72AFE49E02F48A6
:101BE000844208D101214020FFF702FE002140205D
:101BF000FFF7FEFD3DE02A48844208D10121802004
:101C0000FFF7F6FD00218020FFF7F2FD31E02548C7
:101C1000844208D101218015FFF7EAFD0021A015BB
:101C2000FFF7E6FD25E02048844209D101210804A0
:101C3000FFF7FEFD00214FF48030FFF7F9FD18E0BB
:101C40001A48844209D101214804FFF7F1FD00211F
:101C50004FF40030FFF7ECFD0BE01548844208D14B
:101C600001218804FFF7E4FD00214FF48020FFF7F5
:101C7000DFFD10BD002C01400004004000080040C2
:101C8000000C0040001000400014004000340140EF
:101C9000004C014000500140005401400018004039
:101CA000001C004000200040004001400044014072
:101CB0000048014070B5002400220023058C4FF637
:101CC000EF7635400584028C8388048B48F6FF75D7
:101CD0002C404FF6FF452C400D884FF6FF7606EA64
:101CE00005252C434FF6DF752A400D8906EA0515B8
:101CF0002A434D8806EA05152A43154DA84202D00D
:101D0000144DA8421DD14FF67F752A404D894FF6DC
:101D1000FF7606EA05152A434FF6BF752A408D88DF
:101D200006EA05152A434FF6FF352B404FF2FF75A3
:101D30002B408D8906EA85052B43CD8906EA85056A
:101D40002B4383800483CD880587028470BD000007
:101D5000002C0140003401400A460021018B4FF263
:101D6000FF7319404FF6FF7303EA022319430183FF
:101D70007047018770470000002202881D4B98427F
:101D80000ED01D4B98420BD0B0F1804F08D01B4BAA
:101D9000984205D01A4B984202D01A4B984204D16F
:101DA0004FF68F731A404B881A43174B984207D04F
:101DB000164B984204D04FF6FF431A40CB881A4383
:101DC00002808B8883850B8803850A4B98420BD051
:101DD000094B984208D00E4B984205D00D4B9842C3
:101DE00002D00D4B984201D10B7A038601238382E6
:101DF00070470000002C0140003401400004004006
:101E000000080040000C004000100040001400409A
:101E1000004001400044014000480140A8B059E0A2
:101E2000002415E000250FE0C5EBC5002A4901EBB1
:101E3000400030F8140004EB840101AA02EB810198
:101E400021F81500681C85B20A2DEDDB601C84B2F8
:101E5000072CE7DB00240BE004EB840101AA02EB72
:101E6000810000F035FD24A921F81400601C84B223
:101E7000072CF1DB002408E024A830F814004010FF
:101E800024A921F81400601C84B2072CF4DB012083
:101E9000124988700C20C870084624A90EC9001D7C
:101EA0000EC01021103800F097FD0C490874BDF8E1
:101EB0009C000B49088008460088B0F5E06F03DA03
:101EC00000200849087002E00120064908700A2035
:101ED000FFF7A8F9A4E70000A21E002000000020E0
:101EE0001C0000201300002032E19A4A04219A4885
:101EF000FFF750FD0446032C0FD107209749887047
:101F00000320C8700421954800F066FD93490871CC
:101F100005220120FFF706FD10E0022C0ED107205C
:101F20008E4988700220C87004218C4800F054FD4E
:101F30008A49087105220120FFF7F4FC884A08212C
:101F40008548FFF727FD0446022C0FD1082083495E
:101F500088700220C8700421804800F03DFD7F4950
:101F6000087105220120FFF7DDFC10E0032C0ED1E3
:101F700008207A4988700320C8700421774800F04F
:101F80002BFD7649087105220120FFF7CBFC754A2D
:101F90004FF400417448FFF7FDFC0446022C0FD1BA
:101FA00004206E4988700220C87004216B4800F03C
:101FB00013FD6A49087105220120FFF7B3FC10E008
:101FC000032C0ED10420654988700320C8700421B9
:101FD000624800F001FD6149087105220120FFF708
:101FE000A1FC624A4FF400516148FFF7D3FC04465C
:101FF000022C0FD10320594988700220C870042197
:10200000564800F0E9FC5549087105220120FFF708
:1020100089FC0FE0032C0DD1032050498870C87053
:1020200004214E4800F0D8FC4C49087105220120DB
:10203000FFF778FC4F4A4FF480414D48FFF7AAFC68
:102040000446022C0FD10520444988700220C87034
:102050000421424800F0C0FC4049087105220120DB
:10206000FFF760FC10E0032C0ED105203B4988707F
:102070000320C8700421394800F0AEFC37490871CC
:1020800005220120FFF74EFC3B4A4FF4004138483F
:10209000FFF780FC0446022C0FD106202F498870E0
:1020A0000220C87004212D4800F096FC2B490871CD
:1020B00005220120FFF736FC10E0032C0ED106208C
:1020C000264988700320C8700421244800F084FC4D
:1020D0002249087105220120FFF724FC4FF400512A
:1020E0001D48FEF785FE18B901202449086012E05A
:1020F0004FF480411848FEF77BFE18B902201F49B3
:10210000086008E04FF400411348FEF771FE10B973
:1021100003201A490860194800681949096888426B
:1021200013D002200D49887014480078C87004212B
:102130000A4800F051FC0949087105220120FFF707
:10214000F1FB0E4800680E4908600520FFF76AF8A9
:10215000CBE6000028000020000C01400000002019
:10216000300000203800002000080140400000201E
:1021700000100140480000205000002018000020FE
:10218000140000204EE02848007840B14021274844
:10219000FEF737FE80212548FEF735FE07E0802157
:1021A0002248FEF72EFE40212048FEF72CFE204854
:1021B000007840B110211D48FEF723FE20211B4866
:1021C000FEF721FE07E020211848FEF71AFE102135
:1021D0001648FEF718FE01211448FEF709FE78B9EB
:1021E00002211248FEF704FE50B14FF400710F486F
:1021F000FEF707FE4FF480710C48FEF704FE09E07D
:102200004FF480710948FEF7FCFD4FF40071074858
:10221000FEF7F9FD01210748FFF74CFC4FF4FA7077
:10222000FFF700F8AFE7000011000020000C0140AC
:10223000120000200004004086B00320002132225A
:102240001F4BCDE90132CDE903100C2003461C4A97
:10225000C43200901B48FEF7F3FE032000216422E5
:10226000194BCDE90132CDE9031002200346174A8C
:1022700000901748FEF7E4FE032000214FF47A7225
:10228000144BCDE90132CDE9031001200346124A77
:1022900000901248FEF7D4FE032000216422104B68
:1022A000CDE90310CDE90132009003460D4A0E48F6
:1022B000FEF7C6FE03E041F28830FEF7B3FFFAE70F
:1022C00044020020852100080C030020980400200F
:1022D0001D1E00089C04002038140020E91E000880
:1022E0003C140020C8150020ED22000803E04FF444
:1022F0007A70FEF797FFFAE770B5002400BFFDF78C
:1023000089FF05460F480078401C0E490870284692
:10231000FDF784FF40F224410B4800F0E2F870B171
:1023200009480C300088C4B207480088C4B2064887
:10233000001D0088C4B20124044800F08FF9FEF7A4
:1023400011FE70BD7C00002000380140981D002067
:1023500070B5002400BFFDF75DFF05460F4800780B
:10236000401C0E4908702846FDF758FF40F22441F2
:102370000B4800F0B6F870B109480C300088C4B2C0
:1023800007480088C4B20648001D0088C4B2012472
:10239000044800F063F9FEF7E5FD70BD7C00002005
:1023A00000440040EC1D002070B5002400BFFDF784
:1023B00031FF05460F480078401C0E49087028463A
:1023C000FDF72CFF40F224410B4800F08AF870B171
:1023D00009480C300088C4B207480088C4B20648D7
:1023E000001D0088C4B20124044800F037F9FEF74C
:1023F000B9FD70BD7C00002000480040401E002058
:1024000021B1828942F40052828104E082894DF632
:10241000FF731A40828170471AB1838A0B4383820B
:1024200002E0838A8B4383827047000010B5044624
:102430002048844209D101218803FFF7F9F90021DE
:102440004FF48040FFF7F4F932E01B48844209D191
:1024500001214804FFF7CCF900214FF40030FFF7C9
:10246000C7F925E01548844209D101218804FFF706
:10247000BFF900214FF48020FFF7BAF918E01048A7
:10248000844209D10121C804FFF7B2F900214FF4B9
:102490000020FFF7ADF90BE00A48844208D1012182
:1024A0000805FFF7A5F900214FF48010FFF7A0F908
:1024B00010BD0000003801400044004000480040CA
:1024C000004C00400050004002460020B1F5007F63
:1024D00000D100BF13880B4201D0012000E0002092
:1024E000704770B502460024002300250020A1F5A6
:1024F00010666A3E00D100BFC1F3421501F01F0310
:10250000012606FA03F3012D02D19689334006E035
:10251000022D02D1168A334001E0968A33400C1214
:10252000012606FA04F41688344013B10CB10120D8
:1025300000E0002070BDF0B5034600240026002511
:102540000020A1F510676A3F00D100BF1846C1F313
:10255000421401F01F06012707FA06F5012C01D1EC
:102560000C3004E0022C01D1103000E014301AB11C
:1025700007682F43076002E00768AF430760F0BDBC
:102580002DE9F04786B005460E460024A24600BF5E
:10259000A1460027B08900B100BF2F462C8A4CF617
:1025A000FF700440F08804432C82AC894EF6F3108F
:1025B0000440B08831890843718908430443AC81E1
:1025C000AC8A4FF6FF400440B0890443AC8201A8B6
:1025D000FFF73EF91F48874202D1DDF810A001E065
:1025E000DDF80CA0A88910F4004F08D00AEBCA004F
:1025F00000EB0A1031684900B0FBF1F807E00AEB84
:10260000CA0000EB0A1031688900B0FBF1F86420C1
:10261000B8FBF0F004012009642101FB1089A889AE
:1026200010F4004F08D0322000EBC900B0FBF1F0ED
:1026300000F00700044308E0322000EB0910642199
:10264000B0FBF1F000F00F0004432C8106B0BDE8B0
:10265000F08700000038014000BFFEE72DE9F04799
:1026600005464FF00008C146A86AFEF74DFA8046BD
:10267000286B404505D12846FFF7D7F90020BDE873
:10268000F087288EA0EB08001FFA80F9AF6B05F1E8
:102690004404002618E0A089401C80B2A081E18992
:1026A00088420EDA17F8010B2289216888542089A4
:1026B000401C80B22081E189884203DB0020208118
:1026C00000E003E0701C86B24E45E4DB00BF2A8EBA
:1026D00091B2A86AFEF759FA2846FFF7A6F94846CC
:1026E000CDE7000010B592B004462068FFF79EFECB
:1026F000A06AFEF763F9E06AFEF760F970492068A6
:10270000884204D101210220FFF752F803E00121A1
:102710000846FFF74DF8A16841F001000121FFF7DD
:1027200077F868492068884204D10121E069FFF701
:102730006FF803E00121E069FFF74AF818208DF8EF
:102740000B00E089ADF8080002208DF80A0002A90C
:102750006068FEF77BFA04208DF80B00A089ADF8C5
:10276000080002A96068FEF771FA06210020564AA7
:1027700010684FF2FF021040544A024342EA01201F
:10278000514A106000BF94F925000121FEF7C2FBF9
:1027900094F92500FEF76EFB94F924000221FEF760
:1027A000B9FB94F92400FEF765FB2020005D8DF84D
:1027B000040001208DF805008DF806008DF8070053
:1027C00001A8FEF763FBE06AFEF7F8F8A069039042
:1027D000E06B0490606B069010200590002007903D
:1027E00080200890002009900A900B904FF44050F0
:1027F0000C9000200D9003A9E06AFEF7A8F90122D1
:102800000221E06AFEF79AF9A06AFEF7D7F8A069FC
:102810000390A06B049000200590206B0690002090
:10282000079080200890002009900A900B904FF4A8
:1028300040500C9000200D9003A9A06AFEF787F984
:1028400001220221A06AFEF779F920690E90A08A80
:1028500020B14FF48050ADF83C0002E00020ADF80C
:102860003C00E08AADF83E00A08AADF840000020B0
:10287000ADF844000C20ADF842000EA92068FFF727
:102880007FFE012280212068FFF7C6FD0122402142
:102890002068FFF7C1FD0021E06AFEF783F8002100
:1028A000A06AFEF77FF801212068FFF7A9FD012249
:1028B00040F224412068FFF73EFE12B010BD000038
:1028C000004C0040003801400CED00E00000FA052B
:1028D00070B50246002132F8113032F811400DE097
:1028E00032F811509D4201DA32F8113032F81150AD
:1028F000A54201DD32F811404D1CE9B20A29EFDB97
:102900000021002005E032F811500544A8B24D1C0A
:10291000E9B20A29F7DB1D19451BA8B20546C617FF
:1029200000EB5676F01020F4704070BD30B589B0E1
:1029300005460C4601210220FEF74AFF0121052031
:10294000FEF766FF8020ADF8200018208DF82300E8
:1029500003208DF8220008A91D48FEF777F91D48CD
:10296000FFF7B4F8A8B2ADF81800ADF81440002095
:10297000ADF81A00ADF816008DF81C0005A9154831
:10298000FFF7FAF96020ADF804000120ADF8060069
:102990000220ADF80C008020ADF80A004000ADF830
:1029A000100001A90B48FFF785F908210948FFF736
:1029B000D3F901210748FFF771F801210548FFF716
:1029C00079F800210348FFF7D4F909B030BD0000C1
:1029D0000008014000040040024600200AE013788D
:1029E0000344D8B21378834201DD431CD8B2521C91
:1029F0004B1ED9B20029F2DC7047000008B5012156
:102A00001C20FEF705FF4FF40040ADF80000482001
:102A10008DF8030003208DF8020069462348FEF775
:102A200015F94EF20400ADF8000048208DF80300BF
:102A300003208DF8020069461D48FEF707F94FF4A0
:102A40006040ADF8000048208DF8030003208DF8A9
:102A5000020069461748FEF7F9F801210920FEF740
:102A6000D7FE01211448FEF77BF90820ADF80000DD
:102A700048208DF8030003208DF8020069460C48B9
:102A8000FEF7E4F800200D49087048600C49087012
:102A900048600C49087048600B49087048600B4951
:102AA000087048600A490870486008BD0008014085
:102AB000000C0140001001400002300028000020FE
:102AC0003000002038000020400000204800002096
:102AD0005000002030B585B0FEF7C6F9FEF786F845
:102AE000FEF72CFAFEF794F900214FF46050FFF73F
:102AF0001DFFFFF783FF00214FF4165000F04AF846
:102B000000F06AF80320002164221C4BCDE9013259
:102B1000CDE903100F200346194A00901948FEF72B
:102B20008FFA194800684FF47A72B0FBF2F1B1F1F4
:102B3000807F00D31DE021F07F40401E4FF0E02257
:102B4000506150170F22002807DA13071D0E0F4B94
:102B500000F00F04241F1D5503E013071C0E0C4B3F
:102B60001C5400BF00204FF0E0229061072010614C
:102B700000BFFEF73FFA012005B030BDB4000020D1
:102B800040020020392200086C00002018ED00E00F
:102B900000E400E038B504460D4601210420FEF7AC
:102BA00037FE4FF48070ADF8000002208DF802006F
:102BB00010208DF8030069460648FEF747F82946BD
:102BC0002046FDF71FFD4FF480710248FEF719F90A
:102BD00038BD00000008014000B591B0012105207A
:102BE000FEF716FE7F20ADF8400003208DF842006E
:102BF00000208DF8430010A94A48FEF727F84FF44B
:102C00000040FEF7C9FD01214802FEF701FE4648DB
:102C1000FDF71AFC00200B9001208DF830008DF894
:102C200031004FF460200D9000200E9007208DF8A9
:102C30003C000BA93C48FDF749FC0523012219463D
:102C40003948FDF76BFC0523022206213648FDF7C3
:102C500065FC0523032201213348FDF75FFC0523B2
:102C6000042202213048FDF759FC05231A460421AD
:102C70002D48FDF753FC0523062200212A48FDF7C5
:102C80004DFC0523072203212748FDF747FC0121BE
:102C90002548FDF7CDFB01212348FDF7BEFB224867
:102CA000FDF798FC00BF2048FDF706FC0028FAD18C
:102CB0001D48FDF79FFC00BF1B48FDF7F3FB0028F4
:102CC000FAD101210846FEF773FD1848FDF776FE9C
:102CD00015484C3000901648019000200290462084
:102CE0000390002004908020059040000690800012
:102CF0000790202008900002099000200A90694661
:102D00000A48FDF724FF01210748FDF791FB012147
:102D10000648FDF747FE01210348FDF760FC11B0AE
:102D200000BD0000000801400024014008000240EE
:102D3000A21E0020000001000200010003000100AB
:102D40000200010004000100020001000300010074
:102D50000200010005000100020001000300010063
:102D60000200010004000100020001000300010054
:102D70000200010006000100020001000300010042
:102D80000200010004000100020001000300010034
:102D90000200010005000100020001000300010023
:102DA0000200010004000100020001000300010014
:102DB0000200010007000100020001000300010001
:102DC00002000100040001000200010003000100F4
:102DD00002000100050001000200010003000100E3
:102DE00002000100040001000200010003000100D4
:102DF00002000100060001000200010003000100C2
:102E000002000100040001000200010003000100B3
:102E100002000100050001000200010003000100A2
:102E20000200010004000100020001000300010093
:102E300002000100542E000800000020A400000041
:102E40006C010008F82E0008A4000020FC300000EF
:102E5000880100085AA500000000000000000000E2
:102E60000000000000000000000000000000000062
:102E700000005AA500000000000000000000000053
:102E80000000000000000000000000000000000042
:102E90000000000000000000000000000000000032
:102EA0000000000000000000000000000000000022
:102EB00001020304010203040607080902040608CC
:102EC000007E56030000000000000000000000002B
:102ED00000000000000000000000000000000000F2
:102EE00000000000000000000000000000000000E2
:082EF0000000000000000000DA
:0400000508000131BD
:00000001FF
