:020000040800F2
:10000000000400200F0200087D200008A11F000846
:1000100079200008DB060008C34F0008000000003C
:100020000000000000000000000000004D39000842
:10003000CD1500080000000093020008854100086B
:1000400029020008290200082902000829020008E4
:1000500029020008290200082902000829020008D4
:100060005518000831190008290200082902000863
:10007000B10D0008DD0D00085D0E00088D0E0008B2
:100080000D0F00088D0F0008290200082902000842
:10009000554F00082902000829020008290200081B
:1000A0002902000829020008290200082902000884
:1000B0002902000829020008290200082902000874
:1000C0002902000829020008290200082902000864
:1000D00029020008054A00085D4A0008B54A0008E0
:1000E000E915000829020008290200082902000871
:1000F0002902000829020008290200082902000834
:100100002902000829020008290200082902000823
:100110002902000829020008290200082902000813
:100120002902000829020008290200082902000803
:1001300000F002F800F05AF80AA090E8000C82449F
:100140008344AAF10107DA4501D100F04FF8AFF27C
:10015000090EBAE80F0013F0010F18BFFB1A43F0A5
:100160000103184720590000405900000A444FF08D
:10017000000C10F8013B13F0070408BF10F8014B06
:100180001D1108BF10F8015B641E05D010F8016B4B
:10019000641E01F8016BF9D113F0080F1EBF10F8AF
:1001A000014BAD1C0C1B09D16D1E58BF01F801CBD2
:1001B000FAD505E014F8016B01F8016B6D1EF9D555
:1001C0009142D6D37047000000230024002500266A
:1001D000103A28BF78C1FBD8520728BF30C148BFAA
:1001E0000B6070471FB51FBD10B510BD00F04DF975
:1001F0001146FFF7F7FF05F0A5F900F06BF903B41E
:10020000FFF7F2FF03BC00F06FF9000070470A48E7
:1002100080470A480047FEE7FEE7FEE7FEE7FEE705
:10022000FEE7FEE7FEE7FEE7FEE7000004480549BB
:10023000054A064B70470000AD4100083101000837
:10024000902F002090350020903100209031002028
:10025000EFF3108072B6704780F3108870471D4826
:100260004FF0FF010170002080F309881A48012136
:1002700001701A484FF08051016062B6FEE71748DE
:100280004FF080510160704714484FF08051016079
:10029000704772B6EFF3098028B1203880E8F00F7C
:1002A0000F490968086000B50E4880475DF804EB07
:1002B0000D480E490A78027009480D490A68026023
:1002C000106890E8F00F203080F309884EF0040E9B
:1002D00062B6704722ED00E06D01002004ED00E001
:1002E00074010020432800086201002063010020FF
:1002F0007C010020032A40F2308010F0030C00F053
:10030000158011F8013BBCF1020F624498BF11F84F
:1003100001CB00F8013B38BF11F8013BA2F1040208
:1003200098BF00F801CB38BF00F8013B11F0030380
:1003300000F05280083AC0F0088051F8043B083AB7
:1003400051F804CBA0E80810F5E7121D5CBF51F886
:10035000043B40F8043BAFF30080D20724BF11F800
:10036000013B11F801CB48BF11F8012B24BF00F865
:10037000013B00F801CB48BF00F8012B704702F0A9
:10038000FF0343EA032242EA024200F002B84FF0C0
:1003900000020429C0F0128010F0030C00F050801D
:1003A000CCF1040CBCF1020F18BF00F8012BA8BF60
:1003B00020F8022BA1EB0C0100F042B85FEAC17CEF
:1003C00024BF00F8012B00F8012B48BF00F8012BD7
:1003D000704770477047704710B5203AC0F00B80E7
:1003E000B1E81850203AA0E81850B1E81850A0E839
:1003F0001850BFF4F5AF5FEA027C24BFB1E8185093
:10040000A0E8185044BF18C918C0BDE810405FEA02
:10041000827C24BF51F8043B40F8043B08BF70477E
:10042000D20728BF31F8023B48BF11F8012B28BF83
:1004300020F8023B48BF00F8012B70474FF0000244
:1004400000B5134694469646203922BFA0E80C50CA
:10045000A0E80C50B1F12001BFF4F7AF090728BFA5
:10046000A0E80C5048BF0CC05DF804EB890028BF21
:1004700040F8042B08BF704748BF20F8022B11F04A
:10048000804F18BF00F8012B7047754600F028F820
:10049000AE4605006946534620F00700854618B071
:1004A00020B5FFF7C3FEBDE820404FF000064FF037
:1004B00000074FF000084FF0000B21F00701AC4699
:1004C000ACE8C009ACE8C009ACE8C009ACE8C009B8
:1004D0008D4670470446AFF300802046FFF78FFE3D
:1004E00000487047302F002001491820ABBEFEE7BE
:1004F00026000200704721B1826842F0010282604A
:1005000003E0826822F001028260704721B18268B4
:1005100042F48072826003E0826822F4807282601A
:100520007047000010B504461248844208D10121EA
:10053000401503F0D9F80021601503F0D5F817E055
:100540000D48844208D10121001503F0CDF80021A7
:10055000201503F0C9F80BE00848844208D10121B6
:10056000C80303F0C1F800214FF4004003F0BCF8C9
:1005700010BD00000024014000280140003C014063
:10058000014600208A6812F0040F01D0012000E02B
:1005900000207047014600208A6812F0080F01D041
:1005A000012000E00020704730B502460020002303
:1005B00050680F4C20400D790C6844EA0524204314
:1005C000506090680B4C2040D1E902542C434D7987
:1005D00044EA450420439060D06A20F470000C7C0B
:1005E000641EE4B2234340EA0350D06230BD0000F1
:1005F000FFFEF0FFFDF7F1FFF0B504460D460020C9
:100600000021092D11DDE068A5F10A0606EB460779
:10061000072606FA07F18843A5F10A0606EB460607
:1006200003FA06F10843E0600CE0206905EB45079A
:10063000072606FA07F1884305EB450603FA06F19B
:1006400008432061072A0FDA606B561E06EB860707
:100650001F2606FA07F18843561E06EB860605FAA2
:1006600006F10843606322E00D2A0FDA206BD61FE3
:1006700006EB86071F2606FA07F18843D61F06EB0E
:10068000860605FA06F10843206310E0E06AA2F14D
:100690000D0606EB86071F2606FA07F18843A2F12E
:1006A0000D0606EB860605FA06F10843E062F0BD8A
:1006B000816841F008018160704721B1826842F48D
:1006C000A002826003E0826822F4A0028260704788
:1006D000816841F004018160704700BFFEE7014678
:1006E000CAB20B1243EA02207047000008B500208E
:1006F000009015E19048008800F00F008F490870C5
:100700000846007800287DD18D4800688D49088012
:100710000846008800F030008B490880894800882E
:1007200000F4405087490880854909684BF6BF723C
:1007300001EA020080F4005080F0200040F4004103
:1007400041F080017E4A11607B48008810F0100F54
:1007500032D11046006848F60F7108401146086013
:1007600001F020FC764909684BF6BF7201EA0200ED
:100770007449098811F4805F01D080F48050714978
:10078000098811F4005F01D080F400506E49098897
:1007900011F0100F01D080F010006B49098811F0A2
:1007A000200F01D080F0200081B241F4004141F0DF
:1007B0008001634A116008BD6148006880B2009002
:1007C000BDF8000010F4006F36D05D480068C0F33B
:1007D0000E0048F68F7108405949086003F016FA78
:1007E000574909684BF6BF7201EA0200554909886A
:1007F00011F4805F01D080F480505249098811F4CF
:10080000005F00E052E001D080F400504E490988BA
:1008100011F0100F01D080F010004B49098811F041
:10082000200F01D080F0200081B241F4004141F05E
:100830008001434A1160BEE7BDF8000010F4004F8C
:100840006ED03F480068C0F30E0048F68F71084034
:100850003B49086002F07CFE394909684BF6BF72DB
:1008600001EA02003749098811F4805F01D080F461
:1008700080503449098811F4005F01D080F40050A1
:100880003149098811F0100F01D080F010002E4975
:10089000098811F0200F01D080F0200081B241F4CE
:1008A000004141F08001264A116084E72348007826
:1008B000234951F8200080B20090BDF8000010F4E8
:1008C000004F14D01D48007851F82000C0F30E00EE
:1008D00048F68F71084019490978194A42F82100F1
:1008E00016490978491E194A52F821008047BDF877
:1008F000000010F0800F13D010480078104951F814
:10090000200048F60F7108400C4909780C4A42F85B
:1009100021000A490978491E0D4A52F821008047F2
:1009200007484430006880B20349088010F4004F43
:100930007FF4E0AE00BF3EE790000020A40100205D
:10094000005C0040B8010020BA01002074000020C3
:1009500058000020094951F8201011F4804F0BD0A5
:10096000064951F8201048F68F7211404CF280026F
:100970001143024A42F8201070470000005C00401A
:10098000094951F8201011F0400F0BD0064951F8D9
:10099000201048F68F72114048F2C0021143024AFB
:1009A00042F8201070470000005C0040064951F8F2
:1009B000201048F68F62114048F280021143024A2B
:1009C00042F8201070470000005C004070B50446FB
:1009D0000D46344834490860042133488160334867
:1009E000314948600115304881814910C181046155
:1009F0000121C18225B1022D06D0042D0ED108E0BF
:100A00000021294881820DE04FF4806126488182CF
:100A100008E04FF4C0612448818203E000212248AD
:100A2000818200BF00BF1F48001D1F4988614FF42D
:100A300080411D48C161252101840F201A4981F898
:100A400024000E21184880F82510194981621849A0
:100A50001439C162802101634163164981631649DB
:100A6000C1630020104981F8400000210E4880F841
:100A7000411080F8421011480B49486410490A4857
:100A800081640021A0F84C10A0F84E10A0F850107E
:100A90004021A0F8521004F0D9FA034803F03AFBC1
:100AA000012070BD0038014070180020000801408E
:100AB00058000240B210002032110020B211002074
:100AC0003000002010B5044694F8400008B900201A
:100AD00010BD00BF2068008810F0800FFAD000BF62
:100AE0004021206804F076F80028F9D00120EFE7D3
:100AF00070B504460E4615460E49206888420CD053
:100B00000D492068884208D00C492068884204D0EA
:100B10000B492068884200D070BD05B9FCE7002071
:100B200084F840002A463146204603F001FB00BF0E
:100B3000F2E7000000380140004400400048004057
:100B4000004C004070B504460025062C18D118480A
:100B50000068007800F07F00012811D11448006877
:100B6000407968B9124800688078222801D1114D77
:100B700010E00F480068807821280BD10E4D09E065
:100B80000B480068007800F07F00212802D1032C78
:100B900000D10A4D0DB9022070BD0548006885617D
:100BA00000210348006841820020A8470020F3E7A5
:100BB000A8010020190C0008E90B0008FD0B000833
:100BC00010B504460249204603F036F910BD000076
:100BD000F400002010B504460249204603F02CF929
:100BE00010BD0000EC00002010B50446024920466C
:100BF00003F022F910BD000004010020014629B9CC
:100C00000120034A12681082002070470148FCE767
:100C1000A80100202C01002010B5044602492046FE
:100C200003F00AF910BD0000FC00002070B5054675
:100C300006480068C478042C01DD002070BD04481B
:100C400000EBC401284603F0F7F8F7E7A8010020FD
:100C50000C0100200246002901DD02207047002A15
:100C600001DD0220FAE70020F8E7000000B50246A7
:100C700006480068007800F07F00212804D10B2A84
:100C800002D100F073F800BD0220FCE7A8010020AB
:100C900010B5002028490968887227490968C87278
:100CA0002648C079244909684872002002F050FEA5
:100CB0004FF40071002002F01BFF1021002002F011
:100CC000FBFE1821002002F06FFE5821002002F0E8
:100CD000D5FE0020FFF76AFE194890F82C1000207E
:100CE00002F074FE002002F0B3FE4FF4C061012058
:100CF00002F0FEFE4FF48071012002F0BFFE4FF4BF
:100D00008271012002F050FE4021012002F0C6FE57
:100D10004021012002F05AFE4FF44051012002F020
:100D20007BFE2021012002F0C7FE002002F018FE09
:100D300001200449086010BDA8010020E8580008FF
:100D4000980000203401002003480068807A10B128
:100D50000520024908607047A801002034010020E6
:100D600004200149086070473401002003480068EE
:100D7000C17803480160002070470000A8010020EE
:100D80002C0100207047704710B501F0EFF80020EB
:100D900005490968887202F03BFC04F0E9F800207C
:100DA0000249086010BD0000A801002034010020A5
:100DB00010B5202000F0C6F950B10021054800F020
:100DC0000BF9202000F0FAF80120034981F84000D7
:100DD00010BD00001C000240181900201CB54FF483
:100DE000007000F0AFF940B100211A4800F0F4F8AB
:100DF0004FF4007000F0E2F80CE04FF4006000F0F7
:100E0000A1F938B10021134800F0E6F84FF4006072
:100E100000F0D4F810480088019016E00E480C301D
:100E2000008800900C481030008800900A48143068
:100E3000008800900848001D00880090064800883F
:100E400001900098009001980190019810F0080F0F
:100E5000E4D11CBD300002400048004010B54FF402
:100E6000005000F06FF958B10021064800F0B4F8C6
:100E70004FF4005000F0A2F80120034981F840002F
:100E800010BD000044000240701800201CB54FF453
:100E9000003000F057F940B100211A4800F09CF8EA
:100EA0004FF4003000F08AF80CE04FF4002000F01E
:100EB00049F938B10021134800F08EF84FF40020B2
:100EC00000F07CF810480088019016E00E480C30C5
:100ED000008800900C481030008800900A481430B8
:100EE000008800900848001D00880090064800888F
:100EF00001900098009001980190019810F0080F5F
:100F0000E4D11CBD58000240003801401CB54FF42C
:100F1000001000F017F940B100211A4800F05CF809
:100F20004FF4001000F04AF80CE04FF4000000F01D
:100F300009F938B10021134800F04EF84FF40000D1
:100F400000F03CF810480088019016E00E480C3084
:100F5000008800900C481030008800900A48143037
:100F6000008800900848001D00880090064800880E
:100F700001900098009001980190019810F0080FDE
:100F8000E4D11CBD6C0002400044004010B54FF09D
:100F9000007000F0D7F858B10021064800F01CF8A6
:100FA0004FF0007000F00AF80120034981F840007A
:100FB00010BD000080000240C418002010F0805FC7
:100FC00002D00349086001E0024948607047000010
:100FD000040402400000024021B1026842F0010214
:100FE000026004E002684FF6FE731A400260704728
:100FF00001684FF6FE7211400160002101604160FE
:101000008160C1604B49884208D14A490839496822
:1010100041F00F01474A083A51608AE045491431CE
:10102000884208D143490839496841F0F001414AF2
:10103000083A51607DE03F492831884208D13D4956
:101040000839496841F470613A4A083A516070E0E1
:1010500038493C31884208D136490839496841F459
:101060007041344A083A516063E032495031884255
:1010700008D130490839496841F470212D4A083AAD
:10108000516056E02B496431884208D1294908391A
:10109000496841F47001274A083A516049E02549FE
:1010A0007831884208D123490839496841F0706194
:1010B000204A083A51603CE01F49884206D1011F8E
:1010C000096841F00F01021F116032E01A49143122
:1010D000884208D11849091F096841F0F001164AF1
:1010E000121F116025E014492831884208D11249A5
:1010F000091F096841F470610F4A121F116018E05E
:101100000D493C31884208D10B49091F096841F457
:101110007041094A121F11600BE0074950318842A3
:1011200007D10549091F096841F47021024A121FBD
:1011300011607047080002400804024001464868F8
:1011400080B2704701460020002211F0805F02D07B
:10115000054B1A6801E0054B1A680A4201D00120CC
:1011600000E0002070470000000402400000024040
:101170001AB103680B43036002E003688B4303600A
:10118000704710B50022026847F6F0739A430C6A64
:101190008B6823430C6923434C6923438C692343A5
:1011A000CC6923434C6A23438C6A23431A4302606D
:1011B000CB6843600B6883604B68C36010BD4160BF
:1011C000704700002DE9F0472848006800F110053D
:1011D0002E8826480068077AD6B9042F18D12448EB
:1011E000007801280FD100212248006880B2801CBD
:1011F000214A42F8101030202049088000BF00200A
:101200001B49087003E0072710201C49088027E0CD
:10121000AC88A64201D8042000E002200746B44270
:1012200000D93446A0B2A96888478046002000F063
:101230008DFE8146A2B24946404603F0FDFFA1B2B1
:10124000002002F02BFC2888001B2880688820449E
:10125000688030200949088000020949088000BFE1
:10126000024909680F72BDE8F0870000A80100205C
:101270009E010020505C004000600040BA01002048
:10128000B80100202DE9F0412848006800F1100461
:101290002688A068C0B1BEB1A588B54200D9354640
:1012A000A8B2A168884707462088401B2080608834
:1012B00028446080002000F027FE8046AAB2414604
:1012C000384602F06DF900BF208850B14FF440500D
:1012D000174908800021084602F0E0FB302015493C
:1012E00008802088A188884204DB03200F49096810
:1012F000087218E02088002804DD05200B490968E1
:10130000087210E0208870B9062008490968087240
:1013100000210948006880B2801C084A42F8101079
:10132000302004490880BDE8F0810000A8010020B9
:10133000B8010020BA010020505C0040006000406D
:101340002DE9F84F9848006845780027BA46062DE1
:101350001AD195480068007810F07F0F13D1924998
:1013600009688878012803D190490968CF690AE0A3
:10137000022803D18D4909680F6A04E0032802D1CD
:101380008A4909684F6A90E0002D60D1864800685C
:10139000408800285BD184480068C088022856D164
:1013A000814800680079002851D17F4800680078A2
:1013B00010F07F0F05D17C480068808808B97C4F09
:1013C00073E079480068007800F07F00012810D1B0
:1013D000754909684879754909688A690021904703
:1013E000002862D170480068807A00285DD0704F74
:1013F0005BE06D480068007800F07F00022854D15F
:1014000069480068407900F00F0667480068407935
:1014100000F0700964480068407910F0800F05D032
:10142000644850F8260000F0300804E0614850F8A5
:10143000260000F4405860480078B04235D9B9F130
:10144000000F32D1B8F1000F2FD0594F2DE0082DE9
:1014500007D155480068007810F07F0F25D1574F0D
:1014600023E00A2D21D150480068007800F07F0069
:1014700001281AD14C480068807AB0B14A48006807
:10148000408890B948480068007970B946480068BB
:10149000C088012809D14449096848794349096845
:1014A0008A690021904700B9454F57B13E4800680E
:1014B000A0F812A03C48006887610020B8470024CB
:1014C0000FE0394A12685078384A12681169884723
:1014D0000446032C05D10920334909680872BDE888
:1014E000F88F31480068008AA0F57F41FF3904D1A8
:1014F00009202D4909680872F1E7022C03D02A4817
:101500000068008A20B90820274909680872E6E7C0
:1015100025480068007810F0800F3CD02248006811
:10152000C088009020480068008A0099884204D949
:101530001D4900980968088223E01B480068008A5A
:1015400019490968C98888421BDA17480068008A67
:101550001649096891F82C10884203DA00201949CD
:1015600008700EE010480068008A1049096891F878
:101570002C1090FBF1F201FB120010B9012011496F
:1015800008700A48006890F82C10074800688182AB
:10159000FFF718FE06E003200349096808720003FC
:1015A0000949088000BF9AE7A8010020AC0100208B
:1015B000893E0008005C0040940000200D3E0008B9
:1015C0005D3E00089E010020B80100207047000029
:1015D00010B50349012003F0DDFC0249087010BD7D
:1015E000DA1A0020500000200EB54FF4005000F031
:1015F00013FA002856D04FF4005000F007FA814942
:101600008148006801F006FB8049087008460078B0
:1016100018B10846007801281FD14FF400517C48CA
:1016200000F064FC002817D176497748006801F083
:10163000FFF9744877A10022794BCDE9002102908F
:1016400001220021502001F0A9F96F4908606D497D
:101650006D48006801F096FAD2E06C4800780228E4
:1016600008D168496848006801F0E2F903206D4933
:101670004870C5E0654800780328EDD161496248AB
:10168000006801F01BFA6849086008460068C6282F
:1016900002D20220634948705A495B48006801F051
:1016A000C7F9ADE04FF4804000F0B6F9002851D002
:1016B0004FF4804000F0AAF952495C48006801F0FC
:1016C000A9FA524908700846007818B1084600780F
:1016D00001281AD14FF480414D4800F007FC002842
:1016E000BAD1484852A100224D4BCDE900210290C9
:1016F00001220021502001F051F94C490860414974
:101700004A48006801F03EFA7AE040480078022832
:1017100008D13C494548006801F08AF90320414955
:10172000C8706DE039480078032869D135493F48D1
:10173000006801F0C3F93C49086008460068C62803
:1017400002D202203749C8702E493848006801F09B
:101750006FF955E04FF4004000F05EF900284FD0DB
:101760004FF4004000F052F926493548006801F076
:1017700051FA264908700846007818B108460078E2
:10178000012819D14FF400412E4800F0AFFBF8B901
:101790001C482DA10022224BCDE9002102900122FC
:1017A0000021502001F0FAF8254908601549244825
:1017B000006801F0E7F923E014480078022808D116
:1017C00010491F48006801F033F90320154988705B
:1017D00016E00E480078032812D10A49184800681C
:1017E00001F06CF91049086008460068C62802D26A
:1017F00002200C49887003491148006801F018F96B
:101800000EBD0000080000200C0000202800002071
:101810000010014074696D656B6579486F6D6500F6
:1018200085580008020000202C0000201400002031
:1018300074696D656B657950686F746F00000000A6
:10184000100000200008014074696D656B65794FD8
:101850006B6600000EB5042000F0DEF800284ED0C4
:10186000042000F0D3F828492848006801F0D2F994
:10187000274908700846007818B108460078012802
:1018800019D10421234800F031FB002837D11E482C
:1018900021A10022234BCDE9002102900122002149
:1018A000502001F07BF81949086017491748006873
:1018B00001F068F923E016480078022808D112499F
:1018C0001248006801F0B4F803201749087116E0C7
:1018D0000F480078032812D10B490C48006801F02A
:1018E000EDF81249086008460068C62802D20220B6
:1018F0000D49087104490548006801F099F8042071
:1019000000F084F80EBD0000080000201800002040
:1019100028000020000C014074696D656B657941F9
:101920000000000085580008020000202C00002064
:101930000EB5082000F070F800284ED0082000F006
:1019400065F828492848006801F064F927490870BB
:101950000846007818B108460078012819D10821F6
:10196000234800F0C3FA002837D11E4821A10022E5
:10197000234BCDE90021029001220021502001F0EB
:101980000DF81949086017491748006801F0FAF87E
:1019900023E016480078022808D11249124800684E
:1019A00001F046F803201749487116E00F48007807
:1019B000032812D10B490C48006801F07FF8124946
:1019C000086008460068C62802D202200D49487106
:1019D00004490548006801F02BF8082000F016F8CB
:1019E0000EBD0000080000201C0000202800002080
:1019F000000C014074696D656B6579420000000060
:101A000085580008020000202C00002001490860D1
:101A10007047000014040140014600200022074BDB
:101A20001B6803EA0102054B14331B680B4202D00A
:101A30000AB1012000E000207047000000040140CE
:101A4000002123498279002A3AD00A4612680368A5
:101A50009A430B461A600A1D126803689A430B1DCD
:101A60001A60027911440A6803681A430A60184A26
:101A70000832126803689A43154B08331A601A1D1E
:101A8000126803689A43124B0C331A604279102A89
:101A90000ED11A1F126803681A430D4B08331A60DF
:101AA0001A1D126803681A43094B0C331A600DE0C3
:101AB0000749427911440A6803681A430A6005E03D
:101AC000027911440A6803689A430A60704700006B
:101AD00000040140032001490860704734010020E0
:101AE0000149C860704700000020024030B504463C
:101AF00004254FF4302000F085F80546042D17D159
:101B00000C48006940F002000A4908610846446137
:101B1000006940F0400008614FF4302000F072F896
:101B200005460448006941F6FD7108400149086115
:101B3000284630BD0020024004200B49C96811F03E
:101B4000010F01D001200EE00749C96811F0040F10
:101B500001D0022007E00449C96811F0100F01D03C
:101B6000032000E004207047002002400348006981
:101B700040F08000014908617047000000200240E9
:101B800078B506460C46042500200090E80200F0D7
:101B900039F80546042D24D11348006940F00100AE
:101BA000114908613480E80200F02CF80546042D44
:101BB00010D1B01C0090200C00990880E80200F0C1
:101BC00021F805460848006941F6FE7108400649BB
:101BD000086106E00448006941F6FE7108400249C8
:101BE0000861284678BD00000020024002480349F1
:101BF0004860034848607047230167450020024061
:101C0000AB89EFCD00B502460423FFF795FF0346ED
:101C100003E0FFF791FF0346521E012B01D1002A7A
:101C2000F7D102B90523184600BD10B501210846B9
:101C300001F05AFD0021012001F056FD10BD000009
:101C400010B504462948844208D10121042001F03E
:101C50004BFD0021042001F047FD46E0244884426A
:101C600008D10121082001F03FFD0021082001F0EA
:101C70003BFD3AE01F48844208D10121102001F0C9
:101C800033FD0021102001F02FFD2EE01A48844280
:101C900008D10121202001F027FD0021202001F0A2
:101CA00023FD22E01548844208D10121402001F0A3
:101CB0001BFD0021402001F017FD16E01048844272
:101CC00008D10121802001F00FFD0021802001F0CA
:101CD0000BFD0AE00B48844207D10121801501F079
:101CE00003FD0021A01501F0FFFC10BD000801401C
:101CF000000C014000100140001401400018014098
:101D0000001C01400020014030B500228B071C0F51
:101D10000F2303FA04F20B4B8C1053F82430934337
:101D2000084C8D1044F8253023468C1053F824308D
:101D30008C07240F00FA04F42343024C8D1044F85E
:101D4000253030BD080001402DE9F0410246002554
:101D50000026002000230024002791F803C00CF087
:101D60000F0591F803C01CF0100F03D091F802C0CA
:101D70004CEA050591F800C0BCF1000F31D01468A1
:101D800000202BE04FF0010C0CFA00F3B1F800C07A
:101D90000CEA03069E4220D183004FF00F0C0CFA90
:101DA00003F7BC4305FA03FC4CEA040491F803C0B2
:101DB000BCF1280F06D14FF0010C0CFA00FCC2F860
:101DC00014C00AE091F803C0BCF1480F05D14FF0F0
:101DD000010C0CFA00FCC2F810C0401C0828D1D33A
:101DE0001460B1F800C0BCF1FF0F34DD546800206E
:101DF0002EE000F1080C4FF0010808FA0CF3B1F8DE
:101E000000C00CEA03069E4221D183004FF00F0C64
:101E10000CFA03F7BC4305FA03FC4CEA040491F8FE
:101E200003C0BCF1280F05D100F1080C08FA0CF82A
:101E3000C2F8148091F803C0BCF1480F07D100F13B
:101E4000080C4FF0010808FA0CF8C2F81080401C8A
:101E50000828CED35460BDE8F0810000F0B50A46F2
:101E6000002300240021002500F00046B6F1004FB9
:101E700002D11D4EF16901E01B4E7168C0F30345AC
:101E800083B200F44016B6F5401F08D121F070610E
:101E9000154E766826F07066134F7E6012E000F4EF
:101EA0008016B6F5801F06D1032606FA05F4A14375
:101EB00041F0706106E0460D360103FA06F6B143C3
:101EC00041F0706122B1460D360103FA06F6314346
:101ED00000F00046B6F1004F02D1034EF16101E07F
:101EE000014E7160F0BD000000000140024600207C
:101EF00093680B4201D0012000E00020704741614F
:101F0000704701617047000001460548006880B2D3
:101F100000EBC100001D034A32F8100080B2704788
:101F2000505C00400060004001460648006880B2F6
:101F300000EBC100801D044A32F81000C0F3090014
:101F400070470000505C00400060004001460548BA
:101F5000006880B200EBC100034A32F8100080B282
:101F600070470000505C00400060004070B50A48B7
:101F70000468001D0568001D0668344454B1082239
:101F80000649204600F046F804220449103128464C
:101F900000F040F870BD0000E8F7FF1F3800002097
:101FA00000BFFEE710B518480068047A022C01D083
:101FB000042C05D1FFF706F913480068047A1CE0E9
:101FC000062C19D110480068407805280ED10E481B
:101FD0000068007810F07F0F08D10B490968C878B5
:101FE00001F0BEFC09490968086A80470849096888
:101FF00088688047082400E00824034909680C72B7
:1020000001F0E2FA10BD0000A8010020B401002098
:10201000AC01002030B50B46002100BF16E00A24B9
:10202000B4EB107F05D9302404EB107403F8114091
:1020300005E0412404EB10740A3C03F81140000150
:1020400000254C00641C1D554C1CE1B29142E6DB9E
:1020500030BD000010B5064CA07A18B10520054926
:10206000086002E001200349086002F09FF810BDFB
:10207000142F00203401002000BFFEE700BFFEE760
:10208000704710B54FF4E06000F048F810BD00F064
:102090001F020121914042094FF0E02303EB82022D
:1020A000C2F800117047000070B5002100230F2214
:1020B000C4780CB3164C246804F4E064C4F5E064FE
:1020C000210AC1F10403CA40447804FA03F1847878
:1020D0001440214309010F4C0678A155047804F0FF
:1020E0001F050124AC4005786D114FF0E02606EB8A
:1020F0008505C5F8004109E0047804F01F050124B6
:10210000AC40054D0678761145F8264070BD0000BC
:102110000CED00E000E400E080E100E00249014352
:10212000024A1160704700000000FA050CED00E063
:1021300010B5002807DA0A07140E054A00F00F034D
:102140001B1FD45403E00A07130E024A135410BD98
:1021500018ED00E000E400E070B502264948006890
:10216000447848480068007810F07F0F4AD1092C65
:1021700003D101F005FF064665E0052C14D1414866
:102180000068C0787F280BDC3E480068807838B94A
:102190003C480068808818B93A480068807A08B1DD
:1021A00008256BE000264EE0032C14D1354800686A
:1021B000C07801280DD133480068808848B931487B
:1021C0000068407A10F0200F03D001F0FDFE0646B3
:1021D00039E0022637E0012C35D12A480068C07862
:1021E00001280DD127480068808848B92548006833
:1021F000407A10F0200F03D001F064FD064622E083
:10220000022620E01F480068007800F07F000128C7
:1022100005D10B2C17D101F047FF064613E01948F2
:102220000068007800F07F0002280BD1012C03D158
:1022300001F048FD064606E0032C04D101F0D8FE6B
:10224000064600E002264EB1E0B20F4A126851691C
:1022500088470646032E01D109250FE00EB1082557
:102260000CE0062500210948006880B2801C084A5D
:1022700042F8101030200749088000BF0149096862
:102280000D7270BDA8010020AC010020505C004020
:1022900000600040BA0100202DE9F04105460E46DD
:1022A000144600271DB904202070BDE8F08116B93E
:1022B0000C202070F9E71148007810B1122020702E
:1022C000F3E72878012808D0022807D0032802D095
:1022D000042804D100E000BF00BF00BF02E00120DD
:1022E0002070E2E700BFFDF7B3FF07466E61384696
:1022F000FDF7B2FF0020207000BFD6E7600100208C
:1023000010B500F011F800F05DFF00F079FF00F06B
:1023100099FF00F027FF00F0F9FE00F0D3FF00F076
:10232000F1FC00F007F810BD00200149088070475B
:102330009C0100207047000010B500241A48007866
:10234000012830D1FDF784FF04461848007820B1F9
:1023500016480078401E1549087014480078F8B9EE
:1023600013480078E0B901F019F8124812490978C9
:1023700050F82100114908600F4800781049097889
:1023800088420DD00D480068C06B401C0B4909689D
:10239000C8630C480068401C0A490860FDF774FFD8
:1023A0002046FDF759FF10BD6D010020600100209F
:1023B000610100201C220020630100207C0100201C
:1023C000620100205401002010B500240B48007861
:1023D000012811D1FDF73CFF04460948007840B9B7
:1023E00008480078FF2804D206480078401C0549B8
:1023F00008702046FDF730FF10BD00006D01002081
:10240000600100206101002010B50024134800780D
:10241000012821D1FDF71CFF044611480078C0B106
:102420000F480078401E0E4908700846007860B9D1
:102430000C48007828B92046FDF70EFF00F074FF25
:102440000AE02046FDF708FF06E02046FDF704FFFE
:1024500002E02046FDF700FF10BD00006D010020E6
:10246000610100206001002070B50546002610487B
:10247000007808B1002070BDFDF7EAFE06460D4861
:102480000468006820B10B4800684068094908608A
:102490003046FDF7E1FE4CB103202070258100207D
:1024A000606005A06061204600F022FE2046E2E761
:1024B00060010020580100203F0000002DE9F0419C
:1024C00005460E46144600271DB904202070BDE8BD
:1024D000F0812878032802D001202070F7E73248E5
:1024E000007810B102202070F1E73048007810B178
:1024F0000D202070EBE7FDF7ABFE0746288940B1C1
:102500002889401E28813846FDF7A6FE002020704D
:10251000DDE72748006890F8340040F001002449C6
:10252000096881F8340000202149096881F83500E4
:102530001F4800680663284600F09CFD3846FDF7FA
:102540008BFE00F0F1FEFDF783FE07461848006899
:1025500090F8350020B1012809D0022806D102E008
:10256000002020700BE00E20207008E000BF2946FC
:102570000F48006800F04AFD0A20207000BF00BF2D
:1025800000200B49096881F834000949096881F87D
:10259000350007490968C861054909680862384675
:1025A000FDF75AFE00BF92E76001002061010020A4
:1025B0007401002070B5044600250CB9042070BDDC
:1025C0002078032801D00120F9E7FDF741FE0546F8
:1025D000A07A60B1002301221946204600F0CCFC0D
:1025E0002846FDF739FE00F09FFE0020E7E720892E
:1025F0004FF6FF71884207D22089401C208128466F
:10260000FDF72AFE0020DAE72846FDF725FE3320F5
:10261000D5E7000010B50B48007890B900F0BEFE79
:10262000094800780949087009480749097850F8AD
:102630002100084908600846006807490860FDF75E
:102640000EFE10BD6D01002063010020620100201C
:102650001C2200207C010020740100207047000033
:102660002DE9F04F85B081468A4693461C46DDE948
:102670000F78129D002003903F2C03D92A2005B02B
:10268000BDE8F08FFDF7E4FD03902248007820B10B
:102690000398FDF7E1FD3C20F1E71F4850F82400C6
:1026A00088BB01201C4941F824000398FDF7D4FDA4
:1026B0002A464146384600F03DFF2B465A465146D1
:1026C000484600F071F804901198CDE90080029519
:1026D0003A4620460E9B049900F076FE064636B92F
:1026E0000E48007801280CD100F01EFE09E0FDF72D
:1026F000AFFD03900020084941F824000398FDF73E
:10270000ABFD3046BBE7FFE70398FDF7A5FD2820AA
:10271000B5E70000600100201C2200206D010020B0
:10272000704770472DE9F04105460F4614464FF0BB
:1027300000083F2D05D9FF2D03D02A202070BDE8C9
:10274000F08117B90C202070F9E71448007810B117
:1027500012202070F3E7FDF77BFD8046FF2D03D1AB
:102760000F48006890F836500E4850F825602EB992
:102770004046FDF771FD43202070E0E7012E05D1B2
:102780004046FDF769FD43202070D8E73765404695
:10279000FDF762FD0020207000BFD0E7600100203F
:1027A000740100201C22002070B5044610464FF032
:1027B00080750560051F28462C606FF00106051F17
:1027C00028462E604FF01236051F28462E604FF027
:1027D0000336051F28462E604FF00236051F284697
:1027E0002E607610051F28462E60051F284629609A
:1027F0004FF01136051F28462E604FF01036051F8A
:1028000028462E604FF00936051F28462E604FF0EF
:102810000836051F28462E604FF00736051F28464C
:102820002E604FF00636051F28462E604FF0053605
:10283000051F28462E604FF00436051F28462E60DF
:1028400070BD704770B5054600261748007800B186
:1028500070BD1648007800B1FAE71DB3FDF7F8FC2B
:1028600006461348006890F838401248005D104949
:10287000096891F8391088430E4908550846005DEB
:1028800040B90B48006890F83A100B48007888432C
:10289000094908700648006805633046FDF7DCFC0E
:1028A00000F042FD00BFD3E760010020610100207D
:1028B00074010020650100206401002070B500252E
:1028C00000F05AF8FDF7C4FC054626480068401C95
:1028D000244908602846FDF7BFFC234800780128FA
:1028E0003ED12248046837E0FDF7B2FC0546206B74
:1028F00070B3206B401E2063206B48BB94F83400FB
:1029000010F0370F09D014F8340F00F0C800207011
:1029100001206070A4F1340402E0002084F8350046
:1029200094F8340010F0080F12D104F13804A078A4
:102930000F49097840EA01000D49087020780D49D7
:10294000085C617840EA010014F83819094A5054CB
:1029500064692846FDF780FC94F836003F28C3D10F
:1029600070BD0000840100206D0100208001002066
:10297000640100206501002010B507480088401C54
:1029800005490880084600880A2803D300200880EB
:1029900000F0EEF810BD00009C0100202DE9F05F72
:1029A00006460F4690469946DDE90AAB0C9DB8F104
:1029B000010F09D0B8F1020F0CD127B9832028707C
:1029C0000020BDE8F09F09E01EB982202870002099
:1029D000F7E703E0842028700020F2E700BF1348E7
:1029E000007818B18B2028700020EAE7FFF7ECFC94
:1029F00000F042F904462CB9FFF706FD8620287046
:102A00000020DEE7012084F82500A661E76184F854
:102A10002480C4F80490C4F808A0C4F820B0FFF7DC
:102A2000F3FC002028702046CBE700006001002066
:102A300070B505460C461DB98A202070002070BD77
:102A40002878642803D0892020700020F7E71A48EE
:102A5000007818B18B2020700020F0E7FFF7B4FC5D
:102A600095F82500D8B101280FD002280ED00328F0
:102A70001BD1284600F05EFA284600F01DF9FFF74A
:102A8000C3FC002020700120D9E700BF284600F0D9
:102A900013F9FFF7B9FC002020700120CFE7FFF702
:102AA000B3FC872020700020C9E7FFF7ADFC8D2024
:102AB00020700020C3E700006001002070B50446CC
:102AC0000D461CB98A202870002070BD207864282B
:102AD00003D0892028700020F7E72348007818B138
:102AE0008B2028700020F0E7FFF76EFC94F825009B
:102AF00070B301280DD0022825D003282ED11B4900
:102B000060690968461AFFF77FFC0020287030468C
:102B1000DBE794F8240001280CD0022809D1A06931
:102B200008B9E66900E0A669FFF76EFC002028708E
:102B300006E000BFA669FFF767FC0020287000BF11
:102B400000BF3046C1E7FFF75FFC00202870BCE7FC
:102B5000FFF75AFC872028700020B6E7FFF754FCE7
:102B60008D2028700020B0E7600100208C0100203B
:102B700010B503480068FFF71DFD0446204610BD50
:102B80009401002070B505460C461DB98A202070BE
:102B9000002070BD2878642803D089202070002090
:102BA000F7E71B48007818B18B2020700020F0E771
:102BB000FFF70AFC95F82500E8B1012810D002289B
:102BC0000FD003281DD1284600F0B4F90021284673
:102BD00000F03AF9FFF718FC002020700120D8E738
:102BE00000BF0021284600F02FF9FFF70DFC002060
:102BF00020700120CDE7FFF707FC87202070002020
:102C0000C7E7FFF701FC8D2020700020C1E700001E
:102C10006001002070B505460C461DB98A20207061
:102C2000002070BD2878642803D0892020700020FF
:102C3000F7E71048007818B18B2020700020F0E7EB
:102C4000FFF7C2FB95F8256036B1012E05D0022EA4
:102C500004D0032E06D102E000BF00BF00BF002059
:102C6000207002E08D20207000BF00BFFFF7CCFB7A
:102C70003046D6E7600100200C48006808B9002003
:102C800070470A480168094AC86810600020C86097
:102C9000086107480088401C054A108005480088E4
:102CA000401E044A10800846EAE700009801002010
:102CB0008A01002088010020002180F8251080F87A
:102CC0002410C1614161416081600AA1016200215B
:102CD000016109490968C160074908600749098815
:102CE000491E064A118006490988491C044A118078
:102CF000704700003F000000980100208A0100207A
:102D000088010020F8B54FF42071284800F002FB3C
:102D10004021274800F0FEFA002514E0681C86B226
:102D200005EB8500214901EBC00406EB860001EBB1
:102D3000C00764202070002084F82500E7601DA0F3
:102D40002062681C85B20F2DE8D305EB850017497A
:102D500001EBC00464202070002084F82500E060AE
:102D600014A0206200201449086014490880102033
:102D7000134908800D48134908600120FFF774FBD0
:102D8000114908600020FFF76FFB104908606A4690
:102D90000FA10D480068FFF77FFA6A4611A10B48A2
:102DA0000068FFF779FA00F027F8F8BD542A0020F0
:102DB000D42E00203F0000008C0100208A0100205A
:102DC000880100209801002090010020940100203B
:102DD00075432F4F532D494920546D724C6F636BCF
:102DE0000000000075432F4F532D494920546D7248
:102DF0005369676E616C000000B587B00320002145
:102E000080220A4BCDE90132CDE903104FF6FD7067
:102E10000123074A00900748FFF722FC06AA06A1F3
:102E20000120FFF77FFC07B000BD0000D42C00207C
:102E3000D02E0020B52E000875432F4F532D494941
:102E400020546D720000000070B50B46032580F819
:102E50002550012B05D1154EC569366835444561AD
:102E60000CE085692DB9114EC56936683544456158
:102E700004E00E4E8569366835444561057D05F0F0
:102E800007040B4D05EBC4010D682DB90860002542
:102E9000C56001258D8006E00A680860C260106187
:102EA0008D886D1C8D800025056170BD8C01002012
:102EB000D42E002008B500BF00BF6A4600211A4882
:102EC0000068FFF7FBFAFFF77FFA18480068401C1C
:102ED000164908600846007800F00708144800EB1F
:102EE000C8073C681AE0E6681049606909688842CA
:102EF00013D1204600F01EF894F82400022804D1D3
:102F000001212046FFF7A0FF02E0022084F82500FF
:102F1000656815B12046A168A8473446002CE2D167
:102F2000FFF772FAC9E70000940100208C0100202D
:102F3000D42E002030B5057D05F007040D4D05EBBE
:102F4000C4031D68854205D1C168196039B10025E7
:102F50000D6104E00169C268CA6002B11161012516
:102F600080F825500025C56005619D886D1E9D80F7
:102F700030BD0000D42E00202DE9F04F05460F464D
:102F800090469946A87A1D490E5C05F10B00805DBC
:102F900011F800B00BEBC60000F0FF0A184850F81B
:102FA0002A40002004F12404E0602760207C20EA0D
:102FB0000800207484F81190207CA4F1240410F0FF
:102FC000080F0DD194F83A000E49097808430D49CD
:102FD00008700D48805D94F8391008430A498855F7
:102FE0002946204600F012F8206A20B12046216AC6
:102FF00000F021F8E5615046BDE8F08F83590008E4
:103000001C220020640100206501002010B590F80A
:10301000382001F10B039B5C90F83940A34301F188
:103020000B04A35423469B5C23B98B7A90F83A4057
:10303000A3438B7210BDF0B5024612F8384F957855
:103040005678A2F138020B4618680FE000F10B0722
:103050003F5DB74300F10B0C0CF8047067463F5D11
:1030600017B9877AAF4387721B1D18680028EDD106
:10307000F0BD000010B51B4A1268D061194A1268F1
:1030800092F8383000F10B02D25C164B1B6893F8B3
:1030900039301A43134B1B6893F8384000F10B0387
:1030A0001A55827A0F4B1B6893F83A301A43827292
:1030B0000C4A126892F838100B4A525C094B1B6894
:1030C00093F839309A43084B5A541A46525C42B925
:1030D000044A126892F83A30044A12789A43034B31
:1030E0001A7010BD740100206501002064010020E9
:1030F000014600228A72002005E0002301F10B0244
:103100001354421CD0B20828F7D370472DE9F04180
:103110004FF40071104800F0FDF800250DE0681C28
:1031200086B20D4800EB051400EB06170020207056
:1031300067600AA0E060681C85B21F2DEFD30648C7
:1031400000EB051400202070606004A0E0600248DD
:1031500003490860BDE8F0811C1E00203F0000000C
:103160005C01002070B54FF44071134800F0D2F8B4
:10317000002411E0601C85B204EB44000E4901EB11
:10318000C00305EB450001EBC006002018705E602F
:103190000AA05861601C84B21F2CEBD304EB4400DE
:1031A000054901EBC00300201870586003A0586166
:1031B00008460349086070BD1C1B00203F0000004A
:1031C0005801002000200749086007490870074996
:1031D00008700749087007490870074908600749DF
:1031E0000860704784010020600100206101002018
:1031F0006E0100206D0100205401002070010020AC
:1032000000210A4A1170002004E00021084A1154EC
:10321000411CC8B20828F8D30021064A1170064A9A
:103220001170064A1160064A11607047640100205F
:103230006501002062010020630100207C01002064
:103240007401002070B54FF4E761194800F062F88E
:103250004FF48071174800F05DF8002413E0601C03
:10326000C5B204EB440000EBC400114901EBC003FC
:1032700005EB450000EBC50001EBC0065E610EA04A
:103280001865601CC4B2142CE9D304EB440000EBB5
:10329000C400074901EBC0030020586106A018656F
:1032A00000200649086002480549086070BD00001A
:1032B0001C2300201C2200203F0000008001002071
:1032C0007801002000B587B00320002180220A4B3E
:1032D000CDE90132CDE903104FF6FF703F23074AD5
:1032E00000900748FFF7BCF906AA06A13F20FFF7A8
:1032F00019FA07B000BD00001C2000201822002091
:103300000D35000875432F4F532D49492049646CF2
:103310006500000004E0002200F8012B4A1E91B273
:103320000029F8D17047000010B50024FCF790FF89
:10333000044613480078F8B912480078E0B900F064
:103340002DF811481149097850F8210010490860FA
:103350000E4800780F49097888420DD00C48006863
:10336000C06B401C0A490968C8630B480068401CD0
:1033700009490860FCF783FF2046FCF76DFF10BD8C
:1033800060010020610100201C2200206301002058
:103390007C01002062010020540100200649074AF8
:1033A0001278885C0649095C034A515C01EBC00154
:1033B000044A11707047000083590008640100201E
:1033C00065010020630100202DE9F84F05460F46F6
:1033D00090469946DDE90AAB00200090FCF738FFE3
:1033E000009043480468002C7CD004F11C0454F87D
:1033F000080C3F4908600098FCF72EFF44F81C7C3D
:10340000A576002020766076606144F818BC44F808
:1034100010AC44F8148C0C9824F80C0C24F80A9C7A
:103420000020E077E810207705F00700E076217FA4
:1034300001208840A077E17E01208840607700204D
:1034400020606060E060A0602062A0626062E06274
:10345000206328A06063A4F11C044FF0000606E07E
:10346000002104F1540040F82610701CC6B2002E52
:10347000F6D02046FFF7F2F82046FFF751F9FCF7A7
:10348000E7FE00901C4840F825401C480068606139
:103490000020A0611948006810B1184800688461D4
:1034A0001648046004F13804A0781549097840EA08
:1034B00001001349087020781249085C617840EADD
:1034C000010014F838190F4A50540F48007800F1E1
:1034D00001000D4908700098FCF7BEFE0020BDE811
:1034E000F88FFFE70098FCF7B7FE4220F7E70000EF
:1034F000780100203F0000001C22002080010020F5
:1035000064010020650100206E010020002400BF3E
:1035100000BFFCF79DFE044605480068401C0449B6
:1035200008602046FCF798FEFFF7FBF8F1E7000083
:103530007001002012F0010F08D012F0020F05D028
:1035400002E0491E002308C00029FAD1704700009C
:1035500010B511480068047A022C01D0042C01D166
:10356000082412E0032C01D0052C05D1FDF78AFEBA
:1035700009480068047A08E0072C05D10749096862
:10358000C8688047082400E00824034909680C72D1
:1035900000F01AF810BD0000A8010020AC010020C6
:1035A000F0B5561C7510074E06EB41042B4605E09E
:1035B00034F8047B20F8017B401C5B1E002BF7D104
:1035C000F0BD00000060004010B50D4890F82C10D0
:1035D000002000F0FBF90B480068007A082805D1AC
:1035E0004002094908801020084908800548006801
:1035F000007A092801D1012010BD0020FCE700005D
:1036000098000020A8010020B8010020BA01002085
:1036100010B5012001F0A6FB01240B480460002036
:103620000A49088008460088074908600020091DEB
:1036300008604FF4E05005490880084600880249B8
:103640000860002010BD0000405C0040B201002076
:1036500001460020034A506820F44040084350606F
:10366000704700000010024029B1064A5269024327
:10367000044B5A6104E0034A52698243014B5A6188
:10368000704700000010024029B1064AD269024387
:10369000044BDA6104E0034AD2698243014BDA61E8
:1036A000704700000010024029B1064A1269024327
:1036B000044B1A6104E0034A12698243014B1A6108
:1036C000704700000010024029B1064A9269024387
:1036D000044B9A6104E0034A92698243014B9A6168
:1036E000704700000010024029B1064AD268024328
:1036F000044BDA6004E0034AD2688243014BDA608B
:10370000704700000010024030B500210022002464
:1037100000232D4D6D6805F00C0121B1042905D061
:10372000082923D105E0294D056022E0274D0560D9
:103730001FE0254D6D6805F47012234D6D6805F48A
:103740008034022505EB92421CB9214D554305609A
:103750000BE01D4D6D6815F4003F03D01C4D554323
:10376000056002E0194D5543056002E0174D056004
:1037700000BF00BF144D6D6805F0F0010909154D3B
:103780006B5C0568DD4045600F4D6D6805F4E061D8
:10379000090A104D6B5C4568DD4085600A4D6D6817
:1037A00005F46051C90A0B4D6B5C4568DD40C5608E
:1037B000054D6D6805F44041890B074D6B5CC5688C
:1037C000B5FBF3F5056130BD0010024000127A0030
:1037D00000093D003C0100204C0100200149086027
:1037E00070470000D800424270B504460D461646A8
:1037F000012C14D101021548FEF783FB32462946FD
:103800001348FDF775F900BF1148FDF75BF9002873
:10381000FAD04FF480710D48FEF771FB14E0022CD2
:1038200012D110210948FEF76CFB3246294609489F
:10383000FDF75EF900BF0748FDF744F90028FAD00C
:1038400010210248FEF75BFB70BD0000000801403C
:1038500070180020C418002010B50B460021054C3C
:10386000204403E010F8014B5C54491C9142F9DB01
:1038700010BD000000F8010870B50546072D01D005
:103880002748057026480078082841D2DFE800F074
:10389000040A1016212E414200F046F80620204965
:1038A00008703BE000F040F804201D49087035E046
:1038B00002201B494870032008702FE01848407808
:1038C000401E174948700846407808B9042008701F
:1038D00024E01448006884B244F0100411480460E5
:1038E00005200F4908700A20487017E00C484078FE
:1038F000401E0B4948700846407840B909480068A6
:1039000084B224F01004074804600620087005E023
:1039100000BF00BF06200249087000BF00BF70BD95
:1039200039010020405C004010B50748006884B2AF
:1039300024F0040404480460FEF78CFB4FF43F407D
:103940000149086010BD0000405C00407047000065
:103950004FF6F8710140014A11607047505C004019
:1039600030B501460E4B1A78002010E0C3B20D4C62
:1039700054F8233048F68F74234048F280042343E0
:10398000C4B22343C4B2074D45F82430401C9042D2
:10399000ECD341F08003034C4C34236030BD000075
:1039A00094000020005C004010B54A105300054A06
:1039B000126892B202EBC002121D034C44F812309E
:1039C00010BD0000505C00400060004010B5024691
:1039D0000F48006880B200EBC200801D0D4C04EB64
:1039E00040033E290BDD481111F01F0F01D1441E89
:1039F000A0B24FF4004444EA80241C6007E0481061
:103A000011F0010F01D0441CA0B284021C6010BD53
:103A1000505C00400060004010B50C4B53F8203063
:103A20004BF68F7403EA040211F4805F01D082F434
:103A3000805211F4005F01D082F4005242F400433E
:103A400043F08003014C44F8203010BD005C00407E
:103A5000094A52F820204BF68F7302EA030181F4E1
:103A6000805181F4005141F4004242F08002024B47
:103A700043F8202070470000005C004010B54A1059
:103A80005300044A126892B202EBC002024C44F89E
:103A9000123010BD505C004000600040044A1268C3
:103AA00092B202EBC002921C024B43F81210704714
:103AB000505C00400060004010B50C4B53F82030C3
:103AC00048F6BF7403EA040211F0100F01D082F02F
:103AD000100211F0200F01D082F0200242F40043C6
:103AE00043F08003014C44F8203010BD005C0040DE
:103AF000054A52F8202048F68F131A400A43024B19
:103B000043F8202070470000005C004010B500F032
:103B100001F810BD0CB500200190009034480068F9
:103B200040F480303249086000BF3148006800F43A
:103B3000003000900198401C0190009820B9019835
:103B4000A0F57F41FE39F0D12948006810F4003F0C
:103B500002D00120009001E0002000900098012890
:103B600043D12448006840F010002249086008460C
:103B7000006820F0030008600846006840F002007A
:103B800008601B4840681A49486008464068486019
:103B90000846406840F4806048600846406820F469
:103BA0007C1048600846406840F4E81048600846C9
:103BB000006840F08070086000BF0D48006810F099
:103BC000007FFAD00A48406820F0030008494860A6
:103BD0000846406840F00200486000BF0448406862
:103BE00000F00C000828F9D101E000BFFEE70CBD91
:103BF0000010024000200240704710B50020FFF77F
:103C0000EDFD0121C805FFF73FFD10BD38B50124CA
:103C10002948006880B2001D284931F8100080B2A0
:103C200001EB4000009026480068007A092832D055
:103C3000009800782249096808700098401C00909C
:103C4000009800781E49096848700098401C009050
:103C5000009800EB44000090009931F8020B0091AD
:103C6000FCF73DFD164909684880009800EB4400C8
:103C70000090009931F8020B0091FCF730FD1049DB
:103C800009688880009800EB440000900098008844
:103C90000B490968C8800120094909680872084869
:103CA0000068C08810B9FEF757FA01E0FDF748FB3D
:103CB000FFF78AFC38BD0000505C00400060004007
:103CC000A80100202DE9F0474B480068007800F07B
:103CD0007F08B8F1000F0AD147480068407A00F029
:103CE000DF004549096848720020BDE8F087B8F157
:103CF000020F7ED140480068408818B93E480068ED
:103D0000007908B10220F0E7DFF8F0903A48006847
:103D1000477927F080052C4637480068407910F035
:103D2000800F05D0364850F8240000F0300604E03B
:103D3000334850F8240000F4405699F80000A84297
:103D400004D91EB12C480068807A08B90220CCE75B
:103D500017F0800F0ED02A4850F8240000F03000F1
:103D600010283FD1E0B2FCF70BFEE0B23021FFF7A4
:103D7000A3FE37E0224850F8240000F44050B0F58C
:103D8000805F2FD1C4B91F4A92F82C10E0B2FFF720
:103D90001DFE1B4951F824104BF68F7201EA0200F8
:103DA00080F4805080F4005040F4004141F08001E4
:103DB000134A42F8241015E0E0B2FCF7CBFD10499D
:103DC00051F824104BF68F7201EA020080F4805003
:103DD00080F4005040F4004141F08001084A42F86C
:103DE000241000BF084909684869804700207CE723
:103DF000FFE700BF022078E7A80100209400002020
:103E0000005C004098000020B401002010B504467A
:103E10002CB90120064909680882002010BD054917
:103E2000096808688047024800680A30F6E7000021
:103E3000A8010020B401002010B502460648006821
:103E4000438A32B98888C01A034C24682082002033
:103E500010BD08681844FBE7A801002010B504460F
:103E60002CB90120064909680882002010BD0549C7
:103E7000096888688047024800680C30F6E700004F
:103E8000A8010020B401002010B504462CB902207E
:103E9000374909680882002010BD00203549088094
:103EA00033480068007810F07F0F23D1304909684B
:103EB000487A10F0200F06D02E49097841F002010F
:103EC0002C4A117005E02B49097801F0FD01294ABF
:103ED000117010F0400F06D02649097841F0010119
:103EE000244A117005E02349097801F0FE01214AB6
:103EF000117036E01E480068007800F07F0001284D
:103F000001D11C48C8E71A480068007800F07F001B
:103F1000022824D1164A1268517901F00F0011F0DD
:103F2000800F0DD0144A52F8202002F03002102ADF
:103F300014D1104A127842F001020E4B1A700DE0B3
:103F40000D4A52F8202002F44052B2F5805F05D1AC
:103F5000084A127842F00102064B1A7001E0002074
:103F60009AE70649096808698047024894E7000013
:103F7000A8010020A0010020005C0040B401002046
:103F800010B50E480068C0780D494978884213DCA6
:103F90000A480068807878B908480068808858B96D
:103FA00006480068C07805490968887205490968AB
:103FB00048688047002010BD0220FCE7A8010020CF
:103FC00094000020B401002010B507480068407A32
:103FD00040F0200004490968487204490968C8692A
:103FE0008047002010BD0000A8010020B40100207F
:103FF0002DE9F04128480068467926F080073C46C4
:1040000025480068407910F0800F05D0234850F80B
:10401000240000F0300504E0204850F8240000F4AB
:1040200040551F480078A04208D91B4800684088C6
:1040300020B91DB118480068807A10B90220BDE887
:10404000F08116F0800F10D0144951F8241048F672
:10405000BF7201EA020080F0100040F4004141F01C
:1040600080010E4A42F8241010E00C4951F8241047
:104070004BF68F7201EA020080F4805040F4004158
:1040800041F08001054A42F8241000BF0549096843
:10409000886980470020D2E7A8010020005C00402A
:1040A00094000020B401002010B5174B1B68D9788C
:1040B000154B1B685879154B1B689A699047044645
:1040C00011480068807AE8B13CB90F48006800796F
:1040D00018B90D480068807808B1022010BD8CB96D
:1040E0000B490968C8688047074800684079064955
:1040F0000968C87204480068C078034909680873F1
:104100000020EBE70220E9E7A8010020AC01002035
:10411000B401002010B504460021A06AFCF75CFF42
:10412000216BA06A41600121A06AFCF755FF10BD18
:1041300070B504460E461546002D0EDD0021E06ADE
:10414000FCF74AFF2A463146E06BFCF7D3F8E06AF9
:1041500045600121E06AFCF73FFF70BD10B50848DB
:10416000006884B244F0080405480460006884B222
:1041700044F0040402480460FDF7ACFC10BD0000EC
:10418000405C004010B5FCF763F804460648007830
:10419000401C054908702046FCF75EF8FEF78EFBD0
:1041A000FEF7CAF810BD00006001002010B51048ED
:1041B000006840F001000E490860084640680D495B
:1041C00008400B494860084600680B490840084908
:1041D00008600846006820F48020086008464068AF
:1041E00020F4FE00486000208860FFF78FFC10BDBF
:1041F000001002400000FFF8FFFFF6FE21B1028828
:1042000042F08002028004E002884FF67F731A4079
:104210000280704730B5002301248C40A3B2048C87
:104220009C430484048C02FA01F5ADB22C4304844F
:1042300030BD21B1028842F00102028004E0028810
:104240004FF6FE731A4002807047000010B5044616
:104250006848844208D10121C014FFF745FA0021C3
:10426000E014FFF741FAC4E0B4F1804F08D1012116
:104270000846FFF719FA00210120FFF715FAB8E008
:104280005D48844208D101210220FFF70DFA002188
:104290000220FFF709FAACE05848844208D1012116
:1042A0000420FFF701FA00210420FFF7FDF9A0E048
:1042B0005348844208D101210820FFF7F5F9002175
:1042C0000820FFF7F1F994E04E48844208D101211B
:1042D0001020FFF7E9F900211020FFF7E5F988E049
:1042E0004948844208D101212020FFF7DDF900214F
:1042F0002020FFF7D9F97CE04448844208D101210D
:104300004014FFF7F1F900216014FFF7EDF970E0B8
:104310003F48844209D10121C804FFF7E5F9002193
:104320004FF40020FFF7E0F963E03A48844209D1F6
:1043300001210805FFF7D8F900214FF48010FFF79D
:10434000D3F956E03448844209D101214805FFF7EA
:10435000CBF900214FF40010FFF7C6F949E02F48D0
:10436000844208D101214020FFF79EF9002140201E
:10437000FFF79AF93DE02A48844208D101218020C4
:10438000FFF792F900218020FFF78EF931E02548F0
:10439000844208D101218015FFF786F90021A0157C
:1043A000FFF782F925E02048844209D10121080461
:1043B000FFF79AF900214FF48030FFF795F918E0E4
:1043C0001A48844209D101214804FFF78DF90021E0
:1043D0004FF40030FFF788F90BE01548844208D10C
:1043E00001218804FFF780F900214FF48020FFF7B6
:1043F0007BF910BD002C0140000400400008004083
:10440000000C004000100040001400400034014047
:10441000004C014000500140005401400018004091
:10442000001C0040002000400040014000440140CA
:104430000048014070B5002400220023058C4FF68F
:10444000EF7635400584028C8388048B48F6FF752F
:104450002C404FF6FF452C400D884FF6FF7606EABC
:1044600005252C434FF6DF752A400D8906EA051510
:104470002A434D8806EA05152A43154DA84202D065
:10448000144DA8421DD14FF67F752A404D894FF635
:10449000FF7606EA05152A434FF6BF752A408D8838
:1044A00006EA05152A434FF6FF352B404FF2FF75FC
:1044B0002B408D8906EA85052B43CD8906EA8505C3
:1044C0002B4383800483CD880587028470BD000060
:1044D000002C0140003401400A460021018B4FF2BC
:1044E000FF7319404FF6FF7303EA02231943018358
:1044F0007047018770470000002202881D4B9842D8
:104500000ED01D4B98420BD0B0F1804F08D01B4B02
:10451000984205D01A4B984202D01A4B984204D1C7
:104520004FF68F731A404B881A43174B984207D0A7
:10453000164B984204D04FF6FF431A40CB881A43DB
:1045400002808B8883850B8803850A4B98420BD0A9
:10455000094B984208D00E4B984205D00D4B98421B
:1045600002D00D4B984201D10B7A0386012383823E
:1045700070470000002C014000340140000400405E
:1045800000080040000C00400010004000140040F3
:10459000004001400044014000480140AEB045F6F3
:1045A000A520ADF8040002214FF4E13001F0A0F89D
:1045B00001F0AEF8DAE000241FE000202D9016E0B4
:1045C000BDF8B400C0EBC000694901EB400030F811
:1045D000140004EB840106AA02EB8101BDF8B420AB
:1045E00021F81200BDF8B400401C80B22D90BDF837
:1045F000B4000A28E4DB601C84B2072CDDDB002455
:104600000BE004EB840106AA02EB810000F068FED7
:1046100029A921F81400601C84B2072CF1DB0024C6
:1046200008E029A830F81400401029A921F8140046
:10463000601C84B2062CF4DB002411E0611CC8B2BB
:1046400001222DA901F048F8012807D129A830F846
:104650001400C0F5006029A921F81400601C84B280
:10466000062CEBDB01208DF806000E208DF80700EC
:1046700029A807C802AB07C34FF400513D48FDF716
:1046800035FC18B901203C49087012E04FF4804114
:104690003848FDF72BFC18B902203749087008E0AC
:1046A0004FF400413348FDF721FC10B90320324993
:1046B000087000208DF8140000218DF815109DF869
:1046C00014002D49097840EA8110C0B28DF8140019
:1046D0009DF814002849497840EA0110C0B28DF8CD
:1046E00014009DF814002449897840EA8100C0B282
:1046F0008DF814009DF814001F49C97808438DF8FF
:1047000014009DF815001C49097940EA8110C1B2D6
:104710008DF815109DF815001749497940EA0110E8
:10472000C1B28DF81510122101A800F007FE8DF816
:104730001600132201A90120FFF756F801220621D5
:104740000D48FBF71CFEBDF8B0000C490880084678
:104750000088B0F50C6F03DA00200949087002E008
:104760000120074908700520FEF76CF823E70000D8
:104770007A190020000C01400200002000000020F7
:104780003400002000F09CFE00214FF4615000F046
:1047900049FF00F0E5FD72E039480078012808D1B2
:1047A000012204213748FFF735FD00203449087005
:1047B00004E0002204213348FFF72CFD3248007842
:1047C00040B140213148FDF79AFB80212F48FDF789
:1047D00098FB07E080212D48FDF791FB40212B48F5
:1047E000FDF78FFB2A48007840B110212748FDF7DC
:1047F00086FB20212548FDF784FB07E02021234884
:10480000FDF77DFB10212148FDF77BFB01211F48AF
:10481000FDF76CFB78B902211C48FDF767FB50B12E
:104820004FF400711948FDF76AFB4FF48071174887
:10483000FDF767FB1FE017480078012809D1010246
:104840001248FDF75CFB4FF400711048FDF759FB6F
:1048500011E04FF400710D48FDF751FB4FF48071EA
:104860000A48FDF74EFB3220FDF7ECFF4FF40071D4
:104870000648FDF746FB4FF47A70FDF7E3FF8BE740
:10488000350000200004004032000020000C0140F0
:10489000330000203400002086B0032000213222A3
:1048A000204BCDE90132CDE903100C2003461D4A0F
:1048B000C43200901C48FDF7D3FE0320002164227F
:1048C0001A4BCDE90132CDE9031009200346184AFD
:1048D00000901848FDF7C4FE032000216422164B07
:1048E000CDE90132CDE903100B200346134A0090B5
:1048F0001348FDF7B5FE032000214FF4FA72114B67
:10490000CDE90132CDE90310072003460E4A00909D
:104910000E48FDF7A5FE03E04FF47A70FDF792FF15
:10492000FAE700005C03002085470008240400200B
:10493000B00500209D45000844070020D008002055
:10494000F9490008D4080020A010002051490008AF
:104950001CB524A103C9CDE9000142E02348007839
:10496000012806D101222149491C132000F09AFF99
:1049700031E01E480078022804D19DF801008DF82E
:10498000010028E019480078032816D101221749B0
:10499000491C002000F086FFE8B1012080F3138855
:1049A00000BF00BF1248006800F4E06011490843EE
:1049B000001D0F49086000BF0DE00C480078042876
:1049C00009D00A480078052805D106220749491C64
:1049D000012000F067FF0020044908706420FDF703
:1049E00031FFBBE70102030405060708DA1A0020BD
:1049F0000CED00E00000FA0503E04FF47A70FDF7DB
:104A000021FFFAE770B5002400BFFBF721FC054643
:104A10000F480078401C0E4908702846FBF71CFC24
:104A200040F224410B4800F0E2F870B109480C3024
:104A30000088C4B207480088C4B20648001D008838
:104A4000C4B20124044800F0BEFAFDF775FC70BD45
:104A500060010020003801407018002070B500246B
:104A600000BFFBF7F5FB05460F480078401C0E49D8
:104A700008702846FBF7F0FB40F224410B4800F099
:104A8000B6F870B109480C300088C4B207480088F5
:104A9000C4B20648001D0088C4B20124044800F0D6
:104AA00092FAFDF749FC70BD60010020004400400F
:104AB000C418002070B5002400BFFBF7C9FB0546F1
:104AC0000F480078401C0E4908702846FBF7C4FBCD
:104AD00040F224410B4800F08AF870B109480C30CC
:104AE0000088C4B207480088C4B20648001D008888
:104AF000C4B20124044800F066FAFDF71DFC70BD45
:104B000060010020004800401819002021B182896E
:104B100042F40052828104E082894DF6FF731A400C
:104B2000828170471AB1838A0B43838202E0838AB1
:104B30008B4383827047000010B5044620488442AE
:104B400009D101218803FEF7CFFD00214FF48040F9
:104B5000FEF7CAFD32E01B48844209D10121480416
:104B6000FEF7A2FD00214FF40030FEF79DFD25E089
:104B70001548844209D101218804FEF795FD0021E2
:104B80004FF48020FEF790FD18E01048844209D1D0
:104B90000121C804FEF788FD00214FF40020FEF734
:104BA00083FD0BE00A48844208D101210805FEF785
:104BB0007BFD00214FF48010FEF776FD10BD000054
:104BC000003801400044004000480040004C0040D4
:104BD0000050004002460020B1F5007F00D100BF28
:104BE00013880B4201D0012000E00020704770B50F
:104BF00002460024002300250020A1F510666A3E2D
:104C000000D100BFC1F3421501F01F03012606FACF
:104C100003F3012D02D19689334006E0022D02D123
:104C2000168A334001E0968A33400C12012606FAB8
:104C300004F41688344013B10CB1012000E00020C8
:104C400070BDF0B503460024002600250020A1F524
:104C500010676A3F00D100BF1846C1F3421401F04B
:104C60001F06012707FA06F5012C01D10C3004E0DC
:104C7000022C01D1103000E014301AB107682F4324
:104C8000076002E00768AF430760F0BD2DE9F04719
:104C900086B005460E460024A24600BFA146002766
:104CA000B08900B100BF2F462C8A4CF6FF7004403B
:104CB000F08804432C82AC894EF6F3100440B0888F
:104CC00031890843718908430443AC81AC8A4FF6AB
:104CD000FF400440B0890443AC8201A8FEF714FDF4
:104CE0001F48874202D1DDF810A001E0DDF80CA0DA
:104CF000A88910F4004F08D00AEBCA0000EB0A1094
:104D000031684900B0FBF1F807E00AEBCA0000EB9C
:104D10000A1031688900B0FBF1F86420B8FBF0F0AC
:104D200004012009642101FB1089A88910F4004FB7
:104D300008D0322000EBC900B0FBF1F000F0070012
:104D4000044308E0322000EB09106421B0FBF1F0CD
:104D500000F00F0004432C8106B0BDE8F08700008E
:104D6000003801407047000008B500214FF40000F2
:104D7000FEF78AFC01210420FEF7A6FC4FF48050C8
:104D8000ADF8000014208DF8030002208DF8020019
:104D900069460648FCF7D8FF4FF480510348FDF7F9
:104DA000AEF8642000F062FD08BD0000000801407C
:104DB00008B501210420FEF787FC4FF48050ADF8C0
:104DC000000014208DF8030002208DF802006946CF
:104DD0000748FCF7B9FF4FF480510548FDF791F8FB
:104DE000642000F043FD0248FCF72AFF08BD0000E4
:104DF0000008014010B50848084908600220096809
:104E000008720748074908600748084908600549CB
:104E100009680868804710BD142F0020A8010020F1
:104E200098000020AC010020C8000020B401002040
:104E300008B54FF4A060FDF771F914208DF800005B
:104E400001208DF8010000208DF8020001208DF86E
:104E500003006846FDF728F908BD000010B5374883
:104E60000068374908800846008800F4004035494A
:104E70000988084201D0FBF739FC3148008800F46A
:104E8000806030490988084206D04FF6FF302B4930
:104E900008602D49486880472948008800F4005080
:104EA00028490988084203D04DF6FF70234908605D
:104EB0002348008800F4805022490988084206D01F
:104EC0004EF6FF701D4908600020FEF7D5FC1C4817
:104ED000008800F400601B49098808420CD01B4878
:104EE000007810B1FFF73AF902E00220FEF7C4FCA7
:104EF0004FF2FF70114908601148008800F40070FB
:104F000010490988084208D04FF6FF500B49086045
:104F10000F480078401C0E4908700948008800F4CA
:104F2000807008490988084206D04FF6FF6003499F
:104F300008600720FEF7A0FC10BD0000445C0040A4
:104F400090000020B20100209800002038010020CD
:104F50005400002010B510210448FCF7D0FF202198
:104F60000248FCF7CEFFFFF779FF10BD000C0140AF
:104F70000020064908604FF43F4005490880084674
:104F800000880249091F086000207047445C004007
:104F9000B20100202DE9F04104460E46002504F040
:104FA0007F00FCF7C1FF054604F07F00FCF7ACFF73
:104FB00007462A4639463046FEF7F2FA2846BDE84B
:104FC000F08100BFFEE72DE9F04705464FF00008ED
:104FD000C146A86AFCF7B2F88046286B404505D167
:104FE0002846FFF797F80020BDE8F087288EA0EB51
:104FF00008001FFA80F9AF6B05F14404002618E0A1
:10500000A089401C80B2A081E18988420EDA17F89D
:10501000010B2289216888542089401C80B220819C
:10502000E189884203DB0020208100E003E0701C5E
:1050300086B24E45E4DB00BF2A8E91B2A86AFCF727
:10504000BEF82846FFF766F84846CDE710B592B09F
:1050500004462068FFF770FDA06AFBF7C9FFE06A0D
:10506000FBF7C6FF70492068884204D10121022065
:10507000FEF7FAFA03E001210846FEF7F5FAA16807
:1050800041F001000121FEF71FFB684920688842BA
:1050900004D10121E069FEF717FB03E00121E0697B
:1050A000FEF7F2FA18208DF80B00E089ADF8080041
:1050B00002208DF80A0002A96068FCF745FE042072
:1050C0008DF80B00A089ADF8080002A96068FCF714
:1050D0003BFE4FF4A0610020554A10684FF2FF02DA
:1050E0001040544A024342EA0120514A106000BF76
:1050F00094F925000121FDF71BF894F92500FCF730
:10510000C6FF94F924000221FDF712F894F9240057
:10511000FCF7BDFF2020005D8DF8040001208DF814
:1051200005008DF806008DF8070001A8FCF7BCFF0C
:10513000E06AFBF75DFFA0690390E06B0490606B91
:1051400006901020059000200790802008900020F5
:1051500009900A900B904FF440500C9000200D9055
:1051600003A9E06AFCF70DF801220221E06AFBF7CF
:10517000FFFFA06AFBF73CFFA0690390A06B0490BF
:1051800000200590206B069000200790802008905A
:10519000002009900A900B904FF440500C90002092
:1051A0000D9003A9A06AFBF7ECFF01220221A06A7F
:1051B000FBF7DEFF20690E90A08A20B14FF48050EB
:1051C000ADF83C0002E00020ADF83C00E08AADF80C
:1051D0003E00A08AADF840000020ADF844000C204D
:1051E000ADF842000EA92068FFF750FD0122802192
:1051F0002068FFF797FC012240212068FFF792FC0E
:105200000021E06AFBF7E8FE0021A06AFBF7E4FE5C
:1052100001212068FFF77AFC012240F22441206836
:10522000FFF70FFD12B010BD004C004000380140E8
:105230000CED00E00000FA05F0B5144604F1010C95
:105240004FEA6C07DFF824C00CEB41033D460AE04F
:105250000678401C90F800C046EA0C2223F8022B86
:105260009B1C401C6D1E002DF2D1F0BD0060004063
:105270002DE9F04107460C4615462846E91705EB8F
:105280009171C1F38705FCF7B1FC3520FCF728FCD0
:105290001148FCF72BFC1149087013E014F8016B5E
:1052A00014F8011B46EA012614F8011B46EA0146E0
:1052B00014F8011B46EA0166074978183146FCF7E5
:1052C0005FFC3F1D2800A5F10101CDB2E6D1FCF73E
:1052D0004DFCBDE8F081000000F801083B01002012
:1052E00070B50246002132F8113032F811400DE05D
:1052F00032F811509D4201DA32F8113032F8115073
:10530000A54201DD32F811404D1CE9B20A29EFDB5C
:105310000021002005E032F811500544A8B24D1CD0
:10532000E9B20A29F7DB1D19451BA8B20546C617C5
:1053300000EB5676F01020F4704070BD024600205D
:105340000AE013780344D8B21378834201DD431C8A
:10535000D8B2521C4B1ED9B20029F2DC70470000B3
:105360001FB501211D20FEF7AFF94FF40040ADF845
:105370000C0048208DF80F0002208DF80E0003A9C4
:105380004B48FCF7E1FC4EF20400ADF80C0048205D
:105390008DF80F0002208DF80E0003A94548FCF798
:1053A000D3FC4FF4C040ADF80C0048208DF80F003E
:1053B00002208DF80E0003A93F48FCF7C5FC01212F
:1053C0000920FEF781F901213C48FCF747FD082040
:1053D000ADF80C0048208DF80F0002208DF80E006B
:1053E00003A93448FCF7B0FC4FF4E060FCF796FEEC
:1053F00008208DF8000000208DF801008DF80200D3
:1054000001208DF803006846FCF74EFE09208DF858
:10541000000000208DF801008DF8020001208DF8B9
:1054200003006846FCF740FE28208DF800000020AD
:105430008DF801008DF8020001208DF80300684608
:10544000FCF732FE0420FCF7E1FA0820FCF7DEFA54
:105450004FF40050FCF7DAFA4FF48040FCF7D6FA2C
:105460004FF40040FCF7D2FA0F210020FCF74CFC6F
:1054700002210120FCF748FC03210120FCF744FC39
:105480000D210220FCF740FC0E210220FCF73CFC21
:105490004EF20C00019000208DF8080010208DF8CD
:1054A000090001208DF80A0001A8FCF7C9FA1FBD08
:1054B00000080140000C01400010014000023000D3
:1054C00008B501210820FEF7FFF84FF47C70ADF815
:1054D000000010208DF8030002208DF802006946BC
:1054E0001748FCF731FC01210820FEF7EDF80320F6
:1054F000ADF8000004208DF8030002208DF80200B2
:1055000069460F48FCF720FC40210D48FCF7F9FCE8
:1055100010210B48FCF7F5FC4FF480710848FCF7AC
:10552000F0FC80210648FCF7ECFC20210448FCF745
:10553000E8FC4FF400710248FCF7E3FC08BD0000F2
:10554000000C014030B585B0FCF79BFD2C48FCF702
:1055500077FB2C48FCF774FB2B48FCF771FBFCF73E
:1055600064FBFCF7CDFE002080F3108800BFFFF73E
:10557000FBFB4FF47A7000F079F9FFF719FC642017
:1055800000F074F900F084F90320002164221F4B1D
:10559000CDE90132CDE903100F2003461C4A0090EB
:1055A0001C48FDF75DF81C4800684FF47A72B0FBA8
:1055B000F2F1B1F1807F00D31DE021F07F40401E69
:1055C0004FF0E022506150170F22002807DA13072E
:1055D0001D0E124B00F00F04241F1D5503E013078E
:1055E0001C0E0F4B1C5400BF00204FF0E0229061B6
:1055F0000720106100BFFDF70DF8012005B030BD98
:1056000000080140000C014000100140CC010020C6
:1056100058030020994800085001002018ED00E0D0
:1056200000E400E030B589B005460C4601210220B7
:10563000FEF72AF801210520FEF746F88020ADF894
:10564000200018208DF8230003208DF8220008A9DF
:105650001F48FCF779FB1F48FEF7F8FDADF818501E
:10566000ADF814400020ADF81A00ADF816008DF822
:105670001C0005A91748FEF73FFF6020ADF80400A5
:105680000120ADF806000220ADF80C008020ADF836
:105690000A004000ADF8100001A90E48FEF7CAFE4E
:1056A00008210C48FEF718FF01210A48FEF7A6FD65
:1056B00001210848FEF7BDFD01210648FEF719FF4C
:1056C000002204210348FEF7A5FD09B030BD00000B
:1056D000000801400004004070B504460D4616461F
:1056E000324629462046FEF7B7F8012070BD00007B
:1056F00070B504460D4629462046FBF767F94FF47E
:1057000080710248FCF7FBFB70BD000000080140FF
:1057100000B591B001210520FDF7D6FF7F20ADF83F
:10572000400003208DF8420000208DF8430010A9AE
:105730004A48FCF709FB4FF44040FDF789FF01217F
:105740004802FDF7C1FF4648FAF7ECFE00200B9037
:1057500001208DF830008DF831004FF460200D905D
:1057600000200E9007208DF83C000BA93C48FAF76A
:105770001BFF0723012205213948FAF73DFF0723C4
:10578000022206213648FAF737FF072303220121B8
:105790003348FAF731FF0723042202213048FAF791
:1057A0002BFF0723052204212D48FAF725FF0723A5
:1057B000062200212A48FAF71FFF07231A46032171
:1057C0002748FAF719FF01212548FAF79FFE012122
:1057D0002348FAF790FE2248FAF76AFF00BF2048F4
:1057E000FAF7D8FE0028FAD11D48FAF771FF00BF7A
:1057F0001B48FAF7C5FE0028FAD101210846FDF73B
:1058000033FF1848FBF7F4FB15484C30009016485E
:1058100001900020029046200390002004908020F8
:10582000059040000690800007902020089000021C
:10583000099000200A9069460A48FBF7A2FC012162
:105840000748FAF763FE01210648FBF7C5FB012173
:105850000348FAF732FF11B000BD00000008014014
:1058600000240140080002407A190020002106E0CF
:10587000002200E0521CB2F5E15FFBDB491C8142D3
:10588000F6D370470122014B1A7070473500002093
:1058900010B5FEF7B1F9FFF7CBFAFEF7AEF9FFF757
:1058A000A9FA10BD70B590B005460C4616463246B2
:1058B00021462846FFF7DCFC324669462846FDF7BC
:1058C000CBFF9DF800002178884202D1012010B062
:1058D00070BD0020FBE712010002000000408304BD
:1058E000505700020102030109022900010100C012
:1058F0003209040000020300000009211001000128
:105900002228000705810340000A07050103400023
:105910000A06FF000901A1010501190029FF150070
:1059200025FF7508954081020502190029FF150021
:1059300025FF950875409102C0040309042603530E
:105940000054004D006900630072006F0065006C38
:105950000065006300740072006F006E00690063F0
:105960000073002003530054004D00330032002028
:105970000043007500730074006D0020004800496A
:1059800000440000000100020001000300010002C9
:1059900000010004000100020001000300010002F8
:1059A00000010005000100020001000300010002E7
:1059B00000010004000100020001000300010002D8
:1059C00000010006000100020001000300010002C6
:1059D00000010004000100020001000300010002B8
:1059E00000010005000100020001000300010002A7
:1059F0000001000400010002000100030001000298
:105A00000001000700010002000100030001000284
:105A10000001000400010002000100030001000277
:105A20000001000500010002000100030001000266
:105A30000001000400010002000100030001000257
:105A40000001000600010002000100030001000245
:105A50000001000400010002000100030001000237
:105A60000001000500010002000100030001000226
:105A70000001000400010002000100030001000217
:105A800000010000A45A000800000020BC01000032
:105A90006C0100083C5B0008BC010020544D000074
:105AA000C80100080136141A03531254124D123360
:105AB000123212310213301381200A1608040B1817
:105AC000D1151C4123020113890D1408910C1B08E8
:105AD00085081A870413450B1B086D101A55041A04
