:020000040800F2
:10000000F80E002039020008B1020008B30200080F
:10001000B5020008B7020008B9020008000000009D
:10002000000000000000000000000000BB0200080B
:10003000BD02000800000000BF020008C102000865
:10004000530200085302000853020008530200083C
:1000500053020008530200088D02000853020008F2
:10006000C3020008530200085302000853020008AC
:10007000530200085302000853020008530200080C
:1000800053020008530200085302000853020008FC
:1000900079020008530200085302000853020008C6
:1000A00053020008530200085302000853020008DC
:1000B00053020008530200085302000853020008CC
:1000C00053020008530200085302000853020008BC
:1000D00053020008071C00085302000853020008DE
:1000E000530200085302000881020008530200086E
:1000F000530200085302000853020008530200088C
:10010000530200085302000853020008530200087B
:10011000530200085302000853020008530200086B
:10012000530200085302000853020008530200085B
:1001300000F002F800F05FF80AA090E8000C82449A
:100140008344AAF10107DA4501D100F054F8AFF277
:10015000090EBAE80F0013F0010F18BFFB1A43F0A5
:100160000103184748480000684800000A444FF05F
:10017000000C10F8013B13F0070408BF10F8014B06
:100180001D1108BF10F8015B641E05D010F8016B4B
:10019000641E01F8016BF9D113F0080F1EBF10F8AF
:1001A000014BAD1C0C1B09D16D1E58BF01F801CBD2
:1001B000FAD505E014F8016B01F8016B6D1EF9D555
:1001C0009142D6D37047000000230024002500266A
:1001D000103A28BF78C1FBD8520728BF30C148BFAA
:1001E0000B607047782904F04182002070471FB5EA
:1001F0001FBD10B510BD04F082FB1146FFF7F7FFDD
:1002000001F0D0FD04F0A0FB03B4FFF7F2FF03BC44
:1002100001F096FCEFF30980704780F3098870477E
:10022000EFF30880704780F30888704740BA704742
:10023000C0BA704730BF00000948804709480047EE
:10024000FEE7FEE7FEE7FEE7FEE7FEE7FEE7FEE786
:10025000FEE7FEE704480549054A064B70470000E3
:10026000F503000831010008F8080020F80E00200E
:10027000F80A0020F80A002010B503F02FFC10BD8A
:1002800010B54FF4802000F0D8FD10BD10B501204E
:1002900000F0C2FD58B11E480068407A10F0200FEF
:1002A00002D0012004F003F9012000F0C6FD10BDCA
:1002B0007047704770477047704770477047704786
:1002C000704710B5042000F0A7FDE0B1042000F055
:1002D000B4FD04210F4800F06CFA50B94FF480715E
:1002E0000C4800F082FA4FF400710A4800F07BFAE3
:1002F00009E04FF48071074800F075FA4FF400717F
:10030000044800F072FA042000F097FD10BD0000D0
:1003100050000020000C01400CB50020019000901E
:100320006B48006840F480306949086000BF684845
:10033000006800F4003000900198401C0190009883
:1003400018B90198B0F5A06FF1D16148006810F4B8
:10035000003F02D00120009001E0002000900098B2
:10036000012842D15B48006840F0100059490860FC
:100370000846006820F0030008600846006840F066
:100380000200086052484068514948600846406889
:1003900048600846406840F480604860084640680D
:1003A00020F4781048600846406840F4E81048603F
:1003B0000846006840F08070086000BF444800684C
:1003C00010F0007FFAD04248406820F00300404916
:1003D00048600846406840F00200486000BF3C4862
:1003E000406800F00C000828F9D10CBD10B5FFF7EB
:1003F00093FF10BD10B53648006840F00100344945
:100400000860084640683449084031494860084659
:100410000068324908402E4908600846006820F408
:10042000802008600846406820F4FE0048604FF4D1
:100430001F008860FFF7DAFF4FF00060284908606E
:1004400010BD10B5002100200022214B5B6803F095
:100450000C0121B1042906D0082927D107E0214B3E
:10046000214C236026E01F4B1F4C236022E0184BD9
:100470005B6803F47010164B5B680022022303EBE9
:10048000904022B9194B4343174C23600DE0104BA9
:100490005B6813F4003F04D0144B4343124C2360B9
:1004A00003E0104B4343104C236003E00D4B0E4C14
:1004B000236000BF00BF064B5B68C3F303130C4C03
:1004C000E15C094B1B68CB40074C236010BD00006A
:1004D00000100240002002400000FFF8FFFFF6FE7F
:1004E00008ED00E000127A000000002000093D0045
:1004F0000400002031490143314A1160704770B552
:10050000002100230F22C4780CB32D4C246804F47E
:10051000E064C4F5E064210AC1F10403CA404478F0
:1005200004FA03F18478144021430901254C06782C
:10053000A155047804F01F050124AC4005786D1125
:100540004FF0E02606EB8505C5F8004109E0047888
:1005500004F01F050124AC401B4D0678761145F8C8
:10056000264070BD194A0A400243154B1B1F1A60F2
:10057000704739B1124A121D12680243104B1B1DFD
:100580001A6006E00E4A121D126882430C4B1B1DB6
:100590001A607047042808D14FF0E021096941F042
:1005A00004014FF0E022116107E04FF0E0210969FA
:1005B00021F004014FF0E022116170470000FA05BC
:1005C0000CED00E000E400E080E100E080FFFF1FB0
:1005D00010B50446CA48844208D10121042001F024
:1005E00097F80021042001F093F846E0C5488442C2
:1005F00008D10121082001F08BF80021082001F02A
:1006000087F83AE0C048844208D10121102001F067
:100610007FF80021102001F07BF82EE0BB488442D7
:1006200008D10121202001F073F80021202001F0E1
:100630006FF822E0B648844208D10121402001F041
:1006400067F80021402001F063F816E0B1488442C9
:1006500008D10121802001F05BF80021802001F009
:1006600057F80AE0AC48844207D10121801501F017
:100670004FF80021A01501F04BF810BD10B5012175
:10068000084601F045F80021012001F041F810BDB5
:100690002DE9F04102460025002600200023002419
:1006A000002791F803C00CF00F0591F803C01CF06F
:1006B000100F03D091F802C04CEA050591F800C074
:1006C000BCF1000F31D0146800202BE04FF0010C7A
:1006D0000CFA00F3B1F800C00CEA03069E4220D1E8
:1006E00083004FF00F0C0CFA03F7BC4305FA03FC30
:1006F0004CEA040491F803C0BCF1280F06D14FF076
:10070000010C0CFA00FCC2F814C00AE091F803C016
:10071000BCF1480F05D14FF0010C0CFA00FCC2F8F7
:1007200010C0401C0828D1D31460B1F800C0BCF13F
:10073000FF0F34DD546800202EE000F1080C4FF06C
:10074000010808FA0CF3B1F800C00CEA03069E4257
:1007500021D183004FF00F0C0CFA03F7BC4305FACC
:1007600003FC4CEA040491F803C0BCF1280F05D146
:1007700000F1080C08FA0CF8C2F8148091F803C0D4
:10078000BCF1480F07D100F1080C4FF0010808FA3E
:100790000CF8C2F81080401C0828CED35460BDE885
:1007A000F0814FF6FF710180022181700421C17038
:1007B00070470246002093680B4201D0012000E000
:1007C000002070470146886880B2704702460020CA
:1007D000D3680B4201D0012000E0002070470146A1
:1007E000C86880B2704701617047416170470AB1C3
:1007F000016100E041617047C16070474FF4803291
:100800000A4382618161826182698269704702461E
:100810000020424B18684FF68073184040EA0210DF
:1008200008433E4B186070473D49C8617047F0B5BA
:100830000A46002300240021002500F00046B6F1FE
:10084000004F02D1354EF16901E0344E7168C0F3BA
:10085000034583B200F44016B6F5401F08D121F0DD
:1008600070612E4E766826F070662C4F7E6012E026
:1008700000F48016B6F5801F06D1032606FA05F4AB
:10088000A14341F0706106E0460D360103FA06F619
:10089000B14341F0706122B1460D360103FA06F60C
:1008A000314300F00046B6F1004F02D11B4EF1611A
:1008B00001E01A4E7160F0BD30B500228B071C0FAD
:1008C0000F2303FA04F2154B08338C1053F824302D
:1008D0009343124C08348D1044F8253023468C1075
:1008E00053F824308C07240F00FA04F423430B4CF4
:1008F00008348D1044F8253030BD0A49086070472F
:1009000000080140000C01400010014000140140AB
:1009100000180140001C014000200140000001407F
:1009200000002042DC00204210B50446FB4884420F
:1009300009D10121880300F0EBFE00214FF4804033
:1009400000F0E6FE32E0F648844209D10121480475
:1009500000F0EBFE00214FF4003000F0E6FE25E051
:10096000F048844209D10121880400F0DEFE002114
:100970004FF4802000F0D9FE18E0EB48844209D102
:100980000121C80400F0D1FE00214FF4002000F046
:10099000CCFE0BE0E548844208D10121080500F0B7
:1009A000C4FE00214FF4801000F0BFFE10BD2DE901
:1009B000F04786B005460E460024A24600BFA14679
:1009C0000027B08900B100BF2F462C8A4CF6FF707B
:1009D0000440F08804432C82AC894EF6F3100440A6
:1009E000B08831890843718908430443AC81AC8ADB
:1009F0004FF6FF400440B0890443AC8201A800F0E8
:100A000000FEC648874202D1DDF810A001E0DDF803
:100A10000CA0A88910F4004F08D00AEBCA0000EB24
:100A20000A1031684900B0FBF1F807E00AEBCA0090
:100A300000EB0A1031688900B0FBF1F86420B8FBC4
:100A4000F0F004012009642101FB1089A88910F449
:100A5000004F08D0322000EBC900B0FBF1F000F0ED
:100A60000700044308E0322000EB09106421B0FBCA
:100A7000F1F000F00F0004432C8106B0BDE8F087D0
:100A80004FF41651016000218180C18001810C2149
:100A9000418100218181704710B502460020108AF3
:100AA0004FF2FF0318400B884C8823438C88234364
:100AB000CC8823431843108210BD0021018041805F
:100AC0008180C180704721B1828942F400528281C5
:100AD00004E082894DF6FF731A4082817047F0B5B9
:100AE00003460024002600250020A1F510676A3F78
:100AF00000D100BF1846C1F3421401F01F060127C0
:100B000007FA06F5012C01D10C3004E0022C01D1CA
:100B1000103000E014301AB107682F43076002E07C
:100B20000768AF430760F0BD1AB1838A0B43838225
:100B300002E0838A8B4383827047028A4FF6F07308
:100B40001A400282028A0A430282704782894FF267
:100B5000FF731A40828182890A438281704721B1E2
:100B6000828942F00202828104E082894FF6FD739D
:100B70001A4082817047028A4FF6DF731A40028260
:100B8000028A0A430282704721B1028A42F48042FB
:100B9000028204E0028A4BF6FF731A400282704719
:100BA000C1F308028280704701468888C0F30800BC
:100BB0007047818941F0010181817047028BD2B277
:100BC0000283028B42EA012202837047028B02F405
:100BD0007F420283028B0A430283704721B1828ADB
:100BE00042F02002828204E0828A4FF6DF731A40CC
:100BF0008282704721B1828A42F01002828204E030
:100C0000828A4FF6EF731A408282704721B1828A3E
:100C100042F00802828204E0828A4FF6F7731A409B
:100C20008282704721B1828942F40042828103E0CE
:100C30008289C2F30E028281704721B1828A42F416
:100C40000062828204E0828A4FF2FF731A4082823D
:100C50007047828A4FF6FB731A408282828A0A4367
:100C60008282704721B1828A42F00202828204E0CD
:100C7000828A4FF6FD731A40828270470246002036
:100C8000B1F5007F00D100BF13880B4201D00120D5
:100C900000E00020704701F40072B2F5007F00D13F
:100CA00000BFCA430280704770B50246002400238B
:100CB00000250020A1F510666A3E00D100BFC1F3F7
:100CC000421501F01F03012606FA03F3012D02D19C
:100CD0009689334006E0022D02D1168A334001E0A6
:100CE000968A33400C12012606FA04F41688344022
:100CF00013B10CB1012000E0002070BD10B500223E
:100D00000023A1F510646A3C00D100BF0A1201243F
:100D10009440A3B2DC43048010BD000000380140C1
:100D20000044004000480040004C0040005000409B
:100D3000002044490860091D0860091D0860091D5C
:100D4000086041483F4914310860704700213D491F
:100D50008279002A3AD00A46126803689A430B4601
:100D60001A600A1D126803689A430B1D1A60027903
:100D700011440A6803681A430A60324A083212684A
:100D800003689A432F4B08331A601A1D12680368D0
:100D90009A432C4B0C331A604279102A0ED11A1F39
:100DA000126803681A43274B08331A601A1D126829
:100DB00003681A43234B0C331A600DE02149427932
:100DC00011440A6803681A430A6005E00279114475
:100DD0000A6803689A430A60704700210160017144
:100DE0000C21417100218171704716491031096849
:100DF0000143144A10321160704701460020114A25
:100E0000143212680A4201D0012000E0002070472D
:100E10000C49143108607047014600200022094B3C
:100E20001B6803EA0102074B14331B680B4202D014
:100E30000AB1012000E00020704702491431086027
:100E40007047000000040140FFFF0F000146002032
:100E5000FE4A106800F03800084310607047FB49F4
:100E6000096821F00801F94A116011460968014337
:100E700011607047F549096821F01001F34A1160CB
:100E800011460968014311607047F148EF49486015
:100E9000F04848607047EE48EC494860ED484860CB
:100EA0007047EA48006940F08000E84908617047EF
:100EB000E648006940F08000E4490861704704207A
:100EC000E249C96811F0010F01D001200EE0DF49AD
:100ED000C96811F0040F01D0022007E0DB49C9689E
:100EE00011F0100F01D0032000E00420704700B57E
:100EF00002460423FFF7E3FF034603E0FFF7DFFFAB
:100F00000346521E012B01D1002AF7D102B9052355
:100F1000184600BD30B5044604254FF43020FFF7D5
:100F2000E6FF0546042D17D1C848006940F00200CD
:100F3000C649086108464461006940F04000086104
:100F40004FF43020FFF7D3FF0546C048006941F653
:100F5000FD710840BD490861284630BD10B5042424
:100F60004FF43020FFF7C3FF0446042C16D1B748D6
:100F7000006940F00400B54908610846006940F086
:100F8000400008614FF43020FFF7B1FF0446AF483E
:100F9000006941F6FB710840AC490861204610BD6C
:100FA00000B502460423FFF78AFF034603E0FFF77C
:100FB00086FF0346521E012B01D1002AF7D102B948
:100FC0000523184600BD10B504244FF43020FFF768
:100FD000E7FF0446042C16D19C48006940F0040049
:100FE0009A4908610846006940F0400008614FF4E2
:100FF0003020FFF7D5FF04469448006941F6FB71A5
:10100000084092490861204610BD00208F49C969F7
:1010100011F0020F01D0012000E00020704730B530
:10102000A5250424FFF7F1FF00B100254FF430207F
:10103000FFF75DFF0446042C3AD185488349886058
:10104000844888600846006940F02000086108462E
:10105000006940F0400008614FF43020FFF747FF7F
:101060000446042C1BD17948006941F6DF71084021
:10107000764908610846006940F01000086176482A
:101080000580E002FFF733FF0446052C10D06F48BF
:10109000006941F6EF7108406C49086108E0052CD1
:1010A00006D06A48006941F6EF7108406749086157
:1010B000204630BD78B506460C4604250020009039
:1010C000E802FFF714FF0546042D24D15F480069AC
:1010D00040F001005D4908613480E802FFF707FF36
:1010E0000546042D10D1B01C0090200C00990880FA
:1010F000E802FFF7FCFE05465448006941F6FE7120
:1011000008405249086106E05048006941F6FE7106
:1011100008404E490861284678BD70B504460D4622
:101120000426F002FFF7E3FE0646042E11D14748DD
:10113000006940F00100454908612580F002FFF791
:10114000D6FE06464148006941F6FE7108403F4917
:101150000861304670BD70B505460E460424E002B5
:10116000FFF7C5FE0446042C17D13948374988607B
:10117000384888600846006940F0100008612E80F9
:10118000E002FFF7B4FE0446052C06D02F480069A4
:1011900041F6EF7108402D490861204670BD2DE9E8
:1011A000F04304464FF6FF763746B046B146042575
:1011B000E443E6B2C4F30727C4F307484FEA1469CF
:1011C000E802FFF794FE0546042D49D120481F4947
:1011D0008860204888600846006940F01000086177
:1011E000FF2E06D01C4808300680E802FFF77FFE7D
:1011F0000546042D08D1FF2F06D017480A30078076
:10120000E802FFF774FE0546042D0AD1B8F1FF0F7E
:1012100007D011480C30A0F80080E802FFF767FE05
:101220000546042D0AD1B9F1FF0F07D00A480E3048
:10123000A0F80090E802FFF75AFE0546052D0FD0F2
:101240000248006941F6EF71084007E000200240C3
:1012500023016745AB89EFCD00F8FF1F66490861A0
:101260002846BDE8F08330B5054604244FF430200D
:10127000FFF73DFE0446042C41D160485E4988607A
:101280005F4888600846006940F020000861084611
:10129000006940F0400008614FF43020FFF727FE5E
:1012A0000446042C22D15448006941F6DF710840FD
:1012B000514908610846006940F0100008611DB1FD
:1012C00000205049088002E0A5204E4908804FF4D4
:1012D0003020FFF70CFE0446052C10D0464800696C
:1012E00041F6EF7108404449086108E0052C06D03A
:1012F0004148006941F6DF7108403F4908612046D6
:1013000030BDF0B505460E46174604243B483A4921
:1013100088603B488860E002FFF7E9FD0446042C42
:1013200019D13548006940F010003349086147F091
:10133000F800304328433349891C0880E002FFF756
:10134000D6FD0446052C06D02B48006941F6EF7106
:101350000840294908612046F0BD2748C069800837
:1013600070472548006A704700202349096811F03A
:10137000200F01D0012000E00020704729B11E4A53
:10138000126902431C4B1A6104E01B4A1269824332
:10139000194B1A61704701460020012908D1164AED
:1013A000D26912F0010F01D0012008E0002006E010
:1013B000114AD2680A4201D0012000E000207047A3
:1013C0000D49C860704704200B49C96811F0010F2E
:1013D00001D001200EE00849C96811F0040F01D0C6
:1013E000022007E00449C96811F0100F01D0032062
:1013F00000E0042070470000002002402301674500
:10140000AB89EFCD00F8FF1FDD48006840F0010018
:10141000DB49086008464068DA490840D849486016
:1014200008460068D8490840D54908600846006861
:1014300020F4802008600846406820F4FE004860E0
:101440004FF41F0088607047CD49096821F480314E
:10145000CB4A11601146096821F480211160B0F572
:10146000803F03D0B0F5802F0ED106E0C449096853
:1014700041F48031C24A116007E0C149096841F472
:10148000A021BF4A116000E000BF00BF704710B547
:1014900001460022002300204A11012A02D1B84C43
:1014A000236806E0022A02D1B54C236A01E0B44C5D
:1014B000636A01F01F02012494401C4201D0012004
:1014C00000E0002010BD38B5002000900024002569
:1014D00000BF3120FFF7DBFF05460098401C00905D
:1014E0000098B0F5A06F01D0002DF2D03120FFF7A9
:1014F000CEFF08B1012400E00024204638BD01469B
:1015000000209F4A106820F0F80040EAC1001060F7
:1015100070479E490860704702460020984B586803
:1015200020F47C1042EA01031843954B5860704741
:1015300096490866704701460020914A506820F09D
:1015400003000843506070478D48406800F00C006D
:101550007047014600208A4A506820F0F000084396
:101560005060704701460020854A506820F4E060D2
:1015700008435060704701460020814A506820F4BB
:10158000605040EAC1005060704729B17C4A527AED
:1015900002437B4B5A7204E0794A527A8243784B79
:1015A0005A7270477A490860704701460020744AB1
:1015B000506820F440400843506070470021754A4D
:1015C00011706F4A82F82010012802D0042808D137
:1015D00003E001216F4A117004E005216D4A11708A
:1015E00000E000BF00BF70476B4908607047644966
:1015F000096A0143624A11627047674944390860C9
:10160000704730B500210022002400235C4D6D6836
:1016100005F00C0121B1042905D0082923D105E0EA
:101620005E4D056022E05D4D05601FE0544D6D6824
:1016300005F47012524D6D6805F48034022505EBF7
:1016400092421CB9564D554305600BE04C4D6D68F8
:1016500015F4003F03D0524D5543056002E04F4D55
:101660005543056002E04D4D056000BF00BF444D8D
:101670006D6805F0F00109094A4D6B5C0568DD40B5
:1016800045603F4D6D6805F4E061090A454D6B5CAE
:101690004568DD4085603A4D6D6805F46051C90AC2
:1016A000404D6B5C4568DD40C560354D6D6805F4A7
:1016B0004041890B3C4D6B5CC568B5FBF3F505619A
:1016C00030BD29B12E4A526902432D4B5A6104E0C4
:1016D0002B4A526982432A4B5A61704729B1284AE2
:1016E00092690243264B9A6104E0254A926982433B
:1016F000234B9A61704729B1214AD2690243204B9A
:10170000DA6104E01E4AD26982431D4BDA617047F8
:1017100029B11B4AD2680243194BDA6004E0184A27
:10172000D2688243164BDA60704729B1144A1269B5
:101730000243134B1A6104E0114A12698243104BB1
:101740001A61704714494039086070470F49C864EE
:1017500070470B49C87170470948406A40F0807073
:1017600007494862704701460020054A92680A42CC
:1017700001D0012000E000207047014988727047C5
:10178000001002400000FFF8FFFFF6FE000042429A
:10179000D8004242201002408004424200127A00E7
:1017A00000093D0014000020240000204FF47A714D
:1017B00041434FF47A7251430C4A11600C49096855
:1017C00041F080710A4A11600A49096841F001013B
:1017D000084A11607047002105E0002200E0521C19
:1017E000012AFCDB491C8142F7D370472800002006
:1017F000FCED00E0001000E02DE9F84307460C4640
:1018000015461E46DDF8208001213846FFF766FFA9
:10181000ADF800508DF802608DF8038069462046CF
:10182000FEF736FFBDE8F883B84A11880A131303A0
:10183000C1F3032203EB0223C1F3031203EB0212F1
:1018400001F00F031A4491B24D22027043224270FC
:10185000552282704322C27061220271702242714D
:101860003A2282714FF47A7291FBF2F232B14FF464
:101870007A7291FBF2F23032C27101E02022C27121
:101880004FF47A7291FBF2F302FB1312642392FB82
:10189000F3F230320272642291FBF2F302FB131274
:1018A0000A2392FBF3F2303242720A2291FBF2F3E6
:1018B00002FB1312303282724B22C2726222027316
:1018C000704770B50446924805682A4691A12046A3
:1018D00002F08EFE70BD924A0A4002438C4B0833E0
:1018E0001A60704710B504462046FEF703FE10BD8F
:1018F000F8B504460D4617461E463046FFF7F2FF80
:101900008DF800708DF801408DF8025001208DF89F
:1019100003006846FEF7F3FDF8BD00B500208149DD
:101920000861C8601420486100208861C8610846C9
:10193000006840F001000860084640687A490840A5
:101940007849486008460068784908407549086049
:101950000846006820F4802008600846406820F4AB
:10196000FE0048600020886000214FF00060FFF713
:10197000B2FF00BD10B566481030006840F00400AA
:101980006349103108606748C06940F0805065497C
:10199000C8616748406840F48070654948600846FF
:1019A000006840F0040008600846006840F002004B
:1019B0000860FEF73FFC10BD5E4855490C310860D9
:1019C00070475849896941F00101564A91615A4965
:1019D000496821F0E061584A51601146496841EA7E
:1019E00000615160704730B504460025FFF795FF50
:1019F0004C48006840F480304A49086000BF4948BC
:101A00000068400CFBD04FF4806046494860A01E3F
:101A1000C4B20846406840EA8440486008464068CE
:101A200040F4803048604548006840F03200434947
:101A300008603C48006840F080703A49086000BF88
:101A400038480068400EFBD03648406840F002003D
:101A50003449486005E033484068C0F3870505F025
:101A60000305022DF7D130BD01460A2091FBF0F2AB
:101A700000FB12100A2291FBF2F240EA0210C0B2FF
:101A80007047014601F00F000A1102EB820200EBE1
:101A90004200C0B2704701464FF47A7091FBF0F0FB
:101AA00000034FF47A7291FBF2F302FB13126423EA
:101AB00092FBF3F240EA02201A4691FBF2F302FB9A
:101AC00013120A2392FBF3F240EA02101A4691FB2A
:101AD000F2F302FB1312104380B270470146081361
:101AE0004FF47A725043C1F3032202EBC20303EBBB
:101AF000021200EB8200C1F3031202EB820200EB40
:101B0000420001F00F02104480B27047E0F7FF1F5F
:101B100000ED00E04350552049443A253038580044
:101B200080FFFF1F001002400000FFF8FFFFF6FEDD
:101B3000007000400400FA0500000140002002404F
:101B4000014600BF704700BF5B4A128812F0400F89
:101B5000FAD0C2B2584B1B1D1A80704710B586B020
:101B6000044655480C30008840F4807052490C31CE
:101B700008800846008840F0200008804FF4A063E9
:101B8000252203210846FFF7B3FE012144F2040099
:101B9000FFF7A4FD4848FEF7C7FE4FF40070ADF80C
:101BA000140003208DF8160018208DF8170005A9E1
:101BB0004248FEF76DFD4FF48060ADF8140004203C
:101BC0008DF8170005A93D48FEF762FD019400203D
:101BD000ADF80800ADF80A00ADF80C00ADF8100043
:101BE0000C20ADF80E0001A93348FEF7E0FE0122FB
:101BF00040F225513048FEF772FF01212E48FEF7D2
:101C000062FF06B010BD10B540F225512A48FFF71B
:101C10004BF800284FD02848FEF7C6FFC4B228482A
:101C2000008810F4004F46D12548008810F4804FFA
:101C300027D00A2C1ED00D2021490988C1F30D019F
:101C4000204A50541E480088401C1D490880084600
:101C50000088C0F30D0011460C5419480088401C40
:101C600017490880084600884BF6FF710840144960
:101C7000088020E01248008840F4004010490880A5
:101C800019E00D2C06D10E48008840F480400C4924
:101C9000088010E00A480088C0F30D0009490C5480
:101CA00007480088401C06490880084600883E28EE
:101CB00001DD0020088010BD00380140000801400F
:101CC0002C0000201804002008B50422694667484B
:101CD00000F068FA9DF8000008BD38B504460422FB
:101CE0002146624800F06AFA042269465F4800F023
:101CF00059FA20789DF80010884201D1012038BDA2
:101D00000020FCE738B56FF07E4400214FF400005E
:101D1000FFF7F1FC01210420FFF7E0FC4FF4C05075
:101D2000ADF8000010208DF8030002208DF80200AD
:101D300069464F48FEF7ACFC4FF4C0514C48FEF7E3
:101D400054FD00BF2000A4F10104FBD138BD38B51B
:101D5000484C00214FF40000FFF7CDFC0121042086
:101D6000FFF7BCFC4FF4C050ADF8000010208DF818
:101D7000030002208DF8020069463D48FEF788FC0A
:101D80004FF4C0513A48FEF72EFD3948FEF720FCCB
:101D90003948FFF720FD38BD10B502F0F6FAFFF71D
:101DA000B1FF10BD08B535480068009000243048E8
:101DB000FEF70EFC3248FEF70BFC3148FEF708FC3C
:101DC000FEF75CFC00F06EF800F030F9FFF77CFFE6
:101DD000D8B9012080F3108800BFFFF7DDFF294844
:101DE000006829490840B0F1005F0ED125484068DD
:101DF00026490860084600682549086021490868A6
:101E0000FEF711FA2248006880470A20214908702D
:101E1000214908701F4800780871FFF773FFFFF72A
:101E200096FF01F088FD01F09EFD00F09FFF41F656
:101E3000FF7400BF2000A4F10104FBD18DF8000065
:101E40006846FFF74AFF0FE0641C42F21070FFF78C
:101E5000C2FC142C08D1114800686FEA0000104938
:101E6000C1F898014FF00004EEE7000000F8010807
:101E700000080140FFFF0100A08601006C49000836
:101E8000000C0140000001080000FE2F400000206F
:101E90003C000020340000203500002098812142C1
:101EA0000080214208B501210820FFF717FC4FF4FC
:101EB0007C70ADF8000010208DF8030002208DF832
:101EC000020069461F48FEF7E3FB01210820FFF7E7
:101ED00005FC0320ADF8000004208DF8030002206B
:101EE0008DF8020069461748FEF7D2FB8020ADF856
:101EF000000003208DF8020010208DF803006946D1
:101F00001148FEF7C5FB80210F48FEF76EFC40210B
:101F10000C48FEF768FC10210A48FEF764FC4FF4F9
:101F200080710848FEF75FFC80210648FEF75BFCE5
:101F300020210448FEF757FC4FF400710148FEF7DA
:101F400052FC08BD000C01400008014008B5012109
:101F50001420FFF7C3FB3C20ADF8000002208DF8F1
:101F6000020048208DF8030069468448FEF790FB84
:101F70000120ADF8000028208DF803006946804854
:101F8000FEF786FB08BD10B5044614B101207D495B
:101F900008707C480078002830D07B48006860B129
:101FA0007A48006848B17A48006830B179480068DA
:101FB00018B179480068012820D142F21070FFF76B
:101FC0000AFC00206F4908706F48006808B90120BA
:101FD00010BD6E48006808B90220F9E76C48006837
:101FE00008B90320F4E76B48006808B90420EFE75C
:101FF00069480068012817D10520E9E762480068B0
:10200000012811D16148006801280DD1604800689D
:10201000012809D15F480068012805D15E480068A1
:1020200010B90120574908700020D1E71FB50121E0
:102030001D20FFF753FB4FF40040ADF80C00482083
:102040008DF80F0002208DF80E0003A94C48FEF712
:102050001FFB4EF20400ADF80C0048208DF80F0075
:1020600002208DF80E0003A94C48FEF711FB4FF437
:10207000C040ADF80C0048208DF80F0002208DF80C
:102080000E0003A93D48FEF703FB01210920FFF7DD
:1020900025FB01214248FEF7CAFB0820ADF80C00E1
:1020A00048208DF80F0002208DF80E0003A93B4850
:1020B000FEF7EEFA4FF4E060FEF71CFA08208DF808
:1020C000000000208DF801008DF8020001208DF83D
:1020D00003006846FEF713FA09208DF8000000207F
:1020E0008DF801008DF8020001208DF8030068468C
:1020F000FEF705FA28208DF8000000208DF8010079
:102100008DF8020001208DF803006846FEF7F7F90C
:102110000420FEF792FE0820FEF78FFE4FF40050D9
:10212000FEF78BFE4FF48040FEF787FE4FF4004031
:10213000FEF783FE0F210020FEF7BEFB02210120E7
:10214000FEF7BAFB03210120FEF7B6FB0D210220AA
:10215000FEF7B2FB0E210220FEF7AEFB4EF20C00A2
:10216000019000208DF8080010208DF80900012052
:102170008DF80A0001A8FEF7E9FD1FBD001001401F
:102180000008014044000020080122420C012242C4
:10219000100122421401224200012142000C0140A0
:1021A0000002300010B50B46002100BF03E010F81C
:1021B000014B5C54491C9142F9DB10BD2DE9F047FD
:1021C00007460D4614464FF00008C246C146E117C7
:1021D00004EB91718910B4EB810107D02046E1171F
:1021E00004EB91718910491CCCB205E02046E1173F
:1021F00004EB9171C1F387042046E11704EB915180
:10220000891201F10109FEF740FE3520FFF7D8F8E9
:102210004FF0000809E04FF4806101FB0870FEF701
:1022200079FE1349087008F10108C84503D2104827
:1022300000780428EFD012E015F8016B15F8011BA7
:1022400046EA012615F8011B46EA014615F8011B6E
:1022500046EA016631463846FEF72CFF3F1D200056
:10226000A4F10101CCB2E7D1FEF71BFEBDE8F08777
:102270004500002010B504462CB90120FE4909682C
:102280000882002010BDFD49096808688047FA48A7
:1022900000680A30F6E710B5F7480068C078F849DA
:1022A0004978884213DCF4480068807878B9F248AD
:1022B0000068808858B9F0480068C078EE4909681D
:1022C0008872EE49096848688047002010BD0220E6
:1022D000FCE710B504462CB90120E74909680882DB
:1022E000002010BDE549096888688047E248006819
:1022F0000C30F6E710B5E04B1B68D978DE4B1B6855
:102300005879E04B1B689A6990470446DA480068A0
:10231000807AE8B13CB9D8480068007918B9D64845
:102320000068807808B1022010BD8CB9D3490968D3
:10233000C8688047D04800684079CF490968C872AA
:10234000CD480068C078CC49096808730020EBE7E5
:102350000220E9E710B504462CB90220C6490968F5
:102360000882002010BD0020C7490880C2480068CC
:10237000007810F07F0F23D1BF490968487A10F028
:10238000200F06D0C049097841F00201BE4A117001
:1023900005E0BD49097801F0FD01BB4A117010F05C
:1023A000400F06D0B849097841F00101B64A1170D2
:1023B00005E0B549097801F0FE01B34A117036E035
:1023C000AD480068007800F07F00012801D1AE48D8
:1023D000C8E7A9480068007800F07F00022824D1EF
:1023E000A54A1268517901F00F0011F0800F0DD04D
:1023F000A64A52F8202002F03002102A14D1A24A34
:10240000127842F00102A04B1A700DE09F4A52F878
:10241000202002F44052B2F5805F05D19A4A12782A
:1024200042F00102984B1A7001E000209AE79349AC
:10243000096808698047944894E72DE9F0478E4879
:102440000068007800F07F08B8F1000F0AD18A48D0
:102450000068407A00F0DF00874909684872002070
:10246000BDE8F087B8F1020F7ED18348006840884C
:1024700018B981480068007908B10220F0E7DFF858
:1024800000927D480068477927F080052C467A48FD
:102490000068407910F0800F05D07C4850F8240087
:1024A00000F0300604E0794850F8240000F440566B
:1024B00099F80000A84204D91EB16F480068807ADC
:1024C00008B90220CCE717F0800F0ED06F4850F803
:1024D000240000F0300010283FD1E0B200F0B3FF3C
:1024E000E0B2302100F05BFE37E0684850F824008D
:1024F00000F44050B0F5805F2FD1C4B9644A92F81F
:102500002C10E0B201F026F8604951F824104BF687
:102510008F7201EA020080F4805080F4005040F491
:10252000004141F08001594A42F8241015E0E0B220
:1025300000F073FF554951F824104BF68F7201EAF1
:10254000020080F4805080F4005040F4004141F0DB
:1025500080014E4A42F8241000BF48490968486982
:10256000804700207CE7FFE700BF022078E72DE9E5
:10257000F04141480068467926F080073C463E48D5
:102580000068407910F0800F05D0404850F82400D2
:1025900000F0300504E03D4850F8240000F44055B8
:1025A00037480078A04208D933480068408820B9ED
:1025B0001DB131480068807A10B90220BDE8F08171
:1025C00016F0800F10D0314951F8241048F6BF7230
:1025D00001EA020080F0100040F4004141F0800167
:1025E0002A4A42F8241010E0284951F824104BF6EA
:1025F0008F7201EA020080F4805040F4004141F003
:102600008001224A42F8241000BF1C4909688869E9
:1026100080470020D2E710B517480068407A40F0A4
:10262000200015490968487214490968C86980473B
:10263000002010BD10B502460F480068438A32B929
:102640008888C01A0C4C24682082002010BD0868BD
:102650001844FBE72DE9F0410748006800F1100439
:102660002688A06838B336B3A588B54200D9354668
:10267000A8B2A16888470DE0500000205C0000204F
:10268000680300205400002048000020005C004047
:102690006C03002007462088401B20806088284467
:1026A0006080002000F028FF8046AAB241463846EC
:1026B00000F016FD00BF208850B14FF44050FA4999
:1026C00008800021084600F023FF3020F7490880E9
:1026D0002088A188884204DB0320F5490968087234
:1026E00018E02088002804DD0520F14909680872F7
:1026F00010E0208870B90620ED49096808720021B1
:10270000EC48006880B2801CEB4A42F81010302080
:10271000E6490880BDE8F0812DE9F047E44800680B
:1027200000F110052E88E2480068077AD6B9042F18
:1027300018D1E248007801280FD10021DD48006857
:1027400080B2801CDC4A42F810103020D749088043
:1027500000BF0020D949087003E007271020D349A3
:10276000088027E0AC88A64201D8042000E00220BF
:102770000746B44200D93446A0B2A96888478046CB
:10278000002000F0A9FE8146A2B24946404600F072
:102790008DFCA1B2002000F0BBFE2888001B288021
:1027A0006888204468803020C04908800002BE4903
:1027B000088000BFBE4909680F72BDE8F08770B598
:1027C0000226BB4800684478B9480068007810F0D9
:1027D0007F0F44D1092C03D1FFF75DFD06465FE072
:1027E000052C14D1B2480068C0787F280BDCB048B3
:1027F0000068807838B9AE480068808818B9AC485D
:102800000068807A08B1082565E0002648E0032CBE
:102810000ED1A7480068C078012807D1A4480068F5
:10282000808818B9FFF7F7FE064639E0022637E040
:10283000012C35D19E480068C07801280DD19C48F4
:102840000068808848B99A480068407A10F0200FE4
:1028500003D0FFF7F2FD064622E0022620E094486E
:102860000068007800F07F00012805D10B2C17D1FB
:10287000FFF740FD064613E08D480068007800F041
:102880007F0002280BD1012C03D1FFF7D6FD0646AD
:1028900006E0032C04D1FFF76AFE064600E002269C
:1028A0004EB1E0B2864A1268516988470646032E47
:1028B00001D109250FE00EB108250CE00625002105
:1028C0007C48006880B2801C7B4A42F8101030209F
:1028D0007649088000BF764909680D7270BD2DE900
:1028E000F84F7348006845780027BA46062D1AD17C
:1028F0006F480068007810F07F0F13D16C490968A9
:102900008878012803D16E490968CF690AE0022856
:1029100003D16B4909680F6A04E0032802D16849B2
:1029200009684F6A97E0002D65D1614800684088CA
:10293000002860D15E480068C08802285BD15C48EE
:1029400000680079002856D159480068007810F0D6
:102950007F0F06D156480068808810B9AFF20B6728
:1029600079E053480068007800F07F00012811D119
:102970004F4909684879524909688A690021904796
:10298000002868D14A480068807A002863D0AFF2F6
:102990003B6760E046480068007800F07F0002284E
:1029A00059D143480068407900F00F06404800685C
:1029B000407900F070093E480068407910F0800FBF
:1029C00006D03C48503850F8260000F0300805E0AA
:1029D0003848503850F8260000F4405839480078FC
:1029E000B04238D9B9F1000F35D1B8F1000F32D06B
:1029F000AFF29F672FE0082D08D12D4800680078BE
:102A000010F07F0F27D1AFF2937724E00A2D22D167
:102A100027480068007800F07F0001281BD1244877
:102A20000068807AB8B122480068408898B9204888
:102A30000068007978B91E480068C08801280AD16A
:102A40001B49096848791E4909688A69002190472D
:102A500008B9AFF2817757B115480068A0F812A005
:102A60001348006887610020B84700240FE0104A2F
:102A700012685078124A1268116988470446032C7C
:102A800005D109200A4909680872BDE8F88F08488D
:102A90000068008AA0F57F41FF3915D1092004495B
:102AA00009680872F1E70000600000206200002061
:102AB00050000020505C00400060004046000020B4
:102AC0005400002068030020022C03D09D480068B9
:102AD000008A20B908209B4909680872D5E79948FF
:102AE0000068007810F0800F3CD096480068C088DD
:102AF000009094480068008A0099884204D991495E
:102B000000980968088223E08E480068008A8D4991
:102B10000968C98888421BDA8A480068008A8A499D
:102B2000096891F82C10884203DA00208749087060
:102B30000EE084480068008A8349096891F82C10E7
:102B400090FBF1F201FB120010B901207F490870DF
:102B50007D48006890F82C107A4800688182FFF761
:102B6000DBFD06E003207749096808720003784915
:102B7000088000BF89E710B5764890F82C10002037
:102B800000F0E8FC6F480068007A082805D1400290
:102B90006F4908801020704908806A480068007AF0
:102BA000092801D1012010BD0020FCE738B501241F
:102BB0006A48006880B2001D694931F8100080B28F
:102BC00001EB400000905F480068007A092832D08D
:102BD000009800785B49096808700098401C0090D4
:102BE000009800785749096848700098401C009088
:102BF000009800EB44000090009931F8020B00911E
:102C000000F046FE4F4909684880009800EB4400F8
:102C10000090009931F8020B009100F039FE49490B
:102C200009688880009800EB4400009000980088B4
:102C300044490968C880012042490968087241482E
:102C40000068C08810B9FFF7BAFD01E0FFF747FE42
:102C5000FFF791FF38BD30B50146424B1A7800208E
:102C600012E0C3B23D4C503C54F8233048F68F7408
:102C7000234048F280042343C4B22343C4B2374DF7
:102C8000503D45F82430401C9042EAD341F0800387
:102C9000324C241F236030BD10B52A480068047AE6
:102CA000022C01D0042C05D1FFF736FD2548006821
:102CB000047A1CE0062C19D12248006840780528C7
:102CC0000ED120480068007810F07F0F08D11D4910
:102CD0000968C878FFF7BFFF23490968086A804779
:102CE0001949096888688047082400E008241549C4
:102CF00009680C72FFF73FFF10BD10B5114800685E
:102D0000047A022C01D0042C01D1082412E0032CF7
:102D100001D0052C05D1FFF79DFC0A480068047A14
:102D200008E0072C05D108490968C86880470824CD
:102D300000E00824034909680C72FFF71CFF10BD6E
:102D40007047000050000020540000204600002082
:102D5000600000206C03002062000020505C0040F6
:102D600000600040680300205C00002010B50848A7
:102D70000849086002200968087207480749086086
:102D8000074808490860054909680868804710BD78
:102D900058040020500000206C0300205400002044
:102DA0009C0300205C00002008B50020009015E185
:102DB000B748008800F00F00B64908700846007850
:102DC00000287DD1B4480068B449088008460088CE
:102DD00000F03000B2490880B048008800F440504C
:102DE000AE490880AC4909684BF6BF7201EA02009F
:102DF00080F4005080F0200040F4004141F0800158
:102E0000A54A1160A248008810F0100F32D1104678
:102E1000006848F60F71084011460860FFF73CFF54
:102E20009D4909684BF6BF7201EA02009B49098877
:102E300011F4805F01D080F480509849098811F422
:102E4000005F01D080F400509549098811F0100FFF
:102E500001D080F010009249098811F0200F01D0B4
:102E600080F0200081B241F4004141F080018A4AA3
:102E7000116008BD8848006880B20090BDF800006D
:102E800010F4006F36D084480068C0F30E0048F696
:102E90008F71084080490860FFF788FE7E49096805
:102EA0004BF6BF7201EA02007C49098811F4805F89
:102EB00001D080F480507949098811F4005F00E066
:102EC00052E001D080F400507549098811F0100FCC
:102ED00001D080F010007249098811F0200F01D054
:102EE00080F0200081B241F4004141F080016A4A43
:102EF0001160BEE7BDF8000010F4004F6ED06648C8
:102F00000068C0F30E0048F68F71084062490860FF
:102F1000FFF7F3FE604909684BF6BF7201EA020051
:102F20005E49098811F4805F01D080F480505B49CC
:102F3000098811F4005F01D080F4005058490988D5
:102F400011F0100F01D080F010005549098811F0E0
:102F5000200F01D080F0200081B241F4004141F007
:102F600080014D4A116084E74A4800784A4951F887
:102F7000200080B20090BDF8000010F4004F14D083
:102F80004448007851F82000C0F30E0048F68F71D5
:102F9000084040490978404A42F821003D490978F3
:102FA000491E404A52F821008047BDF8000010F049
:102FB000800F13D037480078374951F8200048F681
:102FC0000F71084033490978334A42F821003149EA
:102FD0000978491E344A52F8210080472E4844306F
:102FE000006880B22A49088010F4004F7FF4E0AEF8
:102FF00000BF3EE710B5002440E047F6FF702649C9
:10300000443108602248008800F00F002149087010
:1030100008460078204951F8200084B214F4004F8B
:1030200015D01C48007851F82000C0F30E0048F677
:103030008F71084017490978174A42F8210015494D
:103040000978491E174A52F82100804716E014F00B
:10305000800F13D00F4800780F4951F8200048F630
:103060000F7108400B4909780B4A42F821000949C1
:103070000978491E0C4A52F821008047064844301E
:10308000006880B20249088010F4004FB5D110BD2D
:10309000540300204C000020005C00406000002031
:1030A00062000020380300201C030020F0B5144605
:1030B00004F1010C4FEA6C07DFF848C00CEB410348
:1030C0003D460AE00678401C90F800C046EA0C2213
:1030D00023F8022B9B1C401C6D1E002DF2D1F0BD6D
:1030E000F0B5561C7510074E06EB41042B4605E063
:1030F00034F8047B20F8017B401C5B1E002BF7D1C9
:10310000F0BD000000600040F94908607047F848D1
:10311000006880B27047F649091D08607047F4489E
:10312000001D006880B27047F1480830006880B226
:103130007047EF490C3108607047ED480C3000686B
:1031400080B270474FF6F8710140E94A10321160C1
:103150007047E7481030006880B27047E44A403A50
:1031600042F8201070470146E148403850F82100ED
:1031700080B27047DE4A403A52F8202048F68F135A
:103180001A400A43DA4B403B43F82020704701467F
:10319000D748403850F8210000F4C060704710B59F
:1031A000D34B403B53F8203048F6BF7403EA040287
:1031B00011F0100F01D082F0100211F0200F01D099
:1031C00082F0200242F4004343F08003C84C403CAC
:1031D00044F8203010BD10B5C54B403B53F82030AB
:1031E0004BF68F7403EA040211F4805F01D082F47D
:1031F000805211F4005F01D082F4005242F4004387
:1032000043F08003BA4C403C44F8203010BD10B568
:1032100002460B461046FFF7A6FF0446012B06D1D7
:1032200024F48050B249403941F8220007E0022BD3
:1032300005D124F01000AE49403941F8220010BDFC
:103240000146AB48403850F8210000F0300070478C
:103250000146A748403850F8210000F4405070471C
:10326000A34A403A52F8202048F6BF7302EA03010D
:1032700081F0100181F0200141F4004242F080020F
:103280009B4B403B43F820207047994A403A52F804
:1032900020204BF68F7302EA030181F4805181F400
:1032A000005141F4004242F08002914B403B43F810
:1032B000202070478E49403951F8201041F4807128
:1032C00048F68F72114048F280021143884A403A12
:1032D00042F8201070478649403951F8201048F6CE
:1032E0008F62114048F280021143814A403A42F80D
:1032F000201070477E49403951F8201048F68F62FF
:10330000114048F280021143794A403A42F82010B5
:1033100070477749403951F8201041F4807148F6E0
:103320008F72114048F280021143714A403A42F8CC
:10333000201070476E49403951F8201041F48071D7
:1033400048F68F72114048F280021143684A403AB1
:1033500042F8201070476649403951F8201048F66D
:103360008F62114048F280021143614A403A42F8AC
:103370002010704701465E48403850F8210000F0A8
:103380003000102801D1012070470020FCE70146E1
:103390005748403850F8210000F44050B0F5805FA5
:1033A00001D1012070470020FCE75149403951F814
:1033B0002010C1F30E0148F68F7211404C4A403A7A
:1033C00042F8201070474A49403951F8201048F619
:1033D0000F721140464A403A42F820107047444963
:1033E000403951F8201048F68F7211404CF280029B
:1033F00011433F4A403A42F8201070473C49403957
:1034000051F8201048F68F72114048F2C002114363
:10341000374A403A42F8201070473549403951F850
:10342000201011F4804F0DD03149403951F820104F
:1034300048F68F7211404CF2800211432C4A403AF8
:1034400042F8201070472A49403951F8201011F0F5
:10345000400F0DD02649403951F8201048F68F72A0
:10346000114048F2C0021143214A403A42F820106C
:1034700070471F4A403A52F8202048F68F731A408E
:1034800048F280031A430A43194B403B43F820207B
:10349000704701461648403850F8210000F00F00F0
:1034A000704710B54A105300114A1032126892B298
:1034B00002EBC0020F4C44F8123010BD10B54A1098
:1034C00053000B4A1032126892B202EBC002121D76
:1034D000084C44F8123010BD014605481030006811
:1034E00080B200EBC100034A32F8100080B270478E
:1034F000405C0040006000400146E848006880B23F
:1035000000EBC100001DE64A32F8100080B270479F
:10351000E24A126892B202EBC002921CE04B43F8FE
:103520001210704702463E290BDD481111F01F0FA3
:1035300001D1431E98B24FF4004343EA8023136045
:1035400007E0481011F0010F01D0431C98B283022C
:103550001360704710B50246D048006880B200EB97
:10356000C200801DCE4C04EB40033E290BDD481108
:1035700011F01F0F01D1441EA0B24FF4004444EAE1
:1035800080241C6007E0481011F0010F01D0441C9A
:10359000A0B284021C6010BD0146C048006880B221
:1035A00000EBC100801CBE4A32F81000C0F30900D5
:1035B00070470146B948006880B200EBC100801D29
:1035C000B74A32F81000C0F30900704730B54B100D
:1035D0005C00B24B1B689BB203EBC003B04D45F8D7
:1035E000134053105C00AD4B1B689BB203EBC00350
:1035F0001B1D45F8134030BD10B54A105300A74AB3
:10360000126892B202EBC002A54C44F8123010BD11
:1036100010B54A105300A14A126892B202EBC002E0
:10362000121D9F4C44F8123010BD01469B480068A3
:1036300080B200EBC1009A4A32F8100080B27047A5
:1036400001469648006880B200EBC100001D944A14
:1036500032F8100080B2704730B50B46012B1FD1F5
:103660008E49096889B201EBC001891C8C4D05EBBC
:1036700041043E2A0BDD511112F01F0F01D14D1EE6
:10368000A9B24FF4004545EA8125256007E05110B5
:1036900012F0010F01D04D1CA9B28D0225600AE085
:1036A000022B08D17D49096889B201EBC001891C50
:1036B0007B4C44F81120012B1FD17849096889B24D
:1036C00001EBC001891D764D05EB41043E2A0BDD5F
:1036D000511112F01F0F01D14D1EA9B24FF4004538
:1036E00045EA8125256007E0511012F0010F01D055
:1036F0004D1CA9B28D0225600AE0022B08D1674952
:10370000096889B201EBC001891D654C44F811209C
:1037100030BD30B5034601291FD16048006880B232
:1037200000EBC300801C5E4D05EB40043E2A0BDD20
:10373000501112F01F0F01D1451EA8B24FF40045E1
:1037400045EA8025256007E0501012F0010F01D0F6
:10375000451CA8B2850225600AE0022908D14F481D
:10376000006880B200EBC300801C4D4C44F8102070
:1037700030BD30B5034601291FD14848006880B2EA
:1037800000EBC300801D464D05EB40043E2A0BDDD7
:10379000501112F01F0F01D1451EA8B24FF4004581
:1037A00045EA8025256007E0501012F0010F01D096
:1037B000451CA8B2850225600AE0022908D13748D5
:1037C000006880B200EBC300801D354C44F8102027
:1037D00030BD01463148006880B200EBC100801C5A
:1037E0002F4A32F81000C0F30900704701462B48F9
:1037F000006880B200EBC100801D294A32F8100039
:10380000C0F30900704701462448006880B200EB0D
:10381000C100801D224A32F8100010F47C4F01D004
:10382000012070471D48006880B200EBC100801C79
:103830001B4A32F810008005800D01D00220F0E70D
:103840000020EEE701290ED1144A503A52F8202008
:1038500048F68F731A4048F2C0031A430F4B503B8F
:1038600043F820200FE002290DD10C4A503A52F8BB
:10387000202048F68F731A404CF280031A43074BFE
:10388000503B43F820207047024641EA022070472F
:103890000146CAB20B1243EA02207047505C004056
:1038A0000060004000201D4908604FF43F401C4963
:1038B0000880084600881949091F086000207047E1
:1038C0002DE9F04104460E46154604F07F00FFF74F
:1038D00003FE0746AAB239463046FFF7E7FBA9B216
:1038E00004F07F00FFF714FE0020BDE8F0812DE911
:1038F000F04104460E46002504F07F00FFF759FE14
:10390000054604F07F00FFF7F7FD07462A463946D3
:103910003046FFF7E5FB2846BDE8F081445C0040F7
:103920005A00002018B10021614A116002E0012113
:103930005F4A1160704710B5FDF7A7FA00F026FE48
:103940000120FFF7EFFF4FF48020FDF776FA4FF4E8
:103950008020584908600820487101208871084675
:10396000FDF7F4F910BD10B50020FDF71BFE012195
:10397000C805FDF7C0FE10BD03204F490860704721
:1039800010B54E4CA07A18B105204B49086002E0F2
:10399000012049490860FCF72DFD10BD08B528201D
:1039A00003230122464900900420FDF725FF012052
:1039B0004049086000200871082048710120887182
:1039C0000846FDF7C3F906203E4908700F204870ED
:1039D00088700120C8700846FCF791FD08BD10B53D
:1039E00004213948FCF7E5FE10BD10B54FF4A06086
:1039F000FCF780FD14203349087001204870002036
:103A000088700120C8700846FCF779FD2A202D49EE
:103A10000870002048700120C8700846FCF76FFD50
:103A200010BD0020FFF77EFF00BF2848006800F4AB
:103A3000E06027490843001D24490860BFF3408F18
:103A400000BF00BFFEE730B50B46002100BF16E007
:103A50000A24B4EB107F05D9302404EB107403F86A
:103A6000114005E0412404EB10740A3C03F81140B6
:103A7000000100254C00641C1D554C1CE1B2914214
:103A8000E6DB30BD70B513480468001D0568001DF5
:103A90000668344454B108220F492046FFF7D3FF8B
:103AA00004220D4910312846FFF7CDFF70BD0000FC
:103AB00098012342680000200804002058040020D8
:103AC0000008014070000020000C01400CED00E0F7
:103AD0000000FA05E8F7FF1FF300002010B588B0DA
:103AE000002465480068654908800846008800F49D
:103AF000004063490988084201D0FFF755F95F4843
:103B0000008800F480605E490988084206D04FF6BC
:103B1000FF30594908605B4948688047574800882A
:103B200000F4005056490988084203D04DF6FF7052
:103B3000514908605148008800F480505049098874
:103B4000084206D04EF6FF704B490860002000F096
:103B5000AEFC4A48008800F40060494909880842E0
:103B60000CD04948007810B100F01DFC02E00220A2
:103B700000F09DFC4FF2FF703F4908603F4800880D
:103B800000F400703E490988084208D04FF6FF5003
:103B9000394908603D480078401C3C490870374866
:103BA000008800F4807036490988084261D04FF6D9
:103BB000FF6031490860081D006810F4004F52D0C2
:103BC00033480068401C32490860084600680328F2
:103BD0004CD92948001F006810F0080F46D126482C
:103BE000001F006880B22B490860002407E02248CB
:103BF000443850F8240080B24DF82400641C082C8E
:103C0000F5D32448006840F00100224908600846C6
:103C1000006880B21849091F08601E48006820F03B
:103C200001001C4908600846006880B21249091F5B
:103C3000086000BF1048006810F4806FFAD04FF69B
:103C4000FF300D490860002407E05DF8240080B2D1
:103C50000949443941F82400641C082CF5D300209C
:103C60000B49086002E0002009490860072000F0C5
:103C70001EFC08B010BD0000445C0040540300204E
:103C80005A0000206C0300200C04002010030020C8
:103C9000140300201803002010B5FD4CFFF7F2FEBE
:103CA0000020A07200F056FBFFF7FCFDFFF79DFE21
:103CB0000020F849086010BD10B50020F449887252
:103CC000F548C079F549096848720020F449086050
:103CD000F3485038006848F68F11084040F40070EF
:103CE000EF4950390860096848F6BF7201EA0200DE
:103CF00080F0200040F4004141F08001E84A503A51
:103D000011601021E648006880B2001DE54A42F8C3
:103D10001010E54890F82C100020FFF71BFC5021F4
:103D2000DF48006880B2DF4A42F81010DE4890F8A1
:103D30002C100020FFF7ECFB0020FFF7DBFA00203F
:103D4000FFF7A3FA0020FEF786FF0120D1490860A3
:103D500010BDCF48817A11B10521CE4A116070475C
:103D60000420CC4908607047704710B50020CF4947
:103D70000860CF480068007D10F0040F0BD00620CB
:103D8000CC49087008460078CB490871002048707B
:103D90008870C87010BD0820C649087008460078B1
:103DA000C5490871002048708870C870FFF739FE57
:103DB00000BFEFE770B5B64D6878032877D1BD48EE
:103DC0000078042875D1BD48006800284ED1BC4851
:103DD000007818B9BB480068012857D0B848007867
:103DE00021281DD1B7480068052819D1B44840786A
:103DF000B5490860B2488078096801EB0020B249F3
:103E00000860AF48C078096801EB0040AE4908601F
:103E1000AB480079096801EB0060AB49086035E008
:103E2000A7480078412831D1A648006805282DD13F
:103E3000A3484078A4490860A1488078096801EB4C
:103E40000020A14908609E48C078096801EB004045
:103E50009D4908609A480079096801EB00609A4919
:103E600008600846006800F093FB0FE09348006884
:103E700001280BD991480068801E9349096801EB1D
:103E8000802490480168204600F089FB00208D497D
:103E900008608A490860032086490870084600784F
:103EA00085490871002048708870C87070BD07E0AF
:103EB000FFE780480078072802D1FFF756FFF5E7B3
:103EC00000BFF3E710B504467A480078032802D013
:103ED000062851D12AE07B480068D8B104207549F2
:103EE000087008460078744908717448006850B931
:103EF00073480078412806D10A46002172480068BC
:103F000000F06FFB11E06C4A01216F48006800F07F
:103F100068FB0AE005206749087008460078664992
:103F20000871002048708870C87026E05F480068FB
:103F300001280CD107205F490870084600785E49C7
:103F400008710120487000208870C87013E057483D
:103F5000006880B956480068007D10F0040F0AD050
:103F6000022054490870084600785349087100201F
:103F700048708870C87000E000BF00BF2CB90620F0
:103F8000464909680882002010BD4B48FCE70146FD
:103F900029B90120414A1268108200207047454823
:103FA000FCE7F0B502463A49CC788B784348036089
:103FB00000680002414F386038460068204438608D
:103FC000CC798B793F480460006800023D4F38602F
:103FD00038460068184438604D8A0320354F3870E1
:103FE00038460078344F387136480088401B86B216
:103FF00022B92A48006806820020F0BD30482844D3
:10400000FBE72DE9F05F0546214C4FF0000AD3464F
:10401000E778A6782948066000680002274908600A
:104020000846006838440860E779A67925480760A3
:1040300000680002234908600846006830440860B0
:1040400016480068B0F812801C480068F0BB0846AB
:104050000068032803D902201649087002E00920ED
:1040600014490870134800781349087100204870FB
:104070008870C870124908702120487041208870EB
:104080002DBB03200549096808820020BDE8F09F88
:104090005804002008040020860000205000002062
:1040A000505C0040006000406C0300206003002072
:1040B000C8030020340000203500002058030020F1
:1040C000940400205C0300206403002002E0964872
:1040D000BDE8F09F95480068012827D90920944938
:1040E000087008460078934908710020487088706D
:1040F000C8708E480068801E8F49096801EB802BCC
:104100008E480168584600F06BFA82468B4800885A
:10411000A0EB08001FFA80F92DB989480068A0F8C3
:1041200010900020D4E70AEB0800D1E70F20804967
:104130000870084600787F49087100204870887030
:10414000C87000BFC4E770B5044600257C4800680D
:10415000007800F07F00212828D1022C0AD1744871
:104160000078022803D072480078092802D1AFF203
:104170006D151DE0012C0DD16D480078022803D08B
:104180006B480078052805D1032069490870AFF213
:10419000ED150DE0052C02D1AFF20D2508E0032C42
:1041A00002D1AFF2DF2503E0022070BD0220FCE760
:1041B0000DB90220F9E76248006885610021604876
:1041C000006841820020A8470020EEE701465C48D5
:1041D0000068007800F07F00212879D1012917D1EB
:1041E00053480078052803D05148007802286FD141
:1041F0000120544A106006204D4A107000204D4A9C
:1042000050709070D0704A4800781071002070474C
:1042100002290CD10220464A10700020454A5070F5
:104220009070D0704248007810710020EFE70429A8
:1042300023D13F4800780A280ED102203C4A107052
:1042400000203C4A107050709070D0703848007850
:104250001071002050710EE00A20354A10700E20B7
:10426000344A1070002050709070D0703048007840
:104270001071002050710020C9E7062928D12C4870
:10428000007802280FD02A48007803280BD028484D
:104290000078052807D026480078062803D024484F
:1042A0000078092811D10220214A10700020214AEB
:1042B000107050709070D0701D4800781071002000
:1042C00050711A4A10601D4A106000209FE7FFE7F6
:1042D00002209CE710B504461B492046FEF7AAF9C8
:1042E00010BD10B5044619492046FEF7A3F910BDCC
:1042F00070B5054612480068C478082C01DD00201E
:1043000070BD134800EBC4012846FEF793F9F7E7A8
:104310000246032901DD02207047022A01DD022046
:10432000FAE70020F8E7000094040020580300207A
:104330003400002035000020640300205C030020CE
:104340005000002060030020C0030020C8030020AC
:10435000D003002010B50120FFF7E4FA01248448BF
:10436000046000208349088008460088804908606E
:104370000020091D08604FF4E0507E49088008467F
:1043800000887B490860002010BD10B501207849E5
:1043900008600020091D0860FFF7C4FA0320744973
:1043A0000860002010BD18B50021002200230093F2
:1043B0006F4B1B6898B200BF08E06D4B403B53F851
:1043C00021309BB26C4C44F82130491C0829F4D3AD
:1043D00040F48060664B186040F00100186020F0E7
:1043E0000100186000BF624B1B1D1B6813F4806F37
:1043F000F9D04FF6FF335E4C241D2360002108E006
:104400005D4B53F821309BB2594C403C44F821306D
:10441000491C0829F4D340F00800554B18601B686C
:1044200098B240F00400524B1860544B1B68009344
:10443000524B1A6822F0030242F001021A60504BFC
:104440001B6843F004034E4C2360494B1B1D1B6843
:1044500013F4805F06D130BF23461B6823F00403AA
:10446000236014E04EF6FF73414C241D2360231F8C
:104470001B6898B220F00800231F18603F4C009B77
:1044800023603F4B1B6823F004033D4C236018BDA1
:1044900010B53748006884B224F00404344804603E
:1044A000FFF76EFA4FF43F403149086010BD70B518
:1044B0000546072D01D0334805703248007808289A
:1044C0004ED2DFE800F004111A202B384E4F2E4850
:1044D000006828B9FFF7DCFF06202A49087002E0CF
:1044E00005202849087041E0FFF7D2FF0420254944
:1044F000087001202449086038E0022021494870F2
:104500000320087032E01F484078401E1D49487063
:104510000846407808B90420087027E0144800686D
:1045200084B244F010041248046005201549087054
:104530000A2048701AE013484078401E114948701C
:104540000846407858B90A48006884B224F010043C
:10455000074804600620087000200B49086005E049
:1045600000BF00BF06200749087000BF00BF70BD34
:10457000405C00405A00002074040020007000409D
:1045800010ED00E01404002010040020002070470B
:1045900010B504462046FCF7BDFC002010BD70B5E8
:1045A00006460D46002415F0030F0CD02C4603E000
:1045B000FF200D490855641C4FF6FC7105EA010007
:1045C000001DA042F4D8002406E0074801593046F7
:1045D000FCF770FD361D241DAC42F6D3002070BDE3
:1045E0007047034600207047940400207047000085
:1045F0000FB41CB5074B06AA7B446946009005988A
:1046000000F065F90020694600F074F91CBC5DF803
:1046100014FB0000F902000070B5044685690068CB
:10462000C10601D5302600E02026C00708D070BDA5
:10463000D4E9012130469047206A00F10100206250
:104640006D1EF5D570BD70B5044685690078C0074C
:1046500008D170BDD4E9012120209047206A00F1E3
:10466000010020626D1EF5D570BD000070B50446D6
:104670000D4621461068AFF300802188090502D558
:10468000104A7A4402E00F4A7A440E32002104F1C3
:10469000240307E000F00F064FEA1010965D5E5409
:1046A00001F101010028F5D103462078000704D567
:1046B000702D02D009B1113202232046BDE87040AE
:1046C00000F0A4B8EA0200002DE9F05F8946044634
:1046D0004FF0000ADFF828B1FB44C0F820A02046C4
:1046E000E168884700287CD0252806D0D4E901213C
:1046F0009047206A401C2062F1E700255F46204673
:10470000E16888472028064608DB312E06D207EBF1
:10471000060010F8200C08B10543F0E7A80701D502
:1047200025F00405C4F81CA00027C4F818A02A2E00
:1047300009D0304600F012F938B304EB8708303E58
:10474000C8F8186019E059F8041B204604EB8702EA
:104750009161E1688847012F064618D1E069002879
:1047600020DA25F020051DE0D8F8180000EB8000C5
:1047700006EB40003038C8F818002046E16888474A
:10478000064600F0EBF80028EED1012F0AD02E2EBD
:1047900008D12046E16888477F1C0646022F45F075
:1047A0002005C4DBA069002803DA404245F001057A
:1047B000A061E80701D025F0100596B1A6F14100EF
:1047C000192802D8203645F400654A46314620466D
:1047D00025604D46FBF706FD60B1012807D0ED1DB1
:1047E00000E009E025F0070000F1080977E705F18E
:1047F000040974E7304679E7206ABDE8F09F0000BD
:10480000BC02000070477047704770472DE9F047C1
:104810000D4699469246044600F124080168880630
:1048200004D5E06921F01001216000E00120A842D8
:1048300002DDA0EB050700E00027A16907EB0502F8
:1048400002EB0900A1EB0000A0612078C00602D4B1
:104850002046FFF7E1FE002608E0D4E901211AF81E
:1048600006009047206A401C761C20624E45F4DB0F
:104870002078C0060AD52046FFF7CEFE06E0D4E930
:10488000012130209047206A401C2062381EA7F189
:104890000107F4DC07E0D4E9012118F8050090478E
:1048A000206A401C2062281EA5F10105F3DC204689
:1048B000FFF7C9FE2078000602D50220BDE8F08788
:1048C0000120FBE701694A1C02610878704700B5C6
:1048D0008FB0CDE901310021059105497944CDE939
:1048E000031011466846FFF7EFFE0FB000BD000051
:1048F000E5FFFFFF0A6802F8010B0A607047754682
:1049000000F028F8AE4605006946534620F007003F
:10491000854618B020B5FBF79DFCBDE820404FF060
:1049200000064FF000074FF000084FF0000B21F099
:104930000701AC46ACE8C009ACE8C009ACE8C00966
:10494000ACE8C0098D4670470446AFF300802046AE
:10495000FBF75AFC004870479408002030380A28BA
:1049600001D20120704700207047000001000000C4
:104970003031323334353637383941424344454695
:10498000403058003031323334353637383961628F
:104990006364656640307800040000080000000091
:1049A000000000020001000010000000CC490008D7
:1049B00000000020180400006C0100085C4B000897
:1049C00018040020E00A0000C80100081184A24A6F
:1049D00004680901020304060708090C6910051C94
:1049E000020406087A014201261312013201164020
:1049F000830411DF1A0266150109022D1301012C2F
:104A00008020094B1DFE010204092A01091A05092B
:104A10002A0209260609210BFF100B041A010403C0
:104A200009042603531254124D12691263127212B2
:104A30006F12651A6C0412633A740E3A6E18127390
:104A40005A14261233123212201244124612559A68
:104A50001A14E1146203401A493C1A744A1A720883
:104A60001A61541A20341A6C0A12731A680C122034
:104A7000122F12301A78041A3804890229161236B5
:104A80003A2A0C12321A4B301A2C081A350E891495
:104A90005A676212531A5066C9581A3A043A4D328C
:104AA0001A50487A3466C902122F1A31241A38541F
:104AB0002924495201101A6A62124E124F0A1552E5
:104AC0006212395A57465A4666294CE9CC298A2936
:104AD000D0091868092A6A0A17476A69D04908097B
:104AE000326A3A536A12475A4C44093C6AF11341FC
:104AF0002D0A3208040112250108010113993C1BFB
:104B000008B90413693D1B08B5041347411B08CDC0
:104B1000041311431408D5421B08E3041AF104419D
:104B20005A40801A53280916681A611C22743320CF
:104B3000121A8608322D1AB30832041AB708322620
:104B40001ADD0832141AF108321A130B01332062ED
:0C4B50005A6D081ACF086A6AA6B100006E
:0400000508000131BD
:00000001FF
